{"contracts/Treasury.sol":{"Treasury":{"abi":[{"inputs":[],"stateMutability":"nonpayable","type":"constructor"},{"inputs":[],"name":"AccessControlBadConfirmation","type":"error"},{"inputs":[{"internalType":"address","name":"account","type":"address"},{"internalType":"bytes32","name":"neededRole","type":"bytes32"}],"name":"AccessControlUnauthorizedAccount","type":"error"},{"inputs":[{"internalType":"address","name":"target","type":"address"}],"name":"AddressEmptyCode","type":"error"},{"inputs":[{"internalType":"address","name":"implementation","type":"address"}],"name":"ERC1967InvalidImplementation","type":"error"},{"inputs":[],"name":"ERC1967NonPayable","type":"error"},{"inputs":[],"name":"EnforcedPause","type":"error"},{"inputs":[{"internalType":"uint256","name":"amount","type":"uint256"},{"internalType":"uint256","name":"limit","type":"uint256"}],"name":"ExceedsWithdrawLimit","type":"error"},{"inputs":[],"name":"ExpectedPause","type":"error"},{"inputs":[],"name":"FailedCall","type":"error"},{"inputs":[{"internalType":"uint256","name":"requested","type":"uint256"},{"internalType":"uint256","name":"available","type":"uint256"}],"name":"InsufficientBalance","type":"error"},{"inputs":[],"name":"InvalidAmount","type":"error"},{"inputs":[],"name":"InvalidInitialization","type":"error"},{"inputs":[{"internalType":"uint256","name":"amount","type":"uint256"},{"internalType":"uint256","name":"min","type":"uint256"},{"internalType":"uint256","name":"max","type":"uint256"}],"name":"InvalidInvestmentAmount","type":"error"},{"inputs":[],"name":"InvalidPrice","type":"error"},{"inputs":[],"name":"InvalidReferrer","type":"error"},{"inputs":[],"name":"NotInitializing","type":"error"},{"inputs":[],"name":"PriceExpired","type":"error"},{"inputs":[],"name":"ProductNotActive","type":"error"},{"inputs":[],"name":"ReentrancyGuardReentrantCall","type":"error"},{"inputs":[],"name":"RewardAlreadyClaimed","type":"error"},{"inputs":[],"name":"RewardPeriodNotStarted","type":"error"},{"inputs":[{"internalType":"address","name":"token","type":"address"}],"name":"SafeERC20FailedOperation","type":"error"},{"inputs":[],"name":"TransferFailed","type":"error"},{"inputs":[],"name":"UUPSUnauthorizedCallContext","type":"error"},{"inputs":[{"internalType":"bytes32","name":"slot","type":"bytes32"}],"name":"UUPSUnsupportedProxiableUUID","type":"error"},{"inputs":[],"name":"UnauthorizedAccess","type":"error"},{"anonymous":false,"inputs":[{"indexed":true,"internalType":"address","name":"user","type":"address"},{"indexed":false,"internalType":"uint256","name":"totalAmount","type":"uint256"},{"indexed":false,"internalType":"uint256","name":"count","type":"uint256"}],"name":"BatchDeposit","type":"event"},{"anonymous":false,"inputs":[{"indexed":true,"internalType":"address","name":"user","type":"address"},{"indexed":false,"internalType":"uint256","name":"amount","type":"uint256"},{"indexed":true,"internalType":"bytes32","name":"orderId","type":"bytes32"},{"indexed":false,"internalType":"uint256","name":"timestamp","type":"uint256"}],"name":"Deposited","type":"event"},{"anonymous":false,"inputs":[{"indexed":true,"internalType":"address","name":"user","type":"address"},{"indexed":false,"internalType":"uint256","name":"amount","type":"uint256"},{"indexed":true,"internalType":"bytes32","name":"orderId","type":"bytes32"},{"indexed":false,"internalType":"uint256","name":"timestamp","type":"uint256"}],"name":"ETHDeposited","type":"event"},{"anonymous":false,"inputs":[{"indexed":true,"internalType":"address","name":"to","type":"address"},{"indexed":false,"internalType":"uint256","name":"amount","type":"uint256"},{"indexed":true,"internalType":"address","name":"operator","type":"address"},{"indexed":false,"internalType":"uint256","name":"timestamp","type":"uint256"}],"name":"EmergencyWithdraw","type":"event"},{"anonymous":false,"inputs":[{"indexed":false,"internalType":"uint64","name":"version","type":"uint64"}],"name":"Initialized","type":"event"},{"anonymous":false,"inputs":[{"indexed":false,"internalType":"uint256","name":"dailyLimit","type":"uint256"},{"indexed":false,"internalType":"uint256","name":"singleLimit","type":"uint256"},{"indexed":true,"internalType":"address","name":"operator","type":"address"}],"name":"LimitsUpdated","type":"event"},{"anonymous":false,"inputs":[{"indexed":false,"internalType":"address","name":"account","type":"address"}],"name":"Paused","type":"event"},{"anonymous":false,"inputs":[{"indexed":false,"internalType":"uint256","name":"newRate","type":"uint256"},{"indexed":false,"internalType":"uint256","name":"timestamp","type":"uint256"},{"indexed":true,"internalType":"address","name":"operator","type":"address"}],"name":"PriceUpdated","type":"event"},{"anonymous":false,"inputs":[{"indexed":true,"internalType":"address","name":"user","type":"address"},{"indexed":false,"internalType":"enum Treasury.ProductType","name":"productType","type":"uint8"},{"indexed":false,"internalType":"uint256","name":"amount","type":"uint256"},{"indexed":false,"internalType":"uint256","name":"tokenId","type":"uint256"}],"name":"ProductPurchased","type":"event"},{"anonymous":false,"inputs":[{"indexed":true,"internalType":"address","name":"user","type":"address"},{"indexed":false,"internalType":"enum Treasury.ProductType","name":"productType","type":"uint8"},{"indexed":false,"internalType":"uint256","name":"ethAmount","type":"uint256"},{"indexed":false,"internalType":"uint256","name":"tokenId","type":"uint256"},{"indexed":false,"internalType":"uint256","name":"timestamp","type":"uint256"}],"name":"ProductPurchasedWithETH","type":"event"},{"anonymous":false,"inputs":[{"indexed":false,"internalType":"enum Treasury.ProductType","name":"productType","type":"uint8"},{"indexed":false,"internalType":"string","name":"name","type":"string"},{"indexed":false,"internalType":"uint256","name":"minInvestment","type":"uint256"},{"indexed":false,"internalType":"uint256","name":"maxInvestment","type":"uint256"},{"indexed":false,"internalType":"uint256","name":"apr","type":"uint256"},{"indexed":false,"internalType":"uint256","name":"duration","type":"uint256"},{"indexed":false,"internalType":"bool","name":"isActive","type":"bool"}],"name":"ProductUpdated","type":"event"},{"anonymous":false,"inputs":[{"indexed":true,"internalType":"address","name":"referrer","type":"address"},{"indexed":true,"internalType":"address","name":"user","type":"address"},{"indexed":false,"internalType":"uint256","name":"amount","type":"uint256"},{"indexed":false,"internalType":"uint256","name":"timestamp","type":"uint256"}],"name":"ReferralCommissionPaid","type":"event"},{"anonymous":false,"inputs":[{"indexed":true,"internalType":"address","name":"user","type":"address"},{"indexed":true,"internalType":"address","name":"referrer","type":"address"},{"indexed":false,"internalType":"uint256","name":"timestamp","type":"uint256"}],"name":"ReferralSet","type":"event"},{"anonymous":false,"inputs":[{"indexed":true,"internalType":"address","name":"user","type":"address"},{"indexed":true,"internalType":"uint256","name":"period","type":"uint256"},{"indexed":false,"internalType":"uint256","name":"amount","type":"uint256"},{"indexed":false,"internalType":"uint256","name":"timestamp","type":"uint256"}],"name":"RewardClaimed","type":"event"},{"anonymous":false,"inputs":[{"indexed":true,"internalType":"uint256","name":"period","type":"uint256"},{"indexed":false,"internalType":"uint256","name":"totalReward","type":"uint256"},{"indexed":false,"internalType":"uint256","name":"timestamp","type":"uint256"}],"name":"RewardPeriodStarted","type":"event"},{"anonymous":false,"inputs":[{"indexed":true,"internalType":"bytes32","name":"role","type":"bytes32"},{"indexed":true,"internalType":"bytes32","name":"previousAdminRole","type":"bytes32"},{"indexed":true,"internalType":"bytes32","name":"newAdminRole","type":"bytes32"}],"name":"RoleAdminChanged","type":"event"},{"anonymous":false,"inputs":[{"indexed":true,"internalType":"bytes32","name":"role","type":"bytes32"},{"indexed":true,"internalType":"address","name":"account","type":"address"},{"indexed":true,"internalType":"address","name":"sender","type":"address"}],"name":"RoleGranted","type":"event"},{"anonymous":false,"inputs":[{"indexed":true,"internalType":"bytes32","name":"role","type":"bytes32"},{"indexed":true,"internalType":"address","name":"account","type":"address"},{"indexed":true,"internalType":"address","name":"sender","type":"address"}],"name":"RoleRevoked","type":"event"},{"anonymous":false,"inputs":[{"indexed":false,"internalType":"address","name":"account","type":"address"}],"name":"Unpaused","type":"event"},{"anonymous":false,"inputs":[{"indexed":true,"internalType":"address","name":"implementation","type":"address"}],"name":"Upgraded","type":"event"},{"anonymous":false,"inputs":[{"indexed":true,"internalType":"address","name":"to","type":"address"},{"indexed":false,"internalType":"uint256","name":"amount","type":"uint256"},{"indexed":true,"internalType":"address","name":"operator","type":"address"},{"indexed":true,"internalType":"bytes32","name":"reason","type":"bytes32"},{"indexed":false,"internalType":"uint256","name":"timestamp","type":"uint256"}],"name":"Withdrawal","type":"event"},{"anonymous":false,"inputs":[{"indexed":true,"internalType":"address","name":"to","type":"address"},{"indexed":false,"internalType":"uint256","name":"amount","type":"uint256"},{"indexed":true,"internalType":"address","name":"operator","type":"address"},{"indexed":true,"internalType":"bytes32","name":"reason","type":"bytes32"},{"indexed":false,"internalType":"uint256","name":"timestamp","type":"uint256"}],"name":"Withdrawn","type":"event"},{"inputs":[],"name":"DEFAULT_ADMIN_ROLE","outputs":[{"internalType":"bytes32","name":"","type":"bytes32"}],"stateMutability":"view","type":"function"},{"inputs":[],"name":"OPERATOR_ROLE","outputs":[{"internalType":"bytes32","name":"","type":"bytes32"}],"stateMutability":"view","type":"function"},{"inputs":[],"name":"PAUSER_ROLE","outputs":[{"internalType":"bytes32","name":"","type":"bytes32"}],"stateMutability":"view","type":"function"},{"inputs":[],"name":"UPGRADE_INTERFACE_VERSION","outputs":[{"internalType":"string","name":"","type":"string"}],"stateMutability":"view","type":"function"},{"inputs":[],"name":"WITHDRAWER_ROLE","outputs":[{"internalType":"bytes32","name":"","type":"bytes32"}],"stateMutability":"view","type":"function"},{"inputs":[{"internalType":"uint256[]","name":"amounts","type":"uint256[]"},{"internalType":"bytes32[]","name":"orderIds","type":"bytes32[]"}],"name":"batchDeposit","outputs":[],"stateMutability":"nonpayable","type":"function"},{"inputs":[{"internalType":"uint256","name":"period","type":"uint256"}],"name":"claimPeriodReward","outputs":[],"stateMutability":"nonpayable","type":"function"},{"inputs":[],"name":"claimReferralCommission","outputs":[],"stateMutability":"nonpayable","type":"function"},{"inputs":[],"name":"currentRewardPeriod","outputs":[{"internalType":"uint256","name":"","type":"uint256"}],"stateMutability":"view","type":"function"},{"inputs":[],"name":"dailyWithdrawLimit","outputs":[{"internalType":"uint256","name":"","type":"uint256"}],"stateMutability":"view","type":"function"},{"inputs":[{"internalType":"uint256","name":"","type":"uint256"}],"name":"dailyWithdrawn","outputs":[{"internalType":"uint256","name":"","type":"uint256"}],"stateMutability":"view","type":"function"},{"inputs":[{"internalType":"uint256","name":"amount","type":"uint256"},{"internalType":"bytes32","name":"orderId","type":"bytes32"}],"name":"deposit","outputs":[],"stateMutability":"nonpayable","type":"function"},{"inputs":[{"internalType":"address","name":"to","type":"address"},{"internalType":"uint256","name":"amount","type":"uint256"}],"name":"emergencyWithdraw","outputs":[],"stateMutability":"nonpayable","type":"function"},{"inputs":[],"name":"emergencyWithdraw","outputs":[],"stateMutability":"nonpayable","type":"function"},{"inputs":[],"name":"ethToUsdtRate","outputs":[{"internalType":"uint256","name":"","type":"uint256"}],"stateMutability":"view","type":"function"},{"inputs":[],"name":"getBalance","outputs":[{"internalType":"uint256","name":"","type":"uint256"}],"stateMutability":"view","type":"function"},{"inputs":[],"name":"getCurrentPriceInfo","outputs":[{"internalType":"uint256","name":"rate","type":"uint256"},{"internalType":"uint256","name":"lastUpdate","type":"uint256"},{"internalType":"bool","name":"isValid","type":"bool"}],"stateMutability":"view","type":"function"},{"inputs":[],"name":"getETHBalance","outputs":[{"internalType":"uint256","name":"","type":"uint256"}],"stateMutability":"view","type":"function"},{"inputs":[{"internalType":"uint256","name":"period","type":"uint256"}],"name":"getPeriodRewardInfo","outputs":[{"internalType":"uint256","name":"totalReward","type":"uint256"},{"internalType":"bool","name":"claimed","type":"bool"}],"stateMutability":"view","type":"function"},{"inputs":[{"internalType":"enum Treasury.ProductType","name":"productType","type":"uint8"}],"name":"getProductInfo","outputs":[{"components":[{"internalType":"string","name":"name","type":"string"},{"internalType":"uint256","name":"minInvestment","type":"uint256"},{"internalType":"uint256","name":"maxInvestment","type":"uint256"},{"internalType":"uint256","name":"apr","type":"uint256"},{"internalType":"uint256","name":"duration","type":"uint256"},{"internalType":"bool","name":"isActive","type":"bool"}],"internalType":"struct Treasury.ProductInfo","name":"","type":"tuple"}],"stateMutability":"view","type":"function"},{"inputs":[{"internalType":"bytes32","name":"role","type":"bytes32"}],"name":"getRoleAdmin","outputs":[{"internalType":"bytes32","name":"","type":"bytes32"}],"stateMutability":"view","type":"function"},{"inputs":[],"name":"getTodayWithdrawn","outputs":[{"internalType":"uint256","name":"","type":"uint256"}],"stateMutability":"view","type":"function"},{"inputs":[],"name":"getTotalETHDeposits","outputs":[{"internalType":"uint256","name":"","type":"uint256"}],"stateMutability":"view","type":"function"},{"inputs":[{"internalType":"address","name":"user","type":"address"}],"name":"getUserDeposits","outputs":[{"internalType":"uint256","name":"","type":"uint256"}],"stateMutability":"view","type":"function"},{"inputs":[{"internalType":"address","name":"user","type":"address"}],"name":"getUserETHDeposits","outputs":[{"internalType":"uint256","name":"","type":"uint256"}],"stateMutability":"view","type":"function"},{"inputs":[{"internalType":"address","name":"user","type":"address"}],"name":"getUserInvestments","outputs":[{"internalType":"uint256","name":"","type":"uint256"}],"stateMutability":"view","type":"function"},{"inputs":[{"internalType":"address","name":"user","type":"address"}],"name":"getUserReferralInfo","outputs":[{"internalType":"address","name":"referrer","type":"address"},{"internalType":"uint256","name":"commissionEarned","type":"uint256"},{"internalType":"uint256","name":"totalReferredUsers","type":"uint256"}],"stateMutability":"view","type":"function"},{"inputs":[{"internalType":"bytes32","name":"role","type":"bytes32"},{"internalType":"address","name":"account","type":"address"}],"name":"grantRole","outputs":[],"stateMutability":"nonpayable","type":"function"},{"inputs":[{"internalType":"bytes32","name":"role","type":"bytes32"},{"internalType":"address","name":"account","type":"address"}],"name":"hasRole","outputs":[{"internalType":"bool","name":"","type":"bool"}],"stateMutability":"view","type":"function"},{"inputs":[{"internalType":"address","name":"_usdtToken","type":"address"},{"internalType":"address","name":"_admin","type":"address"},{"internalType":"address[]","name":"_operators","type":"address[]"}],"name":"initialize","outputs":[],"stateMutability":"nonpayable","type":"function"},{"inputs":[],"name":"lastPriceUpdate","outputs":[{"internalType":"uint256","name":"","type":"uint256"}],"stateMutability":"view","type":"function"},{"inputs":[],"name":"lastRewardTime","outputs":[{"internalType":"uint256","name":"","type":"uint256"}],"stateMutability":"view","type":"function"},{"inputs":[],"name":"pause","outputs":[],"stateMutability":"nonpayable","type":"function"},{"inputs":[],"name":"paused","outputs":[{"internalType":"bool","name":"","type":"bool"}],"stateMutability":"view","type":"function"},{"inputs":[{"internalType":"uint256","name":"","type":"uint256"}],"name":"periodRewards","outputs":[{"internalType":"uint256","name":"","type":"uint256"}],"stateMutability":"view","type":"function"},{"inputs":[],"name":"priceValidityPeriod","outputs":[{"internalType":"uint256","name":"","type":"uint256"}],"stateMutability":"view","type":"function"},{"inputs":[{"internalType":"enum Treasury.ProductType","name":"","type":"uint8"}],"name":"products","outputs":[{"internalType":"string","name":"name","type":"string"},{"internalType":"uint256","name":"minInvestment","type":"uint256"},{"internalType":"uint256","name":"maxInvestment","type":"uint256"},{"internalType":"uint256","name":"apr","type":"uint256"},{"internalType":"uint256","name":"duration","type":"uint256"},{"internalType":"bool","name":"isActive","type":"bool"}],"stateMutability":"view","type":"function"},{"inputs":[],"name":"proxiableUUID","outputs":[{"internalType":"bytes32","name":"","type":"bytes32"}],"stateMutability":"view","type":"function"},{"inputs":[{"internalType":"enum Treasury.ProductType","name":"productType","type":"uint8"},{"internalType":"uint256","name":"amount","type":"uint256"}],"name":"purchaseProduct","outputs":[],"stateMutability":"nonpayable","type":"function"},{"inputs":[{"internalType":"enum Treasury.ProductType","name":"productType","type":"uint8"}],"name":"purchaseProductWithETH","outputs":[],"stateMutability":"payable","type":"function"},{"inputs":[{"internalType":"enum Treasury.ProductType","name":"productType","type":"uint8"},{"internalType":"uint256","name":"amount","type":"uint256"},{"internalType":"address","name":"referrer","type":"address"}],"name":"purchaseProductWithReferral","outputs":[],"stateMutability":"nonpayable","type":"function"},{"inputs":[],"name":"qaCard","outputs":[{"internalType":"contract QACard","name":"","type":"address"}],"stateMutability":"view","type":"function"},{"inputs":[],"name":"referralCommissionRate","outputs":[{"internalType":"uint256","name":"","type":"uint256"}],"stateMutability":"view","type":"function"},{"inputs":[{"internalType":"address","name":"","type":"address"}],"name":"referralCommissions","outputs":[{"internalType":"uint256","name":"","type":"uint256"}],"stateMutability":"view","type":"function"},{"inputs":[{"internalType":"bytes32","name":"role","type":"bytes32"},{"internalType":"address","name":"callerConfirmation","type":"address"}],"name":"renounceRole","outputs":[],"stateMutability":"nonpayable","type":"function"},{"inputs":[{"internalType":"bytes32","name":"role","type":"bytes32"},{"internalType":"address","name":"account","type":"address"}],"name":"revokeRole","outputs":[],"stateMutability":"nonpayable","type":"function"},{"inputs":[],"name":"rewardPeriodDuration","outputs":[{"internalType":"uint256","name":"","type":"uint256"}],"stateMutability":"view","type":"function"},{"inputs":[{"internalType":"address","name":"_qaCard","type":"address"}],"name":"setQACard","outputs":[],"stateMutability":"nonpayable","type":"function"},{"inputs":[{"internalType":"uint256","name":"rate","type":"uint256"}],"name":"setReferralCommissionRate","outputs":[],"stateMutability":"nonpayable","type":"function"},{"inputs":[{"internalType":"address","name":"referrer","type":"address"}],"name":"setReferrer","outputs":[],"stateMutability":"nonpayable","type":"function"},{"inputs":[{"internalType":"uint256","name":"_dailyLimit","type":"uint256"},{"internalType":"uint256","name":"_singleLimit","type":"uint256"}],"name":"setWithdrawLimits","outputs":[],"stateMutability":"nonpayable","type":"function"},{"inputs":[],"name":"singleWithdrawLimit","outputs":[{"internalType":"uint256","name":"","type":"uint256"}],"stateMutability":"view","type":"function"},{"inputs":[{"internalType":"uint256","name":"rewardAmount","type":"uint256"}],"name":"startRewardPeriod","outputs":[],"stateMutability":"nonpayable","type":"function"},{"inputs":[{"internalType":"bytes4","name":"interfaceId","type":"bytes4"}],"name":"supportsInterface","outputs":[{"internalType":"bool","name":"","type":"bool"}],"stateMutability":"view","type":"function"},{"inputs":[],"name":"totalDeposits","outputs":[{"internalType":"uint256","name":"","type":"uint256"}],"stateMutability":"view","type":"function"},{"inputs":[],"name":"totalEthDeposits","outputs":[{"internalType":"uint256","name":"","type":"uint256"}],"stateMutability":"view","type":"function"},{"inputs":[{"internalType":"address","name":"","type":"address"}],"name":"totalReferrals","outputs":[{"internalType":"uint256","name":"","type":"uint256"}],"stateMutability":"view","type":"function"},{"inputs":[],"name":"totalRewardPool","outputs":[{"internalType":"uint256","name":"","type":"uint256"}],"stateMutability":"view","type":"function"},{"inputs":[],"name":"totalWithdrawals","outputs":[{"internalType":"uint256","name":"","type":"uint256"}],"stateMutability":"view","type":"function"},{"inputs":[],"name":"unpause","outputs":[],"stateMutability":"nonpayable","type":"function"},{"inputs":[{"internalType":"uint256","name":"_dailyLimit","type":"uint256"}],"name":"updateDailyWithdrawalLimit","outputs":[],"stateMutability":"nonpayable","type":"function"},{"inputs":[{"internalType":"uint256","name":"newRate","type":"uint256"}],"name":"updateETHPrice","outputs":[],"stateMutability":"nonpayable","type":"function"},{"inputs":[{"internalType":"enum Treasury.ProductType","name":"productType","type":"uint8"},{"internalType":"string","name":"name","type":"string"},{"internalType":"uint256","name":"minInvestment","type":"uint256"},{"internalType":"uint256","name":"maxInvestment","type":"uint256"},{"internalType":"uint256","name":"apr","type":"uint256"},{"internalType":"uint256","name":"duration","type":"uint256"},{"internalType":"bool","name":"isActive","type":"bool"}],"name":"updateProduct","outputs":[],"stateMutability":"nonpayable","type":"function"},{"inputs":[{"internalType":"address","name":"newImplementation","type":"address"},{"internalType":"bytes","name":"data","type":"bytes"}],"name":"upgradeToAndCall","outputs":[],"stateMutability":"payable","type":"function"},{"inputs":[],"name":"usdtToken","outputs":[{"internalType":"contract IERC20","name":"","type":"address"}],"stateMutability":"view","type":"function"},{"inputs":[{"internalType":"address","name":"","type":"address"}],"name":"userDeposits","outputs":[{"internalType":"uint256","name":"","type":"uint256"}],"stateMutability":"view","type":"function"},{"inputs":[{"internalType":"address","name":"","type":"address"}],"name":"userEthDeposits","outputs":[{"internalType":"uint256","name":"","type":"uint256"}],"stateMutability":"view","type":"function"},{"inputs":[{"internalType":"address","name":"","type":"address"}],"name":"userReferrers","outputs":[{"internalType":"address","name":"","type":"address"}],"stateMutability":"view","type":"function"},{"inputs":[{"internalType":"address","name":"","type":"address"},{"internalType":"uint256","name":"","type":"uint256"}],"name":"userRewardsClaimed","outputs":[{"internalType":"bool","name":"","type":"bool"}],"stateMutability":"view","type":"function"},{"inputs":[{"internalType":"address","name":"to","type":"address"},{"internalType":"uint256","name":"amount","type":"uint256"},{"internalType":"bytes32","name":"reason","type":"bytes32"}],"name":"withdraw","outputs":[],"stateMutability":"nonpayable","type":"function"},{"inputs":[{"internalType":"uint256","name":"amount","type":"uint256"}],"name":"withdraw","outputs":[],"stateMutability":"nonpayable","type":"function"},{"inputs":[{"internalType":"address payable","name":"to","type":"address"},{"internalType":"uint256","name":"amount","type":"uint256"}],"name":"withdrawETH","outputs":[],"stateMutability":"nonpayable","type":"function"},{"stateMutability":"payable","type":"receive"}],"evm":{"bytecode":{"linkReferences":{},"object":"60a0806040523461002a5730608052613d60908161003082396080518181816123a6015261245f0152f35b600080fdfe608080604052600436101561001d575b50361561001b57600080fd5b005b60003560e01c90816301ffc9a71461308f5750806307bc3a301461071c57806309c85e24146130715780630ac44e0214612fbc5780630ba36dcd14612f825780630c37e6bb14612e21578063106e629014612d1f57806312065fe014612c9657806312d0b23914612ac95780631767325714612a7c5780631e095c6a14612a41578063248a9ca314612a055780632a5bf6d214610c9e5780632b060a68146129ab5780632e1a7d4d146128975780632f2ff15d1461284b578063355ca9a41461282d578063355d2797146127a757806336568abe146127605780633f4ba83a146126e95780634782f779146126175780634f1ef2861461241057806352d1902d14612393578063592cce56146122d15780635c975abb146122a1578063604646271461228357806361bc8f9114611fdc57806366bf4dcf14611fb05780636949faeb14611f925780636cdd20e214611f695780636e94729814611f4d5780636f584da014611f2f57806377a24f36146114d35780637d882097146114b557806383ceb263146114975780638456cb591461143057806385f438c1146113f55780638f63489d146113ba578063903bbf4e1461136b57806391d14854146113115780639231cf74146112f3578063924bb1d01461128457806395ccea67146111635780639e35ae97146110dd578063a18a7bfc14611098578063a1fa026814610d8a578063a217fddf14610d6e578063a98ad46c14610d45578063ace687eb14610d27578063ad3cb1cc14610cdd578063c08d52af14610ca3578063c52c5c8814610c9e578063c9630cb014610be5578063ce553dbb14610ae4578063d30ef61b14610bc7578063d355271214610b6a578063d547741f14610b1e578063d5b1951314610ae4578063d74d3d7814610a85578063db2e21bc1461098e578063dbeb888814610962578063e1159cd714610944578063e1179640146107e9578063e4c2b763146107cb578063e63ab1e914610790578063e992c3dd1461073a578063f1e6d7611461071c578063f2e0fe35146106ed578063f5b541a6146106b2578063f6ae9ce314610678578063fa79f85d1461043b5763fce1e2b014610342573861000f565b346104365760203660031901126104365760043560048110156104365761039961041191600060a0604051610376816131a7565b60608152826020820152826040820152826060820152826080820152015261313e565b604051906103a6826131a7565b6103af816131fe565b8252600181015490602083019182526002810154906040840191825260038101546060850190815260ff6005600484015493608088019485520154169260a086019315158452604051968796602088525160c0602089015260e08801906132a3565b945160408701525160608601525160808501525160a084015251151560c08301520390f35b600080fd5b6020806003193601126104365760043560048110156104365761045c613444565b6104646133c5565b61046d8161313e565b9160405161047a816131a7565b610483846131fe565b81526001840154938282019485526002810154604083019081526003820154926060810193845260ff600560048501549460808401958652015416159060a08215910152610666576104d760165442613368565b6017541061065457670de0b6b3a76400006104f4601554346133b2565b04955190818710801561064a575b610623576001548451845160405163ace8eb8760e01b815233600482015260ff8a166024820152604481018b905260648101929092526084820152879187908190839060a49082906000906001600160a01b03165af1918215610617576000926105e8575b503360005260038152604060002061058034825461335b565b905561058e3460065461335b565b60065561059e60405180946133a5565b349083015260408201524260608201527fb129936007b650e1c05e0829cd20f8b7f1b8f6710255bb621c45094c6a5adbc560803392a26001600080516020613ceb83398151915255005b9080925081813d8311610610575b61060081836131dd565b8101031261043657519083610567565b503d6105f6565b6040513d6000823e3d90fd5b5160405163eafc9d5560e01b81526004810188905260248101929092526044820152606490fd5b5080518711610502565b604051632d07c67360e01b8152600490fd5b604051632cdd618760e01b8152600490fd5b34610436576020366003190112610436576001600160a01b036106996130e2565b16600052600c6020526020604060002054604051908152f35b346104365760003660031901126104365760206040517f97667070c54ef182b0f5858b034beac1b6f3089aa2d3188bb1e8929f4fa9b9298152f35b3461043657600036600319011261043657620151804204600052600a6020526020604060002054604051908152f35b34610436576000366003190112610436576020600654604051908152f35b34610436576020366003190112610436576004356107566134e9565b8060085560095460405191825260208201527f86ca55648bc4e3974630a90eca019d2bfc64c8eaa84e093d677caffa363f9cdf60403392a2005b346104365760003660031901126104365760206040517f65d7a28e3265b37a6474929f336521b332c1681b933f6cb9f3376673440d862a8152f35b34610436576000366003190112610436576020601254604051908152f35b346104365760208060031936011261043657600435906108076133c5565b3360005260118152604060002082600052815260ff60406000205416610932576012548210156109205733600052600281526040600020546005549080158015610918575b6108f0576108679084600052601084526040600020546133b2565b811561090257049081156108f05733600081815260118352604080822086835284528120805460ff19166001179055546108ab9184916001600160a01b03166133f5565b60405191825242908201527f812be816db82c66cd18ca8457005cd84689642d8ac4d38599cc6af444a2dc72a60403392a36001600080516020613ceb83398151915255005b60405163162908e360e11b8152600490fd5b634e487b7160e01b600052601260045260246000fd5b50811561084c565b604051631747cc3d60e21b8152600490fd5b604051632cfe303760e21b8152600490fd5b34610436576000366003190112610436576020601354604051908152f35b346104365760203660031901126104365760043560005260106020526020604060002054604051908152f35b34610436576000366003190112610436576109a76135a1565b6109af6133c5565b6000546040516370a0823160e01b8152306004820152906001600160a01b0316602082602481845afa91821561061757600092610a51575b5081156108f057816109fa9133906133f5565b610a068160075461335b565b60075560405190815242602082015233907fbbae553982d541d38dacb1ea468ac757f324d0e279b6e4a2958f9e894da575ff60403392a36001600080516020613ceb83398151915255005b9091506020813d602011610a7d575b81610a6d602093836131dd565b81010312610436575190826109e7565b3d9150610a60565b3461043657602036600319011261043657600435610aa16134e9565b6103e88111610aaf57600e55005b60405162461bcd60e51b815260206004820152600d60248201526c0a4c2e8ca40e8dede40d0d2ced609b1b6044820152606490fd5b34610436576020366003190112610436576001600160a01b03610b056130e2565b1660005260036020526020604060002054604051908152f35b346104365760403660031901126104365761001b600435610b3d6130f8565b9080600052600080516020613cab833981519152602052610b656001604060002001546135db565b613a91565b346104365760203660031901126104365760606001600160a01b0380610b8e6130e2565b16600052600b60205260406000205416600c602052604060002054600d6020526040600020549060405192835260208301526040820152f35b34610436576000366003190112610436576020600e54604051908152f35b3461043657604036600319011261043657600435610c01613444565b610c096133c5565b80156108f057600054610c2a908290309033906001600160a01b0316613732565b3360005260026020526040600020610c4382825461335b565b9055610c518160055461335b565b600555604051908152426020820152602435907f4eef3d1efb11f00508d9b7bb632ddcfa6da9d7105bd39f404bdd7362e6c59dbc60403392a36001600080516020613ceb83398151915255005b612f82565b34610436576020366003190112610436576001600160a01b03610cc46130e2565b16600052600d6020526020604060002054604051908152f35b3461043657600036600319011261043657610d23604051610cfd816131c2565b60058152640352e302e360dc1b60208201526040519182916020835260208301906132a3565b0390f35b34610436576000366003190112610436576020600854604051908152f35b34610436576000366003190112610436576000546040516001600160a01b039091168152602090f35b3461043657600036600319011261043657602060405160008152f35b34610436576060366003190112610436576004356004811015610436576001600160a01b036024356044358281169081810361043657610dc8613444565b610dd06133c5565b8115918215908161108d575b5061107e575b610deb8561313e565b9360405191610df9836131a7565b610e02866131fe565b8352600186015493602094858501908152600288015490604086019182526003890154956060810196875260ff600560048c01549b608084019c8d52015416159060a082159101526106665751908188108015611074575b61104d575050908291610e7587846000541630903390613732565b611035575b168015158061102b575b610f8a575b506001549151945160405163ace8eb8760e01b815233600482015260ff88166024820152604481018690526064810196909652608486015282918591168160008160a481015b03925af192831561061757600093610f5b575b5033600052600281526040600020610efb83825461335b565b9055610f098260055461335b565b600555610f1960405180956133a5565b83015260408201527f2185d7f2f2c5c679b71bf6e81f3eded9354d5c5a0cb15e714ad41ebb2d37d3eb60603392a26001600080516020613ceb83398151915255005b9080935081813d8311610f83575b610f7381836131dd565b8101031261043657519184610ee2565b503d610f69565b949091612710610f9c600e54876133b2565b049286600052600c85526040600020610fb685825461335b565b905586600052600d85526040600020938454976001890180991161101557610ecf9887965560405191825242868301527f8eadd36a0aee67beaef95bd7b130cb68a3b1a16ac68f0b395333c0db184428a260403393a391955091610e89565b634e487b7160e01b600052601160045260246000fd5b5033811415610e84565b505033600052600b8352808060406000205416610e7a565b5160405163eafc9d5560e01b81526004810189905260248101929092526044820152606490fd5b5080518811610e5a565b6110888133613b14565b610de2565b905033141586610ddc565b34610436576020366003190112610436576110b16130e2565b6001600160a01b03811633146110cb5761001b9033613b14565b604051630c22084560e31b8152600490fd5b34610436576020366003190112610436576110f66130e2565b6110fe6135a1565b6001600160a01b03168015611125576001600160601b0360a01b6001541617600155600080f35b60405162461bcd60e51b8152602060048201526016602482015275496e76616c696420514143617264206164647265737360501b6044820152606490fd5b346104365760403660031901126104365761117c6130e2565b6024356111876135a1565b61118f6133c5565b6000546040516370a0823160e01b81523060048201526001600160a01b0391821690602081602481855afa90811561061757600091611252575b5080841161123457507fbbae553982d541d38dacb1ea468ac757f324d0e279b6e4a2958f9e894da575ff9161120184866040946133f5565b61120d8460075461335b565b600755815193845242602085015233941692a36001600080516020613ceb83398151915255005b836044916040519163cf47918160e01b835260048301526024820152fd5b90506020813d60201161127c575b8161126d602093836131dd565b810103126104365751856111c9565b3d9150611260565b34610436576020366003190112610436576004356112a06134e9565b80156112e25780601555426016556040519081524260208201527f378b09391f49d01e482ba75312341912ad0652cb8aa8799b6b33b624bd65d9f260403392a2005b60405162bfc92160e01b8152600490fd5b34610436576000366003190112610436576020601454604051908152f35b346104365760403660031901126104365761132a6130f8565b600435600052600080516020613cab83398151915260205260406000209060018060a01b0316600052602052602060ff604060002054166040519015158152f35b34610436576020366003190112610436576040600435806000526010602052816000205490336000526011602052826000209060005260205260ff826000205416825191825215156020820152f35b346104365760203660031901126104365760206001600160a01b03806113de6130e2565b16600052600b825260406000205416604051908152f35b346104365760003660031901126104365760206040517f10dac8c06a04bec0b551627dad28bc00d6516b0caacd1c7b345fcdb5211334e48152f35b3461043657600036600319011261043657611449613545565b611451613444565b600080516020613ccb833981519152600160ff198254161790557f62e78cea01bee320cd4e420270b5ea74000d11b0c9f74754ebdbfc544b05a2586020604051338152a1005b34610436576000366003190112610436576020600954604051908152f35b34610436576000366003190112610436576020600554604051908152f35b34610436576060366003190112610436576114ec6130e2565b6114f46130f8565b90604435916001600160401b0383116104365736602384011215610436578260040135926001600160401b038411611c23578360051b906040519461153c60208401876131dd565b8552602460208601928201019036821161043657602401915b818310611f0f57505050600080516020613d0b83398151915254916001600160401b03831680159081611eff575b6001149081611ef5575b159081611eec575b50611eda5760016001600160401b0319841617600080516020613d0b8339815191525560ff8360401c1615611ead575b6001600160a01b03168015611e71576001600160a01b03821615611e34576115eb613bf8565b6115f3613bf8565b6115fb613bf8565b611603613bf8565b6001600080516020613ceb833981519152556001600160601b0360a01b60005416176000556402540be40060085564174876e8006009556101f4600e5562093a8060135562093a7f194201428111611015576014556000601255637735940060155542601655610e1060175560405161167b816131a7565b604051611687816131c2565b600e81526d14504814da5b1d995c8810d85c9960921b602082015281526305f5e10060208201526402540be40060408201526104b06060820152601e6080820152600160a082015260008052600460205260406000209080518051906001600160401b038211611c23576116fb845461316d565b601f8111611df0575b50602090601f8311600114611d9757928260059360a09361177c9796600092611c39575b50508160011b916000199060031b1c19161784555b602081015160018501556040810151600285015560608101516003850155608081015160048501550151151591019060ff801983541691151516179055565b604051611788816131a7565b604051611794816131c2565b600c81526b14504811dbdb190810d85c9960a21b60208201528152633b9aca006020820152640ba43b740060408201526105dc6060820152603c6080820152600160a08201526001600052600460205260406000209080518051906001600160401b038211611c2357611807845461316d565b601f8111611d53575b50602090601f8311600114611cfa57928260059360a0936118869796600092611c395750508160011b916000199060031b1c1916178455602081015160018501556040810151600285015560608101516003850155608081015160048501550151151591019060ff801983541691151516179055565b604051611892816131a7565b60405161189e816131c2565b600f81526e145048111a585b5bdb990810d85c99608a1b6020820152815264012a05f2006020820152642e90edd00060408201526107086060820152605a6080820152600160a08201526002600052600460205260406000209080518051906001600160401b038211611c2357611915845461316d565b601f8111611cb6575b50602090601f8311600114611c4457928260059360a0936119949796600092611c395750508160011b916000199060031b1c1916178455602081015160018501556040810151600285015560608101516003850155608081015160048501550151151591019060ff801983541691151516179055565b6040516119a0816131a7565b6040516119ac816131c2565b601081526f145048141b185d1a5b9d5b4810d85c9960821b602082015281526402540be400602082015264746a52880060408201526107d0606082015261016d6080820152600160a08201526003600052600460205260406000209080518051906001600160401b038211611c2357611a25845461316d565b601f8111611bdf575b50602090601f8311600114611b6857611aa89383611ac197969460059460a094600092611b5d5750508160011b916000199060031b1c1916178455602081015160018501556040810151600285015560608101516003850155608081015160048501550151151591019060ff801983541691151516179055565b611ab18161378a565b50611abb81613818565b506138c8565b5060005b8251811015611af657600581901b83016020015160019190611aef906001600160a01b0316613972565b5001611ac5565b60ff8260401c1615611b0457005b68ff000000000000000019600080516020613d0b8339815191525416600080516020613d0b833981519152557fc7f505b2f371ae2175ee4913f4499e1f2633a7b5936321eed1cdaeb6115181d2602060405160018152a1005b015190508b80611728565b908460005260206000209160005b601f1985168110611bc757509360018460059460a094611aa898611ac19b9a98601f19811610611bae575b505050811b01845561173d565b015160001960f88460031b161c191690558b8080611ba1565b91926020600181928685015181550194019201611b76565b846000526020600020601f840160051c810160208510611c1c575b601f830160051c82018110611c10575050611a2e565b60008155600101611bfa565b5080611bfa565b634e487b7160e01b600052604160045260246000fd5b015190508a80611728565b908460005260206000209160005b601f1985168110611c9e57508360a093611994979693600193600597601f19811610611c8557505050811b01845561173d565b015160001960f88460031b161c191690558a8080611ba1565b91926020600181928685015181550194019201611c52565b846000526020600020601f840160051c810160208510611cf3575b601f830160051c82018110611ce757505061191e565b60008155600101611cd1565b5080611cd1565b908460005260206000209160005b601f1985168110611d3b57508360a093611886979693600193600597601f19811610611c8557505050811b01845561173d565b91926020600181928685015181550194019201611d08565b846000526020600020601f840160051c810160208510611d90575b601f830160051c82018110611d84575050611810565b60008155600101611d6e565b5080611d6e565b908460005260206000209160005b601f1985168110611dd857508360a09361177c979693600193600597601f19811610611c8557505050811b01845561173d565b91926020600181928685015181550194019201611da5565b846000526020600020601f840160051c810160208510611e2d575b601f830160051c82018110611e21575050611704565b60008155600101611e0b565b5080611e0b565b60405162461bcd60e51b8152602060048201526015602482015274496e76616c69642061646d696e206164647265737360581b6044820152606490fd5b60405162461bcd60e51b8152602060048201526014602482015273496e76616c69642055534454206164647265737360601b6044820152606490fd5b68ffffffffffffffffff1983166801000000000000000117600080516020613d0b833981519152556115c5565b60405163f92ee8a960e01b8152600490fd5b90501585611595565b303b15915061158d565b604085901c60ff16159150611583565b82356001600160a01b038116810361043657815260209283019201611555565b34610436576000366003190112610436576020601554604051908152f35b3461043657600036600319011261043657602047604051908152f35b34610436576000366003190112610436576001546040516001600160a01b039091168152602090f35b34610436576000366003190112610436576020601654604051908152f35b3461043657602036600319011261043657600435600052600a6020526020604060002054604051908152f35b346104365760e036600319011261043657600480351015610436576001600160401b0360243581811161043657366023820112156104365781816004013511610436573660248260040135830101116104365760c4358015158103610436576120436134e9565b60405161204f816131a7565b612061368460040135602486016132fe565b815260443560208201526064356040820152608435606082015260a435608082015281151560a082015261209660043561313e565b9381518051918211611c23576120ac865461316d565b601f811161223f575b50602090601f83116001146121c55761214c93837fea088b2acd48cf08e6469ba8d937cb867a6f70de9862b7e373fda32c4d7b8fd0989460059460a094600092611c395750508160011b916000199060031b1c1916178455602081015160018501556040810151600285015560608101516003850155608081015160048501550151151591019060ff801983541691151516179055565b604051809261215d826004356133a5565b60e06020830152806004013560e0830152610100928160040135602483018585013760008483600401358501015260443560408401526064356060840152608435608084015260a43560a0840152151560c0830152601f8019916004013501168101030190a1005b908660005260206000209160005b601f198516811061222757509360018460059460a09461214c987fea088b2acd48cf08e6469ba8d937cb867a6f70de9862b7e373fda32c4d7b8fd09c98601f19811610611c8557505050811b01845561173d565b919260206001819286850151815501940192016121d3565b866000526020600020601f840160051c81016020851061227c575b601f830160051c820181106122705750506120b5565b6000815560010161225a565b508061225a565b34610436576000366003190112610436576020600754604051908152f35b3461043657600036600319011261043657602060ff600080516020613ccb83398151915254166040519015158152f35b34610436576020366003190112610436576004356122ed6134e9565b6122fc6014546013549061335b565b42106109205780604091612373575b601254600052601060205280826000205561232881600f5461335b565b600f557f4d1225938325dca72e314a20911c9ebde0d6b3f08fb075aba351e8796f8680656012549283928151908152426020820152a260001981146110155760010160125542601455005b60005461238e908290309033906001600160a01b0316613732565b61230b565b34610436576000366003190112610436577f00000000000000000000000000000000000000000000000000000000000000006001600160a01b031630036123fe5760206040517f360894a13ba1a3210667c828492db98dca3e2076cc3735a920a3ca505d382bbc8152f35b60405163703e46dd60e11b8152600490fd5b6040366003190112610436576124246130e2565b6024356001600160401b0381116104365736602382011215610436576124549036906024816004013591016132fe565b906001600160a01b037f000000000000000000000000000000000000000000000000000000000000000081163081149081156125e9575b506123fe576124986135a1565b8116906040516352d1902d60e01b8152602081600481865afa600091816125b5575b506124d857604051634c9c8ce360e01b815260048101849052602490fd5b7f360894a13ba1a3210667c828492db98dca3e2076cc3735a920a3ca505d382bbc9291929081810361259d5750823b156125845780546001600160a01b03191682179055604051907fbc7cd75a20ee27fd9adebab32041f755214dbc6bffa90cc0225b39da2e5c2d3b600080a282511561256b575060008083602061001b95519101845af4612565613375565b91613c27565b9150503461257557005b63b398979f60e01b8152600490fd5b604051634c9c8ce360e01b815260048101839052602490fd5b60249060405190632a87526960e21b82526004820152fd5b9091506020813d6020116125e1575b816125d1602093836131dd565b81010312610436575190856124ba565b3d91506125c4565b9050817f360894a13ba1a3210667c828492db98dca3e2076cc3735a920a3ca505d382bbc541614158461248b565b34610436576040366003190112610436576004356001600160a01b0381169081900361043657602435906126496134e9565b8147106126a457600080809381935af1612661613375565b501561266957005b60405162461bcd60e51b8152602060048201526013602482015272115512081d1c985b9cd9995c8819985a5b1959606a1b6044820152606490fd5b60405162461bcd60e51b815260206004820152601860248201527f496e73756666696369656e74204554482062616c616e636500000000000000006044820152606490fd5b3461043657600036600319011261043657612702613545565b600080516020613ccb833981519152805460ff81161561274e5760ff191690557f5db9ee0a495bf2e6ff9c91a7834c1ba4fdd244a5e8aa4e537bd38aeae4b073aa6020604051338152a1005b604051638dfc202b60e01b8152600490fd5b34610436576040366003190112610436576127796130f8565b336001600160a01b038216036127955761001b90600435613a91565b60405163334bd91960e11b8152600490fd5b34610436576020366003190112610436576004356004811015610436576127d061280d9161313e565b6127d9816131fe565b90600181015490600281015490600381015460ff60056004840154930154169260405196879660c0885260c08801906132a3565b946020870152604086015260608501526080840152151560a08301520390f35b34610436576000366003190112610436576020601754604051908152f35b346104365760403660031901126104365761001b60043561286a6130f8565b9080600052600080516020613cab8339815191526020526128926001604060002001546135db565b613a1c565b34610436576020366003190112610436576004356128b361346f565b6128bb613444565b6128c36133c5565b6128cc8161360e565b6000546128e590829033906001600160a01b03166133f5565b6128f18160075461335b565b600755620151804204600052600a602052604060002061291282825461335b565b905560405190808252426020830152736f7065726174696f6e616c5f776974686472617760601b809233907fd5fb189e61d5d29d4c1ae35dddf9a74b32b17616667eb42f9a36105c73bee4d360403392a460405190815242602082015233907fb3e34ddca7bfc93b361617ff32f2023b3650ce958bf594a4e5fa84f7c1a34d1460403392a46001600080516020613ceb83398151915255005b34610436576040366003190112610436576004356024356129ca6134e9565b816008558060095560405191825260208201527f86ca55648bc4e3974630a90eca019d2bfc64c8eaa84e093d677caffa363f9cdf60403392a2005b3461043657602036600319011261043657600435600052600080516020613cab8339815191526020526020600160406000200154604051908152f35b34610436576000366003190112610436576060601654612a618142613368565b60175410156015549160405192835260208301526040820152f35b34610436576040366003190112610436576001600160a01b03612a9d6130e2565b1660005260116020526040600020602435600052602052602060ff604060002054166040519015158152f35b34610436576040366003190112610436576001600160401b0360043581811161043657612afa90369060040161310e565b909160243590811161043657612b1490369060040161310e565b612b1f939193613444565b612b276133c5565b808303612c595760009360005b848110612c285750600054612b57908690309033906001600160a01b0316613732565b3360005260209160026020526040600020612b7387825461335b565b9055612b818660055461335b565b60055560005b858110612bd557868660405191825260208201527f36ba660c6b65ee17a225b58a6a8b4835a77c2bf10fc733783ef47039e222b24560403392a26001600080516020613ceb83398151915255005b80612be36001928888613335565b35612bef828587613335565b359060405190815242878201527f4eef3d1efb11f00508d9b7bb632ddcfa6da9d7105bd39f404bdd7362e6c59dbc60403392a301612b87565b94612c34868686613335565b35156108f057612c52600191612c4b888888613335565b359061335b565b9501612b34565b60405162461bcd60e51b8152602060048201526015602482015274082e4e4c2f240d8cadccee8d040dad2e6dac2e8c6d605b1b6044820152606490fd5b34610436576000366003190112610436576000546040516370a0823160e01b815230600482015290602090829060249082906001600160a01b03165afa801561061757600090612cec575b602090604051908152f35b506020813d602011612d17575b81612d06602093836131dd565b810103126104365760209051612ce1565b3d9150612cf9565b3461043657606036600319011261043657612d386130e2565b60243560443591612d4761346f565b612d4f613444565b612d576133c5565b612d608261360e565b60018060a01b0390612d77838284600054166133f5565b612d838360075461335b565b600755620151804204600052600a6020526040600020612da484825461335b565b90551682604051838152426020820152827fd5fb189e61d5d29d4c1ae35dddf9a74b32b17616667eb42f9a36105c73bee4d360403393a46040519182524260208301527fb3e34ddca7bfc93b361617ff32f2023b3650ce958bf594a4e5fa84f7c1a34d1460403393a46001600080516020613ceb83398151915255005b3461043657604036600319011261043657600435600481101561043657602435612e49613444565b612e516133c5565b612e5a8261313e565b90604051612e67816131a7565b612e70836131fe565b8152600183015490602091828201908152600285015490604083019182526003860154926060810193845260ff600560048901549860808401998a52015416159060a082159101526106665751908185108015612f78575b612f515750506000546001600160a01b0390612eeb908590309033908516613732565b33600052600b835280604060002054168015158061102b57610f8a57506001549151945160405163ace8eb8760e01b815233600482015260ff88166024820152604481018690526064810196909652608486015282918591168160008160a48101610ecf565b5160405163eafc9d5560e01b81526004810186905260248101929092526044820152606490fd5b5080518511612ec8565b34610436576020366003190112610436576001600160a01b03612fa36130e2565b1660005260026020526020604060002054604051908152f35b3461043657600036600319011261043657612fd56133c5565b33600052600c60205260406000205480156108f057336000818152600c60205260408120819055546130119183916001600160a01b03166133f5565b604051908152426020820152723932b332b93930b62fb1b7b6b6b4b9b9b4b7b760691b9033907fd5fb189e61d5d29d4c1ae35dddf9a74b32b17616667eb42f9a36105c73bee4d360403392a46001600080516020613ceb83398151915255005b34610436576000366003190112610436576020600f54604051908152f35b34610436576020366003190112610436576004359063ffffffff60e01b821680920361043657602091637965db0b60e01b81149081156130d1575b5015158152f35b6301ffc9a760e01b149050836130ca565b600435906001600160a01b038216820361043657565b602435906001600160a01b038216820361043657565b9181601f84011215610436578235916001600160401b038311610436576020808501948460051b01011161043657565b6004811015613157576000526004602052604060002090565b634e487b7160e01b600052602160045260246000fd5b90600182811c9216801561319d575b602083101461318757565b634e487b7160e01b600052602260045260246000fd5b91607f169161317c565b60c081019081106001600160401b03821117611c2357604052565b604081019081106001600160401b03821117611c2357604052565b90601f801991011681019081106001600160401b03821117611c2357604052565b906040519182600082546132118161316d565b908184526020946001916001811690816000146132815750600114613242575b505050613240925003836131dd565b565b600090815285812095935091905b8183106132695750506132409350820101388080613231565b85548884018501529485019487945091830191613250565b9250505061324094925060ff191682840152151560051b820101388080613231565b919082519283825260005b8481106132cf575050826000602080949584010152601f8019910116010190565b6020818301810151848301820152016132ae565b6001600160401b038111611c2357601f01601f191660200190565b92919261330a826132e3565b9161331860405193846131dd565b829481845281830111610436578281602093846000960137010152565b91908110156133455760051b0190565b634e487b7160e01b600052603260045260246000fd5b9190820180921161101557565b9190820391821161101557565b3d156133a0573d90613386826132e3565b9161339460405193846131dd565b82523d6000602084013e565b606090565b9060048210156131575752565b8181029291811591840414171561101557565b600080516020613ceb83398151915260028154146133e35760029055565b604051633ee5aeb560e01b8152600490fd5b60405163a9059cbb60e01b60208201526001600160a01b03909216602483015260448083019390935291815260808101916001600160401b03831182841017611c235761324092604052613b9c565b60ff600080516020613ccb833981519152541661345d57565b60405163d93c066560e01b8152600490fd5b3360009081527f395f4e35a18c2b5e556b3b2ff855307e76c0b3cc1ca71e19a70e83037e08e7b360205260409020547f10dac8c06a04bec0b551627dad28bc00d6516b0caacd1c7b345fcdb5211334e49060ff16156134cb5750565b6044906040519063e2517d3f60e01b82523360048301526024820152fd5b3360009081527f448256db8f8fb95ee3eaaf89c1051414494e85cebb6057fcf996cc3d0ccfb45660205260409020547f97667070c54ef182b0f5858b034beac1b6f3089aa2d3188bb1e8929f4fa9b9299060ff16156134cb5750565b3360009081527f75442b0a96088b5456bc4ed01394c96a4feec0f883c9494257d76b96ab1c9b6b60205260409020547f65d7a28e3265b37a6474929f336521b332c1681b933f6cb9f3376673440d862a9060ff16156134cb5750565b3360009081527fb7db2dd08fcb62d0c9e08c51941cae53c267786a0b75803fb7960902fc8ef97d602052604081205460ff16156134cb5750565b80600052600080516020613cab83398151915260205260406000203360005260205260ff60406000205416156134cb5750565b600954808211613714575060006201518042048152600a6020526040812054613637838261335b565b906008548092116136ec57505080546040516370a0823160e01b815230600482015290602090829060249082906001600160a01b03165afa9182156136e05780926136a8575b505080821161368a575050565b604492506040519163cf47918160e01b835260048301526024820152fd5b9091506020823d6020116136d8575b816136c4602093836131dd565b810103126136d5575051388061367d565b80fd5b3d91506136b7565b604051903d90823e3d90fd5b906136f98460449361335b565b9060405191639c8983d960e01b835260048301526024820152fd5b6044925060405191639c8983d960e01b835260048301526024820152fd5b6040516323b872dd60e01b60208201526001600160a01b03928316602482015292909116604483015260648083019390935291815260a08101918183106001600160401b03841117611c235761324092604052613b9c565b6001600160a01b031660008181527fb7db2dd08fcb62d0c9e08c51941cae53c267786a0b75803fb7960902fc8ef97d6020526040812054909190600080516020613cab8339815191529060ff16613813578280526020526040822081835260205260408220600160ff198254161790553391600080516020613c8b8339815191528180a4600190565b505090565b6001600160a01b031660008181527f75442b0a96088b5456bc4ed01394c96a4feec0f883c9494257d76b96ab1c9b6b60205260408120549091907f65d7a28e3265b37a6474929f336521b332c1681b933f6cb9f3376673440d862a90600080516020613cab8339815191529060ff166138c2578184526020526040832082845260205260408320600160ff19825416179055600080516020613c8b833981519152339380a4600190565b50505090565b6001600160a01b031660008181527f395f4e35a18c2b5e556b3b2ff855307e76c0b3cc1ca71e19a70e83037e08e7b360205260408120549091907f10dac8c06a04bec0b551627dad28bc00d6516b0caacd1c7b345fcdb5211334e490600080516020613cab8339815191529060ff166138c2578184526020526040832082845260205260408320600160ff19825416179055600080516020613c8b833981519152339380a4600190565b6001600160a01b031660008181527f448256db8f8fb95ee3eaaf89c1051414494e85cebb6057fcf996cc3d0ccfb45660205260408120549091907f97667070c54ef182b0f5858b034beac1b6f3089aa2d3188bb1e8929f4fa9b92990600080516020613cab8339815191529060ff166138c2578184526020526040832082845260205260408320600160ff19825416179055600080516020613c8b833981519152339380a4600190565b90600091808352600080516020613cab83398151915280602052604084209260018060a01b03169283855260205260ff604085205416156000146138c2578184526020526040832082845260205260408320600160ff19825416179055600080516020613c8b833981519152339380a4600190565b90600091808352600080516020613cab83398151915280602052604084209260018060a01b03169283855260205260ff6040852054166000146138c257818452602052604083208284526020526040832060ff1981541690557ff6391f5c32d9c69d2a47ea670b442974b53935d1edc7fd64eb21e047a839171b339380a4600190565b6001600160a01b039081166000818152600b60205260409020805493919290918482161580613b90575b613b4a575b5050505050565b1680936001600160601b0360a01b161790557fd777a1c61bd7162692fd6e6733af90c5c8828bf2e57caaba876193c1f65f125c6020604051428152a33880808080613b43565b50838282161415613b3e565b906000602091828151910182855af115610617576000513d613bef57506001600160a01b0381163b155b613bcd5750565b604051635274afe760e01b81526001600160a01b039091166004820152602490fd5b60011415613bc6565b60ff600080516020613d0b8339815191525460401c1615613c1557565b604051631afcd79f60e31b8152600490fd5b90613c4e5750805115613c3c57602081519101fd5b60405163d6bda27560e01b8152600490fd5b81511580613c81575b613c5f575090565b604051639996b31560e01b81526001600160a01b039091166004820152602490fd5b50803b15613c5756fe2f8788117e7eff1d82e926ec794901d17c78024a50270940304540a733656f0d02dd7bc7dec4dceedda775e58dd541e08a116c6c53815c0bd028192f7b626800cd5ed15c6e187e77e9aee88184c21f4f2182ab5827cb3b7e07fbedcd63f033009b779b17422d0df92223018b32b4d1fa46e071723d6817e2486d003becc55f00f0c57e16840df040f15088dc2f81fe391c3923bec73e23a9662efc9c229c6a00a2646970667358221220c19597621848f6167526575360fd43c31ec3569dd174bf5bf0f66bc22c9294fa64736f6c63430008180033","opcodes":"PUSH1 0xA0 DUP1 PUSH1 0x40 MSTORE CALLVALUE PUSH2 0x2A JUMPI ADDRESS PUSH1 0x80 MSTORE PUSH2 0x3D60 SWAP1 DUP2 PUSH2 0x30 DUP3 CODECOPY PUSH1 0x80 MLOAD DUP2 DUP2 DUP2 PUSH2 0x23A6 ADD MSTORE PUSH2 0x245F ADD MSTORE RETURN JUMPDEST PUSH1 0x0 DUP1 REVERT INVALID PUSH1 0x80 DUP1 PUSH1 0x40 MSTORE PUSH1 0x4 CALLDATASIZE LT ISZERO PUSH2 0x1D JUMPI JUMPDEST POP CALLDATASIZE ISZERO PUSH2 0x1B JUMPI PUSH1 0x0 DUP1 REVERT JUMPDEST STOP JUMPDEST PUSH1 0x0 CALLDATALOAD PUSH1 0xE0 SHR SWAP1 DUP2 PUSH4 0x1FFC9A7 EQ PUSH2 0x308F JUMPI POP DUP1 PUSH4 0x7BC3A30 EQ PUSH2 0x71C JUMPI DUP1 PUSH4 0x9C85E24 EQ PUSH2 0x3071 JUMPI DUP1 PUSH4 0xAC44E02 EQ PUSH2 0x2FBC JUMPI DUP1 PUSH4 0xBA36DCD EQ PUSH2 0x2F82 JUMPI DUP1 PUSH4 0xC37E6BB EQ PUSH2 0x2E21 JUMPI DUP1 PUSH4 0x106E6290 EQ PUSH2 0x2D1F JUMPI DUP1 PUSH4 0x12065FE0 EQ PUSH2 0x2C96 JUMPI DUP1 PUSH4 0x12D0B239 EQ PUSH2 0x2AC9 JUMPI DUP1 PUSH4 0x17673257 EQ PUSH2 0x2A7C JUMPI DUP1 PUSH4 0x1E095C6A EQ PUSH2 0x2A41 JUMPI DUP1 PUSH4 0x248A9CA3 EQ PUSH2 0x2A05 JUMPI DUP1 PUSH4 0x2A5BF6D2 EQ PUSH2 0xC9E JUMPI DUP1 PUSH4 0x2B060A68 EQ PUSH2 0x29AB JUMPI DUP1 PUSH4 0x2E1A7D4D EQ PUSH2 0x2897 JUMPI DUP1 PUSH4 0x2F2FF15D EQ PUSH2 0x284B JUMPI DUP1 PUSH4 0x355CA9A4 EQ PUSH2 0x282D JUMPI DUP1 PUSH4 0x355D2797 EQ PUSH2 0x27A7 JUMPI DUP1 PUSH4 0x36568ABE EQ PUSH2 0x2760 JUMPI DUP1 PUSH4 0x3F4BA83A EQ PUSH2 0x26E9 JUMPI DUP1 PUSH4 0x4782F779 EQ PUSH2 0x2617 JUMPI DUP1 PUSH4 0x4F1EF286 EQ PUSH2 0x2410 JUMPI DUP1 PUSH4 0x52D1902D EQ PUSH2 0x2393 JUMPI DUP1 PUSH4 0x592CCE56 EQ PUSH2 0x22D1 JUMPI DUP1 PUSH4 0x5C975ABB EQ PUSH2 0x22A1 JUMPI DUP1 PUSH4 0x60464627 EQ PUSH2 0x2283 JUMPI DUP1 PUSH4 0x61BC8F91 EQ PUSH2 0x1FDC JUMPI DUP1 PUSH4 0x66BF4DCF EQ PUSH2 0x1FB0 JUMPI DUP1 PUSH4 0x6949FAEB EQ PUSH2 0x1F92 JUMPI DUP1 PUSH4 0x6CDD20E2 EQ PUSH2 0x1F69 JUMPI DUP1 PUSH4 0x6E947298 EQ PUSH2 0x1F4D JUMPI DUP1 PUSH4 0x6F584DA0 EQ PUSH2 0x1F2F JUMPI DUP1 PUSH4 0x77A24F36 EQ PUSH2 0x14D3 JUMPI DUP1 PUSH4 0x7D882097 EQ PUSH2 0x14B5 JUMPI DUP1 PUSH4 0x83CEB263 EQ PUSH2 0x1497 JUMPI DUP1 PUSH4 0x8456CB59 EQ PUSH2 0x1430 JUMPI DUP1 PUSH4 0x85F438C1 EQ PUSH2 0x13F5 JUMPI DUP1 PUSH4 0x8F63489D EQ PUSH2 0x13BA JUMPI DUP1 PUSH4 0x903BBF4E EQ PUSH2 0x136B JUMPI DUP1 PUSH4 0x91D14854 EQ PUSH2 0x1311 JUMPI DUP1 PUSH4 0x9231CF74 EQ PUSH2 0x12F3 JUMPI DUP1 PUSH4 0x924BB1D0 EQ PUSH2 0x1284 JUMPI DUP1 PUSH4 0x95CCEA67 EQ PUSH2 0x1163 JUMPI DUP1 PUSH4 0x9E35AE97 EQ PUSH2 0x10DD JUMPI DUP1 PUSH4 0xA18A7BFC EQ PUSH2 0x1098 JUMPI DUP1 PUSH4 0xA1FA0268 EQ PUSH2 0xD8A JUMPI DUP1 PUSH4 0xA217FDDF EQ PUSH2 0xD6E JUMPI DUP1 PUSH4 0xA98AD46C EQ PUSH2 0xD45 JUMPI DUP1 PUSH4 0xACE687EB EQ PUSH2 0xD27 JUMPI DUP1 PUSH4 0xAD3CB1CC EQ PUSH2 0xCDD JUMPI DUP1 PUSH4 0xC08D52AF EQ PUSH2 0xCA3 JUMPI DUP1 PUSH4 0xC52C5C88 EQ PUSH2 0xC9E JUMPI DUP1 PUSH4 0xC9630CB0 EQ PUSH2 0xBE5 JUMPI DUP1 PUSH4 0xCE553DBB EQ PUSH2 0xAE4 JUMPI DUP1 PUSH4 0xD30EF61B EQ PUSH2 0xBC7 JUMPI DUP1 PUSH4 0xD3552712 EQ PUSH2 0xB6A JUMPI DUP1 PUSH4 0xD547741F EQ PUSH2 0xB1E JUMPI DUP1 PUSH4 0xD5B19513 EQ PUSH2 0xAE4 JUMPI DUP1 PUSH4 0xD74D3D78 EQ PUSH2 0xA85 JUMPI DUP1 PUSH4 0xDB2E21BC EQ PUSH2 0x98E JUMPI DUP1 PUSH4 0xDBEB8888 EQ PUSH2 0x962 JUMPI DUP1 PUSH4 0xE1159CD7 EQ PUSH2 0x944 JUMPI DUP1 PUSH4 0xE1179640 EQ PUSH2 0x7E9 JUMPI DUP1 PUSH4 0xE4C2B763 EQ PUSH2 0x7CB JUMPI DUP1 PUSH4 0xE63AB1E9 EQ PUSH2 0x790 JUMPI DUP1 PUSH4 0xE992C3DD EQ PUSH2 0x73A JUMPI DUP1 PUSH4 0xF1E6D761 EQ PUSH2 0x71C JUMPI DUP1 PUSH4 0xF2E0FE35 EQ PUSH2 0x6ED JUMPI DUP1 PUSH4 0xF5B541A6 EQ PUSH2 0x6B2 JUMPI DUP1 PUSH4 0xF6AE9CE3 EQ PUSH2 0x678 JUMPI DUP1 PUSH4 0xFA79F85D EQ PUSH2 0x43B JUMPI PUSH4 0xFCE1E2B0 EQ PUSH2 0x342 JUMPI CODESIZE PUSH2 0xF JUMP JUMPDEST CALLVALUE PUSH2 0x436 JUMPI PUSH1 0x20 CALLDATASIZE PUSH1 0x3 NOT ADD SLT PUSH2 0x436 JUMPI PUSH1 0x4 CALLDATALOAD PUSH1 0x4 DUP2 LT ISZERO PUSH2 0x436 JUMPI PUSH2 0x399 PUSH2 0x411 SWAP2 PUSH1 0x0 PUSH1 0xA0 PUSH1 0x40 MLOAD PUSH2 0x376 DUP2 PUSH2 0x31A7 JUMP JUMPDEST PUSH1 0x60 DUP2 MSTORE DUP3 PUSH1 0x20 DUP3 ADD MSTORE DUP3 PUSH1 0x40 DUP3 ADD MSTORE DUP3 PUSH1 0x60 DUP3 ADD MSTORE DUP3 PUSH1 0x80 DUP3 ADD MSTORE ADD MSTORE PUSH2 0x313E JUMP JUMPDEST PUSH1 0x40 MLOAD SWAP1 PUSH2 0x3A6 DUP3 PUSH2 0x31A7 JUMP JUMPDEST PUSH2 0x3AF DUP2 PUSH2 0x31FE JUMP JUMPDEST DUP3 MSTORE PUSH1 0x1 DUP2 ADD SLOAD SWAP1 PUSH1 0x20 DUP4 ADD SWAP2 DUP3 MSTORE PUSH1 0x2 DUP2 ADD SLOAD SWAP1 PUSH1 0x40 DUP5 ADD SWAP2 DUP3 MSTORE PUSH1 0x3 DUP2 ADD SLOAD PUSH1 0x60 DUP6 ADD SWAP1 DUP2 MSTORE PUSH1 0xFF PUSH1 0x5 PUSH1 0x4 DUP5 ADD SLOAD SWAP4 PUSH1 0x80 DUP9 ADD SWAP5 DUP6 MSTORE ADD SLOAD AND SWAP3 PUSH1 0xA0 DUP7 ADD SWAP4 ISZERO ISZERO DUP5 MSTORE PUSH1 0x40 MLOAD SWAP7 DUP8 SWAP7 PUSH1 0x20 DUP9 MSTORE MLOAD PUSH1 0xC0 PUSH1 0x20 DUP10 ADD MSTORE PUSH1 0xE0 DUP9 ADD SWAP1 PUSH2 0x32A3 JUMP JUMPDEST SWAP5 MLOAD PUSH1 0x40 DUP8 ADD MSTORE MLOAD PUSH1 0x60 DUP7 ADD MSTORE MLOAD PUSH1 0x80 DUP6 ADD MSTORE MLOAD PUSH1 0xA0 DUP5 ADD MSTORE MLOAD ISZERO ISZERO PUSH1 0xC0 DUP4 ADD MSTORE SUB SWAP1 RETURN JUMPDEST PUSH1 0x0 DUP1 REVERT JUMPDEST PUSH1 0x20 DUP1 PUSH1 0x3 NOT CALLDATASIZE ADD SLT PUSH2 0x436 JUMPI PUSH1 0x4 CALLDATALOAD PUSH1 0x4 DUP2 LT ISZERO PUSH2 0x436 JUMPI PUSH2 0x45C PUSH2 0x3444 JUMP JUMPDEST PUSH2 0x464 PUSH2 0x33C5 JUMP JUMPDEST PUSH2 0x46D DUP2 PUSH2 0x313E JUMP JUMPDEST SWAP2 PUSH1 0x40 MLOAD PUSH2 0x47A DUP2 PUSH2 0x31A7 JUMP JUMPDEST PUSH2 0x483 DUP5 PUSH2 0x31FE JUMP JUMPDEST DUP2 MSTORE PUSH1 0x1 DUP5 ADD SLOAD SWAP4 DUP3 DUP3 ADD SWAP5 DUP6 MSTORE PUSH1 0x2 DUP2 ADD SLOAD PUSH1 0x40 DUP4 ADD SWAP1 DUP2 MSTORE PUSH1 0x3 DUP3 ADD SLOAD SWAP3 PUSH1 0x60 DUP2 ADD SWAP4 DUP5 MSTORE PUSH1 0xFF PUSH1 0x5 PUSH1 0x4 DUP6 ADD SLOAD SWAP5 PUSH1 0x80 DUP5 ADD SWAP6 DUP7 MSTORE ADD SLOAD AND ISZERO SWAP1 PUSH1 0xA0 DUP3 ISZERO SWAP2 ADD MSTORE PUSH2 0x666 JUMPI PUSH2 0x4D7 PUSH1 0x16 SLOAD TIMESTAMP PUSH2 0x3368 JUMP JUMPDEST PUSH1 0x17 SLOAD LT PUSH2 0x654 JUMPI PUSH8 0xDE0B6B3A7640000 PUSH2 0x4F4 PUSH1 0x15 SLOAD CALLVALUE PUSH2 0x33B2 JUMP JUMPDEST DIV SWAP6 MLOAD SWAP1 DUP2 DUP8 LT DUP1 ISZERO PUSH2 0x64A JUMPI JUMPDEST PUSH2 0x623 JUMPI PUSH1 0x1 SLOAD DUP5 MLOAD DUP5 MLOAD PUSH1 0x40 MLOAD PUSH4 0xACE8EB87 PUSH1 0xE0 SHL DUP2 MSTORE CALLER PUSH1 0x4 DUP3 ADD MSTORE PUSH1 0xFF DUP11 AND PUSH1 0x24 DUP3 ADD MSTORE PUSH1 0x44 DUP2 ADD DUP12 SWAP1 MSTORE PUSH1 0x64 DUP2 ADD SWAP3 SWAP1 SWAP3 MSTORE PUSH1 0x84 DUP3 ADD MSTORE DUP8 SWAP2 DUP8 SWAP1 DUP2 SWAP1 DUP4 SWAP1 PUSH1 0xA4 SWAP1 DUP3 SWAP1 PUSH1 0x0 SWAP1 PUSH1 0x1 PUSH1 0x1 PUSH1 0xA0 SHL SUB AND GAS CALL SWAP2 DUP3 ISZERO PUSH2 0x617 JUMPI PUSH1 0x0 SWAP3 PUSH2 0x5E8 JUMPI JUMPDEST POP CALLER PUSH1 0x0 MSTORE PUSH1 0x3 DUP2 MSTORE PUSH1 0x40 PUSH1 0x0 KECCAK256 PUSH2 0x580 CALLVALUE DUP3 SLOAD PUSH2 0x335B JUMP JUMPDEST SWAP1 SSTORE PUSH2 0x58E CALLVALUE PUSH1 0x6 SLOAD PUSH2 0x335B JUMP JUMPDEST PUSH1 0x6 SSTORE PUSH2 0x59E PUSH1 0x40 MLOAD DUP1 SWAP5 PUSH2 0x33A5 JUMP JUMPDEST CALLVALUE SWAP1 DUP4 ADD MSTORE PUSH1 0x40 DUP3 ADD MSTORE TIMESTAMP PUSH1 0x60 DUP3 ADD MSTORE PUSH32 0xB129936007B650E1C05E0829CD20F8B7F1B8F6710255BB621C45094C6A5ADBC5 PUSH1 0x80 CALLER SWAP3 LOG2 PUSH1 0x1 PUSH1 0x0 DUP1 MLOAD PUSH1 0x20 PUSH2 0x3CEB DUP4 CODECOPY DUP2 MLOAD SWAP2 MSTORE SSTORE STOP JUMPDEST SWAP1 DUP1 SWAP3 POP DUP2 DUP2 RETURNDATASIZE DUP4 GT PUSH2 0x610 JUMPI JUMPDEST PUSH2 0x600 DUP2 DUP4 PUSH2 0x31DD JUMP JUMPDEST DUP2 ADD SUB SLT PUSH2 0x436 JUMPI MLOAD SWAP1 DUP4 PUSH2 0x567 JUMP JUMPDEST POP RETURNDATASIZE PUSH2 0x5F6 JUMP JUMPDEST PUSH1 0x40 MLOAD RETURNDATASIZE PUSH1 0x0 DUP3 RETURNDATACOPY RETURNDATASIZE SWAP1 REVERT JUMPDEST MLOAD PUSH1 0x40 MLOAD PUSH4 0xEAFC9D55 PUSH1 0xE0 SHL DUP2 MSTORE PUSH1 0x4 DUP2 ADD DUP9 SWAP1 MSTORE PUSH1 0x24 DUP2 ADD SWAP3 SWAP1 SWAP3 MSTORE PUSH1 0x44 DUP3 ADD MSTORE PUSH1 0x64 SWAP1 REVERT JUMPDEST POP DUP1 MLOAD DUP8 GT PUSH2 0x502 JUMP JUMPDEST PUSH1 0x40 MLOAD PUSH4 0x2D07C673 PUSH1 0xE0 SHL DUP2 MSTORE PUSH1 0x4 SWAP1 REVERT JUMPDEST PUSH1 0x40 MLOAD PUSH4 0x2CDD6187 PUSH1 0xE0 SHL DUP2 MSTORE PUSH1 0x4 SWAP1 REVERT JUMPDEST CALLVALUE PUSH2 0x436 JUMPI PUSH1 0x20 CALLDATASIZE PUSH1 0x3 NOT ADD SLT PUSH2 0x436 JUMPI PUSH1 0x1 PUSH1 0x1 PUSH1 0xA0 SHL SUB PUSH2 0x699 PUSH2 0x30E2 JUMP JUMPDEST AND PUSH1 0x0 MSTORE PUSH1 0xC PUSH1 0x20 MSTORE PUSH1 0x20 PUSH1 0x40 PUSH1 0x0 KECCAK256 SLOAD PUSH1 0x40 MLOAD SWAP1 DUP2 MSTORE RETURN JUMPDEST CALLVALUE PUSH2 0x436 JUMPI PUSH1 0x0 CALLDATASIZE PUSH1 0x3 NOT ADD SLT PUSH2 0x436 JUMPI PUSH1 0x20 PUSH1 0x40 MLOAD PUSH32 0x97667070C54EF182B0F5858B034BEAC1B6F3089AA2D3188BB1E8929F4FA9B929 DUP2 MSTORE RETURN JUMPDEST CALLVALUE PUSH2 0x436 JUMPI PUSH1 0x0 CALLDATASIZE PUSH1 0x3 NOT ADD SLT PUSH2 0x436 JUMPI PUSH3 0x15180 TIMESTAMP DIV PUSH1 0x0 MSTORE PUSH1 0xA PUSH1 0x20 MSTORE PUSH1 0x20 PUSH1 0x40 PUSH1 0x0 KECCAK256 SLOAD PUSH1 0x40 MLOAD SWAP1 DUP2 MSTORE RETURN JUMPDEST CALLVALUE PUSH2 0x436 JUMPI PUSH1 0x0 CALLDATASIZE PUSH1 0x3 NOT ADD SLT PUSH2 0x436 JUMPI PUSH1 0x20 PUSH1 0x6 SLOAD PUSH1 0x40 MLOAD SWAP1 DUP2 MSTORE RETURN JUMPDEST CALLVALUE PUSH2 0x436 JUMPI PUSH1 0x20 CALLDATASIZE PUSH1 0x3 NOT ADD SLT PUSH2 0x436 JUMPI PUSH1 0x4 CALLDATALOAD PUSH2 0x756 PUSH2 0x34E9 JUMP JUMPDEST DUP1 PUSH1 0x8 SSTORE PUSH1 0x9 SLOAD PUSH1 0x40 MLOAD SWAP2 DUP3 MSTORE PUSH1 0x20 DUP3 ADD MSTORE PUSH32 0x86CA55648BC4E3974630A90ECA019D2BFC64C8EAA84E093D677CAFFA363F9CDF PUSH1 0x40 CALLER SWAP3 LOG2 STOP JUMPDEST CALLVALUE PUSH2 0x436 JUMPI PUSH1 0x0 CALLDATASIZE PUSH1 0x3 NOT ADD SLT PUSH2 0x436 JUMPI PUSH1 0x20 PUSH1 0x40 MLOAD PUSH32 0x65D7A28E3265B37A6474929F336521B332C1681B933F6CB9F3376673440D862A DUP2 MSTORE RETURN JUMPDEST CALLVALUE PUSH2 0x436 JUMPI PUSH1 0x0 CALLDATASIZE PUSH1 0x3 NOT ADD SLT PUSH2 0x436 JUMPI PUSH1 0x20 PUSH1 0x12 SLOAD PUSH1 0x40 MLOAD SWAP1 DUP2 MSTORE RETURN JUMPDEST CALLVALUE PUSH2 0x436 JUMPI PUSH1 0x20 DUP1 PUSH1 0x3 NOT CALLDATASIZE ADD SLT PUSH2 0x436 JUMPI PUSH1 0x4 CALLDATALOAD SWAP1 PUSH2 0x807 PUSH2 0x33C5 JUMP JUMPDEST CALLER PUSH1 0x0 MSTORE PUSH1 0x11 DUP2 MSTORE PUSH1 0x40 PUSH1 0x0 KECCAK256 DUP3 PUSH1 0x0 MSTORE DUP2 MSTORE PUSH1 0xFF PUSH1 0x40 PUSH1 0x0 KECCAK256 SLOAD AND PUSH2 0x932 JUMPI PUSH1 0x12 SLOAD DUP3 LT ISZERO PUSH2 0x920 JUMPI CALLER PUSH1 0x0 MSTORE PUSH1 0x2 DUP2 MSTORE PUSH1 0x40 PUSH1 0x0 KECCAK256 SLOAD PUSH1 0x5 SLOAD SWAP1 DUP1 ISZERO DUP1 ISZERO PUSH2 0x918 JUMPI JUMPDEST PUSH2 0x8F0 JUMPI PUSH2 0x867 SWAP1 DUP5 PUSH1 0x0 MSTORE PUSH1 0x10 DUP5 MSTORE PUSH1 0x40 PUSH1 0x0 KECCAK256 SLOAD PUSH2 0x33B2 JUMP JUMPDEST DUP2 ISZERO PUSH2 0x902 JUMPI DIV SWAP1 DUP2 ISZERO PUSH2 0x8F0 JUMPI CALLER PUSH1 0x0 DUP2 DUP2 MSTORE PUSH1 0x11 DUP4 MSTORE PUSH1 0x40 DUP1 DUP3 KECCAK256 DUP7 DUP4 MSTORE DUP5 MSTORE DUP2 KECCAK256 DUP1 SLOAD PUSH1 0xFF NOT AND PUSH1 0x1 OR SWAP1 SSTORE SLOAD PUSH2 0x8AB SWAP2 DUP5 SWAP2 PUSH1 0x1 PUSH1 0x1 PUSH1 0xA0 SHL SUB AND PUSH2 0x33F5 JUMP JUMPDEST PUSH1 0x40 MLOAD SWAP2 DUP3 MSTORE TIMESTAMP SWAP1 DUP3 ADD MSTORE PUSH32 0x812BE816DB82C66CD18CA8457005CD84689642D8AC4D38599CC6AF444A2DC72A PUSH1 0x40 CALLER SWAP3 LOG3 PUSH1 0x1 PUSH1 0x0 DUP1 MLOAD PUSH1 0x20 PUSH2 0x3CEB DUP4 CODECOPY DUP2 MLOAD SWAP2 MSTORE SSTORE STOP JUMPDEST PUSH1 0x40 MLOAD PUSH4 0x162908E3 PUSH1 0xE1 SHL DUP2 MSTORE PUSH1 0x4 SWAP1 REVERT JUMPDEST PUSH4 0x4E487B71 PUSH1 0xE0 SHL PUSH1 0x0 MSTORE PUSH1 0x12 PUSH1 0x4 MSTORE PUSH1 0x24 PUSH1 0x0 REVERT JUMPDEST POP DUP2 ISZERO PUSH2 0x84C JUMP JUMPDEST PUSH1 0x40 MLOAD PUSH4 0x1747CC3D PUSH1 0xE2 SHL DUP2 MSTORE PUSH1 0x4 SWAP1 REVERT JUMPDEST PUSH1 0x40 MLOAD PUSH4 0x2CFE3037 PUSH1 0xE2 SHL DUP2 MSTORE PUSH1 0x4 SWAP1 REVERT JUMPDEST CALLVALUE PUSH2 0x436 JUMPI PUSH1 0x0 CALLDATASIZE PUSH1 0x3 NOT ADD SLT PUSH2 0x436 JUMPI PUSH1 0x20 PUSH1 0x13 SLOAD PUSH1 0x40 MLOAD SWAP1 DUP2 MSTORE RETURN JUMPDEST CALLVALUE PUSH2 0x436 JUMPI PUSH1 0x20 CALLDATASIZE PUSH1 0x3 NOT ADD SLT PUSH2 0x436 JUMPI PUSH1 0x4 CALLDATALOAD PUSH1 0x0 MSTORE PUSH1 0x10 PUSH1 0x20 MSTORE PUSH1 0x20 PUSH1 0x40 PUSH1 0x0 KECCAK256 SLOAD PUSH1 0x40 MLOAD SWAP1 DUP2 MSTORE RETURN JUMPDEST CALLVALUE PUSH2 0x436 JUMPI PUSH1 0x0 CALLDATASIZE PUSH1 0x3 NOT ADD SLT PUSH2 0x436 JUMPI PUSH2 0x9A7 PUSH2 0x35A1 JUMP JUMPDEST PUSH2 0x9AF PUSH2 0x33C5 JUMP JUMPDEST PUSH1 0x0 SLOAD PUSH1 0x40 MLOAD PUSH4 0x70A08231 PUSH1 0xE0 SHL DUP2 MSTORE ADDRESS PUSH1 0x4 DUP3 ADD MSTORE SWAP1 PUSH1 0x1 PUSH1 0x1 PUSH1 0xA0 SHL SUB AND PUSH1 0x20 DUP3 PUSH1 0x24 DUP2 DUP5 GAS STATICCALL SWAP2 DUP3 ISZERO PUSH2 0x617 JUMPI PUSH1 0x0 SWAP3 PUSH2 0xA51 JUMPI JUMPDEST POP DUP2 ISZERO PUSH2 0x8F0 JUMPI DUP2 PUSH2 0x9FA SWAP2 CALLER SWAP1 PUSH2 0x33F5 JUMP JUMPDEST PUSH2 0xA06 DUP2 PUSH1 0x7 SLOAD PUSH2 0x335B JUMP JUMPDEST PUSH1 0x7 SSTORE PUSH1 0x40 MLOAD SWAP1 DUP2 MSTORE TIMESTAMP PUSH1 0x20 DUP3 ADD MSTORE CALLER SWAP1 PUSH32 0xBBAE553982D541D38DACB1EA468AC757F324D0E279B6E4A2958F9E894DA575FF PUSH1 0x40 CALLER SWAP3 LOG3 PUSH1 0x1 PUSH1 0x0 DUP1 MLOAD PUSH1 0x20 PUSH2 0x3CEB DUP4 CODECOPY DUP2 MLOAD SWAP2 MSTORE SSTORE STOP JUMPDEST SWAP1 SWAP2 POP PUSH1 0x20 DUP2 RETURNDATASIZE PUSH1 0x20 GT PUSH2 0xA7D JUMPI JUMPDEST DUP2 PUSH2 0xA6D PUSH1 0x20 SWAP4 DUP4 PUSH2 0x31DD JUMP JUMPDEST DUP2 ADD SUB SLT PUSH2 0x436 JUMPI MLOAD SWAP1 DUP3 PUSH2 0x9E7 JUMP JUMPDEST RETURNDATASIZE SWAP2 POP PUSH2 0xA60 JUMP JUMPDEST CALLVALUE PUSH2 0x436 JUMPI PUSH1 0x20 CALLDATASIZE PUSH1 0x3 NOT ADD SLT PUSH2 0x436 JUMPI PUSH1 0x4 CALLDATALOAD PUSH2 0xAA1 PUSH2 0x34E9 JUMP JUMPDEST PUSH2 0x3E8 DUP2 GT PUSH2 0xAAF JUMPI PUSH1 0xE SSTORE STOP JUMPDEST PUSH1 0x40 MLOAD PUSH3 0x461BCD PUSH1 0xE5 SHL DUP2 MSTORE PUSH1 0x20 PUSH1 0x4 DUP3 ADD MSTORE PUSH1 0xD PUSH1 0x24 DUP3 ADD MSTORE PUSH13 0xA4C2E8CA40E8DEDE40D0D2CED PUSH1 0x9B SHL PUSH1 0x44 DUP3 ADD MSTORE PUSH1 0x64 SWAP1 REVERT JUMPDEST CALLVALUE PUSH2 0x436 JUMPI PUSH1 0x20 CALLDATASIZE PUSH1 0x3 NOT ADD SLT PUSH2 0x436 JUMPI PUSH1 0x1 PUSH1 0x1 PUSH1 0xA0 SHL SUB PUSH2 0xB05 PUSH2 0x30E2 JUMP JUMPDEST AND PUSH1 0x0 MSTORE PUSH1 0x3 PUSH1 0x20 MSTORE PUSH1 0x20 PUSH1 0x40 PUSH1 0x0 KECCAK256 SLOAD PUSH1 0x40 MLOAD SWAP1 DUP2 MSTORE RETURN JUMPDEST CALLVALUE PUSH2 0x436 JUMPI PUSH1 0x40 CALLDATASIZE PUSH1 0x3 NOT ADD SLT PUSH2 0x436 JUMPI PUSH2 0x1B PUSH1 0x4 CALLDATALOAD PUSH2 0xB3D PUSH2 0x30F8 JUMP JUMPDEST SWAP1 DUP1 PUSH1 0x0 MSTORE PUSH1 0x0 DUP1 MLOAD PUSH1 0x20 PUSH2 0x3CAB DUP4 CODECOPY DUP2 MLOAD SWAP2 MSTORE PUSH1 0x20 MSTORE PUSH2 0xB65 PUSH1 0x1 PUSH1 0x40 PUSH1 0x0 KECCAK256 ADD SLOAD PUSH2 0x35DB JUMP JUMPDEST PUSH2 0x3A91 JUMP JUMPDEST CALLVALUE PUSH2 0x436 JUMPI PUSH1 0x20 CALLDATASIZE PUSH1 0x3 NOT ADD SLT PUSH2 0x436 JUMPI PUSH1 0x60 PUSH1 0x1 PUSH1 0x1 PUSH1 0xA0 SHL SUB DUP1 PUSH2 0xB8E PUSH2 0x30E2 JUMP JUMPDEST AND PUSH1 0x0 MSTORE PUSH1 0xB PUSH1 0x20 MSTORE PUSH1 0x40 PUSH1 0x0 KECCAK256 SLOAD AND PUSH1 0xC PUSH1 0x20 MSTORE PUSH1 0x40 PUSH1 0x0 KECCAK256 SLOAD PUSH1 0xD PUSH1 0x20 MSTORE PUSH1 0x40 PUSH1 0x0 KECCAK256 SLOAD SWAP1 PUSH1 0x40 MLOAD SWAP3 DUP4 MSTORE PUSH1 0x20 DUP4 ADD MSTORE PUSH1 0x40 DUP3 ADD MSTORE RETURN JUMPDEST CALLVALUE PUSH2 0x436 JUMPI PUSH1 0x0 CALLDATASIZE PUSH1 0x3 NOT ADD SLT PUSH2 0x436 JUMPI PUSH1 0x20 PUSH1 0xE SLOAD PUSH1 0x40 MLOAD SWAP1 DUP2 MSTORE RETURN JUMPDEST CALLVALUE PUSH2 0x436 JUMPI PUSH1 0x40 CALLDATASIZE PUSH1 0x3 NOT ADD SLT PUSH2 0x436 JUMPI PUSH1 0x4 CALLDATALOAD PUSH2 0xC01 PUSH2 0x3444 JUMP JUMPDEST PUSH2 0xC09 PUSH2 0x33C5 JUMP JUMPDEST DUP1 ISZERO PUSH2 0x8F0 JUMPI PUSH1 0x0 SLOAD PUSH2 0xC2A SWAP1 DUP3 SWAP1 ADDRESS SWAP1 CALLER SWAP1 PUSH1 0x1 PUSH1 0x1 PUSH1 0xA0 SHL SUB AND PUSH2 0x3732 JUMP JUMPDEST CALLER PUSH1 0x0 MSTORE PUSH1 0x2 PUSH1 0x20 MSTORE PUSH1 0x40 PUSH1 0x0 KECCAK256 PUSH2 0xC43 DUP3 DUP3 SLOAD PUSH2 0x335B JUMP JUMPDEST SWAP1 SSTORE PUSH2 0xC51 DUP2 PUSH1 0x5 SLOAD PUSH2 0x335B JUMP JUMPDEST PUSH1 0x5 SSTORE PUSH1 0x40 MLOAD SWAP1 DUP2 MSTORE TIMESTAMP PUSH1 0x20 DUP3 ADD MSTORE PUSH1 0x24 CALLDATALOAD SWAP1 PUSH32 0x4EEF3D1EFB11F00508D9B7BB632DDCFA6DA9D7105BD39F404BDD7362E6C59DBC PUSH1 0x40 CALLER SWAP3 LOG3 PUSH1 0x1 PUSH1 0x0 DUP1 MLOAD PUSH1 0x20 PUSH2 0x3CEB DUP4 CODECOPY DUP2 MLOAD SWAP2 MSTORE SSTORE STOP JUMPDEST PUSH2 0x2F82 JUMP JUMPDEST CALLVALUE PUSH2 0x436 JUMPI PUSH1 0x20 CALLDATASIZE PUSH1 0x3 NOT ADD SLT PUSH2 0x436 JUMPI PUSH1 0x1 PUSH1 0x1 PUSH1 0xA0 SHL SUB PUSH2 0xCC4 PUSH2 0x30E2 JUMP JUMPDEST AND PUSH1 0x0 MSTORE PUSH1 0xD PUSH1 0x20 MSTORE PUSH1 0x20 PUSH1 0x40 PUSH1 0x0 KECCAK256 SLOAD PUSH1 0x40 MLOAD SWAP1 DUP2 MSTORE RETURN JUMPDEST CALLVALUE PUSH2 0x436 JUMPI PUSH1 0x0 CALLDATASIZE PUSH1 0x3 NOT ADD SLT PUSH2 0x436 JUMPI PUSH2 0xD23 PUSH1 0x40 MLOAD PUSH2 0xCFD DUP2 PUSH2 0x31C2 JUMP JUMPDEST PUSH1 0x5 DUP2 MSTORE PUSH5 0x352E302E3 PUSH1 0xDC SHL PUSH1 0x20 DUP3 ADD MSTORE PUSH1 0x40 MLOAD SWAP2 DUP3 SWAP2 PUSH1 0x20 DUP4 MSTORE PUSH1 0x20 DUP4 ADD SWAP1 PUSH2 0x32A3 JUMP JUMPDEST SUB SWAP1 RETURN JUMPDEST CALLVALUE PUSH2 0x436 JUMPI PUSH1 0x0 CALLDATASIZE PUSH1 0x3 NOT ADD SLT PUSH2 0x436 JUMPI PUSH1 0x20 PUSH1 0x8 SLOAD PUSH1 0x40 MLOAD SWAP1 DUP2 MSTORE RETURN JUMPDEST CALLVALUE PUSH2 0x436 JUMPI PUSH1 0x0 CALLDATASIZE PUSH1 0x3 NOT ADD SLT PUSH2 0x436 JUMPI PUSH1 0x0 SLOAD PUSH1 0x40 MLOAD PUSH1 0x1 PUSH1 0x1 PUSH1 0xA0 SHL SUB SWAP1 SWAP2 AND DUP2 MSTORE PUSH1 0x20 SWAP1 RETURN JUMPDEST CALLVALUE PUSH2 0x436 JUMPI PUSH1 0x0 CALLDATASIZE PUSH1 0x3 NOT ADD SLT PUSH2 0x436 JUMPI PUSH1 0x20 PUSH1 0x40 MLOAD PUSH1 0x0 DUP2 MSTORE RETURN JUMPDEST CALLVALUE PUSH2 0x436 JUMPI PUSH1 0x60 CALLDATASIZE PUSH1 0x3 NOT ADD SLT PUSH2 0x436 JUMPI PUSH1 0x4 CALLDATALOAD PUSH1 0x4 DUP2 LT ISZERO PUSH2 0x436 JUMPI PUSH1 0x1 PUSH1 0x1 PUSH1 0xA0 SHL SUB PUSH1 0x24 CALLDATALOAD PUSH1 0x44 CALLDATALOAD DUP3 DUP2 AND SWAP1 DUP2 DUP2 SUB PUSH2 0x436 JUMPI PUSH2 0xDC8 PUSH2 0x3444 JUMP JUMPDEST PUSH2 0xDD0 PUSH2 0x33C5 JUMP JUMPDEST DUP2 ISZERO SWAP2 DUP3 ISZERO SWAP1 DUP2 PUSH2 0x108D JUMPI JUMPDEST POP PUSH2 0x107E JUMPI JUMPDEST PUSH2 0xDEB DUP6 PUSH2 0x313E JUMP JUMPDEST SWAP4 PUSH1 0x40 MLOAD SWAP2 PUSH2 0xDF9 DUP4 PUSH2 0x31A7 JUMP JUMPDEST PUSH2 0xE02 DUP7 PUSH2 0x31FE JUMP JUMPDEST DUP4 MSTORE PUSH1 0x1 DUP7 ADD SLOAD SWAP4 PUSH1 0x20 SWAP5 DUP6 DUP6 ADD SWAP1 DUP2 MSTORE PUSH1 0x2 DUP9 ADD SLOAD SWAP1 PUSH1 0x40 DUP7 ADD SWAP2 DUP3 MSTORE PUSH1 0x3 DUP10 ADD SLOAD SWAP6 PUSH1 0x60 DUP2 ADD SWAP7 DUP8 MSTORE PUSH1 0xFF PUSH1 0x5 PUSH1 0x4 DUP13 ADD SLOAD SWAP12 PUSH1 0x80 DUP5 ADD SWAP13 DUP14 MSTORE ADD SLOAD AND ISZERO SWAP1 PUSH1 0xA0 DUP3 ISZERO SWAP2 ADD MSTORE PUSH2 0x666 JUMPI MLOAD SWAP1 DUP2 DUP9 LT DUP1 ISZERO PUSH2 0x1074 JUMPI JUMPDEST PUSH2 0x104D JUMPI POP POP SWAP1 DUP3 SWAP2 PUSH2 0xE75 DUP8 DUP5 PUSH1 0x0 SLOAD AND ADDRESS SWAP1 CALLER SWAP1 PUSH2 0x3732 JUMP JUMPDEST PUSH2 0x1035 JUMPI JUMPDEST AND DUP1 ISZERO ISZERO DUP1 PUSH2 0x102B JUMPI JUMPDEST PUSH2 0xF8A JUMPI JUMPDEST POP PUSH1 0x1 SLOAD SWAP2 MLOAD SWAP5 MLOAD PUSH1 0x40 MLOAD PUSH4 0xACE8EB87 PUSH1 0xE0 SHL DUP2 MSTORE CALLER PUSH1 0x4 DUP3 ADD MSTORE PUSH1 0xFF DUP9 AND PUSH1 0x24 DUP3 ADD MSTORE PUSH1 0x44 DUP2 ADD DUP7 SWAP1 MSTORE PUSH1 0x64 DUP2 ADD SWAP7 SWAP1 SWAP7 MSTORE PUSH1 0x84 DUP7 ADD MSTORE DUP3 SWAP2 DUP6 SWAP2 AND DUP2 PUSH1 0x0 DUP2 PUSH1 0xA4 DUP2 ADD JUMPDEST SUB SWAP3 GAS CALL SWAP3 DUP4 ISZERO PUSH2 0x617 JUMPI PUSH1 0x0 SWAP4 PUSH2 0xF5B JUMPI JUMPDEST POP CALLER PUSH1 0x0 MSTORE PUSH1 0x2 DUP2 MSTORE PUSH1 0x40 PUSH1 0x0 KECCAK256 PUSH2 0xEFB DUP4 DUP3 SLOAD PUSH2 0x335B JUMP JUMPDEST SWAP1 SSTORE PUSH2 0xF09 DUP3 PUSH1 0x5 SLOAD PUSH2 0x335B JUMP JUMPDEST PUSH1 0x5 SSTORE PUSH2 0xF19 PUSH1 0x40 MLOAD DUP1 SWAP6 PUSH2 0x33A5 JUMP JUMPDEST DUP4 ADD MSTORE PUSH1 0x40 DUP3 ADD MSTORE PUSH32 0x2185D7F2F2C5C679B71BF6E81F3EDED9354D5C5A0CB15E714AD41EBB2D37D3EB PUSH1 0x60 CALLER SWAP3 LOG2 PUSH1 0x1 PUSH1 0x0 DUP1 MLOAD PUSH1 0x20 PUSH2 0x3CEB DUP4 CODECOPY DUP2 MLOAD SWAP2 MSTORE SSTORE STOP JUMPDEST SWAP1 DUP1 SWAP4 POP DUP2 DUP2 RETURNDATASIZE DUP4 GT PUSH2 0xF83 JUMPI JUMPDEST PUSH2 0xF73 DUP2 DUP4 PUSH2 0x31DD JUMP JUMPDEST DUP2 ADD SUB SLT PUSH2 0x436 JUMPI MLOAD SWAP2 DUP5 PUSH2 0xEE2 JUMP JUMPDEST POP RETURNDATASIZE PUSH2 0xF69 JUMP JUMPDEST SWAP5 SWAP1 SWAP2 PUSH2 0x2710 PUSH2 0xF9C PUSH1 0xE SLOAD DUP8 PUSH2 0x33B2 JUMP JUMPDEST DIV SWAP3 DUP7 PUSH1 0x0 MSTORE PUSH1 0xC DUP6 MSTORE PUSH1 0x40 PUSH1 0x0 KECCAK256 PUSH2 0xFB6 DUP6 DUP3 SLOAD PUSH2 0x335B JUMP JUMPDEST SWAP1 SSTORE DUP7 PUSH1 0x0 MSTORE PUSH1 0xD DUP6 MSTORE PUSH1 0x40 PUSH1 0x0 KECCAK256 SWAP4 DUP5 SLOAD SWAP8 PUSH1 0x1 DUP10 ADD DUP1 SWAP10 GT PUSH2 0x1015 JUMPI PUSH2 0xECF SWAP9 DUP8 SWAP7 SSTORE PUSH1 0x40 MLOAD SWAP2 DUP3 MSTORE TIMESTAMP DUP7 DUP4 ADD MSTORE PUSH32 0x8EADD36A0AEE67BEAEF95BD7B130CB68A3B1A16AC68F0B395333C0DB184428A2 PUSH1 0x40 CALLER SWAP4 LOG3 SWAP2 SWAP6 POP SWAP2 PUSH2 0xE89 JUMP JUMPDEST PUSH4 0x4E487B71 PUSH1 0xE0 SHL PUSH1 0x0 MSTORE PUSH1 0x11 PUSH1 0x4 MSTORE PUSH1 0x24 PUSH1 0x0 REVERT JUMPDEST POP CALLER DUP2 EQ ISZERO PUSH2 0xE84 JUMP JUMPDEST POP POP CALLER PUSH1 0x0 MSTORE PUSH1 0xB DUP4 MSTORE DUP1 DUP1 PUSH1 0x40 PUSH1 0x0 KECCAK256 SLOAD AND PUSH2 0xE7A JUMP JUMPDEST MLOAD PUSH1 0x40 MLOAD PUSH4 0xEAFC9D55 PUSH1 0xE0 SHL DUP2 MSTORE PUSH1 0x4 DUP2 ADD DUP10 SWAP1 MSTORE PUSH1 0x24 DUP2 ADD SWAP3 SWAP1 SWAP3 MSTORE PUSH1 0x44 DUP3 ADD MSTORE PUSH1 0x64 SWAP1 REVERT JUMPDEST POP DUP1 MLOAD DUP9 GT PUSH2 0xE5A JUMP JUMPDEST PUSH2 0x1088 DUP2 CALLER PUSH2 0x3B14 JUMP JUMPDEST PUSH2 0xDE2 JUMP JUMPDEST SWAP1 POP CALLER EQ ISZERO DUP7 PUSH2 0xDDC JUMP JUMPDEST CALLVALUE PUSH2 0x436 JUMPI PUSH1 0x20 CALLDATASIZE PUSH1 0x3 NOT ADD SLT PUSH2 0x436 JUMPI PUSH2 0x10B1 PUSH2 0x30E2 JUMP JUMPDEST PUSH1 0x1 PUSH1 0x1 PUSH1 0xA0 SHL SUB DUP2 AND CALLER EQ PUSH2 0x10CB JUMPI PUSH2 0x1B SWAP1 CALLER PUSH2 0x3B14 JUMP JUMPDEST PUSH1 0x40 MLOAD PUSH4 0xC220845 PUSH1 0xE3 SHL DUP2 MSTORE PUSH1 0x4 SWAP1 REVERT JUMPDEST CALLVALUE PUSH2 0x436 JUMPI PUSH1 0x20 CALLDATASIZE PUSH1 0x3 NOT ADD SLT PUSH2 0x436 JUMPI PUSH2 0x10F6 PUSH2 0x30E2 JUMP JUMPDEST PUSH2 0x10FE PUSH2 0x35A1 JUMP JUMPDEST PUSH1 0x1 PUSH1 0x1 PUSH1 0xA0 SHL SUB AND DUP1 ISZERO PUSH2 0x1125 JUMPI PUSH1 0x1 PUSH1 0x1 PUSH1 0x60 SHL SUB PUSH1 0xA0 SHL PUSH1 0x1 SLOAD AND OR PUSH1 0x1 SSTORE PUSH1 0x0 DUP1 RETURN JUMPDEST PUSH1 0x40 MLOAD PUSH3 0x461BCD PUSH1 0xE5 SHL DUP2 MSTORE PUSH1 0x20 PUSH1 0x4 DUP3 ADD MSTORE PUSH1 0x16 PUSH1 0x24 DUP3 ADD MSTORE PUSH22 0x496E76616C6964205141436172642061646472657373 PUSH1 0x50 SHL PUSH1 0x44 DUP3 ADD MSTORE PUSH1 0x64 SWAP1 REVERT JUMPDEST CALLVALUE PUSH2 0x436 JUMPI PUSH1 0x40 CALLDATASIZE PUSH1 0x3 NOT ADD SLT PUSH2 0x436 JUMPI PUSH2 0x117C PUSH2 0x30E2 JUMP JUMPDEST PUSH1 0x24 CALLDATALOAD PUSH2 0x1187 PUSH2 0x35A1 JUMP JUMPDEST PUSH2 0x118F PUSH2 0x33C5 JUMP JUMPDEST PUSH1 0x0 SLOAD PUSH1 0x40 MLOAD PUSH4 0x70A08231 PUSH1 0xE0 SHL DUP2 MSTORE ADDRESS PUSH1 0x4 DUP3 ADD MSTORE PUSH1 0x1 PUSH1 0x1 PUSH1 0xA0 SHL SUB SWAP2 DUP3 AND SWAP1 PUSH1 0x20 DUP2 PUSH1 0x24 DUP2 DUP6 GAS STATICCALL SWAP1 DUP2 ISZERO PUSH2 0x617 JUMPI PUSH1 0x0 SWAP2 PUSH2 0x1252 JUMPI JUMPDEST POP DUP1 DUP5 GT PUSH2 0x1234 JUMPI POP PUSH32 0xBBAE553982D541D38DACB1EA468AC757F324D0E279B6E4A2958F9E894DA575FF SWAP2 PUSH2 0x1201 DUP5 DUP7 PUSH1 0x40 SWAP5 PUSH2 0x33F5 JUMP JUMPDEST PUSH2 0x120D DUP5 PUSH1 0x7 SLOAD PUSH2 0x335B JUMP JUMPDEST PUSH1 0x7 SSTORE DUP2 MLOAD SWAP4 DUP5 MSTORE TIMESTAMP PUSH1 0x20 DUP6 ADD MSTORE CALLER SWAP5 AND SWAP3 LOG3 PUSH1 0x1 PUSH1 0x0 DUP1 MLOAD PUSH1 0x20 PUSH2 0x3CEB DUP4 CODECOPY DUP2 MLOAD SWAP2 MSTORE SSTORE STOP JUMPDEST DUP4 PUSH1 0x44 SWAP2 PUSH1 0x40 MLOAD SWAP2 PUSH4 0xCF479181 PUSH1 0xE0 SHL DUP4 MSTORE PUSH1 0x4 DUP4 ADD MSTORE PUSH1 0x24 DUP3 ADD MSTORE REVERT JUMPDEST SWAP1 POP PUSH1 0x20 DUP2 RETURNDATASIZE PUSH1 0x20 GT PUSH2 0x127C JUMPI JUMPDEST DUP2 PUSH2 0x126D PUSH1 0x20 SWAP4 DUP4 PUSH2 0x31DD JUMP JUMPDEST DUP2 ADD SUB SLT PUSH2 0x436 JUMPI MLOAD DUP6 PUSH2 0x11C9 JUMP JUMPDEST RETURNDATASIZE SWAP2 POP PUSH2 0x1260 JUMP JUMPDEST CALLVALUE PUSH2 0x436 JUMPI PUSH1 0x20 CALLDATASIZE PUSH1 0x3 NOT ADD SLT PUSH2 0x436 JUMPI PUSH1 0x4 CALLDATALOAD PUSH2 0x12A0 PUSH2 0x34E9 JUMP JUMPDEST DUP1 ISZERO PUSH2 0x12E2 JUMPI DUP1 PUSH1 0x15 SSTORE TIMESTAMP PUSH1 0x16 SSTORE PUSH1 0x40 MLOAD SWAP1 DUP2 MSTORE TIMESTAMP PUSH1 0x20 DUP3 ADD MSTORE PUSH32 0x378B09391F49D01E482BA75312341912AD0652CB8AA8799B6B33B624BD65D9F2 PUSH1 0x40 CALLER SWAP3 LOG2 STOP JUMPDEST PUSH1 0x40 MLOAD PUSH3 0xBFC921 PUSH1 0xE0 SHL DUP2 MSTORE PUSH1 0x4 SWAP1 REVERT JUMPDEST CALLVALUE PUSH2 0x436 JUMPI PUSH1 0x0 CALLDATASIZE PUSH1 0x3 NOT ADD SLT PUSH2 0x436 JUMPI PUSH1 0x20 PUSH1 0x14 SLOAD PUSH1 0x40 MLOAD SWAP1 DUP2 MSTORE RETURN JUMPDEST CALLVALUE PUSH2 0x436 JUMPI PUSH1 0x40 CALLDATASIZE PUSH1 0x3 NOT ADD SLT PUSH2 0x436 JUMPI PUSH2 0x132A PUSH2 0x30F8 JUMP JUMPDEST PUSH1 0x4 CALLDATALOAD PUSH1 0x0 MSTORE PUSH1 0x0 DUP1 MLOAD PUSH1 0x20 PUSH2 0x3CAB DUP4 CODECOPY DUP2 MLOAD SWAP2 MSTORE PUSH1 0x20 MSTORE PUSH1 0x40 PUSH1 0x0 KECCAK256 SWAP1 PUSH1 0x1 DUP1 PUSH1 0xA0 SHL SUB AND PUSH1 0x0 MSTORE PUSH1 0x20 MSTORE PUSH1 0x20 PUSH1 0xFF PUSH1 0x40 PUSH1 0x0 KECCAK256 SLOAD AND PUSH1 0x40 MLOAD SWAP1 ISZERO ISZERO DUP2 MSTORE RETURN JUMPDEST CALLVALUE PUSH2 0x436 JUMPI PUSH1 0x20 CALLDATASIZE PUSH1 0x3 NOT ADD SLT PUSH2 0x436 JUMPI PUSH1 0x40 PUSH1 0x4 CALLDATALOAD DUP1 PUSH1 0x0 MSTORE PUSH1 0x10 PUSH1 0x20 MSTORE DUP2 PUSH1 0x0 KECCAK256 SLOAD SWAP1 CALLER PUSH1 0x0 MSTORE PUSH1 0x11 PUSH1 0x20 MSTORE DUP3 PUSH1 0x0 KECCAK256 SWAP1 PUSH1 0x0 MSTORE PUSH1 0x20 MSTORE PUSH1 0xFF DUP3 PUSH1 0x0 KECCAK256 SLOAD AND DUP3 MLOAD SWAP2 DUP3 MSTORE ISZERO ISZERO PUSH1 0x20 DUP3 ADD MSTORE RETURN JUMPDEST CALLVALUE PUSH2 0x436 JUMPI PUSH1 0x20 CALLDATASIZE PUSH1 0x3 NOT ADD SLT PUSH2 0x436 JUMPI PUSH1 0x20 PUSH1 0x1 PUSH1 0x1 PUSH1 0xA0 SHL SUB DUP1 PUSH2 0x13DE PUSH2 0x30E2 JUMP JUMPDEST AND PUSH1 0x0 MSTORE PUSH1 0xB DUP3 MSTORE PUSH1 0x40 PUSH1 0x0 KECCAK256 SLOAD AND PUSH1 0x40 MLOAD SWAP1 DUP2 MSTORE RETURN JUMPDEST CALLVALUE PUSH2 0x436 JUMPI PUSH1 0x0 CALLDATASIZE PUSH1 0x3 NOT ADD SLT PUSH2 0x436 JUMPI PUSH1 0x20 PUSH1 0x40 MLOAD PUSH32 0x10DAC8C06A04BEC0B551627DAD28BC00D6516B0CAACD1C7B345FCDB5211334E4 DUP2 MSTORE RETURN JUMPDEST CALLVALUE PUSH2 0x436 JUMPI PUSH1 0x0 CALLDATASIZE PUSH1 0x3 NOT ADD SLT PUSH2 0x436 JUMPI PUSH2 0x1449 PUSH2 0x3545 JUMP JUMPDEST PUSH2 0x1451 PUSH2 0x3444 JUMP JUMPDEST PUSH1 0x0 DUP1 MLOAD PUSH1 0x20 PUSH2 0x3CCB DUP4 CODECOPY DUP2 MLOAD SWAP2 MSTORE PUSH1 0x1 PUSH1 0xFF NOT DUP3 SLOAD AND OR SWAP1 SSTORE PUSH32 0x62E78CEA01BEE320CD4E420270B5EA74000D11B0C9F74754EBDBFC544B05A258 PUSH1 0x20 PUSH1 0x40 MLOAD CALLER DUP2 MSTORE LOG1 STOP JUMPDEST CALLVALUE PUSH2 0x436 JUMPI PUSH1 0x0 CALLDATASIZE PUSH1 0x3 NOT ADD SLT PUSH2 0x436 JUMPI PUSH1 0x20 PUSH1 0x9 SLOAD PUSH1 0x40 MLOAD SWAP1 DUP2 MSTORE RETURN JUMPDEST CALLVALUE PUSH2 0x436 JUMPI PUSH1 0x0 CALLDATASIZE PUSH1 0x3 NOT ADD SLT PUSH2 0x436 JUMPI PUSH1 0x20 PUSH1 0x5 SLOAD PUSH1 0x40 MLOAD SWAP1 DUP2 MSTORE RETURN JUMPDEST CALLVALUE PUSH2 0x436 JUMPI PUSH1 0x60 CALLDATASIZE PUSH1 0x3 NOT ADD SLT PUSH2 0x436 JUMPI PUSH2 0x14EC PUSH2 0x30E2 JUMP JUMPDEST PUSH2 0x14F4 PUSH2 0x30F8 JUMP JUMPDEST SWAP1 PUSH1 0x44 CALLDATALOAD SWAP2 PUSH1 0x1 PUSH1 0x1 PUSH1 0x40 SHL SUB DUP4 GT PUSH2 0x436 JUMPI CALLDATASIZE PUSH1 0x23 DUP5 ADD SLT ISZERO PUSH2 0x436 JUMPI DUP3 PUSH1 0x4 ADD CALLDATALOAD SWAP3 PUSH1 0x1 PUSH1 0x1 PUSH1 0x40 SHL SUB DUP5 GT PUSH2 0x1C23 JUMPI DUP4 PUSH1 0x5 SHL SWAP1 PUSH1 0x40 MLOAD SWAP5 PUSH2 0x153C PUSH1 0x20 DUP5 ADD DUP8 PUSH2 0x31DD JUMP JUMPDEST DUP6 MSTORE PUSH1 0x24 PUSH1 0x20 DUP7 ADD SWAP3 DUP3 ADD ADD SWAP1 CALLDATASIZE DUP3 GT PUSH2 0x436 JUMPI PUSH1 0x24 ADD SWAP2 JUMPDEST DUP2 DUP4 LT PUSH2 0x1F0F JUMPI POP POP POP PUSH1 0x0 DUP1 MLOAD PUSH1 0x20 PUSH2 0x3D0B DUP4 CODECOPY DUP2 MLOAD SWAP2 MSTORE SLOAD SWAP2 PUSH1 0x1 PUSH1 0x1 PUSH1 0x40 SHL SUB DUP4 AND DUP1 ISZERO SWAP1 DUP2 PUSH2 0x1EFF JUMPI JUMPDEST PUSH1 0x1 EQ SWAP1 DUP2 PUSH2 0x1EF5 JUMPI JUMPDEST ISZERO SWAP1 DUP2 PUSH2 0x1EEC JUMPI JUMPDEST POP PUSH2 0x1EDA JUMPI PUSH1 0x1 PUSH1 0x1 PUSH1 0x1 PUSH1 0x40 SHL SUB NOT DUP5 AND OR PUSH1 0x0 DUP1 MLOAD PUSH1 0x20 PUSH2 0x3D0B DUP4 CODECOPY DUP2 MLOAD SWAP2 MSTORE SSTORE PUSH1 0xFF DUP4 PUSH1 0x40 SHR AND ISZERO PUSH2 0x1EAD JUMPI JUMPDEST PUSH1 0x1 PUSH1 0x1 PUSH1 0xA0 SHL SUB AND DUP1 ISZERO PUSH2 0x1E71 JUMPI PUSH1 0x1 PUSH1 0x1 PUSH1 0xA0 SHL SUB DUP3 AND ISZERO PUSH2 0x1E34 JUMPI PUSH2 0x15EB PUSH2 0x3BF8 JUMP JUMPDEST PUSH2 0x15F3 PUSH2 0x3BF8 JUMP JUMPDEST PUSH2 0x15FB PUSH2 0x3BF8 JUMP JUMPDEST PUSH2 0x1603 PUSH2 0x3BF8 JUMP JUMPDEST PUSH1 0x1 PUSH1 0x0 DUP1 MLOAD PUSH1 0x20 PUSH2 0x3CEB DUP4 CODECOPY DUP2 MLOAD SWAP2 MSTORE SSTORE PUSH1 0x1 PUSH1 0x1 PUSH1 0x60 SHL SUB PUSH1 0xA0 SHL PUSH1 0x0 SLOAD AND OR PUSH1 0x0 SSTORE PUSH5 0x2540BE400 PUSH1 0x8 SSTORE PUSH5 0x174876E800 PUSH1 0x9 SSTORE PUSH2 0x1F4 PUSH1 0xE SSTORE PUSH3 0x93A80 PUSH1 0x13 SSTORE PUSH3 0x93A7F NOT TIMESTAMP ADD TIMESTAMP DUP2 GT PUSH2 0x1015 JUMPI PUSH1 0x14 SSTORE PUSH1 0x0 PUSH1 0x12 SSTORE PUSH4 0x77359400 PUSH1 0x15 SSTORE TIMESTAMP PUSH1 0x16 SSTORE PUSH2 0xE10 PUSH1 0x17 SSTORE PUSH1 0x40 MLOAD PUSH2 0x167B DUP2 PUSH2 0x31A7 JUMP JUMPDEST PUSH1 0x40 MLOAD PUSH2 0x1687 DUP2 PUSH2 0x31C2 JUMP JUMPDEST PUSH1 0xE DUP2 MSTORE PUSH14 0x14504814DA5B1D995C8810D85C99 PUSH1 0x92 SHL PUSH1 0x20 DUP3 ADD MSTORE DUP2 MSTORE PUSH4 0x5F5E100 PUSH1 0x20 DUP3 ADD MSTORE PUSH5 0x2540BE400 PUSH1 0x40 DUP3 ADD MSTORE PUSH2 0x4B0 PUSH1 0x60 DUP3 ADD MSTORE PUSH1 0x1E PUSH1 0x80 DUP3 ADD MSTORE PUSH1 0x1 PUSH1 0xA0 DUP3 ADD MSTORE PUSH1 0x0 DUP1 MSTORE PUSH1 0x4 PUSH1 0x20 MSTORE PUSH1 0x40 PUSH1 0x0 KECCAK256 SWAP1 DUP1 MLOAD DUP1 MLOAD SWAP1 PUSH1 0x1 PUSH1 0x1 PUSH1 0x40 SHL SUB DUP3 GT PUSH2 0x1C23 JUMPI PUSH2 0x16FB DUP5 SLOAD PUSH2 0x316D JUMP JUMPDEST PUSH1 0x1F DUP2 GT PUSH2 0x1DF0 JUMPI JUMPDEST POP PUSH1 0x20 SWAP1 PUSH1 0x1F DUP4 GT PUSH1 0x1 EQ PUSH2 0x1D97 JUMPI SWAP3 DUP3 PUSH1 0x5 SWAP4 PUSH1 0xA0 SWAP4 PUSH2 0x177C SWAP8 SWAP7 PUSH1 0x0 SWAP3 PUSH2 0x1C39 JUMPI JUMPDEST POP POP DUP2 PUSH1 0x1 SHL SWAP2 PUSH1 0x0 NOT SWAP1 PUSH1 0x3 SHL SHR NOT AND OR DUP5 SSTORE JUMPDEST PUSH1 0x20 DUP2 ADD MLOAD PUSH1 0x1 DUP6 ADD SSTORE PUSH1 0x40 DUP2 ADD MLOAD PUSH1 0x2 DUP6 ADD SSTORE PUSH1 0x60 DUP2 ADD MLOAD PUSH1 0x3 DUP6 ADD SSTORE PUSH1 0x80 DUP2 ADD MLOAD PUSH1 0x4 DUP6 ADD SSTORE ADD MLOAD ISZERO ISZERO SWAP2 ADD SWAP1 PUSH1 0xFF DUP1 NOT DUP4 SLOAD AND SWAP2 ISZERO ISZERO AND OR SWAP1 SSTORE JUMP JUMPDEST PUSH1 0x40 MLOAD PUSH2 0x1788 DUP2 PUSH2 0x31A7 JUMP JUMPDEST PUSH1 0x40 MLOAD PUSH2 0x1794 DUP2 PUSH2 0x31C2 JUMP JUMPDEST PUSH1 0xC DUP2 MSTORE PUSH12 0x14504811DBDB190810D85C99 PUSH1 0xA2 SHL PUSH1 0x20 DUP3 ADD MSTORE DUP2 MSTORE PUSH4 0x3B9ACA00 PUSH1 0x20 DUP3 ADD MSTORE PUSH5 0xBA43B7400 PUSH1 0x40 DUP3 ADD MSTORE PUSH2 0x5DC PUSH1 0x60 DUP3 ADD MSTORE PUSH1 0x3C PUSH1 0x80 DUP3 ADD MSTORE PUSH1 0x1 PUSH1 0xA0 DUP3 ADD MSTORE PUSH1 0x1 PUSH1 0x0 MSTORE PUSH1 0x4 PUSH1 0x20 MSTORE PUSH1 0x40 PUSH1 0x0 KECCAK256 SWAP1 DUP1 MLOAD DUP1 MLOAD SWAP1 PUSH1 0x1 PUSH1 0x1 PUSH1 0x40 SHL SUB DUP3 GT PUSH2 0x1C23 JUMPI PUSH2 0x1807 DUP5 SLOAD PUSH2 0x316D JUMP JUMPDEST PUSH1 0x1F DUP2 GT PUSH2 0x1D53 JUMPI JUMPDEST POP PUSH1 0x20 SWAP1 PUSH1 0x1F DUP4 GT PUSH1 0x1 EQ PUSH2 0x1CFA JUMPI SWAP3 DUP3 PUSH1 0x5 SWAP4 PUSH1 0xA0 SWAP4 PUSH2 0x1886 SWAP8 SWAP7 PUSH1 0x0 SWAP3 PUSH2 0x1C39 JUMPI POP POP DUP2 PUSH1 0x1 SHL SWAP2 PUSH1 0x0 NOT SWAP1 PUSH1 0x3 SHL SHR NOT AND OR DUP5 SSTORE PUSH1 0x20 DUP2 ADD MLOAD PUSH1 0x1 DUP6 ADD SSTORE PUSH1 0x40 DUP2 ADD MLOAD PUSH1 0x2 DUP6 ADD SSTORE PUSH1 0x60 DUP2 ADD MLOAD PUSH1 0x3 DUP6 ADD SSTORE PUSH1 0x80 DUP2 ADD MLOAD PUSH1 0x4 DUP6 ADD SSTORE ADD MLOAD ISZERO ISZERO SWAP2 ADD SWAP1 PUSH1 0xFF DUP1 NOT DUP4 SLOAD AND SWAP2 ISZERO ISZERO AND OR SWAP1 SSTORE JUMP JUMPDEST PUSH1 0x40 MLOAD PUSH2 0x1892 DUP2 PUSH2 0x31A7 JUMP JUMPDEST PUSH1 0x40 MLOAD PUSH2 0x189E DUP2 PUSH2 0x31C2 JUMP JUMPDEST PUSH1 0xF DUP2 MSTORE PUSH15 0x145048111A585B5BDB990810D85C99 PUSH1 0x8A SHL PUSH1 0x20 DUP3 ADD MSTORE DUP2 MSTORE PUSH5 0x12A05F200 PUSH1 0x20 DUP3 ADD MSTORE PUSH5 0x2E90EDD000 PUSH1 0x40 DUP3 ADD MSTORE PUSH2 0x708 PUSH1 0x60 DUP3 ADD MSTORE PUSH1 0x5A PUSH1 0x80 DUP3 ADD MSTORE PUSH1 0x1 PUSH1 0xA0 DUP3 ADD MSTORE PUSH1 0x2 PUSH1 0x0 MSTORE PUSH1 0x4 PUSH1 0x20 MSTORE PUSH1 0x40 PUSH1 0x0 KECCAK256 SWAP1 DUP1 MLOAD DUP1 MLOAD SWAP1 PUSH1 0x1 PUSH1 0x1 PUSH1 0x40 SHL SUB DUP3 GT PUSH2 0x1C23 JUMPI PUSH2 0x1915 DUP5 SLOAD PUSH2 0x316D JUMP JUMPDEST PUSH1 0x1F DUP2 GT PUSH2 0x1CB6 JUMPI JUMPDEST POP PUSH1 0x20 SWAP1 PUSH1 0x1F DUP4 GT PUSH1 0x1 EQ PUSH2 0x1C44 JUMPI SWAP3 DUP3 PUSH1 0x5 SWAP4 PUSH1 0xA0 SWAP4 PUSH2 0x1994 SWAP8 SWAP7 PUSH1 0x0 SWAP3 PUSH2 0x1C39 JUMPI POP POP DUP2 PUSH1 0x1 SHL SWAP2 PUSH1 0x0 NOT SWAP1 PUSH1 0x3 SHL SHR NOT AND OR DUP5 SSTORE PUSH1 0x20 DUP2 ADD MLOAD PUSH1 0x1 DUP6 ADD SSTORE PUSH1 0x40 DUP2 ADD MLOAD PUSH1 0x2 DUP6 ADD SSTORE PUSH1 0x60 DUP2 ADD MLOAD PUSH1 0x3 DUP6 ADD SSTORE PUSH1 0x80 DUP2 ADD MLOAD PUSH1 0x4 DUP6 ADD SSTORE ADD MLOAD ISZERO ISZERO SWAP2 ADD SWAP1 PUSH1 0xFF DUP1 NOT DUP4 SLOAD AND SWAP2 ISZERO ISZERO AND OR SWAP1 SSTORE JUMP JUMPDEST PUSH1 0x40 MLOAD PUSH2 0x19A0 DUP2 PUSH2 0x31A7 JUMP JUMPDEST PUSH1 0x40 MLOAD PUSH2 0x19AC DUP2 PUSH2 0x31C2 JUMP JUMPDEST PUSH1 0x10 DUP2 MSTORE PUSH16 0x145048141B185D1A5B9D5B4810D85C99 PUSH1 0x82 SHL PUSH1 0x20 DUP3 ADD MSTORE DUP2 MSTORE PUSH5 0x2540BE400 PUSH1 0x20 DUP3 ADD MSTORE PUSH5 0x746A528800 PUSH1 0x40 DUP3 ADD MSTORE PUSH2 0x7D0 PUSH1 0x60 DUP3 ADD MSTORE PUSH2 0x16D PUSH1 0x80 DUP3 ADD MSTORE PUSH1 0x1 PUSH1 0xA0 DUP3 ADD MSTORE PUSH1 0x3 PUSH1 0x0 MSTORE PUSH1 0x4 PUSH1 0x20 MSTORE PUSH1 0x40 PUSH1 0x0 KECCAK256 SWAP1 DUP1 MLOAD DUP1 MLOAD SWAP1 PUSH1 0x1 PUSH1 0x1 PUSH1 0x40 SHL SUB DUP3 GT PUSH2 0x1C23 JUMPI PUSH2 0x1A25 DUP5 SLOAD PUSH2 0x316D JUMP JUMPDEST PUSH1 0x1F DUP2 GT PUSH2 0x1BDF JUMPI JUMPDEST POP PUSH1 0x20 SWAP1 PUSH1 0x1F DUP4 GT PUSH1 0x1 EQ PUSH2 0x1B68 JUMPI PUSH2 0x1AA8 SWAP4 DUP4 PUSH2 0x1AC1 SWAP8 SWAP7 SWAP5 PUSH1 0x5 SWAP5 PUSH1 0xA0 SWAP5 PUSH1 0x0 SWAP3 PUSH2 0x1B5D JUMPI POP POP DUP2 PUSH1 0x1 SHL SWAP2 PUSH1 0x0 NOT SWAP1 PUSH1 0x3 SHL SHR NOT AND OR DUP5 SSTORE PUSH1 0x20 DUP2 ADD MLOAD PUSH1 0x1 DUP6 ADD SSTORE PUSH1 0x40 DUP2 ADD MLOAD PUSH1 0x2 DUP6 ADD SSTORE PUSH1 0x60 DUP2 ADD MLOAD PUSH1 0x3 DUP6 ADD SSTORE PUSH1 0x80 DUP2 ADD MLOAD PUSH1 0x4 DUP6 ADD SSTORE ADD MLOAD ISZERO ISZERO SWAP2 ADD SWAP1 PUSH1 0xFF DUP1 NOT DUP4 SLOAD AND SWAP2 ISZERO ISZERO AND OR SWAP1 SSTORE JUMP JUMPDEST PUSH2 0x1AB1 DUP2 PUSH2 0x378A JUMP JUMPDEST POP PUSH2 0x1ABB DUP2 PUSH2 0x3818 JUMP JUMPDEST POP PUSH2 0x38C8 JUMP JUMPDEST POP PUSH1 0x0 JUMPDEST DUP3 MLOAD DUP2 LT ISZERO PUSH2 0x1AF6 JUMPI PUSH1 0x5 DUP2 SWAP1 SHL DUP4 ADD PUSH1 0x20 ADD MLOAD PUSH1 0x1 SWAP2 SWAP1 PUSH2 0x1AEF SWAP1 PUSH1 0x1 PUSH1 0x1 PUSH1 0xA0 SHL SUB AND PUSH2 0x3972 JUMP JUMPDEST POP ADD PUSH2 0x1AC5 JUMP JUMPDEST PUSH1 0xFF DUP3 PUSH1 0x40 SHR AND ISZERO PUSH2 0x1B04 JUMPI STOP JUMPDEST PUSH9 0xFF0000000000000000 NOT PUSH1 0x0 DUP1 MLOAD PUSH1 0x20 PUSH2 0x3D0B DUP4 CODECOPY DUP2 MLOAD SWAP2 MSTORE SLOAD AND PUSH1 0x0 DUP1 MLOAD PUSH1 0x20 PUSH2 0x3D0B DUP4 CODECOPY DUP2 MLOAD SWAP2 MSTORE SSTORE PUSH32 0xC7F505B2F371AE2175EE4913F4499E1F2633A7B5936321EED1CDAEB6115181D2 PUSH1 0x20 PUSH1 0x40 MLOAD PUSH1 0x1 DUP2 MSTORE LOG1 STOP JUMPDEST ADD MLOAD SWAP1 POP DUP12 DUP1 PUSH2 0x1728 JUMP JUMPDEST SWAP1 DUP5 PUSH1 0x0 MSTORE PUSH1 0x20 PUSH1 0x0 KECCAK256 SWAP2 PUSH1 0x0 JUMPDEST PUSH1 0x1F NOT DUP6 AND DUP2 LT PUSH2 0x1BC7 JUMPI POP SWAP4 PUSH1 0x1 DUP5 PUSH1 0x5 SWAP5 PUSH1 0xA0 SWAP5 PUSH2 0x1AA8 SWAP9 PUSH2 0x1AC1 SWAP12 SWAP11 SWAP9 PUSH1 0x1F NOT DUP2 AND LT PUSH2 0x1BAE JUMPI JUMPDEST POP POP POP DUP2 SHL ADD DUP5 SSTORE PUSH2 0x173D JUMP JUMPDEST ADD MLOAD PUSH1 0x0 NOT PUSH1 0xF8 DUP5 PUSH1 0x3 SHL AND SHR NOT AND SWAP1 SSTORE DUP12 DUP1 DUP1 PUSH2 0x1BA1 JUMP JUMPDEST SWAP2 SWAP3 PUSH1 0x20 PUSH1 0x1 DUP2 SWAP3 DUP7 DUP6 ADD MLOAD DUP2 SSTORE ADD SWAP5 ADD SWAP3 ADD PUSH2 0x1B76 JUMP JUMPDEST DUP5 PUSH1 0x0 MSTORE PUSH1 0x20 PUSH1 0x0 KECCAK256 PUSH1 0x1F DUP5 ADD PUSH1 0x5 SHR DUP2 ADD PUSH1 0x20 DUP6 LT PUSH2 0x1C1C JUMPI JUMPDEST PUSH1 0x1F DUP4 ADD PUSH1 0x5 SHR DUP3 ADD DUP2 LT PUSH2 0x1C10 JUMPI POP POP PUSH2 0x1A2E JUMP JUMPDEST PUSH1 0x0 DUP2 SSTORE PUSH1 0x1 ADD PUSH2 0x1BFA JUMP JUMPDEST POP DUP1 PUSH2 0x1BFA JUMP JUMPDEST PUSH4 0x4E487B71 PUSH1 0xE0 SHL PUSH1 0x0 MSTORE PUSH1 0x41 PUSH1 0x4 MSTORE PUSH1 0x24 PUSH1 0x0 REVERT JUMPDEST ADD MLOAD SWAP1 POP DUP11 DUP1 PUSH2 0x1728 JUMP JUMPDEST SWAP1 DUP5 PUSH1 0x0 MSTORE PUSH1 0x20 PUSH1 0x0 KECCAK256 SWAP2 PUSH1 0x0 JUMPDEST PUSH1 0x1F NOT DUP6 AND DUP2 LT PUSH2 0x1C9E JUMPI POP DUP4 PUSH1 0xA0 SWAP4 PUSH2 0x1994 SWAP8 SWAP7 SWAP4 PUSH1 0x1 SWAP4 PUSH1 0x5 SWAP8 PUSH1 0x1F NOT DUP2 AND LT PUSH2 0x1C85 JUMPI POP POP POP DUP2 SHL ADD DUP5 SSTORE PUSH2 0x173D JUMP JUMPDEST ADD MLOAD PUSH1 0x0 NOT PUSH1 0xF8 DUP5 PUSH1 0x3 SHL AND SHR NOT AND SWAP1 SSTORE DUP11 DUP1 DUP1 PUSH2 0x1BA1 JUMP JUMPDEST SWAP2 SWAP3 PUSH1 0x20 PUSH1 0x1 DUP2 SWAP3 DUP7 DUP6 ADD MLOAD DUP2 SSTORE ADD SWAP5 ADD SWAP3 ADD PUSH2 0x1C52 JUMP JUMPDEST DUP5 PUSH1 0x0 MSTORE PUSH1 0x20 PUSH1 0x0 KECCAK256 PUSH1 0x1F DUP5 ADD PUSH1 0x5 SHR DUP2 ADD PUSH1 0x20 DUP6 LT PUSH2 0x1CF3 JUMPI JUMPDEST PUSH1 0x1F DUP4 ADD PUSH1 0x5 SHR DUP3 ADD DUP2 LT PUSH2 0x1CE7 JUMPI POP POP PUSH2 0x191E JUMP JUMPDEST PUSH1 0x0 DUP2 SSTORE PUSH1 0x1 ADD PUSH2 0x1CD1 JUMP JUMPDEST POP DUP1 PUSH2 0x1CD1 JUMP JUMPDEST SWAP1 DUP5 PUSH1 0x0 MSTORE PUSH1 0x20 PUSH1 0x0 KECCAK256 SWAP2 PUSH1 0x0 JUMPDEST PUSH1 0x1F NOT DUP6 AND DUP2 LT PUSH2 0x1D3B JUMPI POP DUP4 PUSH1 0xA0 SWAP4 PUSH2 0x1886 SWAP8 SWAP7 SWAP4 PUSH1 0x1 SWAP4 PUSH1 0x5 SWAP8 PUSH1 0x1F NOT DUP2 AND LT PUSH2 0x1C85 JUMPI POP POP POP DUP2 SHL ADD DUP5 SSTORE PUSH2 0x173D JUMP JUMPDEST SWAP2 SWAP3 PUSH1 0x20 PUSH1 0x1 DUP2 SWAP3 DUP7 DUP6 ADD MLOAD DUP2 SSTORE ADD SWAP5 ADD SWAP3 ADD PUSH2 0x1D08 JUMP JUMPDEST DUP5 PUSH1 0x0 MSTORE PUSH1 0x20 PUSH1 0x0 KECCAK256 PUSH1 0x1F DUP5 ADD PUSH1 0x5 SHR DUP2 ADD PUSH1 0x20 DUP6 LT PUSH2 0x1D90 JUMPI JUMPDEST PUSH1 0x1F DUP4 ADD PUSH1 0x5 SHR DUP3 ADD DUP2 LT PUSH2 0x1D84 JUMPI POP POP PUSH2 0x1810 JUMP JUMPDEST PUSH1 0x0 DUP2 SSTORE PUSH1 0x1 ADD PUSH2 0x1D6E JUMP JUMPDEST POP DUP1 PUSH2 0x1D6E JUMP JUMPDEST SWAP1 DUP5 PUSH1 0x0 MSTORE PUSH1 0x20 PUSH1 0x0 KECCAK256 SWAP2 PUSH1 0x0 JUMPDEST PUSH1 0x1F NOT DUP6 AND DUP2 LT PUSH2 0x1DD8 JUMPI POP DUP4 PUSH1 0xA0 SWAP4 PUSH2 0x177C SWAP8 SWAP7 SWAP4 PUSH1 0x1 SWAP4 PUSH1 0x5 SWAP8 PUSH1 0x1F NOT DUP2 AND LT PUSH2 0x1C85 JUMPI POP POP POP DUP2 SHL ADD DUP5 SSTORE PUSH2 0x173D JUMP JUMPDEST SWAP2 SWAP3 PUSH1 0x20 PUSH1 0x1 DUP2 SWAP3 DUP7 DUP6 ADD MLOAD DUP2 SSTORE ADD SWAP5 ADD SWAP3 ADD PUSH2 0x1DA5 JUMP JUMPDEST DUP5 PUSH1 0x0 MSTORE PUSH1 0x20 PUSH1 0x0 KECCAK256 PUSH1 0x1F DUP5 ADD PUSH1 0x5 SHR DUP2 ADD PUSH1 0x20 DUP6 LT PUSH2 0x1E2D JUMPI JUMPDEST PUSH1 0x1F DUP4 ADD PUSH1 0x5 SHR DUP3 ADD DUP2 LT PUSH2 0x1E21 JUMPI POP POP PUSH2 0x1704 JUMP JUMPDEST PUSH1 0x0 DUP2 SSTORE PUSH1 0x1 ADD PUSH2 0x1E0B JUMP JUMPDEST POP DUP1 PUSH2 0x1E0B JUMP JUMPDEST PUSH1 0x40 MLOAD PUSH3 0x461BCD PUSH1 0xE5 SHL DUP2 MSTORE PUSH1 0x20 PUSH1 0x4 DUP3 ADD MSTORE PUSH1 0x15 PUSH1 0x24 DUP3 ADD MSTORE PUSH21 0x496E76616C69642061646D696E2061646472657373 PUSH1 0x58 SHL PUSH1 0x44 DUP3 ADD MSTORE PUSH1 0x64 SWAP1 REVERT JUMPDEST PUSH1 0x40 MLOAD PUSH3 0x461BCD PUSH1 0xE5 SHL DUP2 MSTORE PUSH1 0x20 PUSH1 0x4 DUP3 ADD MSTORE PUSH1 0x14 PUSH1 0x24 DUP3 ADD MSTORE PUSH20 0x496E76616C696420555344542061646472657373 PUSH1 0x60 SHL PUSH1 0x44 DUP3 ADD MSTORE PUSH1 0x64 SWAP1 REVERT JUMPDEST PUSH9 0xFFFFFFFFFFFFFFFFFF NOT DUP4 AND PUSH9 0x10000000000000001 OR PUSH1 0x0 DUP1 MLOAD PUSH1 0x20 PUSH2 0x3D0B DUP4 CODECOPY DUP2 MLOAD SWAP2 MSTORE SSTORE PUSH2 0x15C5 JUMP JUMPDEST PUSH1 0x40 MLOAD PUSH4 0xF92EE8A9 PUSH1 0xE0 SHL DUP2 MSTORE PUSH1 0x4 SWAP1 REVERT JUMPDEST SWAP1 POP ISZERO DUP6 PUSH2 0x1595 JUMP JUMPDEST ADDRESS EXTCODESIZE ISZERO SWAP2 POP PUSH2 0x158D JUMP JUMPDEST PUSH1 0x40 DUP6 SWAP1 SHR PUSH1 0xFF AND ISZERO SWAP2 POP PUSH2 0x1583 JUMP JUMPDEST DUP3 CALLDATALOAD PUSH1 0x1 PUSH1 0x1 PUSH1 0xA0 SHL SUB DUP2 AND DUP2 SUB PUSH2 0x436 JUMPI DUP2 MSTORE PUSH1 0x20 SWAP3 DUP4 ADD SWAP3 ADD PUSH2 0x1555 JUMP JUMPDEST CALLVALUE PUSH2 0x436 JUMPI PUSH1 0x0 CALLDATASIZE PUSH1 0x3 NOT ADD SLT PUSH2 0x436 JUMPI PUSH1 0x20 PUSH1 0x15 SLOAD PUSH1 0x40 MLOAD SWAP1 DUP2 MSTORE RETURN JUMPDEST CALLVALUE PUSH2 0x436 JUMPI PUSH1 0x0 CALLDATASIZE PUSH1 0x3 NOT ADD SLT PUSH2 0x436 JUMPI PUSH1 0x20 SELFBALANCE PUSH1 0x40 MLOAD SWAP1 DUP2 MSTORE RETURN JUMPDEST CALLVALUE PUSH2 0x436 JUMPI PUSH1 0x0 CALLDATASIZE PUSH1 0x3 NOT ADD SLT PUSH2 0x436 JUMPI PUSH1 0x1 SLOAD PUSH1 0x40 MLOAD PUSH1 0x1 PUSH1 0x1 PUSH1 0xA0 SHL SUB SWAP1 SWAP2 AND DUP2 MSTORE PUSH1 0x20 SWAP1 RETURN JUMPDEST CALLVALUE PUSH2 0x436 JUMPI PUSH1 0x0 CALLDATASIZE PUSH1 0x3 NOT ADD SLT PUSH2 0x436 JUMPI PUSH1 0x20 PUSH1 0x16 SLOAD PUSH1 0x40 MLOAD SWAP1 DUP2 MSTORE RETURN JUMPDEST CALLVALUE PUSH2 0x436 JUMPI PUSH1 0x20 CALLDATASIZE PUSH1 0x3 NOT ADD SLT PUSH2 0x436 JUMPI PUSH1 0x4 CALLDATALOAD PUSH1 0x0 MSTORE PUSH1 0xA PUSH1 0x20 MSTORE PUSH1 0x20 PUSH1 0x40 PUSH1 0x0 KECCAK256 SLOAD PUSH1 0x40 MLOAD SWAP1 DUP2 MSTORE RETURN JUMPDEST CALLVALUE PUSH2 0x436 JUMPI PUSH1 0xE0 CALLDATASIZE PUSH1 0x3 NOT ADD SLT PUSH2 0x436 JUMPI PUSH1 0x4 DUP1 CALLDATALOAD LT ISZERO PUSH2 0x436 JUMPI PUSH1 0x1 PUSH1 0x1 PUSH1 0x40 SHL SUB PUSH1 0x24 CALLDATALOAD DUP2 DUP2 GT PUSH2 0x436 JUMPI CALLDATASIZE PUSH1 0x23 DUP3 ADD SLT ISZERO PUSH2 0x436 JUMPI DUP2 DUP2 PUSH1 0x4 ADD CALLDATALOAD GT PUSH2 0x436 JUMPI CALLDATASIZE PUSH1 0x24 DUP3 PUSH1 0x4 ADD CALLDATALOAD DUP4 ADD ADD GT PUSH2 0x436 JUMPI PUSH1 0xC4 CALLDATALOAD DUP1 ISZERO ISZERO DUP2 SUB PUSH2 0x436 JUMPI PUSH2 0x2043 PUSH2 0x34E9 JUMP JUMPDEST PUSH1 0x40 MLOAD PUSH2 0x204F DUP2 PUSH2 0x31A7 JUMP JUMPDEST PUSH2 0x2061 CALLDATASIZE DUP5 PUSH1 0x4 ADD CALLDATALOAD PUSH1 0x24 DUP7 ADD PUSH2 0x32FE JUMP JUMPDEST DUP2 MSTORE PUSH1 0x44 CALLDATALOAD PUSH1 0x20 DUP3 ADD MSTORE PUSH1 0x64 CALLDATALOAD PUSH1 0x40 DUP3 ADD MSTORE PUSH1 0x84 CALLDATALOAD PUSH1 0x60 DUP3 ADD MSTORE PUSH1 0xA4 CALLDATALOAD PUSH1 0x80 DUP3 ADD MSTORE DUP2 ISZERO ISZERO PUSH1 0xA0 DUP3 ADD MSTORE PUSH2 0x2096 PUSH1 0x4 CALLDATALOAD PUSH2 0x313E JUMP JUMPDEST SWAP4 DUP2 MLOAD DUP1 MLOAD SWAP2 DUP3 GT PUSH2 0x1C23 JUMPI PUSH2 0x20AC DUP7 SLOAD PUSH2 0x316D JUMP JUMPDEST PUSH1 0x1F DUP2 GT PUSH2 0x223F JUMPI JUMPDEST POP PUSH1 0x20 SWAP1 PUSH1 0x1F DUP4 GT PUSH1 0x1 EQ PUSH2 0x21C5 JUMPI PUSH2 0x214C SWAP4 DUP4 PUSH32 0xEA088B2ACD48CF08E6469BA8D937CB867A6F70DE9862B7E373FDA32C4D7B8FD0 SWAP9 SWAP5 PUSH1 0x5 SWAP5 PUSH1 0xA0 SWAP5 PUSH1 0x0 SWAP3 PUSH2 0x1C39 JUMPI POP POP DUP2 PUSH1 0x1 SHL SWAP2 PUSH1 0x0 NOT SWAP1 PUSH1 0x3 SHL SHR NOT AND OR DUP5 SSTORE PUSH1 0x20 DUP2 ADD MLOAD PUSH1 0x1 DUP6 ADD SSTORE PUSH1 0x40 DUP2 ADD MLOAD PUSH1 0x2 DUP6 ADD SSTORE PUSH1 0x60 DUP2 ADD MLOAD PUSH1 0x3 DUP6 ADD SSTORE PUSH1 0x80 DUP2 ADD MLOAD PUSH1 0x4 DUP6 ADD SSTORE ADD MLOAD ISZERO ISZERO SWAP2 ADD SWAP1 PUSH1 0xFF DUP1 NOT DUP4 SLOAD AND SWAP2 ISZERO ISZERO AND OR SWAP1 SSTORE JUMP JUMPDEST PUSH1 0x40 MLOAD DUP1 SWAP3 PUSH2 0x215D DUP3 PUSH1 0x4 CALLDATALOAD PUSH2 0x33A5 JUMP JUMPDEST PUSH1 0xE0 PUSH1 0x20 DUP4 ADD MSTORE DUP1 PUSH1 0x4 ADD CALLDATALOAD PUSH1 0xE0 DUP4 ADD MSTORE PUSH2 0x100 SWAP3 DUP2 PUSH1 0x4 ADD CALLDATALOAD PUSH1 0x24 DUP4 ADD DUP6 DUP6 ADD CALLDATACOPY PUSH1 0x0 DUP5 DUP4 PUSH1 0x4 ADD CALLDATALOAD DUP6 ADD ADD MSTORE PUSH1 0x44 CALLDATALOAD PUSH1 0x40 DUP5 ADD MSTORE PUSH1 0x64 CALLDATALOAD PUSH1 0x60 DUP5 ADD MSTORE PUSH1 0x84 CALLDATALOAD PUSH1 0x80 DUP5 ADD MSTORE PUSH1 0xA4 CALLDATALOAD PUSH1 0xA0 DUP5 ADD MSTORE ISZERO ISZERO PUSH1 0xC0 DUP4 ADD MSTORE PUSH1 0x1F DUP1 NOT SWAP2 PUSH1 0x4 ADD CALLDATALOAD ADD AND DUP2 ADD SUB ADD SWAP1 LOG1 STOP JUMPDEST SWAP1 DUP7 PUSH1 0x0 MSTORE PUSH1 0x20 PUSH1 0x0 KECCAK256 SWAP2 PUSH1 0x0 JUMPDEST PUSH1 0x1F NOT DUP6 AND DUP2 LT PUSH2 0x2227 JUMPI POP SWAP4 PUSH1 0x1 DUP5 PUSH1 0x5 SWAP5 PUSH1 0xA0 SWAP5 PUSH2 0x214C SWAP9 PUSH32 0xEA088B2ACD48CF08E6469BA8D937CB867A6F70DE9862B7E373FDA32C4D7B8FD0 SWAP13 SWAP9 PUSH1 0x1F NOT DUP2 AND LT PUSH2 0x1C85 JUMPI POP POP POP DUP2 SHL ADD DUP5 SSTORE PUSH2 0x173D JUMP JUMPDEST SWAP2 SWAP3 PUSH1 0x20 PUSH1 0x1 DUP2 SWAP3 DUP7 DUP6 ADD MLOAD DUP2 SSTORE ADD SWAP5 ADD SWAP3 ADD PUSH2 0x21D3 JUMP JUMPDEST DUP7 PUSH1 0x0 MSTORE PUSH1 0x20 PUSH1 0x0 KECCAK256 PUSH1 0x1F DUP5 ADD PUSH1 0x5 SHR DUP2 ADD PUSH1 0x20 DUP6 LT PUSH2 0x227C JUMPI JUMPDEST PUSH1 0x1F DUP4 ADD PUSH1 0x5 SHR DUP3 ADD DUP2 LT PUSH2 0x2270 JUMPI POP POP PUSH2 0x20B5 JUMP JUMPDEST PUSH1 0x0 DUP2 SSTORE PUSH1 0x1 ADD PUSH2 0x225A JUMP JUMPDEST POP DUP1 PUSH2 0x225A JUMP JUMPDEST CALLVALUE PUSH2 0x436 JUMPI PUSH1 0x0 CALLDATASIZE PUSH1 0x3 NOT ADD SLT PUSH2 0x436 JUMPI PUSH1 0x20 PUSH1 0x7 SLOAD PUSH1 0x40 MLOAD SWAP1 DUP2 MSTORE RETURN JUMPDEST CALLVALUE PUSH2 0x436 JUMPI PUSH1 0x0 CALLDATASIZE PUSH1 0x3 NOT ADD SLT PUSH2 0x436 JUMPI PUSH1 0x20 PUSH1 0xFF PUSH1 0x0 DUP1 MLOAD PUSH1 0x20 PUSH2 0x3CCB DUP4 CODECOPY DUP2 MLOAD SWAP2 MSTORE SLOAD AND PUSH1 0x40 MLOAD SWAP1 ISZERO ISZERO DUP2 MSTORE RETURN JUMPDEST CALLVALUE PUSH2 0x436 JUMPI PUSH1 0x20 CALLDATASIZE PUSH1 0x3 NOT ADD SLT PUSH2 0x436 JUMPI PUSH1 0x4 CALLDATALOAD PUSH2 0x22ED PUSH2 0x34E9 JUMP JUMPDEST PUSH2 0x22FC PUSH1 0x14 SLOAD PUSH1 0x13 SLOAD SWAP1 PUSH2 0x335B JUMP JUMPDEST TIMESTAMP LT PUSH2 0x920 JUMPI DUP1 PUSH1 0x40 SWAP2 PUSH2 0x2373 JUMPI JUMPDEST PUSH1 0x12 SLOAD PUSH1 0x0 MSTORE PUSH1 0x10 PUSH1 0x20 MSTORE DUP1 DUP3 PUSH1 0x0 KECCAK256 SSTORE PUSH2 0x2328 DUP2 PUSH1 0xF SLOAD PUSH2 0x335B JUMP JUMPDEST PUSH1 0xF SSTORE PUSH32 0x4D1225938325DCA72E314A20911C9EBDE0D6B3F08FB075ABA351E8796F868065 PUSH1 0x12 SLOAD SWAP3 DUP4 SWAP3 DUP2 MLOAD SWAP1 DUP2 MSTORE TIMESTAMP PUSH1 0x20 DUP3 ADD MSTORE LOG2 PUSH1 0x0 NOT DUP2 EQ PUSH2 0x1015 JUMPI PUSH1 0x1 ADD PUSH1 0x12 SSTORE TIMESTAMP PUSH1 0x14 SSTORE STOP JUMPDEST PUSH1 0x0 SLOAD PUSH2 0x238E SWAP1 DUP3 SWAP1 ADDRESS SWAP1 CALLER SWAP1 PUSH1 0x1 PUSH1 0x1 PUSH1 0xA0 SHL SUB AND PUSH2 0x3732 JUMP JUMPDEST PUSH2 0x230B JUMP JUMPDEST CALLVALUE PUSH2 0x436 JUMPI PUSH1 0x0 CALLDATASIZE PUSH1 0x3 NOT ADD SLT PUSH2 0x436 JUMPI PUSH32 0x0 PUSH1 0x1 PUSH1 0x1 PUSH1 0xA0 SHL SUB AND ADDRESS SUB PUSH2 0x23FE JUMPI PUSH1 0x20 PUSH1 0x40 MLOAD PUSH32 0x360894A13BA1A3210667C828492DB98DCA3E2076CC3735A920A3CA505D382BBC DUP2 MSTORE RETURN JUMPDEST PUSH1 0x40 MLOAD PUSH4 0x703E46DD PUSH1 0xE1 SHL DUP2 MSTORE PUSH1 0x4 SWAP1 REVERT JUMPDEST PUSH1 0x40 CALLDATASIZE PUSH1 0x3 NOT ADD SLT PUSH2 0x436 JUMPI PUSH2 0x2424 PUSH2 0x30E2 JUMP JUMPDEST PUSH1 0x24 CALLDATALOAD PUSH1 0x1 PUSH1 0x1 PUSH1 0x40 SHL SUB DUP2 GT PUSH2 0x436 JUMPI CALLDATASIZE PUSH1 0x23 DUP3 ADD SLT ISZERO PUSH2 0x436 JUMPI PUSH2 0x2454 SWAP1 CALLDATASIZE SWAP1 PUSH1 0x24 DUP2 PUSH1 0x4 ADD CALLDATALOAD SWAP2 ADD PUSH2 0x32FE JUMP JUMPDEST SWAP1 PUSH1 0x1 PUSH1 0x1 PUSH1 0xA0 SHL SUB PUSH32 0x0 DUP2 AND ADDRESS DUP2 EQ SWAP1 DUP2 ISZERO PUSH2 0x25E9 JUMPI JUMPDEST POP PUSH2 0x23FE JUMPI PUSH2 0x2498 PUSH2 0x35A1 JUMP JUMPDEST DUP2 AND SWAP1 PUSH1 0x40 MLOAD PUSH4 0x52D1902D PUSH1 0xE0 SHL DUP2 MSTORE PUSH1 0x20 DUP2 PUSH1 0x4 DUP2 DUP7 GAS STATICCALL PUSH1 0x0 SWAP2 DUP2 PUSH2 0x25B5 JUMPI JUMPDEST POP PUSH2 0x24D8 JUMPI PUSH1 0x40 MLOAD PUSH4 0x4C9C8CE3 PUSH1 0xE0 SHL DUP2 MSTORE PUSH1 0x4 DUP2 ADD DUP5 SWAP1 MSTORE PUSH1 0x24 SWAP1 REVERT JUMPDEST PUSH32 0x360894A13BA1A3210667C828492DB98DCA3E2076CC3735A920A3CA505D382BBC SWAP3 SWAP2 SWAP3 SWAP1 DUP2 DUP2 SUB PUSH2 0x259D JUMPI POP DUP3 EXTCODESIZE ISZERO PUSH2 0x2584 JUMPI DUP1 SLOAD PUSH1 0x1 PUSH1 0x1 PUSH1 0xA0 SHL SUB NOT AND DUP3 OR SWAP1 SSTORE PUSH1 0x40 MLOAD SWAP1 PUSH32 0xBC7CD75A20EE27FD9ADEBAB32041F755214DBC6BFFA90CC0225B39DA2E5C2D3B PUSH1 0x0 DUP1 LOG2 DUP3 MLOAD ISZERO PUSH2 0x256B JUMPI POP PUSH1 0x0 DUP1 DUP4 PUSH1 0x20 PUSH2 0x1B SWAP6 MLOAD SWAP2 ADD DUP5 GAS DELEGATECALL PUSH2 0x2565 PUSH2 0x3375 JUMP JUMPDEST SWAP2 PUSH2 0x3C27 JUMP JUMPDEST SWAP2 POP POP CALLVALUE PUSH2 0x2575 JUMPI STOP JUMPDEST PUSH4 0xB398979F PUSH1 0xE0 SHL DUP2 MSTORE PUSH1 0x4 SWAP1 REVERT JUMPDEST PUSH1 0x40 MLOAD PUSH4 0x4C9C8CE3 PUSH1 0xE0 SHL DUP2 MSTORE PUSH1 0x4 DUP2 ADD DUP4 SWAP1 MSTORE PUSH1 0x24 SWAP1 REVERT JUMPDEST PUSH1 0x24 SWAP1 PUSH1 0x40 MLOAD SWAP1 PUSH4 0x2A875269 PUSH1 0xE2 SHL DUP3 MSTORE PUSH1 0x4 DUP3 ADD MSTORE REVERT JUMPDEST SWAP1 SWAP2 POP PUSH1 0x20 DUP2 RETURNDATASIZE PUSH1 0x20 GT PUSH2 0x25E1 JUMPI JUMPDEST DUP2 PUSH2 0x25D1 PUSH1 0x20 SWAP4 DUP4 PUSH2 0x31DD JUMP JUMPDEST DUP2 ADD SUB SLT PUSH2 0x436 JUMPI MLOAD SWAP1 DUP6 PUSH2 0x24BA JUMP JUMPDEST RETURNDATASIZE SWAP2 POP PUSH2 0x25C4 JUMP JUMPDEST SWAP1 POP DUP2 PUSH32 0x360894A13BA1A3210667C828492DB98DCA3E2076CC3735A920A3CA505D382BBC SLOAD AND EQ ISZERO DUP5 PUSH2 0x248B JUMP JUMPDEST CALLVALUE PUSH2 0x436 JUMPI PUSH1 0x40 CALLDATASIZE PUSH1 0x3 NOT ADD SLT PUSH2 0x436 JUMPI PUSH1 0x4 CALLDATALOAD PUSH1 0x1 PUSH1 0x1 PUSH1 0xA0 SHL SUB DUP2 AND SWAP1 DUP2 SWAP1 SUB PUSH2 0x436 JUMPI PUSH1 0x24 CALLDATALOAD SWAP1 PUSH2 0x2649 PUSH2 0x34E9 JUMP JUMPDEST DUP2 SELFBALANCE LT PUSH2 0x26A4 JUMPI PUSH1 0x0 DUP1 DUP1 SWAP4 DUP2 SWAP4 GAS CALL PUSH2 0x2661 PUSH2 0x3375 JUMP JUMPDEST POP ISZERO PUSH2 0x2669 JUMPI STOP JUMPDEST PUSH1 0x40 MLOAD PUSH3 0x461BCD PUSH1 0xE5 SHL DUP2 MSTORE PUSH1 0x20 PUSH1 0x4 DUP3 ADD MSTORE PUSH1 0x13 PUSH1 0x24 DUP3 ADD MSTORE PUSH19 0x115512081D1C985B9CD9995C8819985A5B1959 PUSH1 0x6A SHL PUSH1 0x44 DUP3 ADD MSTORE PUSH1 0x64 SWAP1 REVERT JUMPDEST PUSH1 0x40 MLOAD PUSH3 0x461BCD PUSH1 0xE5 SHL DUP2 MSTORE PUSH1 0x20 PUSH1 0x4 DUP3 ADD MSTORE PUSH1 0x18 PUSH1 0x24 DUP3 ADD MSTORE PUSH32 0x496E73756666696369656E74204554482062616C616E63650000000000000000 PUSH1 0x44 DUP3 ADD MSTORE PUSH1 0x64 SWAP1 REVERT JUMPDEST CALLVALUE PUSH2 0x436 JUMPI PUSH1 0x0 CALLDATASIZE PUSH1 0x3 NOT ADD SLT PUSH2 0x436 JUMPI PUSH2 0x2702 PUSH2 0x3545 JUMP JUMPDEST PUSH1 0x0 DUP1 MLOAD PUSH1 0x20 PUSH2 0x3CCB DUP4 CODECOPY DUP2 MLOAD SWAP2 MSTORE DUP1 SLOAD PUSH1 0xFF DUP2 AND ISZERO PUSH2 0x274E JUMPI PUSH1 0xFF NOT AND SWAP1 SSTORE PUSH32 0x5DB9EE0A495BF2E6FF9C91A7834C1BA4FDD244A5E8AA4E537BD38AEAE4B073AA PUSH1 0x20 PUSH1 0x40 MLOAD CALLER DUP2 MSTORE LOG1 STOP JUMPDEST PUSH1 0x40 MLOAD PUSH4 0x8DFC202B PUSH1 0xE0 SHL DUP2 MSTORE PUSH1 0x4 SWAP1 REVERT JUMPDEST CALLVALUE PUSH2 0x436 JUMPI PUSH1 0x40 CALLDATASIZE PUSH1 0x3 NOT ADD SLT PUSH2 0x436 JUMPI PUSH2 0x2779 PUSH2 0x30F8 JUMP JUMPDEST CALLER PUSH1 0x1 PUSH1 0x1 PUSH1 0xA0 SHL SUB DUP3 AND SUB PUSH2 0x2795 JUMPI PUSH2 0x1B SWAP1 PUSH1 0x4 CALLDATALOAD PUSH2 0x3A91 JUMP JUMPDEST PUSH1 0x40 MLOAD PUSH4 0x334BD919 PUSH1 0xE1 SHL DUP2 MSTORE PUSH1 0x4 SWAP1 REVERT JUMPDEST CALLVALUE PUSH2 0x436 JUMPI PUSH1 0x20 CALLDATASIZE PUSH1 0x3 NOT ADD SLT PUSH2 0x436 JUMPI PUSH1 0x4 CALLDATALOAD PUSH1 0x4 DUP2 LT ISZERO PUSH2 0x436 JUMPI PUSH2 0x27D0 PUSH2 0x280D SWAP2 PUSH2 0x313E JUMP JUMPDEST PUSH2 0x27D9 DUP2 PUSH2 0x31FE JUMP JUMPDEST SWAP1 PUSH1 0x1 DUP2 ADD SLOAD SWAP1 PUSH1 0x2 DUP2 ADD SLOAD SWAP1 PUSH1 0x3 DUP2 ADD SLOAD PUSH1 0xFF PUSH1 0x5 PUSH1 0x4 DUP5 ADD SLOAD SWAP4 ADD SLOAD AND SWAP3 PUSH1 0x40 MLOAD SWAP7 DUP8 SWAP7 PUSH1 0xC0 DUP9 MSTORE PUSH1 0xC0 DUP9 ADD SWAP1 PUSH2 0x32A3 JUMP JUMPDEST SWAP5 PUSH1 0x20 DUP8 ADD MSTORE PUSH1 0x40 DUP7 ADD MSTORE PUSH1 0x60 DUP6 ADD MSTORE PUSH1 0x80 DUP5 ADD MSTORE ISZERO ISZERO PUSH1 0xA0 DUP4 ADD MSTORE SUB SWAP1 RETURN JUMPDEST CALLVALUE PUSH2 0x436 JUMPI PUSH1 0x0 CALLDATASIZE PUSH1 0x3 NOT ADD SLT PUSH2 0x436 JUMPI PUSH1 0x20 PUSH1 0x17 SLOAD PUSH1 0x40 MLOAD SWAP1 DUP2 MSTORE RETURN JUMPDEST CALLVALUE PUSH2 0x436 JUMPI PUSH1 0x40 CALLDATASIZE PUSH1 0x3 NOT ADD SLT PUSH2 0x436 JUMPI PUSH2 0x1B PUSH1 0x4 CALLDATALOAD PUSH2 0x286A PUSH2 0x30F8 JUMP JUMPDEST SWAP1 DUP1 PUSH1 0x0 MSTORE PUSH1 0x0 DUP1 MLOAD PUSH1 0x20 PUSH2 0x3CAB DUP4 CODECOPY DUP2 MLOAD SWAP2 MSTORE PUSH1 0x20 MSTORE PUSH2 0x2892 PUSH1 0x1 PUSH1 0x40 PUSH1 0x0 KECCAK256 ADD SLOAD PUSH2 0x35DB JUMP JUMPDEST PUSH2 0x3A1C JUMP JUMPDEST CALLVALUE PUSH2 0x436 JUMPI PUSH1 0x20 CALLDATASIZE PUSH1 0x3 NOT ADD SLT PUSH2 0x436 JUMPI PUSH1 0x4 CALLDATALOAD PUSH2 0x28B3 PUSH2 0x346F JUMP JUMPDEST PUSH2 0x28BB PUSH2 0x3444 JUMP JUMPDEST PUSH2 0x28C3 PUSH2 0x33C5 JUMP JUMPDEST PUSH2 0x28CC DUP2 PUSH2 0x360E JUMP JUMPDEST PUSH1 0x0 SLOAD PUSH2 0x28E5 SWAP1 DUP3 SWAP1 CALLER SWAP1 PUSH1 0x1 PUSH1 0x1 PUSH1 0xA0 SHL SUB AND PUSH2 0x33F5 JUMP JUMPDEST PUSH2 0x28F1 DUP2 PUSH1 0x7 SLOAD PUSH2 0x335B JUMP JUMPDEST PUSH1 0x7 SSTORE PUSH3 0x15180 TIMESTAMP DIV PUSH1 0x0 MSTORE PUSH1 0xA PUSH1 0x20 MSTORE PUSH1 0x40 PUSH1 0x0 KECCAK256 PUSH2 0x2912 DUP3 DUP3 SLOAD PUSH2 0x335B JUMP JUMPDEST SWAP1 SSTORE PUSH1 0x40 MLOAD SWAP1 DUP1 DUP3 MSTORE TIMESTAMP PUSH1 0x20 DUP4 ADD MSTORE PUSH20 0x6F7065726174696F6E616C5F7769746864726177 PUSH1 0x60 SHL DUP1 SWAP3 CALLER SWAP1 PUSH32 0xD5FB189E61D5D29D4C1AE35DDDF9A74B32B17616667EB42F9A36105C73BEE4D3 PUSH1 0x40 CALLER SWAP3 LOG4 PUSH1 0x40 MLOAD SWAP1 DUP2 MSTORE TIMESTAMP PUSH1 0x20 DUP3 ADD MSTORE CALLER SWAP1 PUSH32 0xB3E34DDCA7BFC93B361617FF32F2023B3650CE958BF594A4E5FA84F7C1A34D14 PUSH1 0x40 CALLER SWAP3 LOG4 PUSH1 0x1 PUSH1 0x0 DUP1 MLOAD PUSH1 0x20 PUSH2 0x3CEB DUP4 CODECOPY DUP2 MLOAD SWAP2 MSTORE SSTORE STOP JUMPDEST CALLVALUE PUSH2 0x436 JUMPI PUSH1 0x40 CALLDATASIZE PUSH1 0x3 NOT ADD SLT PUSH2 0x436 JUMPI PUSH1 0x4 CALLDATALOAD PUSH1 0x24 CALLDATALOAD PUSH2 0x29CA PUSH2 0x34E9 JUMP JUMPDEST DUP2 PUSH1 0x8 SSTORE DUP1 PUSH1 0x9 SSTORE PUSH1 0x40 MLOAD SWAP2 DUP3 MSTORE PUSH1 0x20 DUP3 ADD MSTORE PUSH32 0x86CA55648BC4E3974630A90ECA019D2BFC64C8EAA84E093D677CAFFA363F9CDF PUSH1 0x40 CALLER SWAP3 LOG2 STOP JUMPDEST CALLVALUE PUSH2 0x436 JUMPI PUSH1 0x20 CALLDATASIZE PUSH1 0x3 NOT ADD SLT PUSH2 0x436 JUMPI PUSH1 0x4 CALLDATALOAD PUSH1 0x0 MSTORE PUSH1 0x0 DUP1 MLOAD PUSH1 0x20 PUSH2 0x3CAB DUP4 CODECOPY DUP2 MLOAD SWAP2 MSTORE PUSH1 0x20 MSTORE PUSH1 0x20 PUSH1 0x1 PUSH1 0x40 PUSH1 0x0 KECCAK256 ADD SLOAD PUSH1 0x40 MLOAD SWAP1 DUP2 MSTORE RETURN JUMPDEST CALLVALUE PUSH2 0x436 JUMPI PUSH1 0x0 CALLDATASIZE PUSH1 0x3 NOT ADD SLT PUSH2 0x436 JUMPI PUSH1 0x60 PUSH1 0x16 SLOAD PUSH2 0x2A61 DUP2 TIMESTAMP PUSH2 0x3368 JUMP JUMPDEST PUSH1 0x17 SLOAD LT ISZERO PUSH1 0x15 SLOAD SWAP2 PUSH1 0x40 MLOAD SWAP3 DUP4 MSTORE PUSH1 0x20 DUP4 ADD MSTORE PUSH1 0x40 DUP3 ADD MSTORE RETURN JUMPDEST CALLVALUE PUSH2 0x436 JUMPI PUSH1 0x40 CALLDATASIZE PUSH1 0x3 NOT ADD SLT PUSH2 0x436 JUMPI PUSH1 0x1 PUSH1 0x1 PUSH1 0xA0 SHL SUB PUSH2 0x2A9D PUSH2 0x30E2 JUMP JUMPDEST AND PUSH1 0x0 MSTORE PUSH1 0x11 PUSH1 0x20 MSTORE PUSH1 0x40 PUSH1 0x0 KECCAK256 PUSH1 0x24 CALLDATALOAD PUSH1 0x0 MSTORE PUSH1 0x20 MSTORE PUSH1 0x20 PUSH1 0xFF PUSH1 0x40 PUSH1 0x0 KECCAK256 SLOAD AND PUSH1 0x40 MLOAD SWAP1 ISZERO ISZERO DUP2 MSTORE RETURN JUMPDEST CALLVALUE PUSH2 0x436 JUMPI PUSH1 0x40 CALLDATASIZE PUSH1 0x3 NOT ADD SLT PUSH2 0x436 JUMPI PUSH1 0x1 PUSH1 0x1 PUSH1 0x40 SHL SUB PUSH1 0x4 CALLDATALOAD DUP2 DUP2 GT PUSH2 0x436 JUMPI PUSH2 0x2AFA SWAP1 CALLDATASIZE SWAP1 PUSH1 0x4 ADD PUSH2 0x310E JUMP JUMPDEST SWAP1 SWAP2 PUSH1 0x24 CALLDATALOAD SWAP1 DUP2 GT PUSH2 0x436 JUMPI PUSH2 0x2B14 SWAP1 CALLDATASIZE SWAP1 PUSH1 0x4 ADD PUSH2 0x310E JUMP JUMPDEST PUSH2 0x2B1F SWAP4 SWAP2 SWAP4 PUSH2 0x3444 JUMP JUMPDEST PUSH2 0x2B27 PUSH2 0x33C5 JUMP JUMPDEST DUP1 DUP4 SUB PUSH2 0x2C59 JUMPI PUSH1 0x0 SWAP4 PUSH1 0x0 JUMPDEST DUP5 DUP2 LT PUSH2 0x2C28 JUMPI POP PUSH1 0x0 SLOAD PUSH2 0x2B57 SWAP1 DUP7 SWAP1 ADDRESS SWAP1 CALLER SWAP1 PUSH1 0x1 PUSH1 0x1 PUSH1 0xA0 SHL SUB AND PUSH2 0x3732 JUMP JUMPDEST CALLER PUSH1 0x0 MSTORE PUSH1 0x20 SWAP2 PUSH1 0x2 PUSH1 0x20 MSTORE PUSH1 0x40 PUSH1 0x0 KECCAK256 PUSH2 0x2B73 DUP8 DUP3 SLOAD PUSH2 0x335B JUMP JUMPDEST SWAP1 SSTORE PUSH2 0x2B81 DUP7 PUSH1 0x5 SLOAD PUSH2 0x335B JUMP JUMPDEST PUSH1 0x5 SSTORE PUSH1 0x0 JUMPDEST DUP6 DUP2 LT PUSH2 0x2BD5 JUMPI DUP7 DUP7 PUSH1 0x40 MLOAD SWAP2 DUP3 MSTORE PUSH1 0x20 DUP3 ADD MSTORE PUSH32 0x36BA660C6B65EE17A225B58A6A8B4835A77C2BF10FC733783EF47039E222B245 PUSH1 0x40 CALLER SWAP3 LOG2 PUSH1 0x1 PUSH1 0x0 DUP1 MLOAD PUSH1 0x20 PUSH2 0x3CEB DUP4 CODECOPY DUP2 MLOAD SWAP2 MSTORE SSTORE STOP JUMPDEST DUP1 PUSH2 0x2BE3 PUSH1 0x1 SWAP3 DUP9 DUP9 PUSH2 0x3335 JUMP JUMPDEST CALLDATALOAD PUSH2 0x2BEF DUP3 DUP6 DUP8 PUSH2 0x3335 JUMP JUMPDEST CALLDATALOAD SWAP1 PUSH1 0x40 MLOAD SWAP1 DUP2 MSTORE TIMESTAMP DUP8 DUP3 ADD MSTORE PUSH32 0x4EEF3D1EFB11F00508D9B7BB632DDCFA6DA9D7105BD39F404BDD7362E6C59DBC PUSH1 0x40 CALLER SWAP3 LOG3 ADD PUSH2 0x2B87 JUMP JUMPDEST SWAP5 PUSH2 0x2C34 DUP7 DUP7 DUP7 PUSH2 0x3335 JUMP JUMPDEST CALLDATALOAD ISZERO PUSH2 0x8F0 JUMPI PUSH2 0x2C52 PUSH1 0x1 SWAP2 PUSH2 0x2C4B DUP9 DUP9 DUP9 PUSH2 0x3335 JUMP JUMPDEST CALLDATALOAD SWAP1 PUSH2 0x335B JUMP JUMPDEST SWAP6 ADD PUSH2 0x2B34 JUMP JUMPDEST PUSH1 0x40 MLOAD PUSH3 0x461BCD PUSH1 0xE5 SHL DUP2 MSTORE PUSH1 0x20 PUSH1 0x4 DUP3 ADD MSTORE PUSH1 0x15 PUSH1 0x24 DUP3 ADD MSTORE PUSH21 0x82E4E4C2F240D8CADCCEE8D040DAD2E6DAC2E8C6D PUSH1 0x5B SHL PUSH1 0x44 DUP3 ADD MSTORE PUSH1 0x64 SWAP1 REVERT JUMPDEST CALLVALUE PUSH2 0x436 JUMPI PUSH1 0x0 CALLDATASIZE PUSH1 0x3 NOT ADD SLT PUSH2 0x436 JUMPI PUSH1 0x0 SLOAD PUSH1 0x40 MLOAD PUSH4 0x70A08231 PUSH1 0xE0 SHL DUP2 MSTORE ADDRESS PUSH1 0x4 DUP3 ADD MSTORE SWAP1 PUSH1 0x20 SWAP1 DUP3 SWAP1 PUSH1 0x24 SWAP1 DUP3 SWAP1 PUSH1 0x1 PUSH1 0x1 PUSH1 0xA0 SHL SUB AND GAS STATICCALL DUP1 ISZERO PUSH2 0x617 JUMPI PUSH1 0x0 SWAP1 PUSH2 0x2CEC JUMPI JUMPDEST PUSH1 0x20 SWAP1 PUSH1 0x40 MLOAD SWAP1 DUP2 MSTORE RETURN JUMPDEST POP PUSH1 0x20 DUP2 RETURNDATASIZE PUSH1 0x20 GT PUSH2 0x2D17 JUMPI JUMPDEST DUP2 PUSH2 0x2D06 PUSH1 0x20 SWAP4 DUP4 PUSH2 0x31DD JUMP JUMPDEST DUP2 ADD SUB SLT PUSH2 0x436 JUMPI PUSH1 0x20 SWAP1 MLOAD PUSH2 0x2CE1 JUMP JUMPDEST RETURNDATASIZE SWAP2 POP PUSH2 0x2CF9 JUMP JUMPDEST CALLVALUE PUSH2 0x436 JUMPI PUSH1 0x60 CALLDATASIZE PUSH1 0x3 NOT ADD SLT PUSH2 0x436 JUMPI PUSH2 0x2D38 PUSH2 0x30E2 JUMP JUMPDEST PUSH1 0x24 CALLDATALOAD PUSH1 0x44 CALLDATALOAD SWAP2 PUSH2 0x2D47 PUSH2 0x346F JUMP JUMPDEST PUSH2 0x2D4F PUSH2 0x3444 JUMP JUMPDEST PUSH2 0x2D57 PUSH2 0x33C5 JUMP JUMPDEST PUSH2 0x2D60 DUP3 PUSH2 0x360E JUMP JUMPDEST PUSH1 0x1 DUP1 PUSH1 0xA0 SHL SUB SWAP1 PUSH2 0x2D77 DUP4 DUP3 DUP5 PUSH1 0x0 SLOAD AND PUSH2 0x33F5 JUMP JUMPDEST PUSH2 0x2D83 DUP4 PUSH1 0x7 SLOAD PUSH2 0x335B JUMP JUMPDEST PUSH1 0x7 SSTORE PUSH3 0x15180 TIMESTAMP DIV PUSH1 0x0 MSTORE PUSH1 0xA PUSH1 0x20 MSTORE PUSH1 0x40 PUSH1 0x0 KECCAK256 PUSH2 0x2DA4 DUP5 DUP3 SLOAD PUSH2 0x335B JUMP JUMPDEST SWAP1 SSTORE AND DUP3 PUSH1 0x40 MLOAD DUP4 DUP2 MSTORE TIMESTAMP PUSH1 0x20 DUP3 ADD MSTORE DUP3 PUSH32 0xD5FB189E61D5D29D4C1AE35DDDF9A74B32B17616667EB42F9A36105C73BEE4D3 PUSH1 0x40 CALLER SWAP4 LOG4 PUSH1 0x40 MLOAD SWAP2 DUP3 MSTORE TIMESTAMP PUSH1 0x20 DUP4 ADD MSTORE PUSH32 0xB3E34DDCA7BFC93B361617FF32F2023B3650CE958BF594A4E5FA84F7C1A34D14 PUSH1 0x40 CALLER SWAP4 LOG4 PUSH1 0x1 PUSH1 0x0 DUP1 MLOAD PUSH1 0x20 PUSH2 0x3CEB DUP4 CODECOPY DUP2 MLOAD SWAP2 MSTORE SSTORE STOP JUMPDEST CALLVALUE PUSH2 0x436 JUMPI PUSH1 0x40 CALLDATASIZE PUSH1 0x3 NOT ADD SLT PUSH2 0x436 JUMPI PUSH1 0x4 CALLDATALOAD PUSH1 0x4 DUP2 LT ISZERO PUSH2 0x436 JUMPI PUSH1 0x24 CALLDATALOAD PUSH2 0x2E49 PUSH2 0x3444 JUMP JUMPDEST PUSH2 0x2E51 PUSH2 0x33C5 JUMP JUMPDEST PUSH2 0x2E5A DUP3 PUSH2 0x313E JUMP JUMPDEST SWAP1 PUSH1 0x40 MLOAD PUSH2 0x2E67 DUP2 PUSH2 0x31A7 JUMP JUMPDEST PUSH2 0x2E70 DUP4 PUSH2 0x31FE JUMP JUMPDEST DUP2 MSTORE PUSH1 0x1 DUP4 ADD SLOAD SWAP1 PUSH1 0x20 SWAP2 DUP3 DUP3 ADD SWAP1 DUP2 MSTORE PUSH1 0x2 DUP6 ADD SLOAD SWAP1 PUSH1 0x40 DUP4 ADD SWAP2 DUP3 MSTORE PUSH1 0x3 DUP7 ADD SLOAD SWAP3 PUSH1 0x60 DUP2 ADD SWAP4 DUP5 MSTORE PUSH1 0xFF PUSH1 0x5 PUSH1 0x4 DUP10 ADD SLOAD SWAP9 PUSH1 0x80 DUP5 ADD SWAP10 DUP11 MSTORE ADD SLOAD AND ISZERO SWAP1 PUSH1 0xA0 DUP3 ISZERO SWAP2 ADD MSTORE PUSH2 0x666 JUMPI MLOAD SWAP1 DUP2 DUP6 LT DUP1 ISZERO PUSH2 0x2F78 JUMPI JUMPDEST PUSH2 0x2F51 JUMPI POP POP PUSH1 0x0 SLOAD PUSH1 0x1 PUSH1 0x1 PUSH1 0xA0 SHL SUB SWAP1 PUSH2 0x2EEB SWAP1 DUP6 SWAP1 ADDRESS SWAP1 CALLER SWAP1 DUP6 AND PUSH2 0x3732 JUMP JUMPDEST CALLER PUSH1 0x0 MSTORE PUSH1 0xB DUP4 MSTORE DUP1 PUSH1 0x40 PUSH1 0x0 KECCAK256 SLOAD AND DUP1 ISZERO ISZERO DUP1 PUSH2 0x102B JUMPI PUSH2 0xF8A JUMPI POP PUSH1 0x1 SLOAD SWAP2 MLOAD SWAP5 MLOAD PUSH1 0x40 MLOAD PUSH4 0xACE8EB87 PUSH1 0xE0 SHL DUP2 MSTORE CALLER PUSH1 0x4 DUP3 ADD MSTORE PUSH1 0xFF DUP9 AND PUSH1 0x24 DUP3 ADD MSTORE PUSH1 0x44 DUP2 ADD DUP7 SWAP1 MSTORE PUSH1 0x64 DUP2 ADD SWAP7 SWAP1 SWAP7 MSTORE PUSH1 0x84 DUP7 ADD MSTORE DUP3 SWAP2 DUP6 SWAP2 AND DUP2 PUSH1 0x0 DUP2 PUSH1 0xA4 DUP2 ADD PUSH2 0xECF JUMP JUMPDEST MLOAD PUSH1 0x40 MLOAD PUSH4 0xEAFC9D55 PUSH1 0xE0 SHL DUP2 MSTORE PUSH1 0x4 DUP2 ADD DUP7 SWAP1 MSTORE PUSH1 0x24 DUP2 ADD SWAP3 SWAP1 SWAP3 MSTORE PUSH1 0x44 DUP3 ADD MSTORE PUSH1 0x64 SWAP1 REVERT JUMPDEST POP DUP1 MLOAD DUP6 GT PUSH2 0x2EC8 JUMP JUMPDEST CALLVALUE PUSH2 0x436 JUMPI PUSH1 0x20 CALLDATASIZE PUSH1 0x3 NOT ADD SLT PUSH2 0x436 JUMPI PUSH1 0x1 PUSH1 0x1 PUSH1 0xA0 SHL SUB PUSH2 0x2FA3 PUSH2 0x30E2 JUMP JUMPDEST AND PUSH1 0x0 MSTORE PUSH1 0x2 PUSH1 0x20 MSTORE PUSH1 0x20 PUSH1 0x40 PUSH1 0x0 KECCAK256 SLOAD PUSH1 0x40 MLOAD SWAP1 DUP2 MSTORE RETURN JUMPDEST CALLVALUE PUSH2 0x436 JUMPI PUSH1 0x0 CALLDATASIZE PUSH1 0x3 NOT ADD SLT PUSH2 0x436 JUMPI PUSH2 0x2FD5 PUSH2 0x33C5 JUMP JUMPDEST CALLER PUSH1 0x0 MSTORE PUSH1 0xC PUSH1 0x20 MSTORE PUSH1 0x40 PUSH1 0x0 KECCAK256 SLOAD DUP1 ISZERO PUSH2 0x8F0 JUMPI CALLER PUSH1 0x0 DUP2 DUP2 MSTORE PUSH1 0xC PUSH1 0x20 MSTORE PUSH1 0x40 DUP2 KECCAK256 DUP2 SWAP1 SSTORE SLOAD PUSH2 0x3011 SWAP2 DUP4 SWAP2 PUSH1 0x1 PUSH1 0x1 PUSH1 0xA0 SHL SUB AND PUSH2 0x33F5 JUMP JUMPDEST PUSH1 0x40 MLOAD SWAP1 DUP2 MSTORE TIMESTAMP PUSH1 0x20 DUP3 ADD MSTORE PUSH19 0x3932B332B93930B62FB1B7B6B6B4B9B9B4B7B7 PUSH1 0x69 SHL SWAP1 CALLER SWAP1 PUSH32 0xD5FB189E61D5D29D4C1AE35DDDF9A74B32B17616667EB42F9A36105C73BEE4D3 PUSH1 0x40 CALLER SWAP3 LOG4 PUSH1 0x1 PUSH1 0x0 DUP1 MLOAD PUSH1 0x20 PUSH2 0x3CEB DUP4 CODECOPY DUP2 MLOAD SWAP2 MSTORE SSTORE STOP JUMPDEST CALLVALUE PUSH2 0x436 JUMPI PUSH1 0x0 CALLDATASIZE PUSH1 0x3 NOT ADD SLT PUSH2 0x436 JUMPI PUSH1 0x20 PUSH1 0xF SLOAD PUSH1 0x40 MLOAD SWAP1 DUP2 MSTORE RETURN JUMPDEST CALLVALUE PUSH2 0x436 JUMPI PUSH1 0x20 CALLDATASIZE PUSH1 0x3 NOT ADD SLT PUSH2 0x436 JUMPI PUSH1 0x4 CALLDATALOAD SWAP1 PUSH4 0xFFFFFFFF PUSH1 0xE0 SHL DUP3 AND DUP1 SWAP3 SUB PUSH2 0x436 JUMPI PUSH1 0x20 SWAP2 PUSH4 0x7965DB0B PUSH1 0xE0 SHL DUP2 EQ SWAP1 DUP2 ISZERO PUSH2 0x30D1 JUMPI JUMPDEST POP ISZERO ISZERO DUP2 MSTORE RETURN JUMPDEST PUSH4 0x1FFC9A7 PUSH1 0xE0 SHL EQ SWAP1 POP DUP4 PUSH2 0x30CA JUMP JUMPDEST PUSH1 0x4 CALLDATALOAD SWAP1 PUSH1 0x1 PUSH1 0x1 PUSH1 0xA0 SHL SUB DUP3 AND DUP3 SUB PUSH2 0x436 JUMPI JUMP JUMPDEST PUSH1 0x24 CALLDATALOAD SWAP1 PUSH1 0x1 PUSH1 0x1 PUSH1 0xA0 SHL SUB DUP3 AND DUP3 SUB PUSH2 0x436 JUMPI JUMP JUMPDEST SWAP2 DUP2 PUSH1 0x1F DUP5 ADD SLT ISZERO PUSH2 0x436 JUMPI DUP3 CALLDATALOAD SWAP2 PUSH1 0x1 PUSH1 0x1 PUSH1 0x40 SHL SUB DUP4 GT PUSH2 0x436 JUMPI PUSH1 0x20 DUP1 DUP6 ADD SWAP5 DUP5 PUSH1 0x5 SHL ADD ADD GT PUSH2 0x436 JUMPI JUMP JUMPDEST PUSH1 0x4 DUP2 LT ISZERO PUSH2 0x3157 JUMPI PUSH1 0x0 MSTORE PUSH1 0x4 PUSH1 0x20 MSTORE PUSH1 0x40 PUSH1 0x0 KECCAK256 SWAP1 JUMP JUMPDEST PUSH4 0x4E487B71 PUSH1 0xE0 SHL PUSH1 0x0 MSTORE PUSH1 0x21 PUSH1 0x4 MSTORE PUSH1 0x24 PUSH1 0x0 REVERT JUMPDEST SWAP1 PUSH1 0x1 DUP3 DUP2 SHR SWAP3 AND DUP1 ISZERO PUSH2 0x319D JUMPI JUMPDEST PUSH1 0x20 DUP4 LT EQ PUSH2 0x3187 JUMPI JUMP JUMPDEST PUSH4 0x4E487B71 PUSH1 0xE0 SHL PUSH1 0x0 MSTORE PUSH1 0x22 PUSH1 0x4 MSTORE PUSH1 0x24 PUSH1 0x0 REVERT JUMPDEST SWAP2 PUSH1 0x7F AND SWAP2 PUSH2 0x317C JUMP JUMPDEST PUSH1 0xC0 DUP2 ADD SWAP1 DUP2 LT PUSH1 0x1 PUSH1 0x1 PUSH1 0x40 SHL SUB DUP3 GT OR PUSH2 0x1C23 JUMPI PUSH1 0x40 MSTORE JUMP JUMPDEST PUSH1 0x40 DUP2 ADD SWAP1 DUP2 LT PUSH1 0x1 PUSH1 0x1 PUSH1 0x40 SHL SUB DUP3 GT OR PUSH2 0x1C23 JUMPI PUSH1 0x40 MSTORE JUMP JUMPDEST SWAP1 PUSH1 0x1F DUP1 NOT SWAP2 ADD AND DUP2 ADD SWAP1 DUP2 LT PUSH1 0x1 PUSH1 0x1 PUSH1 0x40 SHL SUB DUP3 GT OR PUSH2 0x1C23 JUMPI PUSH1 0x40 MSTORE JUMP JUMPDEST SWAP1 PUSH1 0x40 MLOAD SWAP2 DUP3 PUSH1 0x0 DUP3 SLOAD PUSH2 0x3211 DUP2 PUSH2 0x316D JUMP JUMPDEST SWAP1 DUP2 DUP5 MSTORE PUSH1 0x20 SWAP5 PUSH1 0x1 SWAP2 PUSH1 0x1 DUP2 AND SWAP1 DUP2 PUSH1 0x0 EQ PUSH2 0x3281 JUMPI POP PUSH1 0x1 EQ PUSH2 0x3242 JUMPI JUMPDEST POP POP POP PUSH2 0x3240 SWAP3 POP SUB DUP4 PUSH2 0x31DD JUMP JUMPDEST JUMP JUMPDEST PUSH1 0x0 SWAP1 DUP2 MSTORE DUP6 DUP2 KECCAK256 SWAP6 SWAP4 POP SWAP2 SWAP1 JUMPDEST DUP2 DUP4 LT PUSH2 0x3269 JUMPI POP POP PUSH2 0x3240 SWAP4 POP DUP3 ADD ADD CODESIZE DUP1 DUP1 PUSH2 0x3231 JUMP JUMPDEST DUP6 SLOAD DUP9 DUP5 ADD DUP6 ADD MSTORE SWAP5 DUP6 ADD SWAP5 DUP8 SWAP5 POP SWAP2 DUP4 ADD SWAP2 PUSH2 0x3250 JUMP JUMPDEST SWAP3 POP POP POP PUSH2 0x3240 SWAP5 SWAP3 POP PUSH1 0xFF NOT AND DUP3 DUP5 ADD MSTORE ISZERO ISZERO PUSH1 0x5 SHL DUP3 ADD ADD CODESIZE DUP1 DUP1 PUSH2 0x3231 JUMP JUMPDEST SWAP2 SWAP1 DUP3 MLOAD SWAP3 DUP4 DUP3 MSTORE PUSH1 0x0 JUMPDEST DUP5 DUP2 LT PUSH2 0x32CF JUMPI POP POP DUP3 PUSH1 0x0 PUSH1 0x20 DUP1 SWAP5 SWAP6 DUP5 ADD ADD MSTORE PUSH1 0x1F DUP1 NOT SWAP2 ADD AND ADD ADD SWAP1 JUMP JUMPDEST PUSH1 0x20 DUP2 DUP4 ADD DUP2 ADD MLOAD DUP5 DUP4 ADD DUP3 ADD MSTORE ADD PUSH2 0x32AE JUMP JUMPDEST PUSH1 0x1 PUSH1 0x1 PUSH1 0x40 SHL SUB DUP2 GT PUSH2 0x1C23 JUMPI PUSH1 0x1F ADD PUSH1 0x1F NOT AND PUSH1 0x20 ADD SWAP1 JUMP JUMPDEST SWAP3 SWAP2 SWAP3 PUSH2 0x330A DUP3 PUSH2 0x32E3 JUMP JUMPDEST SWAP2 PUSH2 0x3318 PUSH1 0x40 MLOAD SWAP4 DUP5 PUSH2 0x31DD JUMP JUMPDEST DUP3 SWAP5 DUP2 DUP5 MSTORE DUP2 DUP4 ADD GT PUSH2 0x436 JUMPI DUP3 DUP2 PUSH1 0x20 SWAP4 DUP5 PUSH1 0x0 SWAP7 ADD CALLDATACOPY ADD ADD MSTORE JUMP JUMPDEST SWAP2 SWAP1 DUP2 LT ISZERO PUSH2 0x3345 JUMPI PUSH1 0x5 SHL ADD SWAP1 JUMP JUMPDEST PUSH4 0x4E487B71 PUSH1 0xE0 SHL PUSH1 0x0 MSTORE PUSH1 0x32 PUSH1 0x4 MSTORE PUSH1 0x24 PUSH1 0x0 REVERT JUMPDEST SWAP2 SWAP1 DUP3 ADD DUP1 SWAP3 GT PUSH2 0x1015 JUMPI JUMP JUMPDEST SWAP2 SWAP1 DUP3 SUB SWAP2 DUP3 GT PUSH2 0x1015 JUMPI JUMP JUMPDEST RETURNDATASIZE ISZERO PUSH2 0x33A0 JUMPI RETURNDATASIZE SWAP1 PUSH2 0x3386 DUP3 PUSH2 0x32E3 JUMP JUMPDEST SWAP2 PUSH2 0x3394 PUSH1 0x40 MLOAD SWAP4 DUP5 PUSH2 0x31DD JUMP JUMPDEST DUP3 MSTORE RETURNDATASIZE PUSH1 0x0 PUSH1 0x20 DUP5 ADD RETURNDATACOPY JUMP JUMPDEST PUSH1 0x60 SWAP1 JUMP JUMPDEST SWAP1 PUSH1 0x4 DUP3 LT ISZERO PUSH2 0x3157 JUMPI MSTORE JUMP JUMPDEST DUP2 DUP2 MUL SWAP3 SWAP2 DUP2 ISZERO SWAP2 DUP5 DIV EQ OR ISZERO PUSH2 0x1015 JUMPI JUMP JUMPDEST PUSH1 0x0 DUP1 MLOAD PUSH1 0x20 PUSH2 0x3CEB DUP4 CODECOPY DUP2 MLOAD SWAP2 MSTORE PUSH1 0x2 DUP2 SLOAD EQ PUSH2 0x33E3 JUMPI PUSH1 0x2 SWAP1 SSTORE JUMP JUMPDEST PUSH1 0x40 MLOAD PUSH4 0x3EE5AEB5 PUSH1 0xE0 SHL DUP2 MSTORE PUSH1 0x4 SWAP1 REVERT JUMPDEST PUSH1 0x40 MLOAD PUSH4 0xA9059CBB PUSH1 0xE0 SHL PUSH1 0x20 DUP3 ADD MSTORE PUSH1 0x1 PUSH1 0x1 PUSH1 0xA0 SHL SUB SWAP1 SWAP3 AND PUSH1 0x24 DUP4 ADD MSTORE PUSH1 0x44 DUP1 DUP4 ADD SWAP4 SWAP1 SWAP4 MSTORE SWAP2 DUP2 MSTORE PUSH1 0x80 DUP2 ADD SWAP2 PUSH1 0x1 PUSH1 0x1 PUSH1 0x40 SHL SUB DUP4 GT DUP3 DUP5 LT OR PUSH2 0x1C23 JUMPI PUSH2 0x3240 SWAP3 PUSH1 0x40 MSTORE PUSH2 0x3B9C JUMP JUMPDEST PUSH1 0xFF PUSH1 0x0 DUP1 MLOAD PUSH1 0x20 PUSH2 0x3CCB DUP4 CODECOPY DUP2 MLOAD SWAP2 MSTORE SLOAD AND PUSH2 0x345D JUMPI JUMP JUMPDEST PUSH1 0x40 MLOAD PUSH4 0xD93C0665 PUSH1 0xE0 SHL DUP2 MSTORE PUSH1 0x4 SWAP1 REVERT JUMPDEST CALLER PUSH1 0x0 SWAP1 DUP2 MSTORE PUSH32 0x395F4E35A18C2B5E556B3B2FF855307E76C0B3CC1CA71E19A70E83037E08E7B3 PUSH1 0x20 MSTORE PUSH1 0x40 SWAP1 KECCAK256 SLOAD PUSH32 0x10DAC8C06A04BEC0B551627DAD28BC00D6516B0CAACD1C7B345FCDB5211334E4 SWAP1 PUSH1 0xFF AND ISZERO PUSH2 0x34CB JUMPI POP JUMP JUMPDEST PUSH1 0x44 SWAP1 PUSH1 0x40 MLOAD SWAP1 PUSH4 0xE2517D3F PUSH1 0xE0 SHL DUP3 MSTORE CALLER PUSH1 0x4 DUP4 ADD MSTORE PUSH1 0x24 DUP3 ADD MSTORE REVERT JUMPDEST CALLER PUSH1 0x0 SWAP1 DUP2 MSTORE PUSH32 0x448256DB8F8FB95EE3EAAF89C1051414494E85CEBB6057FCF996CC3D0CCFB456 PUSH1 0x20 MSTORE PUSH1 0x40 SWAP1 KECCAK256 SLOAD PUSH32 0x97667070C54EF182B0F5858B034BEAC1B6F3089AA2D3188BB1E8929F4FA9B929 SWAP1 PUSH1 0xFF AND ISZERO PUSH2 0x34CB JUMPI POP JUMP JUMPDEST CALLER PUSH1 0x0 SWAP1 DUP2 MSTORE PUSH32 0x75442B0A96088B5456BC4ED01394C96A4FEEC0F883C9494257D76B96AB1C9B6B PUSH1 0x20 MSTORE PUSH1 0x40 SWAP1 KECCAK256 SLOAD PUSH32 0x65D7A28E3265B37A6474929F336521B332C1681B933F6CB9F3376673440D862A SWAP1 PUSH1 0xFF AND ISZERO PUSH2 0x34CB JUMPI POP JUMP JUMPDEST CALLER PUSH1 0x0 SWAP1 DUP2 MSTORE PUSH32 0xB7DB2DD08FCB62D0C9E08C51941CAE53C267786A0B75803FB7960902FC8EF97D PUSH1 0x20 MSTORE PUSH1 0x40 DUP2 KECCAK256 SLOAD PUSH1 0xFF AND ISZERO PUSH2 0x34CB JUMPI POP JUMP JUMPDEST DUP1 PUSH1 0x0 MSTORE PUSH1 0x0 DUP1 MLOAD PUSH1 0x20 PUSH2 0x3CAB DUP4 CODECOPY DUP2 MLOAD SWAP2 MSTORE PUSH1 0x20 MSTORE PUSH1 0x40 PUSH1 0x0 KECCAK256 CALLER PUSH1 0x0 MSTORE PUSH1 0x20 MSTORE PUSH1 0xFF PUSH1 0x40 PUSH1 0x0 KECCAK256 SLOAD AND ISZERO PUSH2 0x34CB JUMPI POP JUMP JUMPDEST PUSH1 0x9 SLOAD DUP1 DUP3 GT PUSH2 0x3714 JUMPI POP PUSH1 0x0 PUSH3 0x15180 TIMESTAMP DIV DUP2 MSTORE PUSH1 0xA PUSH1 0x20 MSTORE PUSH1 0x40 DUP2 KECCAK256 SLOAD PUSH2 0x3637 DUP4 DUP3 PUSH2 0x335B JUMP JUMPDEST SWAP1 PUSH1 0x8 SLOAD DUP1 SWAP3 GT PUSH2 0x36EC JUMPI POP POP DUP1 SLOAD PUSH1 0x40 MLOAD PUSH4 0x70A08231 PUSH1 0xE0 SHL DUP2 MSTORE ADDRESS PUSH1 0x4 DUP3 ADD MSTORE SWAP1 PUSH1 0x20 SWAP1 DUP3 SWAP1 PUSH1 0x24 SWAP1 DUP3 SWAP1 PUSH1 0x1 PUSH1 0x1 PUSH1 0xA0 SHL SUB AND GAS STATICCALL SWAP2 DUP3 ISZERO PUSH2 0x36E0 JUMPI DUP1 SWAP3 PUSH2 0x36A8 JUMPI JUMPDEST POP POP DUP1 DUP3 GT PUSH2 0x368A JUMPI POP POP JUMP JUMPDEST PUSH1 0x44 SWAP3 POP PUSH1 0x40 MLOAD SWAP2 PUSH4 0xCF479181 PUSH1 0xE0 SHL DUP4 MSTORE PUSH1 0x4 DUP4 ADD MSTORE PUSH1 0x24 DUP3 ADD MSTORE REVERT JUMPDEST SWAP1 SWAP2 POP PUSH1 0x20 DUP3 RETURNDATASIZE PUSH1 0x20 GT PUSH2 0x36D8 JUMPI JUMPDEST DUP2 PUSH2 0x36C4 PUSH1 0x20 SWAP4 DUP4 PUSH2 0x31DD JUMP JUMPDEST DUP2 ADD SUB SLT PUSH2 0x36D5 JUMPI POP MLOAD CODESIZE DUP1 PUSH2 0x367D JUMP JUMPDEST DUP1 REVERT JUMPDEST RETURNDATASIZE SWAP2 POP PUSH2 0x36B7 JUMP JUMPDEST PUSH1 0x40 MLOAD SWAP1 RETURNDATASIZE SWAP1 DUP3 RETURNDATACOPY RETURNDATASIZE SWAP1 REVERT JUMPDEST SWAP1 PUSH2 0x36F9 DUP5 PUSH1 0x44 SWAP4 PUSH2 0x335B JUMP JUMPDEST SWAP1 PUSH1 0x40 MLOAD SWAP2 PUSH4 0x9C8983D9 PUSH1 0xE0 SHL DUP4 MSTORE PUSH1 0x4 DUP4 ADD MSTORE PUSH1 0x24 DUP3 ADD MSTORE REVERT JUMPDEST PUSH1 0x44 SWAP3 POP PUSH1 0x40 MLOAD SWAP2 PUSH4 0x9C8983D9 PUSH1 0xE0 SHL DUP4 MSTORE PUSH1 0x4 DUP4 ADD MSTORE PUSH1 0x24 DUP3 ADD MSTORE REVERT JUMPDEST PUSH1 0x40 MLOAD PUSH4 0x23B872DD PUSH1 0xE0 SHL PUSH1 0x20 DUP3 ADD MSTORE PUSH1 0x1 PUSH1 0x1 PUSH1 0xA0 SHL SUB SWAP3 DUP4 AND PUSH1 0x24 DUP3 ADD MSTORE SWAP3 SWAP1 SWAP2 AND PUSH1 0x44 DUP4 ADD MSTORE PUSH1 0x64 DUP1 DUP4 ADD SWAP4 SWAP1 SWAP4 MSTORE SWAP2 DUP2 MSTORE PUSH1 0xA0 DUP2 ADD SWAP2 DUP2 DUP4 LT PUSH1 0x1 PUSH1 0x1 PUSH1 0x40 SHL SUB DUP5 GT OR PUSH2 0x1C23 JUMPI PUSH2 0x3240 SWAP3 PUSH1 0x40 MSTORE PUSH2 0x3B9C JUMP JUMPDEST PUSH1 0x1 PUSH1 0x1 PUSH1 0xA0 SHL SUB AND PUSH1 0x0 DUP2 DUP2 MSTORE PUSH32 0xB7DB2DD08FCB62D0C9E08C51941CAE53C267786A0B75803FB7960902FC8EF97D PUSH1 0x20 MSTORE PUSH1 0x40 DUP2 KECCAK256 SLOAD SWAP1 SWAP2 SWAP1 PUSH1 0x0 DUP1 MLOAD PUSH1 0x20 PUSH2 0x3CAB DUP4 CODECOPY DUP2 MLOAD SWAP2 MSTORE SWAP1 PUSH1 0xFF AND PUSH2 0x3813 JUMPI DUP3 DUP1 MSTORE PUSH1 0x20 MSTORE PUSH1 0x40 DUP3 KECCAK256 DUP2 DUP4 MSTORE PUSH1 0x20 MSTORE PUSH1 0x40 DUP3 KECCAK256 PUSH1 0x1 PUSH1 0xFF NOT DUP3 SLOAD AND OR SWAP1 SSTORE CALLER SWAP2 PUSH1 0x0 DUP1 MLOAD PUSH1 0x20 PUSH2 0x3C8B DUP4 CODECOPY DUP2 MLOAD SWAP2 MSTORE DUP2 DUP1 LOG4 PUSH1 0x1 SWAP1 JUMP JUMPDEST POP POP SWAP1 JUMP JUMPDEST PUSH1 0x1 PUSH1 0x1 PUSH1 0xA0 SHL SUB AND PUSH1 0x0 DUP2 DUP2 MSTORE PUSH32 0x75442B0A96088B5456BC4ED01394C96A4FEEC0F883C9494257D76B96AB1C9B6B PUSH1 0x20 MSTORE PUSH1 0x40 DUP2 KECCAK256 SLOAD SWAP1 SWAP2 SWAP1 PUSH32 0x65D7A28E3265B37A6474929F336521B332C1681B933F6CB9F3376673440D862A SWAP1 PUSH1 0x0 DUP1 MLOAD PUSH1 0x20 PUSH2 0x3CAB DUP4 CODECOPY DUP2 MLOAD SWAP2 MSTORE SWAP1 PUSH1 0xFF AND PUSH2 0x38C2 JUMPI DUP2 DUP5 MSTORE PUSH1 0x20 MSTORE PUSH1 0x40 DUP4 KECCAK256 DUP3 DUP5 MSTORE PUSH1 0x20 MSTORE PUSH1 0x40 DUP4 KECCAK256 PUSH1 0x1 PUSH1 0xFF NOT DUP3 SLOAD AND OR SWAP1 SSTORE PUSH1 0x0 DUP1 MLOAD PUSH1 0x20 PUSH2 0x3C8B DUP4 CODECOPY DUP2 MLOAD SWAP2 MSTORE CALLER SWAP4 DUP1 LOG4 PUSH1 0x1 SWAP1 JUMP JUMPDEST POP POP POP SWAP1 JUMP JUMPDEST PUSH1 0x1 PUSH1 0x1 PUSH1 0xA0 SHL SUB AND PUSH1 0x0 DUP2 DUP2 MSTORE PUSH32 0x395F4E35A18C2B5E556B3B2FF855307E76C0B3CC1CA71E19A70E83037E08E7B3 PUSH1 0x20 MSTORE PUSH1 0x40 DUP2 KECCAK256 SLOAD SWAP1 SWAP2 SWAP1 PUSH32 0x10DAC8C06A04BEC0B551627DAD28BC00D6516B0CAACD1C7B345FCDB5211334E4 SWAP1 PUSH1 0x0 DUP1 MLOAD PUSH1 0x20 PUSH2 0x3CAB DUP4 CODECOPY DUP2 MLOAD SWAP2 MSTORE SWAP1 PUSH1 0xFF AND PUSH2 0x38C2 JUMPI DUP2 DUP5 MSTORE PUSH1 0x20 MSTORE PUSH1 0x40 DUP4 KECCAK256 DUP3 DUP5 MSTORE PUSH1 0x20 MSTORE PUSH1 0x40 DUP4 KECCAK256 PUSH1 0x1 PUSH1 0xFF NOT DUP3 SLOAD AND OR SWAP1 SSTORE PUSH1 0x0 DUP1 MLOAD PUSH1 0x20 PUSH2 0x3C8B DUP4 CODECOPY DUP2 MLOAD SWAP2 MSTORE CALLER SWAP4 DUP1 LOG4 PUSH1 0x1 SWAP1 JUMP JUMPDEST PUSH1 0x1 PUSH1 0x1 PUSH1 0xA0 SHL SUB AND PUSH1 0x0 DUP2 DUP2 MSTORE PUSH32 0x448256DB8F8FB95EE3EAAF89C1051414494E85CEBB6057FCF996CC3D0CCFB456 PUSH1 0x20 MSTORE PUSH1 0x40 DUP2 KECCAK256 SLOAD SWAP1 SWAP2 SWAP1 PUSH32 0x97667070C54EF182B0F5858B034BEAC1B6F3089AA2D3188BB1E8929F4FA9B929 SWAP1 PUSH1 0x0 DUP1 MLOAD PUSH1 0x20 PUSH2 0x3CAB DUP4 CODECOPY DUP2 MLOAD SWAP2 MSTORE SWAP1 PUSH1 0xFF AND PUSH2 0x38C2 JUMPI DUP2 DUP5 MSTORE PUSH1 0x20 MSTORE PUSH1 0x40 DUP4 KECCAK256 DUP3 DUP5 MSTORE PUSH1 0x20 MSTORE PUSH1 0x40 DUP4 KECCAK256 PUSH1 0x1 PUSH1 0xFF NOT DUP3 SLOAD AND OR SWAP1 SSTORE PUSH1 0x0 DUP1 MLOAD PUSH1 0x20 PUSH2 0x3C8B DUP4 CODECOPY DUP2 MLOAD SWAP2 MSTORE CALLER SWAP4 DUP1 LOG4 PUSH1 0x1 SWAP1 JUMP JUMPDEST SWAP1 PUSH1 0x0 SWAP2 DUP1 DUP4 MSTORE PUSH1 0x0 DUP1 MLOAD PUSH1 0x20 PUSH2 0x3CAB DUP4 CODECOPY DUP2 MLOAD SWAP2 MSTORE DUP1 PUSH1 0x20 MSTORE PUSH1 0x40 DUP5 KECCAK256 SWAP3 PUSH1 0x1 DUP1 PUSH1 0xA0 SHL SUB AND SWAP3 DUP4 DUP6 MSTORE PUSH1 0x20 MSTORE PUSH1 0xFF PUSH1 0x40 DUP6 KECCAK256 SLOAD AND ISZERO PUSH1 0x0 EQ PUSH2 0x38C2 JUMPI DUP2 DUP5 MSTORE PUSH1 0x20 MSTORE PUSH1 0x40 DUP4 KECCAK256 DUP3 DUP5 MSTORE PUSH1 0x20 MSTORE PUSH1 0x40 DUP4 KECCAK256 PUSH1 0x1 PUSH1 0xFF NOT DUP3 SLOAD AND OR SWAP1 SSTORE PUSH1 0x0 DUP1 MLOAD PUSH1 0x20 PUSH2 0x3C8B DUP4 CODECOPY DUP2 MLOAD SWAP2 MSTORE CALLER SWAP4 DUP1 LOG4 PUSH1 0x1 SWAP1 JUMP JUMPDEST SWAP1 PUSH1 0x0 SWAP2 DUP1 DUP4 MSTORE PUSH1 0x0 DUP1 MLOAD PUSH1 0x20 PUSH2 0x3CAB DUP4 CODECOPY DUP2 MLOAD SWAP2 MSTORE DUP1 PUSH1 0x20 MSTORE PUSH1 0x40 DUP5 KECCAK256 SWAP3 PUSH1 0x1 DUP1 PUSH1 0xA0 SHL SUB AND SWAP3 DUP4 DUP6 MSTORE PUSH1 0x20 MSTORE PUSH1 0xFF PUSH1 0x40 DUP6 KECCAK256 SLOAD AND PUSH1 0x0 EQ PUSH2 0x38C2 JUMPI DUP2 DUP5 MSTORE PUSH1 0x20 MSTORE PUSH1 0x40 DUP4 KECCAK256 DUP3 DUP5 MSTORE PUSH1 0x20 MSTORE PUSH1 0x40 DUP4 KECCAK256 PUSH1 0xFF NOT DUP2 SLOAD AND SWAP1 SSTORE PUSH32 0xF6391F5C32D9C69D2A47EA670B442974B53935D1EDC7FD64EB21E047A839171B CALLER SWAP4 DUP1 LOG4 PUSH1 0x1 SWAP1 JUMP JUMPDEST PUSH1 0x1 PUSH1 0x1 PUSH1 0xA0 SHL SUB SWAP1 DUP2 AND PUSH1 0x0 DUP2 DUP2 MSTORE PUSH1 0xB PUSH1 0x20 MSTORE PUSH1 0x40 SWAP1 KECCAK256 DUP1 SLOAD SWAP4 SWAP2 SWAP3 SWAP1 SWAP2 DUP5 DUP3 AND ISZERO DUP1 PUSH2 0x3B90 JUMPI JUMPDEST PUSH2 0x3B4A JUMPI JUMPDEST POP POP POP POP POP JUMP JUMPDEST AND DUP1 SWAP4 PUSH1 0x1 PUSH1 0x1 PUSH1 0x60 SHL SUB PUSH1 0xA0 SHL AND OR SWAP1 SSTORE PUSH32 0xD777A1C61BD7162692FD6E6733AF90C5C8828BF2E57CAABA876193C1F65F125C PUSH1 0x20 PUSH1 0x40 MLOAD TIMESTAMP DUP2 MSTORE LOG3 CODESIZE DUP1 DUP1 DUP1 DUP1 PUSH2 0x3B43 JUMP JUMPDEST POP DUP4 DUP3 DUP3 AND EQ ISZERO PUSH2 0x3B3E JUMP JUMPDEST SWAP1 PUSH1 0x0 PUSH1 0x20 SWAP2 DUP3 DUP2 MLOAD SWAP2 ADD DUP3 DUP6 GAS CALL ISZERO PUSH2 0x617 JUMPI PUSH1 0x0 MLOAD RETURNDATASIZE PUSH2 0x3BEF JUMPI POP PUSH1 0x1 PUSH1 0x1 PUSH1 0xA0 SHL SUB DUP2 AND EXTCODESIZE ISZERO JUMPDEST PUSH2 0x3BCD JUMPI POP JUMP JUMPDEST PUSH1 0x40 MLOAD PUSH4 0x5274AFE7 PUSH1 0xE0 SHL DUP2 MSTORE PUSH1 0x1 PUSH1 0x1 PUSH1 0xA0 SHL SUB SWAP1 SWAP2 AND PUSH1 0x4 DUP3 ADD MSTORE PUSH1 0x24 SWAP1 REVERT JUMPDEST PUSH1 0x1 EQ ISZERO PUSH2 0x3BC6 JUMP JUMPDEST PUSH1 0xFF PUSH1 0x0 DUP1 MLOAD PUSH1 0x20 PUSH2 0x3D0B DUP4 CODECOPY DUP2 MLOAD SWAP2 MSTORE SLOAD PUSH1 0x40 SHR AND ISZERO PUSH2 0x3C15 JUMPI JUMP JUMPDEST PUSH1 0x40 MLOAD PUSH4 0x1AFCD79F PUSH1 0xE3 SHL DUP2 MSTORE PUSH1 0x4 SWAP1 REVERT JUMPDEST SWAP1 PUSH2 0x3C4E JUMPI POP DUP1 MLOAD ISZERO PUSH2 0x3C3C JUMPI PUSH1 0x20 DUP2 MLOAD SWAP2 ADD REVERT JUMPDEST PUSH1 0x40 MLOAD PUSH4 0xD6BDA275 PUSH1 0xE0 SHL DUP2 MSTORE PUSH1 0x4 SWAP1 REVERT JUMPDEST DUP2 MLOAD ISZERO DUP1 PUSH2 0x3C81 JUMPI JUMPDEST PUSH2 0x3C5F JUMPI POP SWAP1 JUMP JUMPDEST PUSH1 0x40 MLOAD PUSH4 0x9996B315 PUSH1 0xE0 SHL DUP2 MSTORE PUSH1 0x1 PUSH1 0x1 PUSH1 0xA0 SHL SUB SWAP1 SWAP2 AND PUSH1 0x4 DUP3 ADD MSTORE PUSH1 0x24 SWAP1 REVERT JUMPDEST POP DUP1 EXTCODESIZE ISZERO PUSH2 0x3C57 JUMP INVALID 0x2F DUP8 DUP9 GT PUSH31 0x7EFF1D82E926EC794901D17C78024A50270940304540A733656F0D02DD7BC7 0xDE 0xC4 0xDC 0xEE 0xDD 0xA7 PUSH22 0xE58DD541E08A116C6C53815C0BD028192F7B626800CD MCOPY 0xD1 TLOAD PUSH15 0x187E77E9AEE88184C21F4F2182AB58 0x27 0xCB EXTCODESIZE PUSH31 0x7FBEDCD63F033009B779B17422D0DF92223018B32B4D1FA46E071723D6817 0xE2 BASEFEE PUSH14 0x3BECC55F00F0C57E16840DF040 CALL POP DUP9 0xDC 0x2F DUP2 INVALID CODECOPY SHR CODECOPY 0x23 0xBE 0xC7 RETURNDATACOPY 0x23 0xA9 PUSH7 0x2EFC9C229C6A00 LOG2 PUSH5 0x6970667358 0x22 SLT KECCAK256 0xC1 SWAP6 SWAP8 PUSH3 0x1848F6 AND PUSH22 0x26575360FD43C31EC3569DD174BF5BF0F66BC22C9294 STATICCALL PUSH5 0x736F6C6343 STOP ADDMOD XOR STOP CALLER "},"methodIdentifiers":{"DEFAULT_ADMIN_ROLE()":"a217fddf","OPERATOR_ROLE()":"f5b541a6","PAUSER_ROLE()":"e63ab1e9","UPGRADE_INTERFACE_VERSION()":"ad3cb1cc","WITHDRAWER_ROLE()":"85f438c1","batchDeposit(uint256[],bytes32[])":"12d0b239","claimPeriodReward(uint256)":"e1179640","claimReferralCommission()":"0ac44e02","currentRewardPeriod()":"e4c2b763","dailyWithdrawLimit()":"ace687eb","dailyWithdrawn(uint256)":"66bf4dcf","deposit(uint256,bytes32)":"c9630cb0","emergencyWithdraw()":"db2e21bc","emergencyWithdraw(address,uint256)":"95ccea67","ethToUsdtRate()":"6f584da0","getBalance()":"12065fe0","getCurrentPriceInfo()":"1e095c6a","getETHBalance()":"6e947298","getPeriodRewardInfo(uint256)":"903bbf4e","getProductInfo(uint8)":"fce1e2b0","getRoleAdmin(bytes32)":"248a9ca3","getTodayWithdrawn()":"f2e0fe35","getTotalETHDeposits()":"07bc3a30","getUserDeposits(address)":"2a5bf6d2","getUserETHDeposits(address)":"d5b19513","getUserInvestments(address)":"c52c5c88","getUserReferralInfo(address)":"d3552712","grantRole(bytes32,address)":"2f2ff15d","hasRole(bytes32,address)":"91d14854","initialize(address,address,address[])":"77a24f36","lastPriceUpdate()":"6949faeb","lastRewardTime()":"9231cf74","pause()":"8456cb59","paused()":"5c975abb","periodRewards(uint256)":"dbeb8888","priceValidityPeriod()":"355ca9a4","products(uint8)":"355d2797","proxiableUUID()":"52d1902d","purchaseProduct(uint8,uint256)":"0c37e6bb","purchaseProductWithETH(uint8)":"fa79f85d","purchaseProductWithReferral(uint8,uint256,address)":"a1fa0268","qaCard()":"6cdd20e2","referralCommissionRate()":"d30ef61b","referralCommissions(address)":"f6ae9ce3","renounceRole(bytes32,address)":"36568abe","revokeRole(bytes32,address)":"d547741f","rewardPeriodDuration()":"e1159cd7","setQACard(address)":"9e35ae97","setReferralCommissionRate(uint256)":"d74d3d78","setReferrer(address)":"a18a7bfc","setWithdrawLimits(uint256,uint256)":"2b060a68","singleWithdrawLimit()":"83ceb263","startRewardPeriod(uint256)":"592cce56","supportsInterface(bytes4)":"01ffc9a7","totalDeposits()":"7d882097","totalEthDeposits()":"f1e6d761","totalReferrals(address)":"c08d52af","totalRewardPool()":"09c85e24","totalWithdrawals()":"60464627","unpause()":"3f4ba83a","updateDailyWithdrawalLimit(uint256)":"e992c3dd","updateETHPrice(uint256)":"924bb1d0","updateProduct(uint8,string,uint256,uint256,uint256,uint256,bool)":"61bc8f91","upgradeToAndCall(address,bytes)":"4f1ef286","usdtToken()":"a98ad46c","userDeposits(address)":"0ba36dcd","userEthDeposits(address)":"ce553dbb","userReferrers(address)":"8f63489d","userRewardsClaimed(address,uint256)":"17673257","withdraw(address,uint256,bytes32)":"106e6290","withdraw(uint256)":"2e1a7d4d","withdrawETH(address,uint256)":"4782f779"}},"storageLayout":{"storage":[{"astId":10323,"contract":"contracts/Treasury.sol:Treasury","label":"usdtToken","offset":0,"slot":"0","type":"t_contract(IERC20)3579"},{"astId":10326,"contract":"contracts/Treasury.sol:Treasury","label":"qaCard","offset":0,"slot":"1","type":"t_contract(QACard)10262"},{"astId":10330,"contract":"contracts/Treasury.sol:Treasury","label":"userDeposits","offset":0,"slot":"2","type":"t_mapping(t_address,t_uint256)"},{"astId":10334,"contract":"contracts/Treasury.sol:Treasury","label":"userEthDeposits","offset":0,"slot":"3","type":"t_mapping(t_address,t_uint256)"},{"astId":10340,"contract":"contracts/Treasury.sol:Treasury","label":"products","offset":0,"slot":"4","type":"t_mapping(t_enum(ProductType)10307,t_struct(ProductInfo)10320_storage)"},{"astId":10342,"contract":"contracts/Treasury.sol:Treasury","label":"totalDeposits","offset":0,"slot":"5","type":"t_uint256"},{"astId":10344,"contract":"contracts/Treasury.sol:Treasury","label":"totalEthDeposits","offset":0,"slot":"6","type":"t_uint256"},{"astId":10346,"contract":"contracts/Treasury.sol:Treasury","label":"totalWithdrawals","offset":0,"slot":"7","type":"t_uint256"},{"astId":10348,"contract":"contracts/Treasury.sol:Treasury","label":"dailyWithdrawLimit","offset":0,"slot":"8","type":"t_uint256"},{"astId":10350,"contract":"contracts/Treasury.sol:Treasury","label":"singleWithdrawLimit","offset":0,"slot":"9","type":"t_uint256"},{"astId":10354,"contract":"contracts/Treasury.sol:Treasury","label":"dailyWithdrawn","offset":0,"slot":"10","type":"t_mapping(t_uint256,t_uint256)"},{"astId":10358,"contract":"contracts/Treasury.sol:Treasury","label":"userReferrers","offset":0,"slot":"11","type":"t_mapping(t_address,t_address)"},{"astId":10362,"contract":"contracts/Treasury.sol:Treasury","label":"referralCommissions","offset":0,"slot":"12","type":"t_mapping(t_address,t_uint256)"},{"astId":10366,"contract":"contracts/Treasury.sol:Treasury","label":"totalReferrals","offset":0,"slot":"13","type":"t_mapping(t_address,t_uint256)"},{"astId":10368,"contract":"contracts/Treasury.sol:Treasury","label":"referralCommissionRate","offset":0,"slot":"14","type":"t_uint256"},{"astId":10370,"contract":"contracts/Treasury.sol:Treasury","label":"totalRewardPool","offset":0,"slot":"15","type":"t_uint256"},{"astId":10374,"contract":"contracts/Treasury.sol:Treasury","label":"periodRewards","offset":0,"slot":"16","type":"t_mapping(t_uint256,t_uint256)"},{"astId":10380,"contract":"contracts/Treasury.sol:Treasury","label":"userRewardsClaimed","offset":0,"slot":"17","type":"t_mapping(t_address,t_mapping(t_uint256,t_bool))"},{"astId":10382,"contract":"contracts/Treasury.sol:Treasury","label":"currentRewardPeriod","offset":0,"slot":"18","type":"t_uint256"},{"astId":10384,"contract":"contracts/Treasury.sol:Treasury","label":"rewardPeriodDuration","offset":0,"slot":"19","type":"t_uint256"},{"astId":10386,"contract":"contracts/Treasury.sol:Treasury","label":"lastRewardTime","offset":0,"slot":"20","type":"t_uint256"},{"astId":10388,"contract":"contracts/Treasury.sol:Treasury","label":"ethToUsdtRate","offset":0,"slot":"21","type":"t_uint256"},{"astId":10390,"contract":"contracts/Treasury.sol:Treasury","label":"lastPriceUpdate","offset":0,"slot":"22","type":"t_uint256"},{"astId":10392,"contract":"contracts/Treasury.sol:Treasury","label":"priceValidityPeriod","offset":0,"slot":"23","type":"t_uint256"}],"types":{"t_address":{"encoding":"inplace","label":"address","numberOfBytes":"20"},"t_bool":{"encoding":"inplace","label":"bool","numberOfBytes":"1"},"t_contract(IERC20)3579":{"encoding":"inplace","label":"contract IERC20","numberOfBytes":"20"},"t_contract(QACard)10262":{"encoding":"inplace","label":"contract QACard","numberOfBytes":"20"},"t_enum(ProductType)10307":{"encoding":"inplace","label":"enum Treasury.ProductType","numberOfBytes":"1"},"t_mapping(t_address,t_address)":{"encoding":"mapping","key":"t_address","label":"mapping(address => address)","numberOfBytes":"32","value":"t_address"},"t_mapping(t_address,t_mapping(t_uint256,t_bool))":{"encoding":"mapping","key":"t_address","label":"mapping(address => mapping(uint256 => bool))","numberOfBytes":"32","value":"t_mapping(t_uint256,t_bool)"},"t_mapping(t_address,t_uint256)":{"encoding":"mapping","key":"t_address","label":"mapping(address => uint256)","numberOfBytes":"32","value":"t_uint256"},"t_mapping(t_enum(ProductType)10307,t_struct(ProductInfo)10320_storage)":{"encoding":"mapping","key":"t_enum(ProductType)10307","label":"mapping(enum Treasury.ProductType => struct Treasury.ProductInfo)","numberOfBytes":"32","value":"t_struct(ProductInfo)10320_storage"},"t_mapping(t_uint256,t_bool)":{"encoding":"mapping","key":"t_uint256","label":"mapping(uint256 => bool)","numberOfBytes":"32","value":"t_bool"},"t_mapping(t_uint256,t_uint256)":{"encoding":"mapping","key":"t_uint256","label":"mapping(uint256 => uint256)","numberOfBytes":"32","value":"t_uint256"},"t_string_storage":{"encoding":"bytes","label":"string","numberOfBytes":"32"},"t_struct(ProductInfo)10320_storage":{"encoding":"inplace","label":"struct Treasury.ProductInfo","members":[{"astId":10309,"contract":"contracts/Treasury.sol:Treasury","label":"name","offset":0,"slot":"0","type":"t_string_storage"},{"astId":10311,"contract":"contracts/Treasury.sol:Treasury","label":"minInvestment","offset":0,"slot":"1","type":"t_uint256"},{"astId":10313,"contract":"contracts/Treasury.sol:Treasury","label":"maxInvestment","offset":0,"slot":"2","type":"t_uint256"},{"astId":10315,"contract":"contracts/Treasury.sol:Treasury","label":"apr","offset":0,"slot":"3","type":"t_uint256"},{"astId":10317,"contract":"contracts/Treasury.sol:Treasury","label":"duration","offset":0,"slot":"4","type":"t_uint256"},{"astId":10319,"contract":"contracts/Treasury.sol:Treasury","label":"isActive","offset":0,"slot":"5","type":"t_bool"}],"numberOfBytes":"192"},"t_uint256":{"encoding":"inplace","label":"uint256","numberOfBytes":"32"}}}}}}