{"contracts/QACard.sol":{"QACard":{"abi":[{"inputs":[],"stateMutability":"nonpayable","type":"constructor"},{"inputs":[],"name":"AccessControlBadConfirmation","type":"error"},{"inputs":[{"internalType":"address","name":"account","type":"address"},{"internalType":"bytes32","name":"neededRole","type":"bytes32"}],"name":"AccessControlUnauthorizedAccount","type":"error"},{"inputs":[{"internalType":"address","name":"target","type":"address"}],"name":"AddressEmptyCode","type":"error"},{"inputs":[{"internalType":"address","name":"sender","type":"address"},{"internalType":"uint256","name":"balance","type":"uint256"},{"internalType":"uint256","name":"needed","type":"uint256"},{"internalType":"uint256","name":"tokenId","type":"uint256"}],"name":"ERC1155InsufficientBalance","type":"error"},{"inputs":[{"internalType":"address","name":"approver","type":"address"}],"name":"ERC1155InvalidApprover","type":"error"},{"inputs":[{"internalType":"uint256","name":"idsLength","type":"uint256"},{"internalType":"uint256","name":"valuesLength","type":"uint256"}],"name":"ERC1155InvalidArrayLength","type":"error"},{"inputs":[{"internalType":"address","name":"operator","type":"address"}],"name":"ERC1155InvalidOperator","type":"error"},{"inputs":[{"internalType":"address","name":"receiver","type":"address"}],"name":"ERC1155InvalidReceiver","type":"error"},{"inputs":[{"internalType":"address","name":"sender","type":"address"}],"name":"ERC1155InvalidSender","type":"error"},{"inputs":[{"internalType":"address","name":"operator","type":"address"},{"internalType":"address","name":"owner","type":"address"}],"name":"ERC1155MissingApprovalForAll","type":"error"},{"inputs":[{"internalType":"address","name":"implementation","type":"address"}],"name":"ERC1967InvalidImplementation","type":"error"},{"inputs":[],"name":"ERC1967NonPayable","type":"error"},{"inputs":[],"name":"EnforcedPause","type":"error"},{"inputs":[],"name":"ExpectedPause","type":"error"},{"inputs":[],"name":"FailedCall","type":"error"},{"inputs":[{"internalType":"uint256","name":"requested","type":"uint256"},{"internalType":"uint256","name":"available","type":"uint256"}],"name":"InsufficientSupply","type":"error"},{"inputs":[],"name":"InvalidInitialization","type":"error"},{"inputs":[{"internalType":"uint256","name":"tokenId","type":"uint256"}],"name":"InvalidTokenId","type":"error"},{"inputs":[],"name":"NotInitializing","type":"error"},{"inputs":[{"internalType":"uint256","name":"tokenId","type":"uint256"}],"name":"TokenNotActive","type":"error"},{"inputs":[{"internalType":"uint256","name":"tokenId","type":"uint256"}],"name":"TransferNotAllowed","type":"error"},{"inputs":[],"name":"UUPSUnauthorizedCallContext","type":"error"},{"inputs":[{"internalType":"bytes32","name":"slot","type":"bytes32"}],"name":"UUPSUnsupportedProxiableUUID","type":"error"},{"inputs":[{"internalType":"address","name":"operator","type":"address"}],"name":"UnauthorizedOperator","type":"error"},{"anonymous":false,"inputs":[{"indexed":true,"internalType":"address","name":"account","type":"address"},{"indexed":true,"internalType":"address","name":"operator","type":"address"},{"indexed":false,"internalType":"bool","name":"approved","type":"bool"}],"name":"ApprovalForAll","type":"event"},{"anonymous":false,"inputs":[{"indexed":false,"internalType":"uint64","name":"version","type":"uint64"}],"name":"Initialized","type":"event"},{"anonymous":false,"inputs":[{"indexed":true,"internalType":"address","name":"operator","type":"address"},{"indexed":false,"internalType":"bool","name":"authorized","type":"bool"}],"name":"OperatorAuthorized","type":"event"},{"anonymous":false,"inputs":[{"indexed":false,"internalType":"address","name":"account","type":"address"}],"name":"Paused","type":"event"},{"anonymous":false,"inputs":[{"indexed":true,"internalType":"bytes32","name":"role","type":"bytes32"},{"indexed":true,"internalType":"bytes32","name":"previousAdminRole","type":"bytes32"},{"indexed":true,"internalType":"bytes32","name":"newAdminRole","type":"bytes32"}],"name":"RoleAdminChanged","type":"event"},{"anonymous":false,"inputs":[{"indexed":true,"internalType":"bytes32","name":"role","type":"bytes32"},{"indexed":true,"internalType":"address","name":"account","type":"address"},{"indexed":true,"internalType":"address","name":"sender","type":"address"}],"name":"RoleGranted","type":"event"},{"anonymous":false,"inputs":[{"indexed":true,"internalType":"bytes32","name":"role","type":"bytes32"},{"indexed":true,"internalType":"address","name":"account","type":"address"},{"indexed":true,"internalType":"address","name":"sender","type":"address"}],"name":"RoleRevoked","type":"event"},{"anonymous":false,"inputs":[{"indexed":true,"internalType":"address","name":"from","type":"address"},{"indexed":true,"internalType":"uint256","name":"tokenId","type":"uint256"},{"indexed":false,"internalType":"uint256","name":"amount","type":"uint256"},{"indexed":false,"internalType":"uint256","name":"uniqueId","type":"uint256"}],"name":"TokenBurned","type":"event"},{"anonymous":false,"inputs":[{"indexed":true,"internalType":"uint256","name":"tokenId","type":"uint256"},{"indexed":false,"internalType":"string","name":"name","type":"string"},{"indexed":false,"internalType":"string","name":"symbol","type":"string"},{"indexed":false,"internalType":"uint256","name":"maxSupply","type":"uint256"},{"indexed":false,"internalType":"bool","name":"transferable","type":"bool"}],"name":"TokenInfoUpdated","type":"event"},{"anonymous":false,"inputs":[{"indexed":true,"internalType":"address","name":"to","type":"address"},{"indexed":true,"internalType":"uint256","name":"tokenId","type":"uint256"},{"indexed":false,"internalType":"uint256","name":"amount","type":"uint256"},{"indexed":true,"internalType":"bytes32","name":"orderId","type":"bytes32"},{"indexed":false,"internalType":"uint256","name":"uniqueId","type":"uint256"}],"name":"TokenMinted","type":"event"},{"anonymous":false,"inputs":[{"indexed":true,"internalType":"address","name":"operator","type":"address"},{"indexed":true,"internalType":"address","name":"from","type":"address"},{"indexed":true,"internalType":"address","name":"to","type":"address"},{"indexed":false,"internalType":"uint256[]","name":"ids","type":"uint256[]"},{"indexed":false,"internalType":"uint256[]","name":"values","type":"uint256[]"}],"name":"TransferBatch","type":"event"},{"anonymous":false,"inputs":[{"indexed":true,"internalType":"address","name":"operator","type":"address"},{"indexed":true,"internalType":"address","name":"from","type":"address"},{"indexed":true,"internalType":"address","name":"to","type":"address"},{"indexed":false,"internalType":"uint256","name":"id","type":"uint256"},{"indexed":false,"internalType":"uint256","name":"value","type":"uint256"}],"name":"TransferSingle","type":"event"},{"anonymous":false,"inputs":[{"indexed":false,"internalType":"string","name":"value","type":"string"},{"indexed":true,"internalType":"uint256","name":"id","type":"uint256"}],"name":"URI","type":"event"},{"anonymous":false,"inputs":[{"indexed":true,"internalType":"uint256","name":"tokenId","type":"uint256"},{"indexed":false,"internalType":"string","name":"uri","type":"string"}],"name":"URIUpdated","type":"event"},{"anonymous":false,"inputs":[{"indexed":false,"internalType":"address","name":"account","type":"address"}],"name":"Unpaused","type":"event"},{"anonymous":false,"inputs":[{"indexed":true,"internalType":"address","name":"implementation","type":"address"}],"name":"Upgraded","type":"event"},{"inputs":[],"name":"DEFAULT_ADMIN_ROLE","outputs":[{"internalType":"bytes32","name":"","type":"bytes32"}],"stateMutability":"view","type":"function"},{"inputs":[],"name":"MINTER_ROLE","outputs":[{"internalType":"bytes32","name":"","type":"bytes32"}],"stateMutability":"view","type":"function"},{"inputs":[],"name":"PAUSER_ROLE","outputs":[{"internalType":"bytes32","name":"","type":"bytes32"}],"stateMutability":"view","type":"function"},{"inputs":[],"name":"UPGRADE_INTERFACE_VERSION","outputs":[{"internalType":"string","name":"","type":"string"}],"stateMutability":"view","type":"function"},{"inputs":[],"name":"URI_SETTER_ROLE","outputs":[{"internalType":"bytes32","name":"","type":"bytes32"}],"stateMutability":"view","type":"function"},{"inputs":[{"internalType":"address","name":"","type":"address"}],"name":"authorizedOperators","outputs":[{"internalType":"bool","name":"","type":"bool"}],"stateMutability":"view","type":"function"},{"inputs":[{"internalType":"address","name":"account","type":"address"},{"internalType":"uint256","name":"id","type":"uint256"}],"name":"balanceOf","outputs":[{"internalType":"uint256","name":"","type":"uint256"}],"stateMutability":"view","type":"function"},{"inputs":[{"internalType":"address[]","name":"accounts","type":"address[]"},{"internalType":"uint256[]","name":"ids","type":"uint256[]"}],"name":"balanceOfBatch","outputs":[{"internalType":"uint256[]","name":"","type":"uint256[]"}],"stateMutability":"view","type":"function"},{"inputs":[{"internalType":"address","name":"account","type":"address"},{"internalType":"uint256","name":"id","type":"uint256"},{"internalType":"uint256","name":"value","type":"uint256"}],"name":"burn","outputs":[],"stateMutability":"nonpayable","type":"function"},{"inputs":[{"internalType":"address","name":"account","type":"address"},{"internalType":"uint256[]","name":"ids","type":"uint256[]"},{"internalType":"uint256[]","name":"values","type":"uint256[]"}],"name":"burnBatch","outputs":[],"stateMutability":"nonpayable","type":"function"},{"inputs":[{"internalType":"address","name":"from","type":"address"},{"internalType":"uint256","name":"tokenId","type":"uint256"},{"internalType":"uint256","name":"amount","type":"uint256"}],"name":"burnFrom","outputs":[],"stateMutability":"nonpayable","type":"function"},{"inputs":[{"internalType":"uint256","name":"id","type":"uint256"}],"name":"exists","outputs":[{"internalType":"bool","name":"","type":"bool"}],"stateMutability":"view","type":"function"},{"inputs":[{"internalType":"bytes32","name":"role","type":"bytes32"}],"name":"getRoleAdmin","outputs":[{"internalType":"bytes32","name":"","type":"bytes32"}],"stateMutability":"view","type":"function"},{"inputs":[{"internalType":"uint256","name":"tokenId","type":"uint256"}],"name":"getTokenInfo","outputs":[{"internalType":"string","name":"name","type":"string"},{"internalType":"string","name":"symbol","type":"string"},{"internalType":"uint256","name":"maxSupply","type":"uint256"},{"internalType":"uint256","name":"currentSupply","type":"uint256"},{"internalType":"bool","name":"transferable","type":"bool"},{"internalType":"bool","name":"active","type":"bool"}],"stateMutability":"view","type":"function"},{"inputs":[{"internalType":"address","name":"user","type":"address"},{"internalType":"uint256","name":"tokenId","type":"uint256"}],"name":"getUserTokens","outputs":[{"internalType":"uint256[]","name":"","type":"uint256[]"}],"stateMutability":"view","type":"function"},{"inputs":[{"internalType":"bytes32","name":"role","type":"bytes32"},{"internalType":"address","name":"account","type":"address"}],"name":"grantRole","outputs":[],"stateMutability":"nonpayable","type":"function"},{"inputs":[{"internalType":"bytes32","name":"role","type":"bytes32"},{"internalType":"address","name":"account","type":"address"}],"name":"hasRole","outputs":[{"internalType":"bool","name":"","type":"bool"}],"stateMutability":"view","type":"function"},{"inputs":[{"internalType":"string","name":"_uri","type":"string"},{"internalType":"address","name":"admin","type":"address"}],"name":"initialize","outputs":[],"stateMutability":"nonpayable","type":"function"},{"inputs":[{"internalType":"address","name":"account","type":"address"},{"internalType":"address","name":"operator","type":"address"}],"name":"isApprovedForAll","outputs":[{"internalType":"bool","name":"","type":"bool"}],"stateMutability":"view","type":"function"},{"inputs":[{"internalType":"address","name":"to","type":"address"},{"internalType":"uint256","name":"tokenId","type":"uint256"},{"internalType":"uint256","name":"amount","type":"uint256"},{"internalType":"bytes","name":"data","type":"bytes"}],"name":"mint","outputs":[],"stateMutability":"nonpayable","type":"function"},{"inputs":[{"internalType":"address","name":"to","type":"address"},{"internalType":"uint256[]","name":"tokenIds","type":"uint256[]"},{"internalType":"uint256[]","name":"amounts","type":"uint256[]"},{"internalType":"bytes32[]","name":"orderIds","type":"bytes32[]"},{"internalType":"bytes","name":"data","type":"bytes"}],"name":"mintBatch","outputs":[],"stateMutability":"nonpayable","type":"function"},{"inputs":[{"internalType":"address","name":"to","type":"address"},{"internalType":"uint8","name":"productType","type":"uint8"},{"internalType":"uint256","name":"","type":"uint256"},{"internalType":"uint256","name":"","type":"uint256"},{"internalType":"uint256","name":"","type":"uint256"}],"name":"mintCard","outputs":[{"internalType":"uint256","name":"","type":"uint256"}],"stateMutability":"nonpayable","type":"function"},{"inputs":[{"internalType":"address","name":"to","type":"address"},{"internalType":"uint256","name":"tokenId","type":"uint256"},{"internalType":"uint256","name":"amount","type":"uint256"},{"internalType":"bytes32","name":"orderId","type":"bytes32"},{"internalType":"bytes","name":"data","type":"bytes"}],"name":"mintWithOrderId","outputs":[],"stateMutability":"nonpayable","type":"function"},{"inputs":[],"name":"owner","outputs":[{"internalType":"address","name":"","type":"address"}],"stateMutability":"view","type":"function"},{"inputs":[],"name":"pause","outputs":[],"stateMutability":"nonpayable","type":"function"},{"inputs":[],"name":"paused","outputs":[{"internalType":"bool","name":"","type":"bool"}],"stateMutability":"view","type":"function"},{"inputs":[],"name":"proxiableUUID","outputs":[{"internalType":"bytes32","name":"","type":"bytes32"}],"stateMutability":"view","type":"function"},{"inputs":[{"internalType":"bytes32","name":"role","type":"bytes32"},{"internalType":"address","name":"callerConfirmation","type":"address"}],"name":"renounceRole","outputs":[],"stateMutability":"nonpayable","type":"function"},{"inputs":[{"internalType":"bytes32","name":"role","type":"bytes32"},{"internalType":"address","name":"account","type":"address"}],"name":"revokeRole","outputs":[],"stateMutability":"nonpayable","type":"function"},{"inputs":[{"internalType":"address","name":"from","type":"address"},{"internalType":"address","name":"to","type":"address"},{"internalType":"uint256[]","name":"ids","type":"uint256[]"},{"internalType":"uint256[]","name":"values","type":"uint256[]"},{"internalType":"bytes","name":"data","type":"bytes"}],"name":"safeBatchTransferFrom","outputs":[],"stateMutability":"nonpayable","type":"function"},{"inputs":[{"internalType":"address","name":"from","type":"address"},{"internalType":"address","name":"to","type":"address"},{"internalType":"uint256","name":"id","type":"uint256"},{"internalType":"uint256","name":"value","type":"uint256"},{"internalType":"bytes","name":"data","type":"bytes"}],"name":"safeTransferFrom","outputs":[],"stateMutability":"nonpayable","type":"function"},{"inputs":[{"internalType":"address","name":"operator","type":"address"},{"internalType":"bool","name":"approved","type":"bool"}],"name":"setApprovalForAll","outputs":[],"stateMutability":"nonpayable","type":"function"},{"inputs":[{"internalType":"address","name":"operator","type":"address"},{"internalType":"bool","name":"authorized","type":"bool"}],"name":"setAuthorizedOperator","outputs":[],"stateMutability":"nonpayable","type":"function"},{"inputs":[{"internalType":"uint256","name":"tokenId","type":"uint256"},{"internalType":"string","name":"name","type":"string"},{"internalType":"string","name":"symbol","type":"string"},{"internalType":"uint256","name":"maxSupply","type":"uint256"},{"internalType":"bool","name":"transferable","type":"bool"},{"internalType":"bool","name":"active","type":"bool"}],"name":"setTokenInfo","outputs":[],"stateMutability":"nonpayable","type":"function"},{"inputs":[{"internalType":"uint256","name":"tokenId","type":"uint256"},{"internalType":"string","name":"tokenURI","type":"string"}],"name":"setTokenURI","outputs":[],"stateMutability":"nonpayable","type":"function"},{"inputs":[{"internalType":"address","name":"treasuryAddress","type":"address"}],"name":"setTreasury","outputs":[],"stateMutability":"nonpayable","type":"function"},{"inputs":[{"internalType":"string","name":"newuri","type":"string"}],"name":"setURI","outputs":[],"stateMutability":"nonpayable","type":"function"},{"inputs":[{"internalType":"bytes4","name":"interfaceId","type":"bytes4"}],"name":"supportsInterface","outputs":[{"internalType":"bool","name":"","type":"bool"}],"stateMutability":"view","type":"function"},{"inputs":[{"internalType":"uint256","name":"","type":"uint256"}],"name":"tokenInfo","outputs":[{"internalType":"string","name":"name","type":"string"},{"internalType":"string","name":"symbol","type":"string"},{"internalType":"uint256","name":"maxSupply","type":"uint256"},{"internalType":"bool","name":"transferable","type":"bool"},{"internalType":"bool","name":"active","type":"bool"}],"stateMutability":"view","type":"function"},{"inputs":[{"internalType":"uint256","name":"","type":"uint256"}],"name":"tokenOwners","outputs":[{"internalType":"address","name":"","type":"address"}],"stateMutability":"view","type":"function"},{"inputs":[],"name":"totalSupply","outputs":[{"internalType":"uint256","name":"","type":"uint256"}],"stateMutability":"view","type":"function"},{"inputs":[{"internalType":"uint256","name":"id","type":"uint256"}],"name":"totalSupply","outputs":[{"internalType":"uint256","name":"","type":"uint256"}],"stateMutability":"view","type":"function"},{"inputs":[],"name":"treasury","outputs":[{"internalType":"address","name":"","type":"address"}],"stateMutability":"view","type":"function"},{"inputs":[],"name":"unpause","outputs":[],"stateMutability":"nonpayable","type":"function"},{"inputs":[{"internalType":"address","name":"newImplementation","type":"address"},{"internalType":"bytes","name":"data","type":"bytes"}],"name":"upgradeToAndCall","outputs":[],"stateMutability":"payable","type":"function"},{"inputs":[{"internalType":"uint256","name":"tokenId","type":"uint256"}],"name":"uri","outputs":[{"internalType":"string","name":"","type":"string"}],"stateMutability":"view","type":"function"},{"inputs":[{"internalType":"address","name":"","type":"address"},{"internalType":"uint256","name":"","type":"uint256"},{"internalType":"uint256","name":"","type":"uint256"}],"name":"userTokens","outputs":[{"internalType":"uint256","name":"","type":"uint256"}],"stateMutability":"view","type":"function"}],"evm":{"bytecode":{"linkReferences":{},"object":"60a0806040523461002a57306080526143cb90816100308239608051818181611121015261128a0152f35b600080fdfe6080604052600436101561001257600080fd5b60003560e01c8062fdd58e1461030657806301ffc9a71461030157806302fe5305146102fc5780630e89341c146102f7578063124d91e5146102f2578063162094c4146102ed57806318160ddd146102e8578063181d989b146102e3578063221193e3146102de578063248a9ca3146102d95780632962d238146102d45780632eb2c2d6146102cf5780632f2ff15d146102ca57806336568abe146102c55780633f4ba83a146102c05780634e1273f4146102bb5780634f1ef286146102b65780634f558e79146102b157806352d1902d146102ac5780635c975abb146102a757806361d027b3146102a25780636b20c4541461029d578063731133e914610298578063788f737d146102935780637ab4339d1461028e5780637f345710146102895780638456cb59146102845780638b9344401461027f5780638c7a63ae1461027a5780638da5cb5b1461027557806391d148541461027057806395b0376e1461026b578063a217fddf14610266578063a22cb46514610261578063ace8eb871461025c578063ad3cb1cc14610257578063bd85b03914610252578063cc33c8751461024d578063cfdc352214610248578063d539139314610243578063d547741f1461023e578063e63ab1e914610239578063e985e9c514610234578063f0f442601461022f578063f242432a1461022a578063f5298aca146102255763f8a14f461461022057600080fd5b612272565b61225b565b612162565b6120fb565b6120ca565b61208f565b612043565b61201a565b611f96565b611f0b565b611def565b611da9565b611c21565b611b85565b611b69565b611a39565b6119da565b6119b1565b61190a565b6118b3565b611797565b61175c565b611618565b61159a565b611408565b611329565b611300565b6112d0565b611277565b61123c565b6110e2565b611028565b610f6c565b610f25565b610ed9565b610dbb565b610d47565b610cfc565b610c1d565b610b67565b610b03565b61098b565b610800565b6106b5565b610554565b6103ce565b610350565b600435906001600160a01b038216820361032157565b600080fd5b602435906001600160a01b038216820361032157565b35906001600160a01b038216820361032157565b346103215760403660031901126103215760206103b361036e61030b565b6024356000527f88be536d5240c274a3b1d3a1be54482fd9caa294f08c62a7cde569f49a3c4500835260406000209060018060a01b0316600052602052604060002090565b54604051908152f35b6001600160e01b031981160361032157565b346103215760203660031901126103215760206004356103ed816103bc565b63ffffffff60e01b16637965db0b60e01b8114908115610413575b506040519015158152f35b636cdb3d1360e11b811491508115610445575b8115610434575b5038610408565b6301ffc9a760e01b1490503861042d565b6303a24d0760e21b81149150610426565b634e487b7160e01b600052604160045260246000fd5b60a081019081106001600160401b0382111761048757604052565b610456565b602081019081106001600160401b0382111761048757604052565b604081019081106001600160401b0382111761048757604052565b90601f801991011681019081106001600160401b0382111761048757604052565b604051906104f08261046c565b565b6001600160401b03811161048757601f01601f191660200190565b81601f8201121561032157803590610524826104f2565b9261053260405194856104c2565b8284526020838301011161032157816000926020809301838601378301015290565b3461032157602080600319360112610321576001600160401b03906004358281116103215761058790369060040161050d565b91610590612b99565b825190811161048757600080516020614376833981519152916105bc826105b78554611e2e565b6123b3565b602090601f83116001146105fe575081906105ef93946000926105f3575b50508160011b916000199060031b1c19161790565b9055005b0151905038806105da565b90601f1983169461060d611860565b926000905b878210610649575050836001959610610630575b505050811b019055005b015160001960f88460031b161c19169055388080610626565b80600185968294968601518155019501930190610612565b919082519283825260005b84811061068d575050826000602080949584010152601f8019910116010190565b60208183018101518483018201520161066c565b9060206106b2928181520190610661565b90565b3461032157602080600319360112610321576000906004358252600191600182526106e260408220611e68565b80519092901561070457505061070091505b604051918291826106a1565b0390f35b9091506040519180936000805160206143768339815191529182549261072984611e2e565b80875293600181169081156107b2575060011461075a575b5050505050610755816107009303826104c2565b6106f4565b81529294507ff429cb5e2ec84cbb765e76b31964a56ccde03e7a6122d6cc4afb19edc55edeed5b82841061079f57505050816107009361075592820101933880610741565b8054858501870152928501928101610781565b60ff19168787015250505050151560051b8201019150610755816107003880610741565b6060906003190112610321576004356001600160a01b038116810361032157906024359060443590565b3461032157610876610811366107d6565b91816001600160a01b0382163381148015610974575b8015610910575b610837906122f1565b6001600160a01b03831660009081526005602052604090206108659083905b90600052602052604060002090565b805480610878575b50505050612b02565b005b7fe06aa145e36ec4b8740f4896d15faf3815dd20984c287e8c36f9e34b32ab9e7e916108c56108bf6108b56108af61090495612352565b84611896565b90549060031b1c90565b91612373565b6108ec6108dc826000526006602052604060002090565b80546001600160a01b0319169055565b60408051898152602081019290925290918291820190565b0390a38138808061086d565b506000805160206142b68339815191526000526000805160206142d683398151915260205261083761096d610966336000805160206142968339815191525b9060018060a01b0316600052602052604060002090565b5460ff1690565b905061082e565b5060ff6109843361094f86610b2e565b5416610827565b34610321576040366003190112610321576001600160401b03600435602435828111610321576109bf90369060040161050d565b6109c7612b99565b6000928284526001906020600160205260408620928451928311610487576109f9836109f38654611e2e565b86612432565b602091601f8411600114610a6f57505091610a50827fbf032ae7dcb484f99f9f3977ba9cde222756e7073de74244ceb89de862569bdb9593610a5e958991610a64575b508160011b916000199060031b1c19161790565b9055604051918291826106a1565b0390a280f35b905084015138610a3c565b9190601f19841690610a8686600052602060002090565b9389915b838310610aec5750505092610a5e9492600192827fbf032ae7dcb484f99f9f3977ba9cde222756e7073de74244ceb89de862569bdb989610610ad3575b5050811b0190556106f4565b85015160001960f88460031b161c191690553880610ac7565b888501518655948501949381019391810191610a8a565b3461032157600036600319011261032157602060008051602061433683398151915254604051908152f35b6001600160a01b031660009081527f88be536d5240c274a3b1d3a1be54482fd9caa294f08c62a7cde569f49a3c45016020526040902090565b34610321576020366003190112610321576001600160a01b03610b8861030b565b166000526002602052602060ff604060002054166040519015158152f35b6001600160401b0381116104875760051b60200190565b9080601f83011215610321576020908235610bd781610ba6565b93610be560405195866104c2565b81855260208086019260051b82010192831161032157602001905b828210610c0e575050505090565b81358152908301908301610c00565b346103215760a036600319011261032157610c3661030b565b6001600160401b039060243582811161032157610c57903690600401610bbd565b60443583811161032157610c6f903690600401610bbd565b606435918483116103215736602384011215610321578260040135610c9381610ba6565b93610ca160405195866104c2565b8185526020916024602087019160051b8301019136831161032157602401905b828210610ced575050505060843594851161032157610ce761087695369060040161050d565b93612551565b81358152908301908301610cc1565b34610321576020366003190112610321576004356000526000805160206142d68339815191526020526020600160406000200154604051908152f35b60243590811515820361032157565b346103215760c0366003190112610321576001600160401b0360243581811161032157610d7890369060040161050d565b9060443590811161032157610d9190369060040161050d565b9060843580151581036103215760a4359182151583036103215761087693606435916004356127e2565b346103215760a036600319011261032157610dd461030b565b610ddc610326565b90604435916001600160401b039081841161032157610e0060049436908601610bbd565b9060643583811161032157610e189036908701610bbd565b9260843590811161032157610e30903690870161050d565b936001600160a01b03808216903382141580610ec1575b610e9057831615610e785715610e61576108769550613739565b604051626a0d4560e21b8152600081880152602490fd5b604051632bfa23e760e11b8152600081890152602490fd5b6040805163711bec9160e11b815233818b019081526001600160a01b038616602082015290918291010390fd5b0390fd5b5060ff610ed13361094f86610b2e565b541615610e47565b3461032157604036600319011261032157610876600435610ef8610326565b90806000526000805160206142d6833981519152602052610f20600160406000200154612cf9565b61300f565b3461032157604036600319011261032157610f3e610326565b336001600160a01b03821603610f5a57610876906004356130f6565b60405163334bd91960e11b8152600490fd5b3461032157600036600319011261032157610f85612c15565b6000805160206142f6833981519152805460ff811615610fd15760ff191690557f5db9ee0a495bf2e6ff9c91a7834c1ba4fdd244a5e8aa4e537bd38aeae4b073aa6020604051338152a1005b604051638dfc202b60e01b8152600490fd5b90815180825260208080930193019160005b828110611003575050505090565b835185529381019392810192600101610ff5565b9060206106b2928181520190610fe3565b34610321576040366003190112610321576004356001600160401b03808211610321573660238301121561032157816004013561106481610ba6565b9261107260405194856104c2565b8184526020916024602086019160051b8301019136831161032157602401905b8282106110cb578560243586811161032157610700916110b96110bf923690600401610bbd565b90612905565b60405191829182611017565b8380916110d78461033c565b815201910190611092565b6040366003190112610321576110f661030b565b6024356001600160401b0381116103215761111590369060040161050d565b6001600160a01b0391907f00000000000000000000000000000000000000000000000000000000000000008316308114908115611220575b5061120e57602060049361115f612c6d565b6040516352d1902d60e01b8152948591829086165afa600093816111dd575b506111a457604051634c9c8ce360e01b81526001600160a01b0383166004820152602490fd5b9060008051602061427683398151915283036111c457610876925061382e565b604051632a87526960e21b815260048101849052602490fd5b61120091945060203d602011611207575b6111f881836104c2565b810190613130565b923861117e565b503d6111ee565b60405163703e46dd60e11b8152600490fd5b905083600080516020614276833981519152541614153861114d565b346103215760203660031901126103215760043560005260008051602061431683398151915260205260206040600020541515604051908152f35b34610321576000366003190112610321577f00000000000000000000000000000000000000000000000000000000000000006001600160a01b0316300361120e5760206040516000805160206142768339815191528152f35b3461032157600036600319011261032157602060ff6000805160206142f683398151915254166040519015158152f35b34610321576000366003190112610321576003546040516001600160a01b039091168152602090f35b346103215760603660031901126103215761134261030b565b6001600160401b0360243581811161032157611362903690600401610bbd565b906044359081116103215761137b903690600401610bbd565b906001600160a01b03831633811415806113f0575b6113c957156113b1576108769260006040516113ab8161048c565b5261350e565b604051626a0d4560e21b815260006004820152602490fd5b60405163711bec9160e11b81523360048201526001600160a01b0385166024820152604490fd5b5060ff6114003361094f87610b2e565b541615611390565b346103215760803660031901126103215761142161030b565b602435604435916064356001600160401b0381116103215761144790369060040161050d565b90611450612cc5565b611458612d27565b61146c836000526000602052604060002090565b60038101546114839060081c60ff161590565b1590565b61158157611490846117fe565b5490600261149e87846127a0565b910154809111611557576114d3858760008051602061425683398151915287876114c88186612d6d565b95869285878461317e565b6114fc826114f7876108568560018060a01b03166000526005602052604060002090565b6127ad565b61153381611514846000526006602052604060002090565b80546001600160a01b0319166001600160a01b03909216919091179055565b6040805194855260208501929092526001600160a01b03169290819081015b0390a4005b859161156291612366565b604051639e4c446160e01b815260048101929092526024820152604490fd5b60405163f3f6133960e01b815260048101859052602490fd5b34610321576040366003190112610321576115b361030b565b7fc176fcf7d48a6aca0d96d3b3201f7add47c4af04ce9a51f5f4eb15d528c46e2160206115de610d38565b926115e7612c6d565b6001600160a01b031660008181526002835260409020805460ff191660ff86151516179055926040519015158152a2005b34610321576040366003190112610321576001600160401b036004358181116103215761164990369060040161050d565b611651610326565b600080516020614356833981519152549260ff8460401c1615931680159081611754575b600114908161174a575b159081611741575b5061172f57600080516020614356833981519152805467ffffffffffffffff191660011790556116bb918361170a576129aa565b6116c157005b600080516020614356833981519152805460ff60401b19169055604051600181527fc7f505b2f371ae2175ee4913f4499e1f2633a7b5936321eed1cdaeb6115181d290602090a1005b600080516020614356833981519152805460ff60401b1916600160401b1790556129aa565b60405163f92ee8a960e01b8152600490fd5b90501538611687565b303b15915061167f565b849150611675565b346103215760003660031901126103215760206040517f7804d923f43a17d325d77e781528e0793b2edd9890ab45fc64efd7b4b427744c8152f35b34610321576000366003190112610321576117b0612c15565b6117b8612d27565b6000805160206142f6833981519152600160ff198254161790557f62e78cea01bee320cd4e420270b5ea74000d11b0c9f74754ebdbfc544b05a2586020604051338152a1005b600052600080516020614316833981519152602052604060002090565b6000527f88be536d5240c274a3b1d3a1be54482fd9caa294f08c62a7cde569f49a3c4500602052604060002090565b634e487b7160e01b600052603260045260246000fd5b6000805160206143768339815191526000527ff429cb5e2ec84cbb765e76b31964a56ccde03e7a6122d6cc4afb19edc55edeed90565b80548210156118ae5760005260206000200190600090565b61184a565b34610321576118c1366107d6565b919060009160018060a01b03168252600560205260408220908252602052604081209081548310156119075760206118f98484611896565b90546040519160031b1c8152f35b80fd5b3461032157602036600319011261032157600435600052600060205261197f6040600020600281015460008051602061431683398151915260205260ff60406000205460038401549061198d61196b600161196488611e68565b9701611e68565b60405197889760c0895260c0890190610661565b908782036020890152610661565b93604086015260608501528181161515608085015260081c16151560a08301520390f35b34610321576000366003190112610321576004546040516001600160a01b039091168152602090f35b3461032157604036600319011261032157602060ff611a2d6119fa610326565b6004356000526000805160206142d6833981519152845260406000209060018060a01b0316600052602052604060002090565b54166040519015158152f35b346103215760a036600319011261032157611a5261030b565b6024356044356084356001600160401b03811161032157611a7790369060040161050d565b611a7f612cc5565b611a87612d27565b611a9b836000526000602052604060002090565b6003810154611aae9060081c60ff161590565b61158157611abb846117fe565b54906002611ac985846127a0565b910154809111611b5f57505061155260008051602061425683398151915291611afe611af58787612d6d565b9185878961317e565b611b22816114f7876108568a60018060a01b03166000526005602052604060002090565b611b3a86611514836000526006602052604060002090565b604080519485526020850191909152606435956001600160a01b031693918291820190565b6115629250612366565b3461032157600036600319011261032157602060405160008152f35b3461032157604036600319011261032157611b9e61030b565b611ba6610d38565b6001600160a01b038216918215611c095781611bc8611bd99261094f33610b2e565b9060ff801983541691151516179055565b60405190151581527f17307eab39ab6107e8899845ad3d59bd9653f200f220920489ca2b5937696c3160203392a3005b60405162ced3e160e81b815260006004820152602490fd5b346103215760a036600319011261032157611c3a61030b565b60243560ff811680910361032157611c6190611c54612cc5565b611c5c612d27565b612792565b611c75816000526000602052604060002090565b6003810154611c889060081c60ff161590565b611d7d57611c95826117fe565b54906002611ca283612792565b910154809111611d4a576107008385611cbb8183612d6d565b918291611cd0611cc9611d96565b838361313f565b611cf4836114f7846108568560018060a01b03166000526005602052604060002090565b611d0c81611514856000526006602052604060002090565b6040805160018152602081018590526001600160a01b0392909216916000805160206142568339815191529190a46040519081529081906020820190565b610ebd91611d5791612366565b604051639e4c446160e01b81526001600482015260248101919091529081906044820190565b60405163f3f6133960e01b815260048101839052602490fd5b60405190611da38261048c565b60008252565b3461032157600036600319011261032157610700604051611dc9816104a7565b60058152640352e302e360dc1b6020820152604051918291602083526020830190610661565b34610321576020366003190112610321576020611e2660043560005260008051602061431683398151915260205260406000205490565b604051908152f35b90600182811c92168015611e5e575b6020831014611e4857565b634e487b7160e01b600052602260045260246000fd5b91607f1691611e3d565b90604051918260008254611e7b81611e2e565b90818452602094600191600181169081600014611ee95750600114611eaa575b5050506104f0925003836104c2565b600090815285812095935091905b818310611ed15750506104f09350820101388080611e9b565b85548884018501529485019487945091830191611eb8565b925050506104f094925060ff191682840152151560051b820101388080611e9b565b34610321576020366003190112610321576004356000526000602052611f696040600020611f3881611e68565b9060ff611f4760018301611e68565b611f77600360028501549401549160405196879660a0885260a0880190610661565b908682036020880152610661565b9260408501528181161515606085015260081c16151560808301520390f35b3461032157604036600319011261032157611faf61030b565b60009060018060a01b0316815260206005602052604082206024358352602052604082209160405180926020855492838152019483526020832092905b82821061200357610700856110bf818903826104c2565b835486529485019460019384019390910190611fec565b346103215760003660031901126103215760206040516000805160206142b68339815191528152f35b3461032157604036600319011261032157610876600435612062610326565b90806000526000805160206142d683398151915260205261208a600160406000200154612cf9565b6130f6565b346103215760003660031901126103215760206040517f65d7a28e3265b37a6474929f336521b332c1681b933f6cb9f3376673440d862a8152f35b3461032157604036600319011261032157602060ff611a2d6120ea61030b565b61094f6120f5610326565b91610b2e565b346103215760203660031901126103215761211461030b565b61211c612c6d565b600380546001600160a01b038381166001600160a01b0319831681179093551680612152575b5061214957005b61087690612dc2565b61215b90613049565b5038612142565b346103215760a03660031901126103215761217b61030b565b612183610326565b6084356001600160401b038111610321576121a290369060040161050d565b906001600160a01b03838116903382141580612243575b61221c5782161561220357156113b157610876926121fb6064356044359160405192600184526020840152604083019160018352606084015260808301604052565b929091613739565b604051632bfa23e760e11b815260006004820152602490fd5b60405163711bec9160e11b81523360048201526001600160a01b0386166024820152604490fd5b5060ff6122533361094f88610b2e565b5416156121b9565b346103215761087661226c366107d6565b91612b02565b34610321576020366003190112610321576004356000526006602052602060018060a01b0360406000205416604051908152f35b6122ed916000527f88be536d5240c274a3b1d3a1be54482fd9caa294f08c62a7cde569f49a3c450060205260406000209060018060a01b0316600052602052604060002090565b5490565b156122f857565b606460405162461bcd60e51b815260206004820152602060248201527f43616c6c6572206973206e6f74206f776e6572206e6f7220617070726f7665646044820152fd5b634e487b7160e01b600052601160045260246000fd5b60001981019190821161236157565b61233c565b9190820391821161236157565b805490811561239d576000199182019161238d8383611896565b909182549160031b1b1916905555565b634e487b7160e01b600052603160045260246000fd5b601f81116123bf575050565b6000906000805160206143768339815191526000527ff429cb5e2ec84cbb765e76b31964a56ccde03e7a6122d6cc4afb19edc55edeed906020601f850160051c83019410612428575b601f0160051c01915b82811061241d57505050565b818155600101612411565b9092508290612408565b90601f811161244057505050565b6000916000526020600020906020601f850160051c8301941061247e575b601f0160051c01915b82811061247357505050565b818155600101612467565b909250829061245e565b91909182516001600160401b038111610487576124af816124a98454611e2e565b84612432565b602080601f83116001146124e6575081906124e29394956000926105f35750508160011b916000199060031b1c19161790565b9055565b90601f198316956124fc85600052602060002090565b926000905b88821061253957505083600195969710612520575b505050811b019055565b015160001960f88460031b161c19169055388080612516565b80600185968294968601518155019501930190612501565b9094919261255d612cc5565b612565612d27565b612572865182511461273a565b60005b865181101561264b5761259c61258b828961277e565b516000526000602052604060002090565b60038101546125af9060081c60ff161590565b61261e576125df6125c0838a61277e565b5160005260008051602061431683398151915260205260406000205490565b60026125f56125ee858a61277e565b51836127a0565b920154809211612609575050600101612575565b61261761156292938861277e565b5192612366565b610ebd61262b838a61277e565b5160405163f3f6133960e01b815260048101919091529081906024820190565b509092919361265c90838786612d52565b60005b8551811015612732578061267f856126796001948a61277e565b51612d6d565b6126bb816114f76126a28960018060a01b03166000526005602052604060002090565b6126ac868d61277e565b51600052602052604060002090565b6126d386611514836000526006602052604060002090565b6126dd828961277e565b516126e8838761277e565b51600080516020614256833981519152612729612705868961277e565b5194604051918291898060a01b038d16958360209093929193604081019481520152565b0390a40161265f565b505050509050565b1561274157565b60405162461bcd60e51b8152602060048201526015602482015274082e4e4c2f240d8cadccee8d040dad2e6dac2e8c6d605b1b6044820152606490fd5b80518210156118ae5760209160051b010190565b906001820180921161236157565b9190820180921161236157565b8054600160401b811015610487576127ca91600182018155611896565b819291549060031b91821b91600019901b1916179055565b94929091936127ef612c6d565b85600052600060205260406000209360008051602061431683398151915260205260406000205483106128cb577f05fd36ce0d7cc8a4d59ba28b9f2d721da5521ab8725daa22236a172f71e3e221956128976128b992600388612855896128ab9b612488565b6128628560018301612488565b8760028201550161287f86829060ff801983541691151516179055565b9061ff00825491151560081b169061ff001916179055565b604051958695608087526080870190610661565b908582036020870152610661565b916040840152151560608301520390a2565b60405162461bcd60e51b81526020600482015260126024820152714d617820737570706c7920746f6f206c6f7760701b6044820152606490fd5b9190918051835180820361298857505080519061293a61292483610ba6565b9261293260405194856104c2565b808452610ba6565b60209190601f1901368484013760005b8151811015612980578061296f60019260051b85808287010151918a010151906122a6565b612979828761277e565b520161294a565b509193505050565b604051635b05999160e01b815260048101919091526024810191909152604490fd5b91906129b46138d5565b6129bc6138d5565b82516001600160401b03811161048757600080516020614376833981519152906129ea816105b78454611e2e565b602080601f8311600114612a9557509080612a2092612a8d96976000926105f35750508160011b916000199060031b1c19161790565b90555b612a2b6138d5565b612a336138d5565b612a3b6138d5565b612a436138d5565b612a4c81612e78565b50612a5681612f2d565b50612a6081612dc2565b50612a6a81612f9e565b5060018060a01b03166bffffffffffffffffffffffff60a01b6004541617600455565b6104f06133d6565b90601f19831696612aa4611860565b926000905b898210612aea57505090839291600194612a8d989910612ad1575b505050811b019055612a23565b015160001960f88460031b161c19169055388080612ac4565b80600185968294968601518155019501930190612aa9565b906001600160a01b0382163381141580612b81575b612b5a57156113b1576104f092612b4b60405192600184526020840152604083019160018352606084015260808301604052565b9160006040516113ab8161048c565b60405163711bec9160e11b81523360048201526001600160a01b0384166024820152604490fd5b5060ff612b913361094f86610b2e565b541615612b17565b3360009081527fe1c8d3544115cceba2e183c14b79d0b69552b189207c20f3bf1ce18a22cdecb5602052604090207f7804d923f43a17d325d77e781528e0793b2edd9890ab45fc64efd7b4b427744c9060ff905b541615612bf75750565b6044906040519063e2517d3f60e01b82523360048301526024820152fd5b3360009081527f75442b0a96088b5456bc4ed01394c96a4feec0f883c9494257d76b96ab1c9b6b602052604090207f65d7a28e3265b37a6474929f336521b332c1681b933f6cb9f3376673440d862a9060ff90612bed565b3360009081527fb7db2dd08fcb62d0c9e08c51941cae53c267786a0b75803fb7960902fc8ef97d602052604090205460ff1615612ca657565b60405163e2517d3f60e01b815233600482015260006024820152604490fd5b336000908152600080516020614296833981519152602052604090206000805160206142b68339815191529060ff90612bed565b60008181526000805160206142d683398151915260209081526040808320338452909152902060ff90612bed565b60ff6000805160206142f68339815191525416612d4057565b60405163d93c066560e01b8152600490fd5b9291906001600160a01b03841615612203576104f0936135d3565b906007546000198114612361576001810160075560405191602083019384526bffffffffffffffffffffffff199060601b166040830152426054830152607482015260748152612dbc8161046c565b51902090565b6001600160a01b0381166000908152600080516020614296833981519152602052604081206000805160206142b6833981519152906000805160206142d68339815191529060ff905b5416612e7157818352602090815260408084206001600160a01b038616600090815292529020805460ff1916600117905533926001600160a01b0316917f2f8788117e7eff1d82e926ec794901d17c78024a50270940304540a733656f0d9080a4600190565b5050905090565b6001600160a01b03811660009081527fb7db2dd08fcb62d0c9e08c51941cae53c267786a0b75803fb7960902fc8ef97d60205260408120546000805160206142d68339815191529060ff16612f2757818052602090815260408083206001600160a01b038516600090815292529020805460ff1916600117905533916001600160a01b0316907f2f8788117e7eff1d82e926ec794901d17c78024a50270940304540a733656f0d8180a4600190565b50905090565b6001600160a01b03811660009081527f75442b0a96088b5456bc4ed01394c96a4feec0f883c9494257d76b96ab1c9b6b602052604081207f65d7a28e3265b37a6474929f336521b332c1681b933f6cb9f3376673440d862a906000805160206142d68339815191529060ff90612e0b565b6001600160a01b03811660009081527fe1c8d3544115cceba2e183c14b79d0b69552b189207c20f3bf1ce18a22cdecb5602052604081207f7804d923f43a17d325d77e781528e0793b2edd9890ab45fc64efd7b4b427744c906000805160206142d68339815191529060ff90612e0b565b60008181526000805160206142d6833981519152602081815260408084206001600160a01b0387168552909152822091929160ff90612e0b565b6001600160a01b0381166000908152600080516020614296833981519152602052604081206000805160206142b6833981519152906000805160206142d68339815191529060ff905b541615612e7157818352602090815260408084206001600160a01b038616600090815292529020805460ff1916905533926001600160a01b0316917ff6391f5c32d9c69d2a47ea670b442974b53935d1edc7fd64eb21e047a839171b9080a4600190565b60008181526000805160206142d6833981519152602081815260408084206001600160a01b0387168552909152822091929160ff90613092565b90816020910312610321575190565b9091906001600160a01b03811615612203576104f0926040519060018252602082015260408101916001835260016060830152608082016040526135d3565b919291906001600160a01b03821615612203576104f0936131bc60405192600184526020840152604083019160018352606084015260808301604052565b916135d3565b604051906131cf826104a7565b600b82526a14da5b1d995c8810d85c9960aa1b6020830152565b604051906131f6826104a7565b600682526529a4a62b22a960d11b6020830152565b919080519283516001600160401b0381116104875761322e816124a98454611e2e565b602080601f83116001146132cb57506132b59261326c836080946003946104f0999a6000926105f35750508160011b916000199060031b1c19161790565b81555b613280602086015160018301612488565b6040850151600282015501926132ae61329c6060830151151590565b859060ff801983541691151516179055565b0151151590565b815461ff00191690151560081b61ff0016179055565b90601f198316966132e185600052602060002090565b926000905b89821061332e575050836003936132b596936001936080976104f09b9c10613316575b505050811b01815561326f565b015160001983871b60f8161c19169055388080613309565b806001859682949686015181550195019301906132e6565b60405190613353826104a7565b600982526811dbdb190810d85c9960ba1b6020830152565b60405190613378826104a7565b600482526311d3d31160e21b6020830152565b60405190613398826104a7565b600c82526b111a585b5bdb990810d85c9960a21b6020830152565b604051906133c0826104a7565b60078252661112505353d39160ca1b6020830152565b61343e6133e16104e3565b6133e96131c2565b81526133f36131e9565b602082015261271060408201526000606082015260016080820152600160009081526020527fada5013122d395ba3c54772283fb069b10426056ef8ca54750cb9bb552a59e7d61320b565b6134a66134496104e3565b613451613346565b815261345b61336b565b602082015261138860408201526000606082015260016080820152600260009081526020527fabbb5caa7dda850e60932de0934eb1f9d0f59695050f761dc64e443e5030a56961320b565b6104f06134b16104e3565b6134b961338b565b81526134c36133b3565b60208201526103e860408201526000606082015260016080820152600360009081526020527f101e368776582e57ab3d116ffe2517c0a585cd5b23174b01e275c2d8329c3d8361320b565b9290919261351a612d27565b60009160005b84518110156135c5576001600160a01b0383161515806135be575b613548575b600101613520565b61356561147f600361355d61258b858a61277e565b015460ff1690565b8061359c575b156135405761357d610ebd918661277e565b516040516212242560e91b815260048101919091529081906024820190565b503360009081526002602052604090206135b99061147f90610966565b61356b565b508361353b565b50939150916104f092613c4a565b9392916135de612d27565b60005b82518110156135f2576001016135e1565b50909192613601828487613e6f565b600094855b8451871015613649576136416001918860051b9061362f602080848a010151938a0101516117fe565b61363a8382546127a0565b90556127a0565b960195613606565b90949391955061367e61366c6000805160206143368339815191529283546127a0565b60008051602061433683398151915255565b6001600160a01b0385161590816136d3575b501561369d575b50505050565b80516001036136c457906020806136bb959301519101519133613bc0565b38808080613697565b6136ce93336139c6565b6136bb565b94909591936000966000975b8651891015613714576001908960051b90613705602080848b010151938b0101516117fe565b828154039055019801976136df565b9092966137339296949850540360008051602061433683398151915255565b38613690565b919394909294613747612d27565b60005b85518110156137d0576001600160a01b03848116151590816137c4575b50613775575b60010161374a565b61378a61147f600361355d61258b858b61277e565b806137a2575b1561376d5761357d610ebd918761277e565b503360009081526002602052604090206137bf9061147f90610966565b613790565b90508516151538613767565b50929490946137e182868386613d24565b6001600160a01b0381166137f7575b5050505050565b845160010361381d576020806138139601519201519233613bf5565b38808080806137f0565b61382994919233613ac1565b613813565b90813b156138b45760008051602061427683398151915280546001600160a01b0319166001600160a01b0384169081179091557fbc7cd75a20ee27fd9adebab32041f755214dbc6bffa90cc0225b39da2e5c2d3b600080a28051156138995761389691613c2c565b50565b5050346138a257565b60405163b398979f60e01b8152600490fd5b604051634c9c8ce360e01b81526001600160a01b0383166004820152602490fd5b60ff6000805160206143568339815191525460401c16156138f257565b604051631afcd79f60e31b8152600490fd5b9081602091031261032157516106b2816103bc565b926139486106b295936139569360018060a01b031686526000602087015260a0604087015260a0860190610fe3565b908482036060860152610fe3565b916080818403910152610661565b93906106b29593613948916139569460018060a01b03809216885216602087015260a0604087015260a0860190610fe3565b3d156139c1573d906139a7826104f2565b916139b560405193846104c2565b82523d6000602084013e565b606090565b9293919093843b6139d8575050505050565b6020916139fb604051948593849363bc197c8160e01b9889865260048601613919565b038160006001600160a01b0388165af160009181613a90575b50613a535782613a22613996565b8051919082613a4c57604051632bfa23e760e11b81526001600160a01b0383166004820152602490fd5b6020915001fd5b6001600160e01b03191603613a6d575038808080806137f0565b604051632bfa23e760e11b81526001600160a01b03919091166004820152602490fd5b613ab391925060203d602011613aba575b613aab81836104c2565b810190613904565b9038613a14565b503d613aa1565b939290949194853b613ad6575b505050505050565b613af9602093604051958694859463bc197c8160e01b998a875260048701613964565b038160006001600160a01b0388165af160009181613b3b575b50613b205782613a22613996565b6001600160e01b03191603613a6d5750388080808080613ace565b613b5591925060203d602011613aba57613aab81836104c2565b9038613b12565b909260a0926106b29594600180861b0316835260006020840152604083015260608201528160808201520190610661565b91926106b295949160a094600180871b038092168552166020840152604083015260608201528160808201520190610661565b9293919093843b613bd2575050505050565b6020916139fb604051948593849363f23a6e6160e01b9889865260048601613b5c565b939290949194853b613c0957505050505050565b613af9602093604051958694859463f23a6e6160e01b998a875260048701613b8d565b6000806106b293602081519101845af4613c44613996565b91613de7565b929192613c58848383613f7f565b6001600160a01b031615613ccc575b6000805b8251821015613ca0576001908260051b90613c91602080848a01015193870101516117fe565b82815403905501910190613c6b565b9150506104f0919250600080516020614336833981519152540360008051602061433683398151915255565b6000805b8251821015613d0157613cf96001918360051b9061362f602080848b01015193880101516117fe565b910190613cd0565b613d1f915061366c90600080516020614336833981519152546127a0565b613c67565b90939293613d34858483856140cf565b6001600160a01b0391821615613d89575b1615613d5057509050565b6000805b8251821015613ca0576001908260051b90613d7a602080848a01015193870101516117fe565b82815403905501910190613d54565b92600091825b8451841015613dc057613db86001918560051b9061362f602080848d010151938a0101516117fe565b930192613d8f565b613de291935061366c90959295600080516020614336833981519152546127a0565b613d45565b90613e0e5750805115613dfc57602081519101fd5b60405163d6bda27560e01b8152600490fd5b81511580613e41575b613e1f575090565b604051639996b31560e01b81526001600160a01b039091166004820152602490fd5b50803b15613e17565b9091613e616106b293604084526040840190610fe3565b916020818403910152610fe3565b919091825182519081810361298857505060005b8351811015613edf57600581901b84810160209081015191850101516001929184906001600160a01b038216613ebd575b50505001613e83565b613ed59161094f613ecd9261181b565b9182546127a0565b9055388381613eb4565b50916001815114600014613f40576020908101519181015160408051938452918301526001600160a01b039092169160009133917fc3d58168c5ae7397731d063d5bbf3d657854427343f4c083240f7aacaa2d0f629190819081015b0390a4565b7f4a39dc06d4c0dbc64b70af90fd698a233a518aa5d07e595d983b8c0526c8f7fb613f3b6000939460405191829160018060a01b031696339583613e4a565b929190805182519081810361298857505060005b815181101561403057600581901b82810160209081015191850101516001600160a01b038716613fc8575b5050600101613f93565b613fd58761094f8461181b565b54818110613ff9578761094f6001959493613ff193039361181b565b559038613fbe565b6040516303dee4c560e01b81526001600160a01b038916600482015260248101919091526044810182905260648101839052608490fd5b5090600092939160018151148414614090576020908101519181015160408051938452918301526001600160a01b039092169133917fc3d58168c5ae7397731d063d5bbf3d657854427343f4c083240f7aacaa2d0f629181908101613f3b565b6040516001600160a01b039093169233927f4a39dc06d4c0dbc64b70af90fd698a233a518aa5d07e595d983b8c0526c8f7fb928291613f3b9183613e4a565b939291805183519081810361298857505060005b81518110156141b057600581901b82810160209081015191860101516001600160a01b0392918590898516614140575b6001948216614126575b505050016140e3565b6141369161094f613ecd9261181b565b905538848161411d565b91929390506141528961094f8461181b565b5483811061417957918691846001969594036141718c61094f8561181b565b559450614113565b6040516303dee4c560e01b81526001600160a01b038b16600482015260248101919091526044810184905260648101839052608490fd5b508051939493919291600103614212576020908101519181015160408051938452918301526001600160a01b03928316939092169133917fc3d58168c5ae7397731d063d5bbf3d657854427343f4c083240f7aacaa2d0f629181908101613f3b565b6040516001600160a01b03938416949093169233927f4a39dc06d4c0dbc64b70af90fd698a233a518aa5d07e595d983b8c0526c8f7fb928291613f3b9183613e4a56fe6bdfbf7843bc606f46a1cf98f0f452370e9680018f8682541746e340433e46c5360894a13ba1a3210667c828492db98dca3e2076cc3735a920a3ca505d382bbc549fe2656c81d2947b3b913f0a53b9ea86c71e049f3a1b8aa23c09a8a05cb8d49f2df0fed2c77648de5860a4cc508cd0818c85b8b8a1ab4ceeef8d981c8956a602dd7bc7dec4dceedda775e58dd541e08a116c6c53815c0bd028192f7b626800cd5ed15c6e187e77e9aee88184c21f4f2182ab5827cb3b7e07fbedcd63f033004a593662ee04d27b6a00ebb31be7fe0c102c2ade82a7c5d764f2df05dc4e28004a593662ee04d27b6a00ebb31be7fe0c102c2ade82a7c5d764f2df05dc4e2801f0c57e16840df040f15088dc2f81fe391c3923bec73e23a9662efc9c229c6a0088be536d5240c274a3b1d3a1be54482fd9caa294f08c62a7cde569f49a3c4502a2646970667358221220b431d5733d69c4e1c0862b99b1fdcd96a1a983ea91604207549837e3af69310a64736f6c63430008180033","opcodes":"PUSH1 0xA0 DUP1 PUSH1 0x40 MSTORE CALLVALUE PUSH2 0x2A JUMPI ADDRESS PUSH1 0x80 MSTORE PUSH2 0x43CB SWAP1 DUP2 PUSH2 0x30 DUP3 CODECOPY PUSH1 0x80 MLOAD DUP2 DUP2 DUP2 PUSH2 0x1121 ADD MSTORE PUSH2 0x128A ADD MSTORE RETURN JUMPDEST PUSH1 0x0 DUP1 REVERT INVALID PUSH1 0x80 PUSH1 0x40 MSTORE PUSH1 0x4 CALLDATASIZE LT ISZERO PUSH2 0x12 JUMPI PUSH1 0x0 DUP1 REVERT JUMPDEST PUSH1 0x0 CALLDATALOAD PUSH1 0xE0 SHR DUP1 PUSH3 0xFDD58E EQ PUSH2 0x306 JUMPI DUP1 PUSH4 0x1FFC9A7 EQ PUSH2 0x301 JUMPI DUP1 PUSH4 0x2FE5305 EQ PUSH2 0x2FC JUMPI DUP1 PUSH4 0xE89341C EQ PUSH2 0x2F7 JUMPI DUP1 PUSH4 0x124D91E5 EQ PUSH2 0x2F2 JUMPI DUP1 PUSH4 0x162094C4 EQ PUSH2 0x2ED JUMPI DUP1 PUSH4 0x18160DDD EQ PUSH2 0x2E8 JUMPI DUP1 PUSH4 0x181D989B EQ PUSH2 0x2E3 JUMPI DUP1 PUSH4 0x221193E3 EQ PUSH2 0x2DE JUMPI DUP1 PUSH4 0x248A9CA3 EQ PUSH2 0x2D9 JUMPI DUP1 PUSH4 0x2962D238 EQ PUSH2 0x2D4 JUMPI DUP1 PUSH4 0x2EB2C2D6 EQ PUSH2 0x2CF JUMPI DUP1 PUSH4 0x2F2FF15D EQ PUSH2 0x2CA JUMPI DUP1 PUSH4 0x36568ABE EQ PUSH2 0x2C5 JUMPI DUP1 PUSH4 0x3F4BA83A EQ PUSH2 0x2C0 JUMPI DUP1 PUSH4 0x4E1273F4 EQ PUSH2 0x2BB JUMPI DUP1 PUSH4 0x4F1EF286 EQ PUSH2 0x2B6 JUMPI DUP1 PUSH4 0x4F558E79 EQ PUSH2 0x2B1 JUMPI DUP1 PUSH4 0x52D1902D EQ PUSH2 0x2AC JUMPI DUP1 PUSH4 0x5C975ABB EQ PUSH2 0x2A7 JUMPI DUP1 PUSH4 0x61D027B3 EQ PUSH2 0x2A2 JUMPI DUP1 PUSH4 0x6B20C454 EQ PUSH2 0x29D JUMPI DUP1 PUSH4 0x731133E9 EQ PUSH2 0x298 JUMPI DUP1 PUSH4 0x788F737D EQ PUSH2 0x293 JUMPI DUP1 PUSH4 0x7AB4339D EQ PUSH2 0x28E JUMPI DUP1 PUSH4 0x7F345710 EQ PUSH2 0x289 JUMPI DUP1 PUSH4 0x8456CB59 EQ PUSH2 0x284 JUMPI DUP1 PUSH4 0x8B934440 EQ PUSH2 0x27F JUMPI DUP1 PUSH4 0x8C7A63AE EQ PUSH2 0x27A JUMPI DUP1 PUSH4 0x8DA5CB5B EQ PUSH2 0x275 JUMPI DUP1 PUSH4 0x91D14854 EQ PUSH2 0x270 JUMPI DUP1 PUSH4 0x95B0376E EQ PUSH2 0x26B JUMPI DUP1 PUSH4 0xA217FDDF EQ PUSH2 0x266 JUMPI DUP1 PUSH4 0xA22CB465 EQ PUSH2 0x261 JUMPI DUP1 PUSH4 0xACE8EB87 EQ PUSH2 0x25C JUMPI DUP1 PUSH4 0xAD3CB1CC EQ PUSH2 0x257 JUMPI DUP1 PUSH4 0xBD85B039 EQ PUSH2 0x252 JUMPI DUP1 PUSH4 0xCC33C875 EQ PUSH2 0x24D JUMPI DUP1 PUSH4 0xCFDC3522 EQ PUSH2 0x248 JUMPI DUP1 PUSH4 0xD5391393 EQ PUSH2 0x243 JUMPI DUP1 PUSH4 0xD547741F EQ PUSH2 0x23E JUMPI DUP1 PUSH4 0xE63AB1E9 EQ PUSH2 0x239 JUMPI DUP1 PUSH4 0xE985E9C5 EQ PUSH2 0x234 JUMPI DUP1 PUSH4 0xF0F44260 EQ PUSH2 0x22F JUMPI DUP1 PUSH4 0xF242432A EQ PUSH2 0x22A JUMPI DUP1 PUSH4 0xF5298ACA EQ PUSH2 0x225 JUMPI PUSH4 0xF8A14F46 EQ PUSH2 0x220 JUMPI PUSH1 0x0 DUP1 REVERT JUMPDEST PUSH2 0x2272 JUMP JUMPDEST PUSH2 0x225B JUMP JUMPDEST PUSH2 0x2162 JUMP JUMPDEST PUSH2 0x20FB JUMP JUMPDEST PUSH2 0x20CA JUMP JUMPDEST PUSH2 0x208F JUMP JUMPDEST PUSH2 0x2043 JUMP JUMPDEST PUSH2 0x201A JUMP JUMPDEST PUSH2 0x1F96 JUMP JUMPDEST PUSH2 0x1F0B JUMP JUMPDEST PUSH2 0x1DEF JUMP JUMPDEST PUSH2 0x1DA9 JUMP JUMPDEST PUSH2 0x1C21 JUMP JUMPDEST PUSH2 0x1B85 JUMP JUMPDEST PUSH2 0x1B69 JUMP JUMPDEST PUSH2 0x1A39 JUMP JUMPDEST PUSH2 0x19DA JUMP JUMPDEST PUSH2 0x19B1 JUMP JUMPDEST PUSH2 0x190A JUMP JUMPDEST PUSH2 0x18B3 JUMP JUMPDEST PUSH2 0x1797 JUMP JUMPDEST PUSH2 0x175C JUMP JUMPDEST PUSH2 0x1618 JUMP JUMPDEST PUSH2 0x159A JUMP JUMPDEST PUSH2 0x1408 JUMP JUMPDEST PUSH2 0x1329 JUMP JUMPDEST PUSH2 0x1300 JUMP JUMPDEST PUSH2 0x12D0 JUMP JUMPDEST PUSH2 0x1277 JUMP JUMPDEST PUSH2 0x123C JUMP JUMPDEST PUSH2 0x10E2 JUMP JUMPDEST PUSH2 0x1028 JUMP JUMPDEST PUSH2 0xF6C JUMP JUMPDEST PUSH2 0xF25 JUMP JUMPDEST PUSH2 0xED9 JUMP JUMPDEST PUSH2 0xDBB JUMP JUMPDEST PUSH2 0xD47 JUMP JUMPDEST PUSH2 0xCFC JUMP JUMPDEST PUSH2 0xC1D JUMP JUMPDEST PUSH2 0xB67 JUMP JUMPDEST PUSH2 0xB03 JUMP JUMPDEST PUSH2 0x98B JUMP JUMPDEST PUSH2 0x800 JUMP JUMPDEST PUSH2 0x6B5 JUMP JUMPDEST PUSH2 0x554 JUMP JUMPDEST PUSH2 0x3CE JUMP JUMPDEST PUSH2 0x350 JUMP JUMPDEST PUSH1 0x4 CALLDATALOAD SWAP1 PUSH1 0x1 PUSH1 0x1 PUSH1 0xA0 SHL SUB DUP3 AND DUP3 SUB PUSH2 0x321 JUMPI JUMP JUMPDEST PUSH1 0x0 DUP1 REVERT JUMPDEST PUSH1 0x24 CALLDATALOAD SWAP1 PUSH1 0x1 PUSH1 0x1 PUSH1 0xA0 SHL SUB DUP3 AND DUP3 SUB PUSH2 0x321 JUMPI JUMP JUMPDEST CALLDATALOAD SWAP1 PUSH1 0x1 PUSH1 0x1 PUSH1 0xA0 SHL SUB DUP3 AND DUP3 SUB PUSH2 0x321 JUMPI JUMP JUMPDEST CALLVALUE PUSH2 0x321 JUMPI PUSH1 0x40 CALLDATASIZE PUSH1 0x3 NOT ADD SLT PUSH2 0x321 JUMPI PUSH1 0x20 PUSH2 0x3B3 PUSH2 0x36E PUSH2 0x30B JUMP JUMPDEST PUSH1 0x24 CALLDATALOAD PUSH1 0x0 MSTORE PUSH32 0x88BE536D5240C274A3B1D3A1BE54482FD9CAA294F08C62A7CDE569F49A3C4500 DUP4 MSTORE PUSH1 0x40 PUSH1 0x0 KECCAK256 SWAP1 PUSH1 0x1 DUP1 PUSH1 0xA0 SHL SUB AND PUSH1 0x0 MSTORE PUSH1 0x20 MSTORE PUSH1 0x40 PUSH1 0x0 KECCAK256 SWAP1 JUMP JUMPDEST SLOAD PUSH1 0x40 MLOAD SWAP1 DUP2 MSTORE RETURN JUMPDEST PUSH1 0x1 PUSH1 0x1 PUSH1 0xE0 SHL SUB NOT DUP2 AND SUB PUSH2 0x321 JUMPI JUMP JUMPDEST CALLVALUE PUSH2 0x321 JUMPI PUSH1 0x20 CALLDATASIZE PUSH1 0x3 NOT ADD SLT PUSH2 0x321 JUMPI PUSH1 0x20 PUSH1 0x4 CALLDATALOAD PUSH2 0x3ED DUP2 PUSH2 0x3BC JUMP JUMPDEST PUSH4 0xFFFFFFFF PUSH1 0xE0 SHL AND PUSH4 0x7965DB0B PUSH1 0xE0 SHL DUP2 EQ SWAP1 DUP2 ISZERO PUSH2 0x413 JUMPI JUMPDEST POP PUSH1 0x40 MLOAD SWAP1 ISZERO ISZERO DUP2 MSTORE RETURN JUMPDEST PUSH4 0x6CDB3D13 PUSH1 0xE1 SHL DUP2 EQ SWAP2 POP DUP2 ISZERO PUSH2 0x445 JUMPI JUMPDEST DUP2 ISZERO PUSH2 0x434 JUMPI JUMPDEST POP CODESIZE PUSH2 0x408 JUMP JUMPDEST PUSH4 0x1FFC9A7 PUSH1 0xE0 SHL EQ SWAP1 POP CODESIZE PUSH2 0x42D JUMP JUMPDEST PUSH4 0x3A24D07 PUSH1 0xE2 SHL DUP2 EQ SWAP2 POP PUSH2 0x426 JUMP JUMPDEST PUSH4 0x4E487B71 PUSH1 0xE0 SHL PUSH1 0x0 MSTORE PUSH1 0x41 PUSH1 0x4 MSTORE PUSH1 0x24 PUSH1 0x0 REVERT JUMPDEST PUSH1 0xA0 DUP2 ADD SWAP1 DUP2 LT PUSH1 0x1 PUSH1 0x1 PUSH1 0x40 SHL SUB DUP3 GT OR PUSH2 0x487 JUMPI PUSH1 0x40 MSTORE JUMP JUMPDEST PUSH2 0x456 JUMP JUMPDEST PUSH1 0x20 DUP2 ADD SWAP1 DUP2 LT PUSH1 0x1 PUSH1 0x1 PUSH1 0x40 SHL SUB DUP3 GT OR PUSH2 0x487 JUMPI PUSH1 0x40 MSTORE JUMP JUMPDEST PUSH1 0x40 DUP2 ADD SWAP1 DUP2 LT PUSH1 0x1 PUSH1 0x1 PUSH1 0x40 SHL SUB DUP3 GT OR PUSH2 0x487 JUMPI PUSH1 0x40 MSTORE JUMP JUMPDEST SWAP1 PUSH1 0x1F DUP1 NOT SWAP2 ADD AND DUP2 ADD SWAP1 DUP2 LT PUSH1 0x1 PUSH1 0x1 PUSH1 0x40 SHL SUB DUP3 GT OR PUSH2 0x487 JUMPI PUSH1 0x40 MSTORE JUMP JUMPDEST PUSH1 0x40 MLOAD SWAP1 PUSH2 0x4F0 DUP3 PUSH2 0x46C JUMP JUMPDEST JUMP JUMPDEST PUSH1 0x1 PUSH1 0x1 PUSH1 0x40 SHL SUB DUP2 GT PUSH2 0x487 JUMPI PUSH1 0x1F ADD PUSH1 0x1F NOT AND PUSH1 0x20 ADD SWAP1 JUMP JUMPDEST DUP2 PUSH1 0x1F DUP3 ADD SLT ISZERO PUSH2 0x321 JUMPI DUP1 CALLDATALOAD SWAP1 PUSH2 0x524 DUP3 PUSH2 0x4F2 JUMP JUMPDEST SWAP3 PUSH2 0x532 PUSH1 0x40 MLOAD SWAP5 DUP6 PUSH2 0x4C2 JUMP JUMPDEST DUP3 DUP5 MSTORE PUSH1 0x20 DUP4 DUP4 ADD ADD GT PUSH2 0x321 JUMPI DUP2 PUSH1 0x0 SWAP3 PUSH1 0x20 DUP1 SWAP4 ADD DUP4 DUP7 ADD CALLDATACOPY DUP4 ADD ADD MSTORE SWAP1 JUMP JUMPDEST CALLVALUE PUSH2 0x321 JUMPI PUSH1 0x20 DUP1 PUSH1 0x3 NOT CALLDATASIZE ADD SLT PUSH2 0x321 JUMPI PUSH1 0x1 PUSH1 0x1 PUSH1 0x40 SHL SUB SWAP1 PUSH1 0x4 CALLDATALOAD DUP3 DUP2 GT PUSH2 0x321 JUMPI PUSH2 0x587 SWAP1 CALLDATASIZE SWAP1 PUSH1 0x4 ADD PUSH2 0x50D JUMP JUMPDEST SWAP2 PUSH2 0x590 PUSH2 0x2B99 JUMP JUMPDEST DUP3 MLOAD SWAP1 DUP2 GT PUSH2 0x487 JUMPI PUSH1 0x0 DUP1 MLOAD PUSH1 0x20 PUSH2 0x4376 DUP4 CODECOPY DUP2 MLOAD SWAP2 MSTORE SWAP2 PUSH2 0x5BC DUP3 PUSH2 0x5B7 DUP6 SLOAD PUSH2 0x1E2E JUMP JUMPDEST PUSH2 0x23B3 JUMP JUMPDEST PUSH1 0x20 SWAP1 PUSH1 0x1F DUP4 GT PUSH1 0x1 EQ PUSH2 0x5FE JUMPI POP DUP2 SWAP1 PUSH2 0x5EF SWAP4 SWAP5 PUSH1 0x0 SWAP3 PUSH2 0x5F3 JUMPI JUMPDEST POP POP DUP2 PUSH1 0x1 SHL SWAP2 PUSH1 0x0 NOT SWAP1 PUSH1 0x3 SHL SHR NOT AND OR SWAP1 JUMP JUMPDEST SWAP1 SSTORE STOP JUMPDEST ADD MLOAD SWAP1 POP CODESIZE DUP1 PUSH2 0x5DA JUMP JUMPDEST SWAP1 PUSH1 0x1F NOT DUP4 AND SWAP5 PUSH2 0x60D PUSH2 0x1860 JUMP JUMPDEST SWAP3 PUSH1 0x0 SWAP1 JUMPDEST DUP8 DUP3 LT PUSH2 0x649 JUMPI POP POP DUP4 PUSH1 0x1 SWAP6 SWAP7 LT PUSH2 0x630 JUMPI JUMPDEST POP POP POP DUP2 SHL ADD SWAP1 SSTORE STOP JUMPDEST ADD MLOAD PUSH1 0x0 NOT PUSH1 0xF8 DUP5 PUSH1 0x3 SHL AND SHR NOT AND SWAP1 SSTORE CODESIZE DUP1 DUP1 PUSH2 0x626 JUMP JUMPDEST DUP1 PUSH1 0x1 DUP6 SWAP7 DUP3 SWAP5 SWAP7 DUP7 ADD MLOAD DUP2 SSTORE ADD SWAP6 ADD SWAP4 ADD SWAP1 PUSH2 0x612 JUMP JUMPDEST SWAP2 SWAP1 DUP3 MLOAD SWAP3 DUP4 DUP3 MSTORE PUSH1 0x0 JUMPDEST DUP5 DUP2 LT PUSH2 0x68D JUMPI POP POP DUP3 PUSH1 0x0 PUSH1 0x20 DUP1 SWAP5 SWAP6 DUP5 ADD ADD MSTORE PUSH1 0x1F DUP1 NOT SWAP2 ADD AND ADD ADD SWAP1 JUMP JUMPDEST PUSH1 0x20 DUP2 DUP4 ADD DUP2 ADD MLOAD DUP5 DUP4 ADD DUP3 ADD MSTORE ADD PUSH2 0x66C JUMP JUMPDEST SWAP1 PUSH1 0x20 PUSH2 0x6B2 SWAP3 DUP2 DUP2 MSTORE ADD SWAP1 PUSH2 0x661 JUMP JUMPDEST SWAP1 JUMP JUMPDEST CALLVALUE PUSH2 0x321 JUMPI PUSH1 0x20 DUP1 PUSH1 0x3 NOT CALLDATASIZE ADD SLT PUSH2 0x321 JUMPI PUSH1 0x0 SWAP1 PUSH1 0x4 CALLDATALOAD DUP3 MSTORE PUSH1 0x1 SWAP2 PUSH1 0x1 DUP3 MSTORE PUSH2 0x6E2 PUSH1 0x40 DUP3 KECCAK256 PUSH2 0x1E68 JUMP JUMPDEST DUP1 MLOAD SWAP1 SWAP3 SWAP1 ISZERO PUSH2 0x704 JUMPI POP POP PUSH2 0x700 SWAP2 POP JUMPDEST PUSH1 0x40 MLOAD SWAP2 DUP3 SWAP2 DUP3 PUSH2 0x6A1 JUMP JUMPDEST SUB SWAP1 RETURN JUMPDEST SWAP1 SWAP2 POP PUSH1 0x40 MLOAD SWAP2 DUP1 SWAP4 PUSH1 0x0 DUP1 MLOAD PUSH1 0x20 PUSH2 0x4376 DUP4 CODECOPY DUP2 MLOAD SWAP2 MSTORE SWAP2 DUP3 SLOAD SWAP3 PUSH2 0x729 DUP5 PUSH2 0x1E2E JUMP JUMPDEST DUP1 DUP8 MSTORE SWAP4 PUSH1 0x1 DUP2 AND SWAP1 DUP2 ISZERO PUSH2 0x7B2 JUMPI POP PUSH1 0x1 EQ PUSH2 0x75A JUMPI JUMPDEST POP POP POP POP POP PUSH2 0x755 DUP2 PUSH2 0x700 SWAP4 SUB DUP3 PUSH2 0x4C2 JUMP JUMPDEST PUSH2 0x6F4 JUMP JUMPDEST DUP2 MSTORE SWAP3 SWAP5 POP PUSH32 0xF429CB5E2EC84CBB765E76B31964A56CCDE03E7A6122D6CC4AFB19EDC55EDEED JUMPDEST DUP3 DUP5 LT PUSH2 0x79F JUMPI POP POP POP DUP2 PUSH2 0x700 SWAP4 PUSH2 0x755 SWAP3 DUP3 ADD ADD SWAP4 CODESIZE DUP1 PUSH2 0x741 JUMP JUMPDEST DUP1 SLOAD DUP6 DUP6 ADD DUP8 ADD MSTORE SWAP3 DUP6 ADD SWAP3 DUP2 ADD PUSH2 0x781 JUMP JUMPDEST PUSH1 0xFF NOT AND DUP8 DUP8 ADD MSTORE POP POP POP POP ISZERO ISZERO PUSH1 0x5 SHL DUP3 ADD ADD SWAP2 POP PUSH2 0x755 DUP2 PUSH2 0x700 CODESIZE DUP1 PUSH2 0x741 JUMP JUMPDEST PUSH1 0x60 SWAP1 PUSH1 0x3 NOT ADD SLT PUSH2 0x321 JUMPI PUSH1 0x4 CALLDATALOAD PUSH1 0x1 PUSH1 0x1 PUSH1 0xA0 SHL SUB DUP2 AND DUP2 SUB PUSH2 0x321 JUMPI SWAP1 PUSH1 0x24 CALLDATALOAD SWAP1 PUSH1 0x44 CALLDATALOAD SWAP1 JUMP JUMPDEST CALLVALUE PUSH2 0x321 JUMPI PUSH2 0x876 PUSH2 0x811 CALLDATASIZE PUSH2 0x7D6 JUMP JUMPDEST SWAP2 DUP2 PUSH1 0x1 PUSH1 0x1 PUSH1 0xA0 SHL SUB DUP3 AND CALLER DUP2 EQ DUP1 ISZERO PUSH2 0x974 JUMPI JUMPDEST DUP1 ISZERO PUSH2 0x910 JUMPI JUMPDEST PUSH2 0x837 SWAP1 PUSH2 0x22F1 JUMP JUMPDEST PUSH1 0x1 PUSH1 0x1 PUSH1 0xA0 SHL SUB DUP4 AND PUSH1 0x0 SWAP1 DUP2 MSTORE PUSH1 0x5 PUSH1 0x20 MSTORE PUSH1 0x40 SWAP1 KECCAK256 PUSH2 0x865 SWAP1 DUP4 SWAP1 JUMPDEST SWAP1 PUSH1 0x0 MSTORE PUSH1 0x20 MSTORE PUSH1 0x40 PUSH1 0x0 KECCAK256 SWAP1 JUMP JUMPDEST DUP1 SLOAD DUP1 PUSH2 0x878 JUMPI JUMPDEST POP POP POP POP PUSH2 0x2B02 JUMP JUMPDEST STOP JUMPDEST PUSH32 0xE06AA145E36EC4B8740F4896D15FAF3815DD20984C287E8C36F9E34B32AB9E7E SWAP2 PUSH2 0x8C5 PUSH2 0x8BF PUSH2 0x8B5 PUSH2 0x8AF PUSH2 0x904 SWAP6 PUSH2 0x2352 JUMP JUMPDEST DUP5 PUSH2 0x1896 JUMP JUMPDEST SWAP1 SLOAD SWAP1 PUSH1 0x3 SHL SHR SWAP1 JUMP JUMPDEST SWAP2 PUSH2 0x2373 JUMP JUMPDEST PUSH2 0x8EC PUSH2 0x8DC DUP3 PUSH1 0x0 MSTORE PUSH1 0x6 PUSH1 0x20 MSTORE PUSH1 0x40 PUSH1 0x0 KECCAK256 SWAP1 JUMP JUMPDEST DUP1 SLOAD PUSH1 0x1 PUSH1 0x1 PUSH1 0xA0 SHL SUB NOT AND SWAP1 SSTORE JUMP JUMPDEST PUSH1 0x40 DUP1 MLOAD DUP10 DUP2 MSTORE PUSH1 0x20 DUP2 ADD SWAP3 SWAP1 SWAP3 MSTORE SWAP1 SWAP2 DUP3 SWAP2 DUP3 ADD SWAP1 JUMP JUMPDEST SUB SWAP1 LOG3 DUP2 CODESIZE DUP1 DUP1 PUSH2 0x86D JUMP JUMPDEST POP PUSH1 0x0 DUP1 MLOAD PUSH1 0x20 PUSH2 0x42B6 DUP4 CODECOPY DUP2 MLOAD SWAP2 MSTORE PUSH1 0x0 MSTORE PUSH1 0x0 DUP1 MLOAD PUSH1 0x20 PUSH2 0x42D6 DUP4 CODECOPY DUP2 MLOAD SWAP2 MSTORE PUSH1 0x20 MSTORE PUSH2 0x837 PUSH2 0x96D PUSH2 0x966 CALLER PUSH1 0x0 DUP1 MLOAD PUSH1 0x20 PUSH2 0x4296 DUP4 CODECOPY DUP2 MLOAD SWAP2 MSTORE JUMPDEST SWAP1 PUSH1 0x1 DUP1 PUSH1 0xA0 SHL SUB AND PUSH1 0x0 MSTORE PUSH1 0x20 MSTORE PUSH1 0x40 PUSH1 0x0 KECCAK256 SWAP1 JUMP JUMPDEST SLOAD PUSH1 0xFF AND SWAP1 JUMP JUMPDEST SWAP1 POP PUSH2 0x82E JUMP JUMPDEST POP PUSH1 0xFF PUSH2 0x984 CALLER PUSH2 0x94F DUP7 PUSH2 0xB2E JUMP JUMPDEST SLOAD AND PUSH2 0x827 JUMP JUMPDEST CALLVALUE PUSH2 0x321 JUMPI PUSH1 0x40 CALLDATASIZE PUSH1 0x3 NOT ADD SLT PUSH2 0x321 JUMPI PUSH1 0x1 PUSH1 0x1 PUSH1 0x40 SHL SUB PUSH1 0x4 CALLDATALOAD PUSH1 0x24 CALLDATALOAD DUP3 DUP2 GT PUSH2 0x321 JUMPI PUSH2 0x9BF SWAP1 CALLDATASIZE SWAP1 PUSH1 0x4 ADD PUSH2 0x50D JUMP JUMPDEST PUSH2 0x9C7 PUSH2 0x2B99 JUMP JUMPDEST PUSH1 0x0 SWAP3 DUP3 DUP5 MSTORE PUSH1 0x1 SWAP1 PUSH1 0x20 PUSH1 0x1 PUSH1 0x20 MSTORE PUSH1 0x40 DUP7 KECCAK256 SWAP3 DUP5 MLOAD SWAP3 DUP4 GT PUSH2 0x487 JUMPI PUSH2 0x9F9 DUP4 PUSH2 0x9F3 DUP7 SLOAD PUSH2 0x1E2E JUMP JUMPDEST DUP7 PUSH2 0x2432 JUMP JUMPDEST PUSH1 0x20 SWAP2 PUSH1 0x1F DUP5 GT PUSH1 0x1 EQ PUSH2 0xA6F JUMPI POP POP SWAP2 PUSH2 0xA50 DUP3 PUSH32 0xBF032AE7DCB484F99F9F3977BA9CDE222756E7073DE74244CEB89DE862569BDB SWAP6 SWAP4 PUSH2 0xA5E SWAP6 DUP10 SWAP2 PUSH2 0xA64 JUMPI JUMPDEST POP DUP2 PUSH1 0x1 SHL SWAP2 PUSH1 0x0 NOT SWAP1 PUSH1 0x3 SHL SHR NOT AND OR SWAP1 JUMP JUMPDEST SWAP1 SSTORE PUSH1 0x40 MLOAD SWAP2 DUP3 SWAP2 DUP3 PUSH2 0x6A1 JUMP JUMPDEST SUB SWAP1 LOG2 DUP1 RETURN JUMPDEST SWAP1 POP DUP5 ADD MLOAD CODESIZE PUSH2 0xA3C JUMP JUMPDEST SWAP2 SWAP1 PUSH1 0x1F NOT DUP5 AND SWAP1 PUSH2 0xA86 DUP7 PUSH1 0x0 MSTORE PUSH1 0x20 PUSH1 0x0 KECCAK256 SWAP1 JUMP JUMPDEST SWAP4 DUP10 SWAP2 JUMPDEST DUP4 DUP4 LT PUSH2 0xAEC JUMPI POP POP POP SWAP3 PUSH2 0xA5E SWAP5 SWAP3 PUSH1 0x1 SWAP3 DUP3 PUSH32 0xBF032AE7DCB484F99F9F3977BA9CDE222756E7073DE74244CEB89DE862569BDB SWAP9 SWAP7 LT PUSH2 0xAD3 JUMPI JUMPDEST POP POP DUP2 SHL ADD SWAP1 SSTORE PUSH2 0x6F4 JUMP JUMPDEST DUP6 ADD MLOAD PUSH1 0x0 NOT PUSH1 0xF8 DUP5 PUSH1 0x3 SHL AND SHR NOT AND SWAP1 SSTORE CODESIZE DUP1 PUSH2 0xAC7 JUMP JUMPDEST DUP9 DUP6 ADD MLOAD DUP7 SSTORE SWAP5 DUP6 ADD SWAP5 SWAP4 DUP2 ADD SWAP4 SWAP2 DUP2 ADD SWAP2 PUSH2 0xA8A JUMP JUMPDEST CALLVALUE PUSH2 0x321 JUMPI PUSH1 0x0 CALLDATASIZE PUSH1 0x3 NOT ADD SLT PUSH2 0x321 JUMPI PUSH1 0x20 PUSH1 0x0 DUP1 MLOAD PUSH1 0x20 PUSH2 0x4336 DUP4 CODECOPY DUP2 MLOAD SWAP2 MSTORE SLOAD PUSH1 0x40 MLOAD SWAP1 DUP2 MSTORE RETURN JUMPDEST PUSH1 0x1 PUSH1 0x1 PUSH1 0xA0 SHL SUB AND PUSH1 0x0 SWAP1 DUP2 MSTORE PUSH32 0x88BE536D5240C274A3B1D3A1BE54482FD9CAA294F08C62A7CDE569F49A3C4501 PUSH1 0x20 MSTORE PUSH1 0x40 SWAP1 KECCAK256 SWAP1 JUMP JUMPDEST CALLVALUE PUSH2 0x321 JUMPI PUSH1 0x20 CALLDATASIZE PUSH1 0x3 NOT ADD SLT PUSH2 0x321 JUMPI PUSH1 0x1 PUSH1 0x1 PUSH1 0xA0 SHL SUB PUSH2 0xB88 PUSH2 0x30B JUMP JUMPDEST AND PUSH1 0x0 MSTORE PUSH1 0x2 PUSH1 0x20 MSTORE PUSH1 0x20 PUSH1 0xFF PUSH1 0x40 PUSH1 0x0 KECCAK256 SLOAD AND PUSH1 0x40 MLOAD SWAP1 ISZERO ISZERO DUP2 MSTORE RETURN JUMPDEST PUSH1 0x1 PUSH1 0x1 PUSH1 0x40 SHL SUB DUP2 GT PUSH2 0x487 JUMPI PUSH1 0x5 SHL PUSH1 0x20 ADD SWAP1 JUMP JUMPDEST SWAP1 DUP1 PUSH1 0x1F DUP4 ADD SLT ISZERO PUSH2 0x321 JUMPI PUSH1 0x20 SWAP1 DUP3 CALLDATALOAD PUSH2 0xBD7 DUP2 PUSH2 0xBA6 JUMP JUMPDEST SWAP4 PUSH2 0xBE5 PUSH1 0x40 MLOAD SWAP6 DUP7 PUSH2 0x4C2 JUMP JUMPDEST DUP2 DUP6 MSTORE PUSH1 0x20 DUP1 DUP7 ADD SWAP3 PUSH1 0x5 SHL DUP3 ADD ADD SWAP3 DUP4 GT PUSH2 0x321 JUMPI PUSH1 0x20 ADD SWAP1 JUMPDEST DUP3 DUP3 LT PUSH2 0xC0E JUMPI POP POP POP POP SWAP1 JUMP JUMPDEST DUP2 CALLDATALOAD DUP2 MSTORE SWAP1 DUP4 ADD SWAP1 DUP4 ADD PUSH2 0xC00 JUMP JUMPDEST CALLVALUE PUSH2 0x321 JUMPI PUSH1 0xA0 CALLDATASIZE PUSH1 0x3 NOT ADD SLT PUSH2 0x321 JUMPI PUSH2 0xC36 PUSH2 0x30B JUMP JUMPDEST PUSH1 0x1 PUSH1 0x1 PUSH1 0x40 SHL SUB SWAP1 PUSH1 0x24 CALLDATALOAD DUP3 DUP2 GT PUSH2 0x321 JUMPI PUSH2 0xC57 SWAP1 CALLDATASIZE SWAP1 PUSH1 0x4 ADD PUSH2 0xBBD JUMP JUMPDEST PUSH1 0x44 CALLDATALOAD DUP4 DUP2 GT PUSH2 0x321 JUMPI PUSH2 0xC6F SWAP1 CALLDATASIZE SWAP1 PUSH1 0x4 ADD PUSH2 0xBBD JUMP JUMPDEST PUSH1 0x64 CALLDATALOAD SWAP2 DUP5 DUP4 GT PUSH2 0x321 JUMPI CALLDATASIZE PUSH1 0x23 DUP5 ADD SLT ISZERO PUSH2 0x321 JUMPI DUP3 PUSH1 0x4 ADD CALLDATALOAD PUSH2 0xC93 DUP2 PUSH2 0xBA6 JUMP JUMPDEST SWAP4 PUSH2 0xCA1 PUSH1 0x40 MLOAD SWAP6 DUP7 PUSH2 0x4C2 JUMP JUMPDEST DUP2 DUP6 MSTORE PUSH1 0x20 SWAP2 PUSH1 0x24 PUSH1 0x20 DUP8 ADD SWAP2 PUSH1 0x5 SHL DUP4 ADD ADD SWAP2 CALLDATASIZE DUP4 GT PUSH2 0x321 JUMPI PUSH1 0x24 ADD SWAP1 JUMPDEST DUP3 DUP3 LT PUSH2 0xCED JUMPI POP POP POP POP PUSH1 0x84 CALLDATALOAD SWAP5 DUP6 GT PUSH2 0x321 JUMPI PUSH2 0xCE7 PUSH2 0x876 SWAP6 CALLDATASIZE SWAP1 PUSH1 0x4 ADD PUSH2 0x50D JUMP JUMPDEST SWAP4 PUSH2 0x2551 JUMP JUMPDEST DUP2 CALLDATALOAD DUP2 MSTORE SWAP1 DUP4 ADD SWAP1 DUP4 ADD PUSH2 0xCC1 JUMP JUMPDEST CALLVALUE PUSH2 0x321 JUMPI PUSH1 0x20 CALLDATASIZE PUSH1 0x3 NOT ADD SLT PUSH2 0x321 JUMPI PUSH1 0x4 CALLDATALOAD PUSH1 0x0 MSTORE PUSH1 0x0 DUP1 MLOAD PUSH1 0x20 PUSH2 0x42D6 DUP4 CODECOPY DUP2 MLOAD SWAP2 MSTORE PUSH1 0x20 MSTORE PUSH1 0x20 PUSH1 0x1 PUSH1 0x40 PUSH1 0x0 KECCAK256 ADD SLOAD PUSH1 0x40 MLOAD SWAP1 DUP2 MSTORE RETURN JUMPDEST PUSH1 0x24 CALLDATALOAD SWAP1 DUP2 ISZERO ISZERO DUP3 SUB PUSH2 0x321 JUMPI JUMP JUMPDEST CALLVALUE PUSH2 0x321 JUMPI PUSH1 0xC0 CALLDATASIZE PUSH1 0x3 NOT ADD SLT PUSH2 0x321 JUMPI PUSH1 0x1 PUSH1 0x1 PUSH1 0x40 SHL SUB PUSH1 0x24 CALLDATALOAD DUP2 DUP2 GT PUSH2 0x321 JUMPI PUSH2 0xD78 SWAP1 CALLDATASIZE SWAP1 PUSH1 0x4 ADD PUSH2 0x50D JUMP JUMPDEST SWAP1 PUSH1 0x44 CALLDATALOAD SWAP1 DUP2 GT PUSH2 0x321 JUMPI PUSH2 0xD91 SWAP1 CALLDATASIZE SWAP1 PUSH1 0x4 ADD PUSH2 0x50D JUMP JUMPDEST SWAP1 PUSH1 0x84 CALLDATALOAD DUP1 ISZERO ISZERO DUP2 SUB PUSH2 0x321 JUMPI PUSH1 0xA4 CALLDATALOAD SWAP2 DUP3 ISZERO ISZERO DUP4 SUB PUSH2 0x321 JUMPI PUSH2 0x876 SWAP4 PUSH1 0x64 CALLDATALOAD SWAP2 PUSH1 0x4 CALLDATALOAD PUSH2 0x27E2 JUMP JUMPDEST CALLVALUE PUSH2 0x321 JUMPI PUSH1 0xA0 CALLDATASIZE PUSH1 0x3 NOT ADD SLT PUSH2 0x321 JUMPI PUSH2 0xDD4 PUSH2 0x30B JUMP JUMPDEST PUSH2 0xDDC PUSH2 0x326 JUMP JUMPDEST SWAP1 PUSH1 0x44 CALLDATALOAD SWAP2 PUSH1 0x1 PUSH1 0x1 PUSH1 0x40 SHL SUB SWAP1 DUP2 DUP5 GT PUSH2 0x321 JUMPI PUSH2 0xE00 PUSH1 0x4 SWAP5 CALLDATASIZE SWAP1 DUP7 ADD PUSH2 0xBBD JUMP JUMPDEST SWAP1 PUSH1 0x64 CALLDATALOAD DUP4 DUP2 GT PUSH2 0x321 JUMPI PUSH2 0xE18 SWAP1 CALLDATASIZE SWAP1 DUP8 ADD PUSH2 0xBBD JUMP JUMPDEST SWAP3 PUSH1 0x84 CALLDATALOAD SWAP1 DUP2 GT PUSH2 0x321 JUMPI PUSH2 0xE30 SWAP1 CALLDATASIZE SWAP1 DUP8 ADD PUSH2 0x50D JUMP JUMPDEST SWAP4 PUSH1 0x1 PUSH1 0x1 PUSH1 0xA0 SHL SUB DUP1 DUP3 AND SWAP1 CALLER DUP3 EQ ISZERO DUP1 PUSH2 0xEC1 JUMPI JUMPDEST PUSH2 0xE90 JUMPI DUP4 AND ISZERO PUSH2 0xE78 JUMPI ISZERO PUSH2 0xE61 JUMPI PUSH2 0x876 SWAP6 POP PUSH2 0x3739 JUMP JUMPDEST PUSH1 0x40 MLOAD PUSH3 0x6A0D45 PUSH1 0xE2 SHL DUP2 MSTORE PUSH1 0x0 DUP2 DUP9 ADD MSTORE PUSH1 0x24 SWAP1 REVERT JUMPDEST PUSH1 0x40 MLOAD PUSH4 0x2BFA23E7 PUSH1 0xE1 SHL DUP2 MSTORE PUSH1 0x0 DUP2 DUP10 ADD MSTORE PUSH1 0x24 SWAP1 REVERT JUMPDEST PUSH1 0x40 DUP1 MLOAD PUSH4 0x711BEC91 PUSH1 0xE1 SHL DUP2 MSTORE CALLER DUP2 DUP12 ADD SWAP1 DUP2 MSTORE PUSH1 0x1 PUSH1 0x1 PUSH1 0xA0 SHL SUB DUP7 AND PUSH1 0x20 DUP3 ADD MSTORE SWAP1 SWAP2 DUP3 SWAP2 ADD SUB SWAP1 REVERT JUMPDEST SUB SWAP1 REVERT JUMPDEST POP PUSH1 0xFF PUSH2 0xED1 CALLER PUSH2 0x94F DUP7 PUSH2 0xB2E JUMP JUMPDEST SLOAD AND ISZERO PUSH2 0xE47 JUMP JUMPDEST CALLVALUE PUSH2 0x321 JUMPI PUSH1 0x40 CALLDATASIZE PUSH1 0x3 NOT ADD SLT PUSH2 0x321 JUMPI PUSH2 0x876 PUSH1 0x4 CALLDATALOAD PUSH2 0xEF8 PUSH2 0x326 JUMP JUMPDEST SWAP1 DUP1 PUSH1 0x0 MSTORE PUSH1 0x0 DUP1 MLOAD PUSH1 0x20 PUSH2 0x42D6 DUP4 CODECOPY DUP2 MLOAD SWAP2 MSTORE PUSH1 0x20 MSTORE PUSH2 0xF20 PUSH1 0x1 PUSH1 0x40 PUSH1 0x0 KECCAK256 ADD SLOAD PUSH2 0x2CF9 JUMP JUMPDEST PUSH2 0x300F JUMP JUMPDEST CALLVALUE PUSH2 0x321 JUMPI PUSH1 0x40 CALLDATASIZE PUSH1 0x3 NOT ADD SLT PUSH2 0x321 JUMPI PUSH2 0xF3E PUSH2 0x326 JUMP JUMPDEST CALLER PUSH1 0x1 PUSH1 0x1 PUSH1 0xA0 SHL SUB DUP3 AND SUB PUSH2 0xF5A JUMPI PUSH2 0x876 SWAP1 PUSH1 0x4 CALLDATALOAD PUSH2 0x30F6 JUMP JUMPDEST PUSH1 0x40 MLOAD PUSH4 0x334BD919 PUSH1 0xE1 SHL DUP2 MSTORE PUSH1 0x4 SWAP1 REVERT JUMPDEST CALLVALUE PUSH2 0x321 JUMPI PUSH1 0x0 CALLDATASIZE PUSH1 0x3 NOT ADD SLT PUSH2 0x321 JUMPI PUSH2 0xF85 PUSH2 0x2C15 JUMP JUMPDEST PUSH1 0x0 DUP1 MLOAD PUSH1 0x20 PUSH2 0x42F6 DUP4 CODECOPY DUP2 MLOAD SWAP2 MSTORE DUP1 SLOAD PUSH1 0xFF DUP2 AND ISZERO PUSH2 0xFD1 JUMPI PUSH1 0xFF NOT AND SWAP1 SSTORE PUSH32 0x5DB9EE0A495BF2E6FF9C91A7834C1BA4FDD244A5E8AA4E537BD38AEAE4B073AA PUSH1 0x20 PUSH1 0x40 MLOAD CALLER DUP2 MSTORE LOG1 STOP JUMPDEST PUSH1 0x40 MLOAD PUSH4 0x8DFC202B PUSH1 0xE0 SHL DUP2 MSTORE PUSH1 0x4 SWAP1 REVERT JUMPDEST SWAP1 DUP2 MLOAD DUP1 DUP3 MSTORE PUSH1 0x20 DUP1 DUP1 SWAP4 ADD SWAP4 ADD SWAP2 PUSH1 0x0 JUMPDEST DUP3 DUP2 LT PUSH2 0x1003 JUMPI POP POP POP POP SWAP1 JUMP JUMPDEST DUP4 MLOAD DUP6 MSTORE SWAP4 DUP2 ADD SWAP4 SWAP3 DUP2 ADD SWAP3 PUSH1 0x1 ADD PUSH2 0xFF5 JUMP JUMPDEST SWAP1 PUSH1 0x20 PUSH2 0x6B2 SWAP3 DUP2 DUP2 MSTORE ADD SWAP1 PUSH2 0xFE3 JUMP JUMPDEST CALLVALUE PUSH2 0x321 JUMPI PUSH1 0x40 CALLDATASIZE PUSH1 0x3 NOT ADD SLT PUSH2 0x321 JUMPI PUSH1 0x4 CALLDATALOAD PUSH1 0x1 PUSH1 0x1 PUSH1 0x40 SHL SUB DUP1 DUP3 GT PUSH2 0x321 JUMPI CALLDATASIZE PUSH1 0x23 DUP4 ADD SLT ISZERO PUSH2 0x321 JUMPI DUP2 PUSH1 0x4 ADD CALLDATALOAD PUSH2 0x1064 DUP2 PUSH2 0xBA6 JUMP JUMPDEST SWAP3 PUSH2 0x1072 PUSH1 0x40 MLOAD SWAP5 DUP6 PUSH2 0x4C2 JUMP JUMPDEST DUP2 DUP5 MSTORE PUSH1 0x20 SWAP2 PUSH1 0x24 PUSH1 0x20 DUP7 ADD SWAP2 PUSH1 0x5 SHL DUP4 ADD ADD SWAP2 CALLDATASIZE DUP4 GT PUSH2 0x321 JUMPI PUSH1 0x24 ADD SWAP1 JUMPDEST DUP3 DUP3 LT PUSH2 0x10CB JUMPI DUP6 PUSH1 0x24 CALLDATALOAD DUP7 DUP2 GT PUSH2 0x321 JUMPI PUSH2 0x700 SWAP2 PUSH2 0x10B9 PUSH2 0x10BF SWAP3 CALLDATASIZE SWAP1 PUSH1 0x4 ADD PUSH2 0xBBD JUMP JUMPDEST SWAP1 PUSH2 0x2905 JUMP JUMPDEST PUSH1 0x40 MLOAD SWAP2 DUP3 SWAP2 DUP3 PUSH2 0x1017 JUMP JUMPDEST DUP4 DUP1 SWAP2 PUSH2 0x10D7 DUP5 PUSH2 0x33C JUMP JUMPDEST DUP2 MSTORE ADD SWAP2 ADD SWAP1 PUSH2 0x1092 JUMP JUMPDEST PUSH1 0x40 CALLDATASIZE PUSH1 0x3 NOT ADD SLT PUSH2 0x321 JUMPI PUSH2 0x10F6 PUSH2 0x30B JUMP JUMPDEST PUSH1 0x24 CALLDATALOAD PUSH1 0x1 PUSH1 0x1 PUSH1 0x40 SHL SUB DUP2 GT PUSH2 0x321 JUMPI PUSH2 0x1115 SWAP1 CALLDATASIZE SWAP1 PUSH1 0x4 ADD PUSH2 0x50D JUMP JUMPDEST PUSH1 0x1 PUSH1 0x1 PUSH1 0xA0 SHL SUB SWAP2 SWAP1 PUSH32 0x0 DUP4 AND ADDRESS DUP2 EQ SWAP1 DUP2 ISZERO PUSH2 0x1220 JUMPI JUMPDEST POP PUSH2 0x120E JUMPI PUSH1 0x20 PUSH1 0x4 SWAP4 PUSH2 0x115F PUSH2 0x2C6D JUMP JUMPDEST PUSH1 0x40 MLOAD PUSH4 0x52D1902D PUSH1 0xE0 SHL DUP2 MSTORE SWAP5 DUP6 SWAP2 DUP3 SWAP1 DUP7 AND GAS STATICCALL PUSH1 0x0 SWAP4 DUP2 PUSH2 0x11DD JUMPI JUMPDEST POP PUSH2 0x11A4 JUMPI PUSH1 0x40 MLOAD PUSH4 0x4C9C8CE3 PUSH1 0xE0 SHL DUP2 MSTORE PUSH1 0x1 PUSH1 0x1 PUSH1 0xA0 SHL SUB DUP4 AND PUSH1 0x4 DUP3 ADD MSTORE PUSH1 0x24 SWAP1 REVERT JUMPDEST SWAP1 PUSH1 0x0 DUP1 MLOAD PUSH1 0x20 PUSH2 0x4276 DUP4 CODECOPY DUP2 MLOAD SWAP2 MSTORE DUP4 SUB PUSH2 0x11C4 JUMPI PUSH2 0x876 SWAP3 POP PUSH2 0x382E JUMP JUMPDEST PUSH1 0x40 MLOAD PUSH4 0x2A875269 PUSH1 0xE2 SHL DUP2 MSTORE PUSH1 0x4 DUP2 ADD DUP5 SWAP1 MSTORE PUSH1 0x24 SWAP1 REVERT JUMPDEST PUSH2 0x1200 SWAP2 SWAP5 POP PUSH1 0x20 RETURNDATASIZE PUSH1 0x20 GT PUSH2 0x1207 JUMPI JUMPDEST PUSH2 0x11F8 DUP2 DUP4 PUSH2 0x4C2 JUMP JUMPDEST DUP2 ADD SWAP1 PUSH2 0x3130 JUMP JUMPDEST SWAP3 CODESIZE PUSH2 0x117E JUMP JUMPDEST POP RETURNDATASIZE PUSH2 0x11EE JUMP JUMPDEST PUSH1 0x40 MLOAD PUSH4 0x703E46DD PUSH1 0xE1 SHL DUP2 MSTORE PUSH1 0x4 SWAP1 REVERT JUMPDEST SWAP1 POP DUP4 PUSH1 0x0 DUP1 MLOAD PUSH1 0x20 PUSH2 0x4276 DUP4 CODECOPY DUP2 MLOAD SWAP2 MSTORE SLOAD AND EQ ISZERO CODESIZE PUSH2 0x114D JUMP JUMPDEST CALLVALUE PUSH2 0x321 JUMPI PUSH1 0x20 CALLDATASIZE PUSH1 0x3 NOT ADD SLT PUSH2 0x321 JUMPI PUSH1 0x4 CALLDATALOAD PUSH1 0x0 MSTORE PUSH1 0x0 DUP1 MLOAD PUSH1 0x20 PUSH2 0x4316 DUP4 CODECOPY DUP2 MLOAD SWAP2 MSTORE PUSH1 0x20 MSTORE PUSH1 0x20 PUSH1 0x40 PUSH1 0x0 KECCAK256 SLOAD ISZERO ISZERO PUSH1 0x40 MLOAD SWAP1 DUP2 MSTORE RETURN JUMPDEST CALLVALUE PUSH2 0x321 JUMPI PUSH1 0x0 CALLDATASIZE PUSH1 0x3 NOT ADD SLT PUSH2 0x321 JUMPI PUSH32 0x0 PUSH1 0x1 PUSH1 0x1 PUSH1 0xA0 SHL SUB AND ADDRESS SUB PUSH2 0x120E JUMPI PUSH1 0x20 PUSH1 0x40 MLOAD PUSH1 0x0 DUP1 MLOAD PUSH1 0x20 PUSH2 0x4276 DUP4 CODECOPY DUP2 MLOAD SWAP2 MSTORE DUP2 MSTORE RETURN JUMPDEST CALLVALUE PUSH2 0x321 JUMPI PUSH1 0x0 CALLDATASIZE PUSH1 0x3 NOT ADD SLT PUSH2 0x321 JUMPI PUSH1 0x20 PUSH1 0xFF PUSH1 0x0 DUP1 MLOAD PUSH1 0x20 PUSH2 0x42F6 DUP4 CODECOPY DUP2 MLOAD SWAP2 MSTORE SLOAD AND PUSH1 0x40 MLOAD SWAP1 ISZERO ISZERO DUP2 MSTORE RETURN JUMPDEST CALLVALUE PUSH2 0x321 JUMPI PUSH1 0x0 CALLDATASIZE PUSH1 0x3 NOT ADD SLT PUSH2 0x321 JUMPI PUSH1 0x3 SLOAD PUSH1 0x40 MLOAD PUSH1 0x1 PUSH1 0x1 PUSH1 0xA0 SHL SUB SWAP1 SWAP2 AND DUP2 MSTORE PUSH1 0x20 SWAP1 RETURN JUMPDEST CALLVALUE PUSH2 0x321 JUMPI PUSH1 0x60 CALLDATASIZE PUSH1 0x3 NOT ADD SLT PUSH2 0x321 JUMPI PUSH2 0x1342 PUSH2 0x30B JUMP JUMPDEST PUSH1 0x1 PUSH1 0x1 PUSH1 0x40 SHL SUB PUSH1 0x24 CALLDATALOAD DUP2 DUP2 GT PUSH2 0x321 JUMPI PUSH2 0x1362 SWAP1 CALLDATASIZE SWAP1 PUSH1 0x4 ADD PUSH2 0xBBD JUMP JUMPDEST SWAP1 PUSH1 0x44 CALLDATALOAD SWAP1 DUP2 GT PUSH2 0x321 JUMPI PUSH2 0x137B SWAP1 CALLDATASIZE SWAP1 PUSH1 0x4 ADD PUSH2 0xBBD JUMP JUMPDEST SWAP1 PUSH1 0x1 PUSH1 0x1 PUSH1 0xA0 SHL SUB DUP4 AND CALLER DUP2 EQ ISZERO DUP1 PUSH2 0x13F0 JUMPI JUMPDEST PUSH2 0x13C9 JUMPI ISZERO PUSH2 0x13B1 JUMPI PUSH2 0x876 SWAP3 PUSH1 0x0 PUSH1 0x40 MLOAD PUSH2 0x13AB DUP2 PUSH2 0x48C JUMP JUMPDEST MSTORE PUSH2 0x350E JUMP JUMPDEST PUSH1 0x40 MLOAD PUSH3 0x6A0D45 PUSH1 0xE2 SHL DUP2 MSTORE PUSH1 0x0 PUSH1 0x4 DUP3 ADD MSTORE PUSH1 0x24 SWAP1 REVERT JUMPDEST PUSH1 0x40 MLOAD PUSH4 0x711BEC91 PUSH1 0xE1 SHL DUP2 MSTORE CALLER PUSH1 0x4 DUP3 ADD MSTORE PUSH1 0x1 PUSH1 0x1 PUSH1 0xA0 SHL SUB DUP6 AND PUSH1 0x24 DUP3 ADD MSTORE PUSH1 0x44 SWAP1 REVERT JUMPDEST POP PUSH1 0xFF PUSH2 0x1400 CALLER PUSH2 0x94F DUP8 PUSH2 0xB2E JUMP JUMPDEST SLOAD AND ISZERO PUSH2 0x1390 JUMP JUMPDEST CALLVALUE PUSH2 0x321 JUMPI PUSH1 0x80 CALLDATASIZE PUSH1 0x3 NOT ADD SLT PUSH2 0x321 JUMPI PUSH2 0x1421 PUSH2 0x30B JUMP JUMPDEST PUSH1 0x24 CALLDATALOAD PUSH1 0x44 CALLDATALOAD SWAP2 PUSH1 0x64 CALLDATALOAD PUSH1 0x1 PUSH1 0x1 PUSH1 0x40 SHL SUB DUP2 GT PUSH2 0x321 JUMPI PUSH2 0x1447 SWAP1 CALLDATASIZE SWAP1 PUSH1 0x4 ADD PUSH2 0x50D JUMP JUMPDEST SWAP1 PUSH2 0x1450 PUSH2 0x2CC5 JUMP JUMPDEST PUSH2 0x1458 PUSH2 0x2D27 JUMP JUMPDEST PUSH2 0x146C DUP4 PUSH1 0x0 MSTORE PUSH1 0x0 PUSH1 0x20 MSTORE PUSH1 0x40 PUSH1 0x0 KECCAK256 SWAP1 JUMP JUMPDEST PUSH1 0x3 DUP2 ADD SLOAD PUSH2 0x1483 SWAP1 PUSH1 0x8 SHR PUSH1 0xFF AND ISZERO SWAP1 JUMP JUMPDEST ISZERO SWAP1 JUMP JUMPDEST PUSH2 0x1581 JUMPI PUSH2 0x1490 DUP5 PUSH2 0x17FE JUMP JUMPDEST SLOAD SWAP1 PUSH1 0x2 PUSH2 0x149E DUP8 DUP5 PUSH2 0x27A0 JUMP JUMPDEST SWAP2 ADD SLOAD DUP1 SWAP2 GT PUSH2 0x1557 JUMPI PUSH2 0x14D3 DUP6 DUP8 PUSH1 0x0 DUP1 MLOAD PUSH1 0x20 PUSH2 0x4256 DUP4 CODECOPY DUP2 MLOAD SWAP2 MSTORE DUP8 DUP8 PUSH2 0x14C8 DUP2 DUP7 PUSH2 0x2D6D JUMP JUMPDEST SWAP6 DUP7 SWAP3 DUP6 DUP8 DUP5 PUSH2 0x317E JUMP JUMPDEST PUSH2 0x14FC DUP3 PUSH2 0x14F7 DUP8 PUSH2 0x856 DUP6 PUSH1 0x1 DUP1 PUSH1 0xA0 SHL SUB AND PUSH1 0x0 MSTORE PUSH1 0x5 PUSH1 0x20 MSTORE PUSH1 0x40 PUSH1 0x0 KECCAK256 SWAP1 JUMP JUMPDEST PUSH2 0x27AD JUMP JUMPDEST PUSH2 0x1533 DUP2 PUSH2 0x1514 DUP5 PUSH1 0x0 MSTORE PUSH1 0x6 PUSH1 0x20 MSTORE PUSH1 0x40 PUSH1 0x0 KECCAK256 SWAP1 JUMP JUMPDEST DUP1 SLOAD PUSH1 0x1 PUSH1 0x1 PUSH1 0xA0 SHL SUB NOT AND PUSH1 0x1 PUSH1 0x1 PUSH1 0xA0 SHL SUB SWAP1 SWAP3 AND SWAP2 SWAP1 SWAP2 OR SWAP1 SSTORE JUMP JUMPDEST PUSH1 0x40 DUP1 MLOAD SWAP5 DUP6 MSTORE PUSH1 0x20 DUP6 ADD SWAP3 SWAP1 SWAP3 MSTORE PUSH1 0x1 PUSH1 0x1 PUSH1 0xA0 SHL SUB AND SWAP3 SWAP1 DUP2 SWAP1 DUP2 ADD JUMPDEST SUB SWAP1 LOG4 STOP JUMPDEST DUP6 SWAP2 PUSH2 0x1562 SWAP2 PUSH2 0x2366 JUMP JUMPDEST PUSH1 0x40 MLOAD PUSH4 0x9E4C4461 PUSH1 0xE0 SHL DUP2 MSTORE PUSH1 0x4 DUP2 ADD SWAP3 SWAP1 SWAP3 MSTORE PUSH1 0x24 DUP3 ADD MSTORE PUSH1 0x44 SWAP1 REVERT JUMPDEST PUSH1 0x40 MLOAD PUSH4 0xF3F61339 PUSH1 0xE0 SHL DUP2 MSTORE PUSH1 0x4 DUP2 ADD DUP6 SWAP1 MSTORE PUSH1 0x24 SWAP1 REVERT JUMPDEST CALLVALUE PUSH2 0x321 JUMPI PUSH1 0x40 CALLDATASIZE PUSH1 0x3 NOT ADD SLT PUSH2 0x321 JUMPI PUSH2 0x15B3 PUSH2 0x30B JUMP JUMPDEST PUSH32 0xC176FCF7D48A6ACA0D96D3B3201F7ADD47C4AF04CE9A51F5F4EB15D528C46E21 PUSH1 0x20 PUSH2 0x15DE PUSH2 0xD38 JUMP JUMPDEST SWAP3 PUSH2 0x15E7 PUSH2 0x2C6D JUMP JUMPDEST PUSH1 0x1 PUSH1 0x1 PUSH1 0xA0 SHL SUB AND PUSH1 0x0 DUP2 DUP2 MSTORE PUSH1 0x2 DUP4 MSTORE PUSH1 0x40 SWAP1 KECCAK256 DUP1 SLOAD PUSH1 0xFF NOT AND PUSH1 0xFF DUP7 ISZERO ISZERO AND OR SWAP1 SSTORE SWAP3 PUSH1 0x40 MLOAD SWAP1 ISZERO ISZERO DUP2 MSTORE LOG2 STOP JUMPDEST CALLVALUE PUSH2 0x321 JUMPI PUSH1 0x40 CALLDATASIZE PUSH1 0x3 NOT ADD SLT PUSH2 0x321 JUMPI PUSH1 0x1 PUSH1 0x1 PUSH1 0x40 SHL SUB PUSH1 0x4 CALLDATALOAD DUP2 DUP2 GT PUSH2 0x321 JUMPI PUSH2 0x1649 SWAP1 CALLDATASIZE SWAP1 PUSH1 0x4 ADD PUSH2 0x50D JUMP JUMPDEST PUSH2 0x1651 PUSH2 0x326 JUMP JUMPDEST PUSH1 0x0 DUP1 MLOAD PUSH1 0x20 PUSH2 0x4356 DUP4 CODECOPY DUP2 MLOAD SWAP2 MSTORE SLOAD SWAP3 PUSH1 0xFF DUP5 PUSH1 0x40 SHR AND ISZERO SWAP4 AND DUP1 ISZERO SWAP1 DUP2 PUSH2 0x1754 JUMPI JUMPDEST PUSH1 0x1 EQ SWAP1 DUP2 PUSH2 0x174A JUMPI JUMPDEST ISZERO SWAP1 DUP2 PUSH2 0x1741 JUMPI JUMPDEST POP PUSH2 0x172F JUMPI PUSH1 0x0 DUP1 MLOAD PUSH1 0x20 PUSH2 0x4356 DUP4 CODECOPY DUP2 MLOAD SWAP2 MSTORE DUP1 SLOAD PUSH8 0xFFFFFFFFFFFFFFFF NOT AND PUSH1 0x1 OR SWAP1 SSTORE PUSH2 0x16BB SWAP2 DUP4 PUSH2 0x170A JUMPI PUSH2 0x29AA JUMP JUMPDEST PUSH2 0x16C1 JUMPI STOP JUMPDEST PUSH1 0x0 DUP1 MLOAD PUSH1 0x20 PUSH2 0x4356 DUP4 CODECOPY DUP2 MLOAD SWAP2 MSTORE DUP1 SLOAD PUSH1 0xFF PUSH1 0x40 SHL NOT AND SWAP1 SSTORE PUSH1 0x40 MLOAD PUSH1 0x1 DUP2 MSTORE PUSH32 0xC7F505B2F371AE2175EE4913F4499E1F2633A7B5936321EED1CDAEB6115181D2 SWAP1 PUSH1 0x20 SWAP1 LOG1 STOP JUMPDEST PUSH1 0x0 DUP1 MLOAD PUSH1 0x20 PUSH2 0x4356 DUP4 CODECOPY DUP2 MLOAD SWAP2 MSTORE DUP1 SLOAD PUSH1 0xFF PUSH1 0x40 SHL NOT AND PUSH1 0x1 PUSH1 0x40 SHL OR SWAP1 SSTORE PUSH2 0x29AA JUMP JUMPDEST PUSH1 0x40 MLOAD PUSH4 0xF92EE8A9 PUSH1 0xE0 SHL DUP2 MSTORE PUSH1 0x4 SWAP1 REVERT JUMPDEST SWAP1 POP ISZERO CODESIZE PUSH2 0x1687 JUMP JUMPDEST ADDRESS EXTCODESIZE ISZERO SWAP2 POP PUSH2 0x167F JUMP JUMPDEST DUP5 SWAP2 POP PUSH2 0x1675 JUMP JUMPDEST CALLVALUE PUSH2 0x321 JUMPI PUSH1 0x0 CALLDATASIZE PUSH1 0x3 NOT ADD SLT PUSH2 0x321 JUMPI PUSH1 0x20 PUSH1 0x40 MLOAD PUSH32 0x7804D923F43A17D325D77E781528E0793B2EDD9890AB45FC64EFD7B4B427744C DUP2 MSTORE RETURN JUMPDEST CALLVALUE PUSH2 0x321 JUMPI PUSH1 0x0 CALLDATASIZE PUSH1 0x3 NOT ADD SLT PUSH2 0x321 JUMPI PUSH2 0x17B0 PUSH2 0x2C15 JUMP JUMPDEST PUSH2 0x17B8 PUSH2 0x2D27 JUMP JUMPDEST PUSH1 0x0 DUP1 MLOAD PUSH1 0x20 PUSH2 0x42F6 DUP4 CODECOPY DUP2 MLOAD SWAP2 MSTORE PUSH1 0x1 PUSH1 0xFF NOT DUP3 SLOAD AND OR SWAP1 SSTORE PUSH32 0x62E78CEA01BEE320CD4E420270B5EA74000D11B0C9F74754EBDBFC544B05A258 PUSH1 0x20 PUSH1 0x40 MLOAD CALLER DUP2 MSTORE LOG1 STOP JUMPDEST PUSH1 0x0 MSTORE PUSH1 0x0 DUP1 MLOAD PUSH1 0x20 PUSH2 0x4316 DUP4 CODECOPY DUP2 MLOAD SWAP2 MSTORE PUSH1 0x20 MSTORE PUSH1 0x40 PUSH1 0x0 KECCAK256 SWAP1 JUMP JUMPDEST PUSH1 0x0 MSTORE PUSH32 0x88BE536D5240C274A3B1D3A1BE54482FD9CAA294F08C62A7CDE569F49A3C4500 PUSH1 0x20 MSTORE PUSH1 0x40 PUSH1 0x0 KECCAK256 SWAP1 JUMP JUMPDEST PUSH4 0x4E487B71 PUSH1 0xE0 SHL PUSH1 0x0 MSTORE PUSH1 0x32 PUSH1 0x4 MSTORE PUSH1 0x24 PUSH1 0x0 REVERT JUMPDEST PUSH1 0x0 DUP1 MLOAD PUSH1 0x20 PUSH2 0x4376 DUP4 CODECOPY DUP2 MLOAD SWAP2 MSTORE PUSH1 0x0 MSTORE PUSH32 0xF429CB5E2EC84CBB765E76B31964A56CCDE03E7A6122D6CC4AFB19EDC55EDEED SWAP1 JUMP JUMPDEST DUP1 SLOAD DUP3 LT ISZERO PUSH2 0x18AE JUMPI PUSH1 0x0 MSTORE PUSH1 0x20 PUSH1 0x0 KECCAK256 ADD SWAP1 PUSH1 0x0 SWAP1 JUMP JUMPDEST PUSH2 0x184A JUMP JUMPDEST CALLVALUE PUSH2 0x321 JUMPI PUSH2 0x18C1 CALLDATASIZE PUSH2 0x7D6 JUMP JUMPDEST SWAP2 SWAP1 PUSH1 0x0 SWAP2 PUSH1 0x1 DUP1 PUSH1 0xA0 SHL SUB AND DUP3 MSTORE PUSH1 0x5 PUSH1 0x20 MSTORE PUSH1 0x40 DUP3 KECCAK256 SWAP1 DUP3 MSTORE PUSH1 0x20 MSTORE PUSH1 0x40 DUP2 KECCAK256 SWAP1 DUP2 SLOAD DUP4 LT ISZERO PUSH2 0x1907 JUMPI PUSH1 0x20 PUSH2 0x18F9 DUP5 DUP5 PUSH2 0x1896 JUMP JUMPDEST SWAP1 SLOAD PUSH1 0x40 MLOAD SWAP2 PUSH1 0x3 SHL SHR DUP2 MSTORE RETURN JUMPDEST DUP1 REVERT JUMPDEST CALLVALUE PUSH2 0x321 JUMPI PUSH1 0x20 CALLDATASIZE PUSH1 0x3 NOT ADD SLT PUSH2 0x321 JUMPI PUSH1 0x4 CALLDATALOAD PUSH1 0x0 MSTORE PUSH1 0x0 PUSH1 0x20 MSTORE PUSH2 0x197F PUSH1 0x40 PUSH1 0x0 KECCAK256 PUSH1 0x2 DUP2 ADD SLOAD PUSH1 0x0 DUP1 MLOAD PUSH1 0x20 PUSH2 0x4316 DUP4 CODECOPY DUP2 MLOAD SWAP2 MSTORE PUSH1 0x20 MSTORE PUSH1 0xFF PUSH1 0x40 PUSH1 0x0 KECCAK256 SLOAD PUSH1 0x3 DUP5 ADD SLOAD SWAP1 PUSH2 0x198D PUSH2 0x196B PUSH1 0x1 PUSH2 0x1964 DUP9 PUSH2 0x1E68 JUMP JUMPDEST SWAP8 ADD PUSH2 0x1E68 JUMP JUMPDEST PUSH1 0x40 MLOAD SWAP8 DUP9 SWAP8 PUSH1 0xC0 DUP10 MSTORE PUSH1 0xC0 DUP10 ADD SWAP1 PUSH2 0x661 JUMP JUMPDEST SWAP1 DUP8 DUP3 SUB PUSH1 0x20 DUP10 ADD MSTORE PUSH2 0x661 JUMP JUMPDEST SWAP4 PUSH1 0x40 DUP7 ADD MSTORE PUSH1 0x60 DUP6 ADD MSTORE DUP2 DUP2 AND ISZERO ISZERO PUSH1 0x80 DUP6 ADD MSTORE PUSH1 0x8 SHR AND ISZERO ISZERO PUSH1 0xA0 DUP4 ADD MSTORE SUB SWAP1 RETURN JUMPDEST CALLVALUE PUSH2 0x321 JUMPI PUSH1 0x0 CALLDATASIZE PUSH1 0x3 NOT ADD SLT PUSH2 0x321 JUMPI PUSH1 0x4 SLOAD PUSH1 0x40 MLOAD PUSH1 0x1 PUSH1 0x1 PUSH1 0xA0 SHL SUB SWAP1 SWAP2 AND DUP2 MSTORE PUSH1 0x20 SWAP1 RETURN JUMPDEST CALLVALUE PUSH2 0x321 JUMPI PUSH1 0x40 CALLDATASIZE PUSH1 0x3 NOT ADD SLT PUSH2 0x321 JUMPI PUSH1 0x20 PUSH1 0xFF PUSH2 0x1A2D PUSH2 0x19FA PUSH2 0x326 JUMP JUMPDEST PUSH1 0x4 CALLDATALOAD PUSH1 0x0 MSTORE PUSH1 0x0 DUP1 MLOAD PUSH1 0x20 PUSH2 0x42D6 DUP4 CODECOPY DUP2 MLOAD SWAP2 MSTORE DUP5 MSTORE PUSH1 0x40 PUSH1 0x0 KECCAK256 SWAP1 PUSH1 0x1 DUP1 PUSH1 0xA0 SHL SUB AND PUSH1 0x0 MSTORE PUSH1 0x20 MSTORE PUSH1 0x40 PUSH1 0x0 KECCAK256 SWAP1 JUMP JUMPDEST SLOAD AND PUSH1 0x40 MLOAD SWAP1 ISZERO ISZERO DUP2 MSTORE RETURN JUMPDEST CALLVALUE PUSH2 0x321 JUMPI PUSH1 0xA0 CALLDATASIZE PUSH1 0x3 NOT ADD SLT PUSH2 0x321 JUMPI PUSH2 0x1A52 PUSH2 0x30B JUMP JUMPDEST PUSH1 0x24 CALLDATALOAD PUSH1 0x44 CALLDATALOAD PUSH1 0x84 CALLDATALOAD PUSH1 0x1 PUSH1 0x1 PUSH1 0x40 SHL SUB DUP2 GT PUSH2 0x321 JUMPI PUSH2 0x1A77 SWAP1 CALLDATASIZE SWAP1 PUSH1 0x4 ADD PUSH2 0x50D JUMP JUMPDEST PUSH2 0x1A7F PUSH2 0x2CC5 JUMP JUMPDEST PUSH2 0x1A87 PUSH2 0x2D27 JUMP JUMPDEST PUSH2 0x1A9B DUP4 PUSH1 0x0 MSTORE PUSH1 0x0 PUSH1 0x20 MSTORE PUSH1 0x40 PUSH1 0x0 KECCAK256 SWAP1 JUMP JUMPDEST PUSH1 0x3 DUP2 ADD SLOAD PUSH2 0x1AAE SWAP1 PUSH1 0x8 SHR PUSH1 0xFF AND ISZERO SWAP1 JUMP JUMPDEST PUSH2 0x1581 JUMPI PUSH2 0x1ABB DUP5 PUSH2 0x17FE JUMP JUMPDEST SLOAD SWAP1 PUSH1 0x2 PUSH2 0x1AC9 DUP6 DUP5 PUSH2 0x27A0 JUMP JUMPDEST SWAP2 ADD SLOAD DUP1 SWAP2 GT PUSH2 0x1B5F JUMPI POP POP PUSH2 0x1552 PUSH1 0x0 DUP1 MLOAD PUSH1 0x20 PUSH2 0x4256 DUP4 CODECOPY DUP2 MLOAD SWAP2 MSTORE SWAP2 PUSH2 0x1AFE PUSH2 0x1AF5 DUP8 DUP8 PUSH2 0x2D6D JUMP JUMPDEST SWAP2 DUP6 DUP8 DUP10 PUSH2 0x317E JUMP JUMPDEST PUSH2 0x1B22 DUP2 PUSH2 0x14F7 DUP8 PUSH2 0x856 DUP11 PUSH1 0x1 DUP1 PUSH1 0xA0 SHL SUB AND PUSH1 0x0 MSTORE PUSH1 0x5 PUSH1 0x20 MSTORE PUSH1 0x40 PUSH1 0x0 KECCAK256 SWAP1 JUMP JUMPDEST PUSH2 0x1B3A DUP7 PUSH2 0x1514 DUP4 PUSH1 0x0 MSTORE PUSH1 0x6 PUSH1 0x20 MSTORE PUSH1 0x40 PUSH1 0x0 KECCAK256 SWAP1 JUMP JUMPDEST PUSH1 0x40 DUP1 MLOAD SWAP5 DUP6 MSTORE PUSH1 0x20 DUP6 ADD SWAP2 SWAP1 SWAP2 MSTORE PUSH1 0x64 CALLDATALOAD SWAP6 PUSH1 0x1 PUSH1 0x1 PUSH1 0xA0 SHL SUB AND SWAP4 SWAP2 DUP3 SWAP2 DUP3 ADD SWAP1 JUMP JUMPDEST PUSH2 0x1562 SWAP3 POP PUSH2 0x2366 JUMP JUMPDEST CALLVALUE PUSH2 0x321 JUMPI PUSH1 0x0 CALLDATASIZE PUSH1 0x3 NOT ADD SLT PUSH2 0x321 JUMPI PUSH1 0x20 PUSH1 0x40 MLOAD PUSH1 0x0 DUP2 MSTORE RETURN JUMPDEST CALLVALUE PUSH2 0x321 JUMPI PUSH1 0x40 CALLDATASIZE PUSH1 0x3 NOT ADD SLT PUSH2 0x321 JUMPI PUSH2 0x1B9E PUSH2 0x30B JUMP JUMPDEST PUSH2 0x1BA6 PUSH2 0xD38 JUMP JUMPDEST PUSH1 0x1 PUSH1 0x1 PUSH1 0xA0 SHL SUB DUP3 AND SWAP2 DUP3 ISZERO PUSH2 0x1C09 JUMPI DUP2 PUSH2 0x1BC8 PUSH2 0x1BD9 SWAP3 PUSH2 0x94F CALLER PUSH2 0xB2E JUMP JUMPDEST SWAP1 PUSH1 0xFF DUP1 NOT DUP4 SLOAD AND SWAP2 ISZERO ISZERO AND OR SWAP1 SSTORE JUMP JUMPDEST PUSH1 0x40 MLOAD SWAP1 ISZERO ISZERO DUP2 MSTORE PUSH32 0x17307EAB39AB6107E8899845AD3D59BD9653F200F220920489CA2B5937696C31 PUSH1 0x20 CALLER SWAP3 LOG3 STOP JUMPDEST PUSH1 0x40 MLOAD PUSH3 0xCED3E1 PUSH1 0xE8 SHL DUP2 MSTORE PUSH1 0x0 PUSH1 0x4 DUP3 ADD MSTORE PUSH1 0x24 SWAP1 REVERT JUMPDEST CALLVALUE PUSH2 0x321 JUMPI PUSH1 0xA0 CALLDATASIZE PUSH1 0x3 NOT ADD SLT PUSH2 0x321 JUMPI PUSH2 0x1C3A PUSH2 0x30B JUMP JUMPDEST PUSH1 0x24 CALLDATALOAD PUSH1 0xFF DUP2 AND DUP1 SWAP2 SUB PUSH2 0x321 JUMPI PUSH2 0x1C61 SWAP1 PUSH2 0x1C54 PUSH2 0x2CC5 JUMP JUMPDEST PUSH2 0x1C5C PUSH2 0x2D27 JUMP JUMPDEST PUSH2 0x2792 JUMP JUMPDEST PUSH2 0x1C75 DUP2 PUSH1 0x0 MSTORE PUSH1 0x0 PUSH1 0x20 MSTORE PUSH1 0x40 PUSH1 0x0 KECCAK256 SWAP1 JUMP JUMPDEST PUSH1 0x3 DUP2 ADD SLOAD PUSH2 0x1C88 SWAP1 PUSH1 0x8 SHR PUSH1 0xFF AND ISZERO SWAP1 JUMP JUMPDEST PUSH2 0x1D7D JUMPI PUSH2 0x1C95 DUP3 PUSH2 0x17FE JUMP JUMPDEST SLOAD SWAP1 PUSH1 0x2 PUSH2 0x1CA2 DUP4 PUSH2 0x2792 JUMP JUMPDEST SWAP2 ADD SLOAD DUP1 SWAP2 GT PUSH2 0x1D4A JUMPI PUSH2 0x700 DUP4 DUP6 PUSH2 0x1CBB DUP2 DUP4 PUSH2 0x2D6D JUMP JUMPDEST SWAP2 DUP3 SWAP2 PUSH2 0x1CD0 PUSH2 0x1CC9 PUSH2 0x1D96 JUMP JUMPDEST DUP4 DUP4 PUSH2 0x313F JUMP JUMPDEST PUSH2 0x1CF4 DUP4 PUSH2 0x14F7 DUP5 PUSH2 0x856 DUP6 PUSH1 0x1 DUP1 PUSH1 0xA0 SHL SUB AND PUSH1 0x0 MSTORE PUSH1 0x5 PUSH1 0x20 MSTORE PUSH1 0x40 PUSH1 0x0 KECCAK256 SWAP1 JUMP JUMPDEST PUSH2 0x1D0C DUP2 PUSH2 0x1514 DUP6 PUSH1 0x0 MSTORE PUSH1 0x6 PUSH1 0x20 MSTORE PUSH1 0x40 PUSH1 0x0 KECCAK256 SWAP1 JUMP JUMPDEST PUSH1 0x40 DUP1 MLOAD PUSH1 0x1 DUP2 MSTORE PUSH1 0x20 DUP2 ADD DUP6 SWAP1 MSTORE PUSH1 0x1 PUSH1 0x1 PUSH1 0xA0 SHL SUB SWAP3 SWAP1 SWAP3 AND SWAP2 PUSH1 0x0 DUP1 MLOAD PUSH1 0x20 PUSH2 0x4256 DUP4 CODECOPY DUP2 MLOAD SWAP2 MSTORE SWAP2 SWAP1 LOG4 PUSH1 0x40 MLOAD SWAP1 DUP2 MSTORE SWAP1 DUP2 SWAP1 PUSH1 0x20 DUP3 ADD SWAP1 JUMP JUMPDEST PUSH2 0xEBD SWAP2 PUSH2 0x1D57 SWAP2 PUSH2 0x2366 JUMP JUMPDEST PUSH1 0x40 MLOAD PUSH4 0x9E4C4461 PUSH1 0xE0 SHL DUP2 MSTORE PUSH1 0x1 PUSH1 0x4 DUP3 ADD MSTORE PUSH1 0x24 DUP2 ADD SWAP2 SWAP1 SWAP2 MSTORE SWAP1 DUP2 SWAP1 PUSH1 0x44 DUP3 ADD SWAP1 JUMP JUMPDEST PUSH1 0x40 MLOAD PUSH4 0xF3F61339 PUSH1 0xE0 SHL DUP2 MSTORE PUSH1 0x4 DUP2 ADD DUP4 SWAP1 MSTORE PUSH1 0x24 SWAP1 REVERT JUMPDEST PUSH1 0x40 MLOAD SWAP1 PUSH2 0x1DA3 DUP3 PUSH2 0x48C JUMP JUMPDEST PUSH1 0x0 DUP3 MSTORE JUMP JUMPDEST CALLVALUE PUSH2 0x321 JUMPI PUSH1 0x0 CALLDATASIZE PUSH1 0x3 NOT ADD SLT PUSH2 0x321 JUMPI PUSH2 0x700 PUSH1 0x40 MLOAD PUSH2 0x1DC9 DUP2 PUSH2 0x4A7 JUMP JUMPDEST PUSH1 0x5 DUP2 MSTORE PUSH5 0x352E302E3 PUSH1 0xDC SHL PUSH1 0x20 DUP3 ADD MSTORE PUSH1 0x40 MLOAD SWAP2 DUP3 SWAP2 PUSH1 0x20 DUP4 MSTORE PUSH1 0x20 DUP4 ADD SWAP1 PUSH2 0x661 JUMP JUMPDEST CALLVALUE PUSH2 0x321 JUMPI PUSH1 0x20 CALLDATASIZE PUSH1 0x3 NOT ADD SLT PUSH2 0x321 JUMPI PUSH1 0x20 PUSH2 0x1E26 PUSH1 0x4 CALLDATALOAD PUSH1 0x0 MSTORE PUSH1 0x0 DUP1 MLOAD PUSH1 0x20 PUSH2 0x4316 DUP4 CODECOPY DUP2 MLOAD SWAP2 MSTORE PUSH1 0x20 MSTORE PUSH1 0x40 PUSH1 0x0 KECCAK256 SLOAD SWAP1 JUMP JUMPDEST PUSH1 0x40 MLOAD SWAP1 DUP2 MSTORE RETURN JUMPDEST SWAP1 PUSH1 0x1 DUP3 DUP2 SHR SWAP3 AND DUP1 ISZERO PUSH2 0x1E5E JUMPI JUMPDEST PUSH1 0x20 DUP4 LT EQ PUSH2 0x1E48 JUMPI JUMP JUMPDEST PUSH4 0x4E487B71 PUSH1 0xE0 SHL PUSH1 0x0 MSTORE PUSH1 0x22 PUSH1 0x4 MSTORE PUSH1 0x24 PUSH1 0x0 REVERT JUMPDEST SWAP2 PUSH1 0x7F AND SWAP2 PUSH2 0x1E3D JUMP JUMPDEST SWAP1 PUSH1 0x40 MLOAD SWAP2 DUP3 PUSH1 0x0 DUP3 SLOAD PUSH2 0x1E7B DUP2 PUSH2 0x1E2E JUMP JUMPDEST SWAP1 DUP2 DUP5 MSTORE PUSH1 0x20 SWAP5 PUSH1 0x1 SWAP2 PUSH1 0x1 DUP2 AND SWAP1 DUP2 PUSH1 0x0 EQ PUSH2 0x1EE9 JUMPI POP PUSH1 0x1 EQ PUSH2 0x1EAA JUMPI JUMPDEST POP POP POP PUSH2 0x4F0 SWAP3 POP SUB DUP4 PUSH2 0x4C2 JUMP JUMPDEST PUSH1 0x0 SWAP1 DUP2 MSTORE DUP6 DUP2 KECCAK256 SWAP6 SWAP4 POP SWAP2 SWAP1 JUMPDEST DUP2 DUP4 LT PUSH2 0x1ED1 JUMPI POP POP PUSH2 0x4F0 SWAP4 POP DUP3 ADD ADD CODESIZE DUP1 DUP1 PUSH2 0x1E9B JUMP JUMPDEST DUP6 SLOAD DUP9 DUP5 ADD DUP6 ADD MSTORE SWAP5 DUP6 ADD SWAP5 DUP8 SWAP5 POP SWAP2 DUP4 ADD SWAP2 PUSH2 0x1EB8 JUMP JUMPDEST SWAP3 POP POP POP PUSH2 0x4F0 SWAP5 SWAP3 POP PUSH1 0xFF NOT AND DUP3 DUP5 ADD MSTORE ISZERO ISZERO PUSH1 0x5 SHL DUP3 ADD ADD CODESIZE DUP1 DUP1 PUSH2 0x1E9B JUMP JUMPDEST CALLVALUE PUSH2 0x321 JUMPI PUSH1 0x20 CALLDATASIZE PUSH1 0x3 NOT ADD SLT PUSH2 0x321 JUMPI PUSH1 0x4 CALLDATALOAD PUSH1 0x0 MSTORE PUSH1 0x0 PUSH1 0x20 MSTORE PUSH2 0x1F69 PUSH1 0x40 PUSH1 0x0 KECCAK256 PUSH2 0x1F38 DUP2 PUSH2 0x1E68 JUMP JUMPDEST SWAP1 PUSH1 0xFF PUSH2 0x1F47 PUSH1 0x1 DUP4 ADD PUSH2 0x1E68 JUMP JUMPDEST PUSH2 0x1F77 PUSH1 0x3 PUSH1 0x2 DUP6 ADD SLOAD SWAP5 ADD SLOAD SWAP2 PUSH1 0x40 MLOAD SWAP7 DUP8 SWAP7 PUSH1 0xA0 DUP9 MSTORE PUSH1 0xA0 DUP9 ADD SWAP1 PUSH2 0x661 JUMP JUMPDEST SWAP1 DUP7 DUP3 SUB PUSH1 0x20 DUP9 ADD MSTORE PUSH2 0x661 JUMP JUMPDEST SWAP3 PUSH1 0x40 DUP6 ADD MSTORE DUP2 DUP2 AND ISZERO ISZERO PUSH1 0x60 DUP6 ADD MSTORE PUSH1 0x8 SHR AND ISZERO ISZERO PUSH1 0x80 DUP4 ADD MSTORE SUB SWAP1 RETURN JUMPDEST CALLVALUE PUSH2 0x321 JUMPI PUSH1 0x40 CALLDATASIZE PUSH1 0x3 NOT ADD SLT PUSH2 0x321 JUMPI PUSH2 0x1FAF PUSH2 0x30B JUMP JUMPDEST PUSH1 0x0 SWAP1 PUSH1 0x1 DUP1 PUSH1 0xA0 SHL SUB AND DUP2 MSTORE PUSH1 0x20 PUSH1 0x5 PUSH1 0x20 MSTORE PUSH1 0x40 DUP3 KECCAK256 PUSH1 0x24 CALLDATALOAD DUP4 MSTORE PUSH1 0x20 MSTORE PUSH1 0x40 DUP3 KECCAK256 SWAP2 PUSH1 0x40 MLOAD DUP1 SWAP3 PUSH1 0x20 DUP6 SLOAD SWAP3 DUP4 DUP2 MSTORE ADD SWAP5 DUP4 MSTORE PUSH1 0x20 DUP4 KECCAK256 SWAP3 SWAP1 JUMPDEST DUP3 DUP3 LT PUSH2 0x2003 JUMPI PUSH2 0x700 DUP6 PUSH2 0x10BF DUP2 DUP10 SUB DUP3 PUSH2 0x4C2 JUMP JUMPDEST DUP4 SLOAD DUP7 MSTORE SWAP5 DUP6 ADD SWAP5 PUSH1 0x1 SWAP4 DUP5 ADD SWAP4 SWAP1 SWAP2 ADD SWAP1 PUSH2 0x1FEC JUMP JUMPDEST CALLVALUE PUSH2 0x321 JUMPI PUSH1 0x0 CALLDATASIZE PUSH1 0x3 NOT ADD SLT PUSH2 0x321 JUMPI PUSH1 0x20 PUSH1 0x40 MLOAD PUSH1 0x0 DUP1 MLOAD PUSH1 0x20 PUSH2 0x42B6 DUP4 CODECOPY DUP2 MLOAD SWAP2 MSTORE DUP2 MSTORE RETURN JUMPDEST CALLVALUE PUSH2 0x321 JUMPI PUSH1 0x40 CALLDATASIZE PUSH1 0x3 NOT ADD SLT PUSH2 0x321 JUMPI PUSH2 0x876 PUSH1 0x4 CALLDATALOAD PUSH2 0x2062 PUSH2 0x326 JUMP JUMPDEST SWAP1 DUP1 PUSH1 0x0 MSTORE PUSH1 0x0 DUP1 MLOAD PUSH1 0x20 PUSH2 0x42D6 DUP4 CODECOPY DUP2 MLOAD SWAP2 MSTORE PUSH1 0x20 MSTORE PUSH2 0x208A PUSH1 0x1 PUSH1 0x40 PUSH1 0x0 KECCAK256 ADD SLOAD PUSH2 0x2CF9 JUMP JUMPDEST PUSH2 0x30F6 JUMP JUMPDEST CALLVALUE PUSH2 0x321 JUMPI PUSH1 0x0 CALLDATASIZE PUSH1 0x3 NOT ADD SLT PUSH2 0x321 JUMPI PUSH1 0x20 PUSH1 0x40 MLOAD PUSH32 0x65D7A28E3265B37A6474929F336521B332C1681B933F6CB9F3376673440D862A DUP2 MSTORE RETURN JUMPDEST CALLVALUE PUSH2 0x321 JUMPI PUSH1 0x40 CALLDATASIZE PUSH1 0x3 NOT ADD SLT PUSH2 0x321 JUMPI PUSH1 0x20 PUSH1 0xFF PUSH2 0x1A2D PUSH2 0x20EA PUSH2 0x30B JUMP JUMPDEST PUSH2 0x94F PUSH2 0x20F5 PUSH2 0x326 JUMP JUMPDEST SWAP2 PUSH2 0xB2E JUMP JUMPDEST CALLVALUE PUSH2 0x321 JUMPI PUSH1 0x20 CALLDATASIZE PUSH1 0x3 NOT ADD SLT PUSH2 0x321 JUMPI PUSH2 0x2114 PUSH2 0x30B JUMP JUMPDEST PUSH2 0x211C PUSH2 0x2C6D JUMP JUMPDEST PUSH1 0x3 DUP1 SLOAD PUSH1 0x1 PUSH1 0x1 PUSH1 0xA0 SHL SUB DUP4 DUP2 AND PUSH1 0x1 PUSH1 0x1 PUSH1 0xA0 SHL SUB NOT DUP4 AND DUP2 OR SWAP1 SWAP4 SSTORE AND DUP1 PUSH2 0x2152 JUMPI JUMPDEST POP PUSH2 0x2149 JUMPI STOP JUMPDEST PUSH2 0x876 SWAP1 PUSH2 0x2DC2 JUMP JUMPDEST PUSH2 0x215B SWAP1 PUSH2 0x3049 JUMP JUMPDEST POP CODESIZE PUSH2 0x2142 JUMP JUMPDEST CALLVALUE PUSH2 0x321 JUMPI PUSH1 0xA0 CALLDATASIZE PUSH1 0x3 NOT ADD SLT PUSH2 0x321 JUMPI PUSH2 0x217B PUSH2 0x30B JUMP JUMPDEST PUSH2 0x2183 PUSH2 0x326 JUMP JUMPDEST PUSH1 0x84 CALLDATALOAD PUSH1 0x1 PUSH1 0x1 PUSH1 0x40 SHL SUB DUP2 GT PUSH2 0x321 JUMPI PUSH2 0x21A2 SWAP1 CALLDATASIZE SWAP1 PUSH1 0x4 ADD PUSH2 0x50D JUMP JUMPDEST SWAP1 PUSH1 0x1 PUSH1 0x1 PUSH1 0xA0 SHL SUB DUP4 DUP2 AND SWAP1 CALLER DUP3 EQ ISZERO DUP1 PUSH2 0x2243 JUMPI JUMPDEST PUSH2 0x221C JUMPI DUP3 AND ISZERO PUSH2 0x2203 JUMPI ISZERO PUSH2 0x13B1 JUMPI PUSH2 0x876 SWAP3 PUSH2 0x21FB PUSH1 0x64 CALLDATALOAD PUSH1 0x44 CALLDATALOAD SWAP2 PUSH1 0x40 MLOAD SWAP3 PUSH1 0x1 DUP5 MSTORE PUSH1 0x20 DUP5 ADD MSTORE PUSH1 0x40 DUP4 ADD SWAP2 PUSH1 0x1 DUP4 MSTORE PUSH1 0x60 DUP5 ADD MSTORE PUSH1 0x80 DUP4 ADD PUSH1 0x40 MSTORE JUMP JUMPDEST SWAP3 SWAP1 SWAP2 PUSH2 0x3739 JUMP JUMPDEST PUSH1 0x40 MLOAD PUSH4 0x2BFA23E7 PUSH1 0xE1 SHL DUP2 MSTORE PUSH1 0x0 PUSH1 0x4 DUP3 ADD MSTORE PUSH1 0x24 SWAP1 REVERT JUMPDEST PUSH1 0x40 MLOAD PUSH4 0x711BEC91 PUSH1 0xE1 SHL DUP2 MSTORE CALLER PUSH1 0x4 DUP3 ADD MSTORE PUSH1 0x1 PUSH1 0x1 PUSH1 0xA0 SHL SUB DUP7 AND PUSH1 0x24 DUP3 ADD MSTORE PUSH1 0x44 SWAP1 REVERT JUMPDEST POP PUSH1 0xFF PUSH2 0x2253 CALLER PUSH2 0x94F DUP9 PUSH2 0xB2E JUMP JUMPDEST SLOAD AND ISZERO PUSH2 0x21B9 JUMP JUMPDEST CALLVALUE PUSH2 0x321 JUMPI PUSH2 0x876 PUSH2 0x226C CALLDATASIZE PUSH2 0x7D6 JUMP JUMPDEST SWAP2 PUSH2 0x2B02 JUMP JUMPDEST CALLVALUE PUSH2 0x321 JUMPI PUSH1 0x20 CALLDATASIZE PUSH1 0x3 NOT ADD SLT PUSH2 0x321 JUMPI PUSH1 0x4 CALLDATALOAD PUSH1 0x0 MSTORE PUSH1 0x6 PUSH1 0x20 MSTORE PUSH1 0x20 PUSH1 0x1 DUP1 PUSH1 0xA0 SHL SUB PUSH1 0x40 PUSH1 0x0 KECCAK256 SLOAD AND PUSH1 0x40 MLOAD SWAP1 DUP2 MSTORE RETURN JUMPDEST PUSH2 0x22ED SWAP2 PUSH1 0x0 MSTORE PUSH32 0x88BE536D5240C274A3B1D3A1BE54482FD9CAA294F08C62A7CDE569F49A3C4500 PUSH1 0x20 MSTORE PUSH1 0x40 PUSH1 0x0 KECCAK256 SWAP1 PUSH1 0x1 DUP1 PUSH1 0xA0 SHL SUB AND PUSH1 0x0 MSTORE PUSH1 0x20 MSTORE PUSH1 0x40 PUSH1 0x0 KECCAK256 SWAP1 JUMP JUMPDEST SLOAD SWAP1 JUMP JUMPDEST ISZERO PUSH2 0x22F8 JUMPI JUMP JUMPDEST PUSH1 0x64 PUSH1 0x40 MLOAD PUSH3 0x461BCD PUSH1 0xE5 SHL DUP2 MSTORE PUSH1 0x20 PUSH1 0x4 DUP3 ADD MSTORE PUSH1 0x20 PUSH1 0x24 DUP3 ADD MSTORE PUSH32 0x43616C6C6572206973206E6F74206F776E6572206E6F7220617070726F766564 PUSH1 0x44 DUP3 ADD MSTORE REVERT JUMPDEST PUSH4 0x4E487B71 PUSH1 0xE0 SHL PUSH1 0x0 MSTORE PUSH1 0x11 PUSH1 0x4 MSTORE PUSH1 0x24 PUSH1 0x0 REVERT JUMPDEST PUSH1 0x0 NOT DUP2 ADD SWAP2 SWAP1 DUP3 GT PUSH2 0x2361 JUMPI JUMP JUMPDEST PUSH2 0x233C JUMP JUMPDEST SWAP2 SWAP1 DUP3 SUB SWAP2 DUP3 GT PUSH2 0x2361 JUMPI JUMP JUMPDEST DUP1 SLOAD SWAP1 DUP2 ISZERO PUSH2 0x239D JUMPI PUSH1 0x0 NOT SWAP2 DUP3 ADD SWAP2 PUSH2 0x238D DUP4 DUP4 PUSH2 0x1896 JUMP JUMPDEST SWAP1 SWAP2 DUP3 SLOAD SWAP2 PUSH1 0x3 SHL SHL NOT AND SWAP1 SSTORE SSTORE JUMP JUMPDEST PUSH4 0x4E487B71 PUSH1 0xE0 SHL PUSH1 0x0 MSTORE PUSH1 0x31 PUSH1 0x4 MSTORE PUSH1 0x24 PUSH1 0x0 REVERT JUMPDEST PUSH1 0x1F DUP2 GT PUSH2 0x23BF JUMPI POP POP JUMP JUMPDEST PUSH1 0x0 SWAP1 PUSH1 0x0 DUP1 MLOAD PUSH1 0x20 PUSH2 0x4376 DUP4 CODECOPY DUP2 MLOAD SWAP2 MSTORE PUSH1 0x0 MSTORE PUSH32 0xF429CB5E2EC84CBB765E76B31964A56CCDE03E7A6122D6CC4AFB19EDC55EDEED SWAP1 PUSH1 0x20 PUSH1 0x1F DUP6 ADD PUSH1 0x5 SHR DUP4 ADD SWAP5 LT PUSH2 0x2428 JUMPI JUMPDEST PUSH1 0x1F ADD PUSH1 0x5 SHR ADD SWAP2 JUMPDEST DUP3 DUP2 LT PUSH2 0x241D JUMPI POP POP POP JUMP JUMPDEST DUP2 DUP2 SSTORE PUSH1 0x1 ADD PUSH2 0x2411 JUMP JUMPDEST SWAP1 SWAP3 POP DUP3 SWAP1 PUSH2 0x2408 JUMP JUMPDEST SWAP1 PUSH1 0x1F DUP2 GT PUSH2 0x2440 JUMPI POP POP POP JUMP JUMPDEST PUSH1 0x0 SWAP2 PUSH1 0x0 MSTORE PUSH1 0x20 PUSH1 0x0 KECCAK256 SWAP1 PUSH1 0x20 PUSH1 0x1F DUP6 ADD PUSH1 0x5 SHR DUP4 ADD SWAP5 LT PUSH2 0x247E JUMPI JUMPDEST PUSH1 0x1F ADD PUSH1 0x5 SHR ADD SWAP2 JUMPDEST DUP3 DUP2 LT PUSH2 0x2473 JUMPI POP POP POP JUMP JUMPDEST DUP2 DUP2 SSTORE PUSH1 0x1 ADD PUSH2 0x2467 JUMP JUMPDEST SWAP1 SWAP3 POP DUP3 SWAP1 PUSH2 0x245E JUMP JUMPDEST SWAP2 SWAP1 SWAP2 DUP3 MLOAD PUSH1 0x1 PUSH1 0x1 PUSH1 0x40 SHL SUB DUP2 GT PUSH2 0x487 JUMPI PUSH2 0x24AF DUP2 PUSH2 0x24A9 DUP5 SLOAD PUSH2 0x1E2E JUMP JUMPDEST DUP5 PUSH2 0x2432 JUMP JUMPDEST PUSH1 0x20 DUP1 PUSH1 0x1F DUP4 GT PUSH1 0x1 EQ PUSH2 0x24E6 JUMPI POP DUP2 SWAP1 PUSH2 0x24E2 SWAP4 SWAP5 SWAP6 PUSH1 0x0 SWAP3 PUSH2 0x5F3 JUMPI POP POP DUP2 PUSH1 0x1 SHL SWAP2 PUSH1 0x0 NOT SWAP1 PUSH1 0x3 SHL SHR NOT AND OR SWAP1 JUMP JUMPDEST SWAP1 SSTORE JUMP JUMPDEST SWAP1 PUSH1 0x1F NOT DUP4 AND SWAP6 PUSH2 0x24FC DUP6 PUSH1 0x0 MSTORE PUSH1 0x20 PUSH1 0x0 KECCAK256 SWAP1 JUMP JUMPDEST SWAP3 PUSH1 0x0 SWAP1 JUMPDEST DUP9 DUP3 LT PUSH2 0x2539 JUMPI POP POP DUP4 PUSH1 0x1 SWAP6 SWAP7 SWAP8 LT PUSH2 0x2520 JUMPI JUMPDEST POP POP POP DUP2 SHL ADD SWAP1 SSTORE JUMP JUMPDEST ADD MLOAD PUSH1 0x0 NOT PUSH1 0xF8 DUP5 PUSH1 0x3 SHL AND SHR NOT AND SWAP1 SSTORE CODESIZE DUP1 DUP1 PUSH2 0x2516 JUMP JUMPDEST DUP1 PUSH1 0x1 DUP6 SWAP7 DUP3 SWAP5 SWAP7 DUP7 ADD MLOAD DUP2 SSTORE ADD SWAP6 ADD SWAP4 ADD SWAP1 PUSH2 0x2501 JUMP JUMPDEST SWAP1 SWAP5 SWAP2 SWAP3 PUSH2 0x255D PUSH2 0x2CC5 JUMP JUMPDEST PUSH2 0x2565 PUSH2 0x2D27 JUMP JUMPDEST PUSH2 0x2572 DUP7 MLOAD DUP3 MLOAD EQ PUSH2 0x273A JUMP JUMPDEST PUSH1 0x0 JUMPDEST DUP7 MLOAD DUP2 LT ISZERO PUSH2 0x264B JUMPI PUSH2 0x259C PUSH2 0x258B DUP3 DUP10 PUSH2 0x277E JUMP JUMPDEST MLOAD PUSH1 0x0 MSTORE PUSH1 0x0 PUSH1 0x20 MSTORE PUSH1 0x40 PUSH1 0x0 KECCAK256 SWAP1 JUMP JUMPDEST PUSH1 0x3 DUP2 ADD SLOAD PUSH2 0x25AF SWAP1 PUSH1 0x8 SHR PUSH1 0xFF AND ISZERO SWAP1 JUMP JUMPDEST PUSH2 0x261E JUMPI PUSH2 0x25DF PUSH2 0x25C0 DUP4 DUP11 PUSH2 0x277E JUMP JUMPDEST MLOAD PUSH1 0x0 MSTORE PUSH1 0x0 DUP1 MLOAD PUSH1 0x20 PUSH2 0x4316 DUP4 CODECOPY DUP2 MLOAD SWAP2 MSTORE PUSH1 0x20 MSTORE PUSH1 0x40 PUSH1 0x0 KECCAK256 SLOAD SWAP1 JUMP JUMPDEST PUSH1 0x2 PUSH2 0x25F5 PUSH2 0x25EE DUP6 DUP11 PUSH2 0x277E JUMP JUMPDEST MLOAD DUP4 PUSH2 0x27A0 JUMP JUMPDEST SWAP3 ADD SLOAD DUP1 SWAP3 GT PUSH2 0x2609 JUMPI POP POP PUSH1 0x1 ADD PUSH2 0x2575 JUMP JUMPDEST PUSH2 0x2617 PUSH2 0x1562 SWAP3 SWAP4 DUP9 PUSH2 0x277E JUMP JUMPDEST MLOAD SWAP3 PUSH2 0x2366 JUMP JUMPDEST PUSH2 0xEBD PUSH2 0x262B DUP4 DUP11 PUSH2 0x277E JUMP JUMPDEST MLOAD PUSH1 0x40 MLOAD PUSH4 0xF3F61339 PUSH1 0xE0 SHL DUP2 MSTORE PUSH1 0x4 DUP2 ADD SWAP2 SWAP1 SWAP2 MSTORE SWAP1 DUP2 SWAP1 PUSH1 0x24 DUP3 ADD SWAP1 JUMP JUMPDEST POP SWAP1 SWAP3 SWAP2 SWAP4 PUSH2 0x265C SWAP1 DUP4 DUP8 DUP7 PUSH2 0x2D52 JUMP JUMPDEST PUSH1 0x0 JUMPDEST DUP6 MLOAD DUP2 LT ISZERO PUSH2 0x2732 JUMPI DUP1 PUSH2 0x267F DUP6 PUSH2 0x2679 PUSH1 0x1 SWAP5 DUP11 PUSH2 0x277E JUMP JUMPDEST MLOAD PUSH2 0x2D6D JUMP JUMPDEST PUSH2 0x26BB DUP2 PUSH2 0x14F7 PUSH2 0x26A2 DUP10 PUSH1 0x1 DUP1 PUSH1 0xA0 SHL SUB AND PUSH1 0x0 MSTORE PUSH1 0x5 PUSH1 0x20 MSTORE PUSH1 0x40 PUSH1 0x0 KECCAK256 SWAP1 JUMP JUMPDEST PUSH2 0x26AC DUP7 DUP14 PUSH2 0x277E JUMP JUMPDEST MLOAD PUSH1 0x0 MSTORE PUSH1 0x20 MSTORE PUSH1 0x40 PUSH1 0x0 KECCAK256 SWAP1 JUMP JUMPDEST PUSH2 0x26D3 DUP7 PUSH2 0x1514 DUP4 PUSH1 0x0 MSTORE PUSH1 0x6 PUSH1 0x20 MSTORE PUSH1 0x40 PUSH1 0x0 KECCAK256 SWAP1 JUMP JUMPDEST PUSH2 0x26DD DUP3 DUP10 PUSH2 0x277E JUMP JUMPDEST MLOAD PUSH2 0x26E8 DUP4 DUP8 PUSH2 0x277E JUMP JUMPDEST MLOAD PUSH1 0x0 DUP1 MLOAD PUSH1 0x20 PUSH2 0x4256 DUP4 CODECOPY DUP2 MLOAD SWAP2 MSTORE PUSH2 0x2729 PUSH2 0x2705 DUP7 DUP10 PUSH2 0x277E JUMP JUMPDEST MLOAD SWAP5 PUSH1 0x40 MLOAD SWAP2 DUP3 SWAP2 DUP10 DUP1 PUSH1 0xA0 SHL SUB DUP14 AND SWAP6 DUP4 PUSH1 0x20 SWAP1 SWAP4 SWAP3 SWAP2 SWAP4 PUSH1 0x40 DUP2 ADD SWAP5 DUP2 MSTORE ADD MSTORE JUMP JUMPDEST SUB SWAP1 LOG4 ADD PUSH2 0x265F JUMP JUMPDEST POP POP POP POP SWAP1 POP JUMP JUMPDEST ISZERO PUSH2 0x2741 JUMPI JUMP JUMPDEST PUSH1 0x40 MLOAD PUSH3 0x461BCD PUSH1 0xE5 SHL DUP2 MSTORE PUSH1 0x20 PUSH1 0x4 DUP3 ADD MSTORE PUSH1 0x15 PUSH1 0x24 DUP3 ADD MSTORE PUSH21 0x82E4E4C2F240D8CADCCEE8D040DAD2E6DAC2E8C6D PUSH1 0x5B SHL PUSH1 0x44 DUP3 ADD MSTORE PUSH1 0x64 SWAP1 REVERT JUMPDEST DUP1 MLOAD DUP3 LT ISZERO PUSH2 0x18AE JUMPI PUSH1 0x20 SWAP2 PUSH1 0x5 SHL ADD ADD SWAP1 JUMP JUMPDEST SWAP1 PUSH1 0x1 DUP3 ADD DUP1 SWAP3 GT PUSH2 0x2361 JUMPI JUMP JUMPDEST SWAP2 SWAP1 DUP3 ADD DUP1 SWAP3 GT PUSH2 0x2361 JUMPI JUMP JUMPDEST DUP1 SLOAD PUSH1 0x1 PUSH1 0x40 SHL DUP2 LT ISZERO PUSH2 0x487 JUMPI PUSH2 0x27CA SWAP2 PUSH1 0x1 DUP3 ADD DUP2 SSTORE PUSH2 0x1896 JUMP JUMPDEST DUP2 SWAP3 SWAP2 SLOAD SWAP1 PUSH1 0x3 SHL SWAP2 DUP3 SHL SWAP2 PUSH1 0x0 NOT SWAP1 SHL NOT AND OR SWAP1 SSTORE JUMP JUMPDEST SWAP5 SWAP3 SWAP1 SWAP2 SWAP4 PUSH2 0x27EF PUSH2 0x2C6D JUMP JUMPDEST DUP6 PUSH1 0x0 MSTORE PUSH1 0x0 PUSH1 0x20 MSTORE PUSH1 0x40 PUSH1 0x0 KECCAK256 SWAP4 PUSH1 0x0 DUP1 MLOAD PUSH1 0x20 PUSH2 0x4316 DUP4 CODECOPY DUP2 MLOAD SWAP2 MSTORE PUSH1 0x20 MSTORE PUSH1 0x40 PUSH1 0x0 KECCAK256 SLOAD DUP4 LT PUSH2 0x28CB JUMPI PUSH32 0x5FD36CE0D7CC8A4D59BA28B9F2D721DA5521AB8725DAA22236A172F71E3E221 SWAP6 PUSH2 0x2897 PUSH2 0x28B9 SWAP3 PUSH1 0x3 DUP9 PUSH2 0x2855 DUP10 PUSH2 0x28AB SWAP12 PUSH2 0x2488 JUMP JUMPDEST PUSH2 0x2862 DUP6 PUSH1 0x1 DUP4 ADD PUSH2 0x2488 JUMP JUMPDEST DUP8 PUSH1 0x2 DUP3 ADD SSTORE ADD PUSH2 0x287F DUP7 DUP3 SWAP1 PUSH1 0xFF DUP1 NOT DUP4 SLOAD AND SWAP2 ISZERO ISZERO AND OR SWAP1 SSTORE JUMP JUMPDEST SWAP1 PUSH2 0xFF00 DUP3 SLOAD SWAP2 ISZERO ISZERO PUSH1 0x8 SHL AND SWAP1 PUSH2 0xFF00 NOT AND OR SWAP1 SSTORE JUMP JUMPDEST PUSH1 0x40 MLOAD SWAP6 DUP7 SWAP6 PUSH1 0x80 DUP8 MSTORE PUSH1 0x80 DUP8 ADD SWAP1 PUSH2 0x661 JUMP JUMPDEST SWAP1 DUP6 DUP3 SUB PUSH1 0x20 DUP8 ADD MSTORE PUSH2 0x661 JUMP JUMPDEST SWAP2 PUSH1 0x40 DUP5 ADD MSTORE ISZERO ISZERO PUSH1 0x60 DUP4 ADD MSTORE SUB SWAP1 LOG2 JUMP JUMPDEST PUSH1 0x40 MLOAD PUSH3 0x461BCD PUSH1 0xE5 SHL DUP2 MSTORE PUSH1 0x20 PUSH1 0x4 DUP3 ADD MSTORE PUSH1 0x12 PUSH1 0x24 DUP3 ADD MSTORE PUSH18 0x4D617820737570706C7920746F6F206C6F77 PUSH1 0x70 SHL PUSH1 0x44 DUP3 ADD MSTORE PUSH1 0x64 SWAP1 REVERT JUMPDEST SWAP2 SWAP1 SWAP2 DUP1 MLOAD DUP4 MLOAD DUP1 DUP3 SUB PUSH2 0x2988 JUMPI POP POP DUP1 MLOAD SWAP1 PUSH2 0x293A PUSH2 0x2924 DUP4 PUSH2 0xBA6 JUMP JUMPDEST SWAP3 PUSH2 0x2932 PUSH1 0x40 MLOAD SWAP5 DUP6 PUSH2 0x4C2 JUMP JUMPDEST DUP1 DUP5 MSTORE PUSH2 0xBA6 JUMP JUMPDEST PUSH1 0x20 SWAP2 SWAP1 PUSH1 0x1F NOT ADD CALLDATASIZE DUP5 DUP5 ADD CALLDATACOPY PUSH1 0x0 JUMPDEST DUP2 MLOAD DUP2 LT ISZERO PUSH2 0x2980 JUMPI DUP1 PUSH2 0x296F PUSH1 0x1 SWAP3 PUSH1 0x5 SHL DUP6 DUP1 DUP3 DUP8 ADD ADD MLOAD SWAP2 DUP11 ADD ADD MLOAD SWAP1 PUSH2 0x22A6 JUMP JUMPDEST PUSH2 0x2979 DUP3 DUP8 PUSH2 0x277E JUMP JUMPDEST MSTORE ADD PUSH2 0x294A JUMP JUMPDEST POP SWAP2 SWAP4 POP POP POP JUMP JUMPDEST PUSH1 0x40 MLOAD PUSH4 0x5B059991 PUSH1 0xE0 SHL DUP2 MSTORE PUSH1 0x4 DUP2 ADD SWAP2 SWAP1 SWAP2 MSTORE PUSH1 0x24 DUP2 ADD SWAP2 SWAP1 SWAP2 MSTORE PUSH1 0x44 SWAP1 REVERT JUMPDEST SWAP2 SWAP1 PUSH2 0x29B4 PUSH2 0x38D5 JUMP JUMPDEST PUSH2 0x29BC PUSH2 0x38D5 JUMP JUMPDEST DUP3 MLOAD PUSH1 0x1 PUSH1 0x1 PUSH1 0x40 SHL SUB DUP2 GT PUSH2 0x487 JUMPI PUSH1 0x0 DUP1 MLOAD PUSH1 0x20 PUSH2 0x4376 DUP4 CODECOPY DUP2 MLOAD SWAP2 MSTORE SWAP1 PUSH2 0x29EA DUP2 PUSH2 0x5B7 DUP5 SLOAD PUSH2 0x1E2E JUMP JUMPDEST PUSH1 0x20 DUP1 PUSH1 0x1F DUP4 GT PUSH1 0x1 EQ PUSH2 0x2A95 JUMPI POP SWAP1 DUP1 PUSH2 0x2A20 SWAP3 PUSH2 0x2A8D SWAP7 SWAP8 PUSH1 0x0 SWAP3 PUSH2 0x5F3 JUMPI POP POP DUP2 PUSH1 0x1 SHL SWAP2 PUSH1 0x0 NOT SWAP1 PUSH1 0x3 SHL SHR NOT AND OR SWAP1 JUMP JUMPDEST SWAP1 SSTORE JUMPDEST PUSH2 0x2A2B PUSH2 0x38D5 JUMP JUMPDEST PUSH2 0x2A33 PUSH2 0x38D5 JUMP JUMPDEST PUSH2 0x2A3B PUSH2 0x38D5 JUMP JUMPDEST PUSH2 0x2A43 PUSH2 0x38D5 JUMP JUMPDEST PUSH2 0x2A4C DUP2 PUSH2 0x2E78 JUMP JUMPDEST POP PUSH2 0x2A56 DUP2 PUSH2 0x2F2D JUMP JUMPDEST POP PUSH2 0x2A60 DUP2 PUSH2 0x2DC2 JUMP JUMPDEST POP PUSH2 0x2A6A DUP2 PUSH2 0x2F9E JUMP JUMPDEST POP PUSH1 0x1 DUP1 PUSH1 0xA0 SHL SUB AND PUSH12 0xFFFFFFFFFFFFFFFFFFFFFFFF PUSH1 0xA0 SHL PUSH1 0x4 SLOAD AND OR PUSH1 0x4 SSTORE JUMP JUMPDEST PUSH2 0x4F0 PUSH2 0x33D6 JUMP JUMPDEST SWAP1 PUSH1 0x1F NOT DUP4 AND SWAP7 PUSH2 0x2AA4 PUSH2 0x1860 JUMP JUMPDEST SWAP3 PUSH1 0x0 SWAP1 JUMPDEST DUP10 DUP3 LT PUSH2 0x2AEA JUMPI POP POP SWAP1 DUP4 SWAP3 SWAP2 PUSH1 0x1 SWAP5 PUSH2 0x2A8D SWAP9 SWAP10 LT PUSH2 0x2AD1 JUMPI JUMPDEST POP POP POP DUP2 SHL ADD SWAP1 SSTORE PUSH2 0x2A23 JUMP JUMPDEST ADD MLOAD PUSH1 0x0 NOT PUSH1 0xF8 DUP5 PUSH1 0x3 SHL AND SHR NOT AND SWAP1 SSTORE CODESIZE DUP1 DUP1 PUSH2 0x2AC4 JUMP JUMPDEST DUP1 PUSH1 0x1 DUP6 SWAP7 DUP3 SWAP5 SWAP7 DUP7 ADD MLOAD DUP2 SSTORE ADD SWAP6 ADD SWAP4 ADD SWAP1 PUSH2 0x2AA9 JUMP JUMPDEST SWAP1 PUSH1 0x1 PUSH1 0x1 PUSH1 0xA0 SHL SUB DUP3 AND CALLER DUP2 EQ ISZERO DUP1 PUSH2 0x2B81 JUMPI JUMPDEST PUSH2 0x2B5A JUMPI ISZERO PUSH2 0x13B1 JUMPI PUSH2 0x4F0 SWAP3 PUSH2 0x2B4B PUSH1 0x40 MLOAD SWAP3 PUSH1 0x1 DUP5 MSTORE PUSH1 0x20 DUP5 ADD MSTORE PUSH1 0x40 DUP4 ADD SWAP2 PUSH1 0x1 DUP4 MSTORE PUSH1 0x60 DUP5 ADD MSTORE PUSH1 0x80 DUP4 ADD PUSH1 0x40 MSTORE JUMP JUMPDEST SWAP2 PUSH1 0x0 PUSH1 0x40 MLOAD PUSH2 0x13AB DUP2 PUSH2 0x48C JUMP JUMPDEST PUSH1 0x40 MLOAD PUSH4 0x711BEC91 PUSH1 0xE1 SHL DUP2 MSTORE CALLER PUSH1 0x4 DUP3 ADD MSTORE PUSH1 0x1 PUSH1 0x1 PUSH1 0xA0 SHL SUB DUP5 AND PUSH1 0x24 DUP3 ADD MSTORE PUSH1 0x44 SWAP1 REVERT JUMPDEST POP PUSH1 0xFF PUSH2 0x2B91 CALLER PUSH2 0x94F DUP7 PUSH2 0xB2E JUMP JUMPDEST SLOAD AND ISZERO PUSH2 0x2B17 JUMP JUMPDEST CALLER PUSH1 0x0 SWAP1 DUP2 MSTORE PUSH32 0xE1C8D3544115CCEBA2E183C14B79D0B69552B189207C20F3BF1CE18A22CDECB5 PUSH1 0x20 MSTORE PUSH1 0x40 SWAP1 KECCAK256 PUSH32 0x7804D923F43A17D325D77E781528E0793B2EDD9890AB45FC64EFD7B4B427744C SWAP1 PUSH1 0xFF SWAP1 JUMPDEST SLOAD AND ISZERO PUSH2 0x2BF7 JUMPI POP JUMP JUMPDEST PUSH1 0x44 SWAP1 PUSH1 0x40 MLOAD SWAP1 PUSH4 0xE2517D3F PUSH1 0xE0 SHL DUP3 MSTORE CALLER PUSH1 0x4 DUP4 ADD MSTORE PUSH1 0x24 DUP3 ADD MSTORE REVERT JUMPDEST CALLER PUSH1 0x0 SWAP1 DUP2 MSTORE PUSH32 0x75442B0A96088B5456BC4ED01394C96A4FEEC0F883C9494257D76B96AB1C9B6B PUSH1 0x20 MSTORE PUSH1 0x40 SWAP1 KECCAK256 PUSH32 0x65D7A28E3265B37A6474929F336521B332C1681B933F6CB9F3376673440D862A SWAP1 PUSH1 0xFF SWAP1 PUSH2 0x2BED JUMP JUMPDEST CALLER PUSH1 0x0 SWAP1 DUP2 MSTORE PUSH32 0xB7DB2DD08FCB62D0C9E08C51941CAE53C267786A0B75803FB7960902FC8EF97D PUSH1 0x20 MSTORE PUSH1 0x40 SWAP1 KECCAK256 SLOAD PUSH1 0xFF AND ISZERO PUSH2 0x2CA6 JUMPI JUMP JUMPDEST PUSH1 0x40 MLOAD PUSH4 0xE2517D3F PUSH1 0xE0 SHL DUP2 MSTORE CALLER PUSH1 0x4 DUP3 ADD MSTORE PUSH1 0x0 PUSH1 0x24 DUP3 ADD MSTORE PUSH1 0x44 SWAP1 REVERT JUMPDEST CALLER PUSH1 0x0 SWAP1 DUP2 MSTORE PUSH1 0x0 DUP1 MLOAD PUSH1 0x20 PUSH2 0x4296 DUP4 CODECOPY DUP2 MLOAD SWAP2 MSTORE PUSH1 0x20 MSTORE PUSH1 0x40 SWAP1 KECCAK256 PUSH1 0x0 DUP1 MLOAD PUSH1 0x20 PUSH2 0x42B6 DUP4 CODECOPY DUP2 MLOAD SWAP2 MSTORE SWAP1 PUSH1 0xFF SWAP1 PUSH2 0x2BED JUMP JUMPDEST PUSH1 0x0 DUP2 DUP2 MSTORE PUSH1 0x0 DUP1 MLOAD PUSH1 0x20 PUSH2 0x42D6 DUP4 CODECOPY DUP2 MLOAD SWAP2 MSTORE PUSH1 0x20 SWAP1 DUP2 MSTORE PUSH1 0x40 DUP1 DUP4 KECCAK256 CALLER DUP5 MSTORE SWAP1 SWAP2 MSTORE SWAP1 KECCAK256 PUSH1 0xFF SWAP1 PUSH2 0x2BED JUMP JUMPDEST PUSH1 0xFF PUSH1 0x0 DUP1 MLOAD PUSH1 0x20 PUSH2 0x42F6 DUP4 CODECOPY DUP2 MLOAD SWAP2 MSTORE SLOAD AND PUSH2 0x2D40 JUMPI JUMP JUMPDEST PUSH1 0x40 MLOAD PUSH4 0xD93C0665 PUSH1 0xE0 SHL DUP2 MSTORE PUSH1 0x4 SWAP1 REVERT JUMPDEST SWAP3 SWAP2 SWAP1 PUSH1 0x1 PUSH1 0x1 PUSH1 0xA0 SHL SUB DUP5 AND ISZERO PUSH2 0x2203 JUMPI PUSH2 0x4F0 SWAP4 PUSH2 0x35D3 JUMP JUMPDEST SWAP1 PUSH1 0x7 SLOAD PUSH1 0x0 NOT DUP2 EQ PUSH2 0x2361 JUMPI PUSH1 0x1 DUP2 ADD PUSH1 0x7 SSTORE PUSH1 0x40 MLOAD SWAP2 PUSH1 0x20 DUP4 ADD SWAP4 DUP5 MSTORE PUSH12 0xFFFFFFFFFFFFFFFFFFFFFFFF NOT SWAP1 PUSH1 0x60 SHL AND PUSH1 0x40 DUP4 ADD MSTORE TIMESTAMP PUSH1 0x54 DUP4 ADD MSTORE PUSH1 0x74 DUP3 ADD MSTORE PUSH1 0x74 DUP2 MSTORE PUSH2 0x2DBC DUP2 PUSH2 0x46C JUMP JUMPDEST MLOAD SWAP1 KECCAK256 SWAP1 JUMP JUMPDEST PUSH1 0x1 PUSH1 0x1 PUSH1 0xA0 SHL SUB DUP2 AND PUSH1 0x0 SWAP1 DUP2 MSTORE PUSH1 0x0 DUP1 MLOAD PUSH1 0x20 PUSH2 0x4296 DUP4 CODECOPY DUP2 MLOAD SWAP2 MSTORE PUSH1 0x20 MSTORE PUSH1 0x40 DUP2 KECCAK256 PUSH1 0x0 DUP1 MLOAD PUSH1 0x20 PUSH2 0x42B6 DUP4 CODECOPY DUP2 MLOAD SWAP2 MSTORE SWAP1 PUSH1 0x0 DUP1 MLOAD PUSH1 0x20 PUSH2 0x42D6 DUP4 CODECOPY DUP2 MLOAD SWAP2 MSTORE SWAP1 PUSH1 0xFF SWAP1 JUMPDEST SLOAD AND PUSH2 0x2E71 JUMPI DUP2 DUP4 MSTORE PUSH1 0x20 SWAP1 DUP2 MSTORE PUSH1 0x40 DUP1 DUP5 KECCAK256 PUSH1 0x1 PUSH1 0x1 PUSH1 0xA0 SHL SUB DUP7 AND PUSH1 0x0 SWAP1 DUP2 MSTORE SWAP3 MSTORE SWAP1 KECCAK256 DUP1 SLOAD PUSH1 0xFF NOT AND PUSH1 0x1 OR SWAP1 SSTORE CALLER SWAP3 PUSH1 0x1 PUSH1 0x1 PUSH1 0xA0 SHL SUB AND SWAP2 PUSH32 0x2F8788117E7EFF1D82E926EC794901D17C78024A50270940304540A733656F0D SWAP1 DUP1 LOG4 PUSH1 0x1 SWAP1 JUMP JUMPDEST POP POP SWAP1 POP SWAP1 JUMP JUMPDEST PUSH1 0x1 PUSH1 0x1 PUSH1 0xA0 SHL SUB DUP2 AND PUSH1 0x0 SWAP1 DUP2 MSTORE PUSH32 0xB7DB2DD08FCB62D0C9E08C51941CAE53C267786A0B75803FB7960902FC8EF97D PUSH1 0x20 MSTORE PUSH1 0x40 DUP2 KECCAK256 SLOAD PUSH1 0x0 DUP1 MLOAD PUSH1 0x20 PUSH2 0x42D6 DUP4 CODECOPY DUP2 MLOAD SWAP2 MSTORE SWAP1 PUSH1 0xFF AND PUSH2 0x2F27 JUMPI DUP2 DUP1 MSTORE PUSH1 0x20 SWAP1 DUP2 MSTORE PUSH1 0x40 DUP1 DUP4 KECCAK256 PUSH1 0x1 PUSH1 0x1 PUSH1 0xA0 SHL SUB DUP6 AND PUSH1 0x0 SWAP1 DUP2 MSTORE SWAP3 MSTORE SWAP1 KECCAK256 DUP1 SLOAD PUSH1 0xFF NOT AND PUSH1 0x1 OR SWAP1 SSTORE CALLER SWAP2 PUSH1 0x1 PUSH1 0x1 PUSH1 0xA0 SHL SUB AND SWAP1 PUSH32 0x2F8788117E7EFF1D82E926EC794901D17C78024A50270940304540A733656F0D DUP2 DUP1 LOG4 PUSH1 0x1 SWAP1 JUMP JUMPDEST POP SWAP1 POP SWAP1 JUMP JUMPDEST PUSH1 0x1 PUSH1 0x1 PUSH1 0xA0 SHL SUB DUP2 AND PUSH1 0x0 SWAP1 DUP2 MSTORE PUSH32 0x75442B0A96088B5456BC4ED01394C96A4FEEC0F883C9494257D76B96AB1C9B6B PUSH1 0x20 MSTORE PUSH1 0x40 DUP2 KECCAK256 PUSH32 0x65D7A28E3265B37A6474929F336521B332C1681B933F6CB9F3376673440D862A SWAP1 PUSH1 0x0 DUP1 MLOAD PUSH1 0x20 PUSH2 0x42D6 DUP4 CODECOPY DUP2 MLOAD SWAP2 MSTORE SWAP1 PUSH1 0xFF SWAP1 PUSH2 0x2E0B JUMP JUMPDEST PUSH1 0x1 PUSH1 0x1 PUSH1 0xA0 SHL SUB DUP2 AND PUSH1 0x0 SWAP1 DUP2 MSTORE PUSH32 0xE1C8D3544115CCEBA2E183C14B79D0B69552B189207C20F3BF1CE18A22CDECB5 PUSH1 0x20 MSTORE PUSH1 0x40 DUP2 KECCAK256 PUSH32 0x7804D923F43A17D325D77E781528E0793B2EDD9890AB45FC64EFD7B4B427744C SWAP1 PUSH1 0x0 DUP1 MLOAD PUSH1 0x20 PUSH2 0x42D6 DUP4 CODECOPY DUP2 MLOAD SWAP2 MSTORE SWAP1 PUSH1 0xFF SWAP1 PUSH2 0x2E0B JUMP JUMPDEST PUSH1 0x0 DUP2 DUP2 MSTORE PUSH1 0x0 DUP1 MLOAD PUSH1 0x20 PUSH2 0x42D6 DUP4 CODECOPY DUP2 MLOAD SWAP2 MSTORE PUSH1 0x20 DUP2 DUP2 MSTORE PUSH1 0x40 DUP1 DUP5 KECCAK256 PUSH1 0x1 PUSH1 0x1 PUSH1 0xA0 SHL SUB DUP8 AND DUP6 MSTORE SWAP1 SWAP2 MSTORE DUP3 KECCAK256 SWAP2 SWAP3 SWAP2 PUSH1 0xFF SWAP1 PUSH2 0x2E0B JUMP JUMPDEST PUSH1 0x1 PUSH1 0x1 PUSH1 0xA0 SHL SUB DUP2 AND PUSH1 0x0 SWAP1 DUP2 MSTORE PUSH1 0x0 DUP1 MLOAD PUSH1 0x20 PUSH2 0x4296 DUP4 CODECOPY DUP2 MLOAD SWAP2 MSTORE PUSH1 0x20 MSTORE PUSH1 0x40 DUP2 KECCAK256 PUSH1 0x0 DUP1 MLOAD PUSH1 0x20 PUSH2 0x42B6 DUP4 CODECOPY DUP2 MLOAD SWAP2 MSTORE SWAP1 PUSH1 0x0 DUP1 MLOAD PUSH1 0x20 PUSH2 0x42D6 DUP4 CODECOPY DUP2 MLOAD SWAP2 MSTORE SWAP1 PUSH1 0xFF SWAP1 JUMPDEST SLOAD AND ISZERO PUSH2 0x2E71 JUMPI DUP2 DUP4 MSTORE PUSH1 0x20 SWAP1 DUP2 MSTORE PUSH1 0x40 DUP1 DUP5 KECCAK256 PUSH1 0x1 PUSH1 0x1 PUSH1 0xA0 SHL SUB DUP7 AND PUSH1 0x0 SWAP1 DUP2 MSTORE SWAP3 MSTORE SWAP1 KECCAK256 DUP1 SLOAD PUSH1 0xFF NOT AND SWAP1 SSTORE CALLER SWAP3 PUSH1 0x1 PUSH1 0x1 PUSH1 0xA0 SHL SUB AND SWAP2 PUSH32 0xF6391F5C32D9C69D2A47EA670B442974B53935D1EDC7FD64EB21E047A839171B SWAP1 DUP1 LOG4 PUSH1 0x1 SWAP1 JUMP JUMPDEST PUSH1 0x0 DUP2 DUP2 MSTORE PUSH1 0x0 DUP1 MLOAD PUSH1 0x20 PUSH2 0x42D6 DUP4 CODECOPY DUP2 MLOAD SWAP2 MSTORE PUSH1 0x20 DUP2 DUP2 MSTORE PUSH1 0x40 DUP1 DUP5 KECCAK256 PUSH1 0x1 PUSH1 0x1 PUSH1 0xA0 SHL SUB DUP8 AND DUP6 MSTORE SWAP1 SWAP2 MSTORE DUP3 KECCAK256 SWAP2 SWAP3 SWAP2 PUSH1 0xFF SWAP1 PUSH2 0x3092 JUMP JUMPDEST SWAP1 DUP2 PUSH1 0x20 SWAP2 SUB SLT PUSH2 0x321 JUMPI MLOAD SWAP1 JUMP JUMPDEST SWAP1 SWAP2 SWAP1 PUSH1 0x1 PUSH1 0x1 PUSH1 0xA0 SHL SUB DUP2 AND ISZERO PUSH2 0x2203 JUMPI PUSH2 0x4F0 SWAP3 PUSH1 0x40 MLOAD SWAP1 PUSH1 0x1 DUP3 MSTORE PUSH1 0x20 DUP3 ADD MSTORE PUSH1 0x40 DUP2 ADD SWAP2 PUSH1 0x1 DUP4 MSTORE PUSH1 0x1 PUSH1 0x60 DUP4 ADD MSTORE PUSH1 0x80 DUP3 ADD PUSH1 0x40 MSTORE PUSH2 0x35D3 JUMP JUMPDEST SWAP2 SWAP3 SWAP2 SWAP1 PUSH1 0x1 PUSH1 0x1 PUSH1 0xA0 SHL SUB DUP3 AND ISZERO PUSH2 0x2203 JUMPI PUSH2 0x4F0 SWAP4 PUSH2 0x31BC PUSH1 0x40 MLOAD SWAP3 PUSH1 0x1 DUP5 MSTORE PUSH1 0x20 DUP5 ADD MSTORE PUSH1 0x40 DUP4 ADD SWAP2 PUSH1 0x1 DUP4 MSTORE PUSH1 0x60 DUP5 ADD MSTORE PUSH1 0x80 DUP4 ADD PUSH1 0x40 MSTORE JUMP JUMPDEST SWAP2 PUSH2 0x35D3 JUMP JUMPDEST PUSH1 0x40 MLOAD SWAP1 PUSH2 0x31CF DUP3 PUSH2 0x4A7 JUMP JUMPDEST PUSH1 0xB DUP3 MSTORE PUSH11 0x14DA5B1D995C8810D85C99 PUSH1 0xAA SHL PUSH1 0x20 DUP4 ADD MSTORE JUMP JUMPDEST PUSH1 0x40 MLOAD SWAP1 PUSH2 0x31F6 DUP3 PUSH2 0x4A7 JUMP JUMPDEST PUSH1 0x6 DUP3 MSTORE PUSH6 0x29A4A62B22A9 PUSH1 0xD1 SHL PUSH1 0x20 DUP4 ADD MSTORE JUMP JUMPDEST SWAP2 SWAP1 DUP1 MLOAD SWAP3 DUP4 MLOAD PUSH1 0x1 PUSH1 0x1 PUSH1 0x40 SHL SUB DUP2 GT PUSH2 0x487 JUMPI PUSH2 0x322E DUP2 PUSH2 0x24A9 DUP5 SLOAD PUSH2 0x1E2E JUMP JUMPDEST PUSH1 0x20 DUP1 PUSH1 0x1F DUP4 GT PUSH1 0x1 EQ PUSH2 0x32CB JUMPI POP PUSH2 0x32B5 SWAP3 PUSH2 0x326C DUP4 PUSH1 0x80 SWAP5 PUSH1 0x3 SWAP5 PUSH2 0x4F0 SWAP10 SWAP11 PUSH1 0x0 SWAP3 PUSH2 0x5F3 JUMPI POP POP DUP2 PUSH1 0x1 SHL SWAP2 PUSH1 0x0 NOT SWAP1 PUSH1 0x3 SHL SHR NOT AND OR SWAP1 JUMP JUMPDEST DUP2 SSTORE JUMPDEST PUSH2 0x3280 PUSH1 0x20 DUP7 ADD MLOAD PUSH1 0x1 DUP4 ADD PUSH2 0x2488 JUMP JUMPDEST PUSH1 0x40 DUP6 ADD MLOAD PUSH1 0x2 DUP3 ADD SSTORE ADD SWAP3 PUSH2 0x32AE PUSH2 0x329C PUSH1 0x60 DUP4 ADD MLOAD ISZERO ISZERO SWAP1 JUMP JUMPDEST DUP6 SWAP1 PUSH1 0xFF DUP1 NOT DUP4 SLOAD AND SWAP2 ISZERO ISZERO AND OR SWAP1 SSTORE JUMP JUMPDEST ADD MLOAD ISZERO ISZERO SWAP1 JUMP JUMPDEST DUP2 SLOAD PUSH2 0xFF00 NOT AND SWAP1 ISZERO ISZERO PUSH1 0x8 SHL PUSH2 0xFF00 AND OR SWAP1 SSTORE JUMP JUMPDEST SWAP1 PUSH1 0x1F NOT DUP4 AND SWAP7 PUSH2 0x32E1 DUP6 PUSH1 0x0 MSTORE PUSH1 0x20 PUSH1 0x0 KECCAK256 SWAP1 JUMP JUMPDEST SWAP3 PUSH1 0x0 SWAP1 JUMPDEST DUP10 DUP3 LT PUSH2 0x332E JUMPI POP POP DUP4 PUSH1 0x3 SWAP4 PUSH2 0x32B5 SWAP7 SWAP4 PUSH1 0x1 SWAP4 PUSH1 0x80 SWAP8 PUSH2 0x4F0 SWAP12 SWAP13 LT PUSH2 0x3316 JUMPI JUMPDEST POP POP POP DUP2 SHL ADD DUP2 SSTORE PUSH2 0x326F JUMP JUMPDEST ADD MLOAD PUSH1 0x0 NOT DUP4 DUP8 SHL PUSH1 0xF8 AND SHR NOT AND SWAP1 SSTORE CODESIZE DUP1 DUP1 PUSH2 0x3309 JUMP JUMPDEST DUP1 PUSH1 0x1 DUP6 SWAP7 DUP3 SWAP5 SWAP7 DUP7 ADD MLOAD DUP2 SSTORE ADD SWAP6 ADD SWAP4 ADD SWAP1 PUSH2 0x32E6 JUMP JUMPDEST PUSH1 0x40 MLOAD SWAP1 PUSH2 0x3353 DUP3 PUSH2 0x4A7 JUMP JUMPDEST PUSH1 0x9 DUP3 MSTORE PUSH9 0x11DBDB190810D85C99 PUSH1 0xBA SHL PUSH1 0x20 DUP4 ADD MSTORE JUMP JUMPDEST PUSH1 0x40 MLOAD SWAP1 PUSH2 0x3378 DUP3 PUSH2 0x4A7 JUMP JUMPDEST PUSH1 0x4 DUP3 MSTORE PUSH4 0x11D3D311 PUSH1 0xE2 SHL PUSH1 0x20 DUP4 ADD MSTORE JUMP JUMPDEST PUSH1 0x40 MLOAD SWAP1 PUSH2 0x3398 DUP3 PUSH2 0x4A7 JUMP JUMPDEST PUSH1 0xC DUP3 MSTORE PUSH12 0x111A585B5BDB990810D85C99 PUSH1 0xA2 SHL PUSH1 0x20 DUP4 ADD MSTORE JUMP JUMPDEST PUSH1 0x40 MLOAD SWAP1 PUSH2 0x33C0 DUP3 PUSH2 0x4A7 JUMP JUMPDEST PUSH1 0x7 DUP3 MSTORE PUSH7 0x1112505353D391 PUSH1 0xCA SHL PUSH1 0x20 DUP4 ADD MSTORE JUMP JUMPDEST PUSH2 0x343E PUSH2 0x33E1 PUSH2 0x4E3 JUMP JUMPDEST PUSH2 0x33E9 PUSH2 0x31C2 JUMP JUMPDEST DUP2 MSTORE PUSH2 0x33F3 PUSH2 0x31E9 JUMP JUMPDEST PUSH1 0x20 DUP3 ADD MSTORE PUSH2 0x2710 PUSH1 0x40 DUP3 ADD MSTORE PUSH1 0x0 PUSH1 0x60 DUP3 ADD MSTORE PUSH1 0x1 PUSH1 0x80 DUP3 ADD MSTORE PUSH1 0x1 PUSH1 0x0 SWAP1 DUP2 MSTORE PUSH1 0x20 MSTORE PUSH32 0xADA5013122D395BA3C54772283FB069B10426056EF8CA54750CB9BB552A59E7D PUSH2 0x320B JUMP JUMPDEST PUSH2 0x34A6 PUSH2 0x3449 PUSH2 0x4E3 JUMP JUMPDEST PUSH2 0x3451 PUSH2 0x3346 JUMP JUMPDEST DUP2 MSTORE PUSH2 0x345B PUSH2 0x336B JUMP JUMPDEST PUSH1 0x20 DUP3 ADD MSTORE PUSH2 0x1388 PUSH1 0x40 DUP3 ADD MSTORE PUSH1 0x0 PUSH1 0x60 DUP3 ADD MSTORE PUSH1 0x1 PUSH1 0x80 DUP3 ADD MSTORE PUSH1 0x2 PUSH1 0x0 SWAP1 DUP2 MSTORE PUSH1 0x20 MSTORE PUSH32 0xABBB5CAA7DDA850E60932DE0934EB1F9D0F59695050F761DC64E443E5030A569 PUSH2 0x320B JUMP JUMPDEST PUSH2 0x4F0 PUSH2 0x34B1 PUSH2 0x4E3 JUMP JUMPDEST PUSH2 0x34B9 PUSH2 0x338B JUMP JUMPDEST DUP2 MSTORE PUSH2 0x34C3 PUSH2 0x33B3 JUMP JUMPDEST PUSH1 0x20 DUP3 ADD MSTORE PUSH2 0x3E8 PUSH1 0x40 DUP3 ADD MSTORE PUSH1 0x0 PUSH1 0x60 DUP3 ADD MSTORE PUSH1 0x1 PUSH1 0x80 DUP3 ADD MSTORE PUSH1 0x3 PUSH1 0x0 SWAP1 DUP2 MSTORE PUSH1 0x20 MSTORE PUSH32 0x101E368776582E57AB3D116FFE2517C0A585CD5B23174B01E275C2D8329C3D83 PUSH2 0x320B JUMP JUMPDEST SWAP3 SWAP1 SWAP2 SWAP3 PUSH2 0x351A PUSH2 0x2D27 JUMP JUMPDEST PUSH1 0x0 SWAP2 PUSH1 0x0 JUMPDEST DUP5 MLOAD DUP2 LT ISZERO PUSH2 0x35C5 JUMPI PUSH1 0x1 PUSH1 0x1 PUSH1 0xA0 SHL SUB DUP4 AND ISZERO ISZERO DUP1 PUSH2 0x35BE JUMPI JUMPDEST PUSH2 0x3548 JUMPI JUMPDEST PUSH1 0x1 ADD PUSH2 0x3520 JUMP JUMPDEST PUSH2 0x3565 PUSH2 0x147F PUSH1 0x3 PUSH2 0x355D PUSH2 0x258B DUP6 DUP11 PUSH2 0x277E JUMP JUMPDEST ADD SLOAD PUSH1 0xFF AND SWAP1 JUMP JUMPDEST DUP1 PUSH2 0x359C JUMPI JUMPDEST ISZERO PUSH2 0x3540 JUMPI PUSH2 0x357D PUSH2 0xEBD SWAP2 DUP7 PUSH2 0x277E JUMP JUMPDEST MLOAD PUSH1 0x40 MLOAD PUSH3 0x122425 PUSH1 0xE9 SHL DUP2 MSTORE PUSH1 0x4 DUP2 ADD SWAP2 SWAP1 SWAP2 MSTORE SWAP1 DUP2 SWAP1 PUSH1 0x24 DUP3 ADD SWAP1 JUMP JUMPDEST POP CALLER PUSH1 0x0 SWAP1 DUP2 MSTORE PUSH1 0x2 PUSH1 0x20 MSTORE PUSH1 0x40 SWAP1 KECCAK256 PUSH2 0x35B9 SWAP1 PUSH2 0x147F SWAP1 PUSH2 0x966 JUMP JUMPDEST PUSH2 0x356B JUMP JUMPDEST POP DUP4 PUSH2 0x353B JUMP JUMPDEST POP SWAP4 SWAP2 POP SWAP2 PUSH2 0x4F0 SWAP3 PUSH2 0x3C4A JUMP JUMPDEST SWAP4 SWAP3 SWAP2 PUSH2 0x35DE PUSH2 0x2D27 JUMP JUMPDEST PUSH1 0x0 JUMPDEST DUP3 MLOAD DUP2 LT ISZERO PUSH2 0x35F2 JUMPI PUSH1 0x1 ADD PUSH2 0x35E1 JUMP JUMPDEST POP SWAP1 SWAP2 SWAP3 PUSH2 0x3601 DUP3 DUP5 DUP8 PUSH2 0x3E6F JUMP JUMPDEST PUSH1 0x0 SWAP5 DUP6 JUMPDEST DUP5 MLOAD DUP8 LT ISZERO PUSH2 0x3649 JUMPI PUSH2 0x3641 PUSH1 0x1 SWAP2 DUP9 PUSH1 0x5 SHL SWAP1 PUSH2 0x362F PUSH1 0x20 DUP1 DUP5 DUP11 ADD ADD MLOAD SWAP4 DUP11 ADD ADD MLOAD PUSH2 0x17FE JUMP JUMPDEST PUSH2 0x363A DUP4 DUP3 SLOAD PUSH2 0x27A0 JUMP JUMPDEST SWAP1 SSTORE PUSH2 0x27A0 JUMP JUMPDEST SWAP7 ADD SWAP6 PUSH2 0x3606 JUMP JUMPDEST SWAP1 SWAP5 SWAP4 SWAP2 SWAP6 POP PUSH2 0x367E PUSH2 0x366C PUSH1 0x0 DUP1 MLOAD PUSH1 0x20 PUSH2 0x4336 DUP4 CODECOPY DUP2 MLOAD SWAP2 MSTORE SWAP3 DUP4 SLOAD PUSH2 0x27A0 JUMP JUMPDEST PUSH1 0x0 DUP1 MLOAD PUSH1 0x20 PUSH2 0x4336 DUP4 CODECOPY DUP2 MLOAD SWAP2 MSTORE SSTORE JUMP JUMPDEST PUSH1 0x1 PUSH1 0x1 PUSH1 0xA0 SHL SUB DUP6 AND ISZERO SWAP1 DUP2 PUSH2 0x36D3 JUMPI JUMPDEST POP ISZERO PUSH2 0x369D JUMPI JUMPDEST POP POP POP POP JUMP JUMPDEST DUP1 MLOAD PUSH1 0x1 SUB PUSH2 0x36C4 JUMPI SWAP1 PUSH1 0x20 DUP1 PUSH2 0x36BB SWAP6 SWAP4 ADD MLOAD SWAP2 ADD MLOAD SWAP2 CALLER PUSH2 0x3BC0 JUMP JUMPDEST CODESIZE DUP1 DUP1 DUP1 PUSH2 0x3697 JUMP JUMPDEST PUSH2 0x36CE SWAP4 CALLER PUSH2 0x39C6 JUMP JUMPDEST PUSH2 0x36BB JUMP JUMPDEST SWAP5 SWAP1 SWAP6 SWAP2 SWAP4 PUSH1 0x0 SWAP7 PUSH1 0x0 SWAP8 JUMPDEST DUP7 MLOAD DUP10 LT ISZERO PUSH2 0x3714 JUMPI PUSH1 0x1 SWAP1 DUP10 PUSH1 0x5 SHL SWAP1 PUSH2 0x3705 PUSH1 0x20 DUP1 DUP5 DUP12 ADD ADD MLOAD SWAP4 DUP12 ADD ADD MLOAD PUSH2 0x17FE JUMP JUMPDEST DUP3 DUP2 SLOAD SUB SWAP1 SSTORE ADD SWAP9 ADD SWAP8 PUSH2 0x36DF JUMP JUMPDEST SWAP1 SWAP3 SWAP7 PUSH2 0x3733 SWAP3 SWAP7 SWAP5 SWAP9 POP SLOAD SUB PUSH1 0x0 DUP1 MLOAD PUSH1 0x20 PUSH2 0x4336 DUP4 CODECOPY DUP2 MLOAD SWAP2 MSTORE SSTORE JUMP JUMPDEST CODESIZE PUSH2 0x3690 JUMP JUMPDEST SWAP2 SWAP4 SWAP5 SWAP1 SWAP3 SWAP5 PUSH2 0x3747 PUSH2 0x2D27 JUMP JUMPDEST PUSH1 0x0 JUMPDEST DUP6 MLOAD DUP2 LT ISZERO PUSH2 0x37D0 JUMPI PUSH1 0x1 PUSH1 0x1 PUSH1 0xA0 SHL SUB DUP5 DUP2 AND ISZERO ISZERO SWAP1 DUP2 PUSH2 0x37C4 JUMPI JUMPDEST POP PUSH2 0x3775 JUMPI JUMPDEST PUSH1 0x1 ADD PUSH2 0x374A JUMP JUMPDEST PUSH2 0x378A PUSH2 0x147F PUSH1 0x3 PUSH2 0x355D PUSH2 0x258B DUP6 DUP12 PUSH2 0x277E JUMP JUMPDEST DUP1 PUSH2 0x37A2 JUMPI JUMPDEST ISZERO PUSH2 0x376D JUMPI PUSH2 0x357D PUSH2 0xEBD SWAP2 DUP8 PUSH2 0x277E JUMP JUMPDEST POP CALLER PUSH1 0x0 SWAP1 DUP2 MSTORE PUSH1 0x2 PUSH1 0x20 MSTORE PUSH1 0x40 SWAP1 KECCAK256 PUSH2 0x37BF SWAP1 PUSH2 0x147F SWAP1 PUSH2 0x966 JUMP JUMPDEST PUSH2 0x3790 JUMP JUMPDEST SWAP1 POP DUP6 AND ISZERO ISZERO CODESIZE PUSH2 0x3767 JUMP JUMPDEST POP SWAP3 SWAP5 SWAP1 SWAP5 PUSH2 0x37E1 DUP3 DUP7 DUP4 DUP7 PUSH2 0x3D24 JUMP JUMPDEST PUSH1 0x1 PUSH1 0x1 PUSH1 0xA0 SHL SUB DUP2 AND PUSH2 0x37F7 JUMPI JUMPDEST POP POP POP POP POP JUMP JUMPDEST DUP5 MLOAD PUSH1 0x1 SUB PUSH2 0x381D JUMPI PUSH1 0x20 DUP1 PUSH2 0x3813 SWAP7 ADD MLOAD SWAP3 ADD MLOAD SWAP3 CALLER PUSH2 0x3BF5 JUMP JUMPDEST CODESIZE DUP1 DUP1 DUP1 DUP1 PUSH2 0x37F0 JUMP JUMPDEST PUSH2 0x3829 SWAP5 SWAP2 SWAP3 CALLER PUSH2 0x3AC1 JUMP JUMPDEST PUSH2 0x3813 JUMP JUMPDEST SWAP1 DUP2 EXTCODESIZE ISZERO PUSH2 0x38B4 JUMPI PUSH1 0x0 DUP1 MLOAD PUSH1 0x20 PUSH2 0x4276 DUP4 CODECOPY DUP2 MLOAD SWAP2 MSTORE DUP1 SLOAD PUSH1 0x1 PUSH1 0x1 PUSH1 0xA0 SHL SUB NOT AND PUSH1 0x1 PUSH1 0x1 PUSH1 0xA0 SHL SUB DUP5 AND SWAP1 DUP2 OR SWAP1 SWAP2 SSTORE PUSH32 0xBC7CD75A20EE27FD9ADEBAB32041F755214DBC6BFFA90CC0225B39DA2E5C2D3B PUSH1 0x0 DUP1 LOG2 DUP1 MLOAD ISZERO PUSH2 0x3899 JUMPI PUSH2 0x3896 SWAP2 PUSH2 0x3C2C JUMP JUMPDEST POP JUMP JUMPDEST POP POP CALLVALUE PUSH2 0x38A2 JUMPI JUMP JUMPDEST PUSH1 0x40 MLOAD PUSH4 0xB398979F PUSH1 0xE0 SHL DUP2 MSTORE PUSH1 0x4 SWAP1 REVERT JUMPDEST PUSH1 0x40 MLOAD PUSH4 0x4C9C8CE3 PUSH1 0xE0 SHL DUP2 MSTORE PUSH1 0x1 PUSH1 0x1 PUSH1 0xA0 SHL SUB DUP4 AND PUSH1 0x4 DUP3 ADD MSTORE PUSH1 0x24 SWAP1 REVERT JUMPDEST PUSH1 0xFF PUSH1 0x0 DUP1 MLOAD PUSH1 0x20 PUSH2 0x4356 DUP4 CODECOPY DUP2 MLOAD SWAP2 MSTORE SLOAD PUSH1 0x40 SHR AND ISZERO PUSH2 0x38F2 JUMPI JUMP JUMPDEST PUSH1 0x40 MLOAD PUSH4 0x1AFCD79F PUSH1 0xE3 SHL DUP2 MSTORE PUSH1 0x4 SWAP1 REVERT JUMPDEST SWAP1 DUP2 PUSH1 0x20 SWAP2 SUB SLT PUSH2 0x321 JUMPI MLOAD PUSH2 0x6B2 DUP2 PUSH2 0x3BC JUMP JUMPDEST SWAP3 PUSH2 0x3948 PUSH2 0x6B2 SWAP6 SWAP4 PUSH2 0x3956 SWAP4 PUSH1 0x1 DUP1 PUSH1 0xA0 SHL SUB AND DUP7 MSTORE PUSH1 0x0 PUSH1 0x20 DUP8 ADD MSTORE PUSH1 0xA0 PUSH1 0x40 DUP8 ADD MSTORE PUSH1 0xA0 DUP7 ADD SWAP1 PUSH2 0xFE3 JUMP JUMPDEST SWAP1 DUP5 DUP3 SUB PUSH1 0x60 DUP7 ADD MSTORE PUSH2 0xFE3 JUMP JUMPDEST SWAP2 PUSH1 0x80 DUP2 DUP5 SUB SWAP2 ADD MSTORE PUSH2 0x661 JUMP JUMPDEST SWAP4 SWAP1 PUSH2 0x6B2 SWAP6 SWAP4 PUSH2 0x3948 SWAP2 PUSH2 0x3956 SWAP5 PUSH1 0x1 DUP1 PUSH1 0xA0 SHL SUB DUP1 SWAP3 AND DUP9 MSTORE AND PUSH1 0x20 DUP8 ADD MSTORE PUSH1 0xA0 PUSH1 0x40 DUP8 ADD MSTORE PUSH1 0xA0 DUP7 ADD SWAP1 PUSH2 0xFE3 JUMP JUMPDEST RETURNDATASIZE ISZERO PUSH2 0x39C1 JUMPI RETURNDATASIZE SWAP1 PUSH2 0x39A7 DUP3 PUSH2 0x4F2 JUMP JUMPDEST SWAP2 PUSH2 0x39B5 PUSH1 0x40 MLOAD SWAP4 DUP5 PUSH2 0x4C2 JUMP JUMPDEST DUP3 MSTORE RETURNDATASIZE PUSH1 0x0 PUSH1 0x20 DUP5 ADD RETURNDATACOPY JUMP JUMPDEST PUSH1 0x60 SWAP1 JUMP JUMPDEST SWAP3 SWAP4 SWAP2 SWAP1 SWAP4 DUP5 EXTCODESIZE PUSH2 0x39D8 JUMPI POP POP POP POP POP JUMP JUMPDEST PUSH1 0x20 SWAP2 PUSH2 0x39FB PUSH1 0x40 MLOAD SWAP5 DUP6 SWAP4 DUP5 SWAP4 PUSH4 0xBC197C81 PUSH1 0xE0 SHL SWAP9 DUP10 DUP7 MSTORE PUSH1 0x4 DUP7 ADD PUSH2 0x3919 JUMP JUMPDEST SUB DUP2 PUSH1 0x0 PUSH1 0x1 PUSH1 0x1 PUSH1 0xA0 SHL SUB DUP9 AND GAS CALL PUSH1 0x0 SWAP2 DUP2 PUSH2 0x3A90 JUMPI JUMPDEST POP PUSH2 0x3A53 JUMPI DUP3 PUSH2 0x3A22 PUSH2 0x3996 JUMP JUMPDEST DUP1 MLOAD SWAP2 SWAP1 DUP3 PUSH2 0x3A4C JUMPI PUSH1 0x40 MLOAD PUSH4 0x2BFA23E7 PUSH1 0xE1 SHL DUP2 MSTORE PUSH1 0x1 PUSH1 0x1 PUSH1 0xA0 SHL SUB DUP4 AND PUSH1 0x4 DUP3 ADD MSTORE PUSH1 0x24 SWAP1 REVERT JUMPDEST PUSH1 0x20 SWAP2 POP ADD REVERT JUMPDEST PUSH1 0x1 PUSH1 0x1 PUSH1 0xE0 SHL SUB NOT AND SUB PUSH2 0x3A6D JUMPI POP CODESIZE DUP1 DUP1 DUP1 DUP1 PUSH2 0x37F0 JUMP JUMPDEST PUSH1 0x40 MLOAD PUSH4 0x2BFA23E7 PUSH1 0xE1 SHL DUP2 MSTORE PUSH1 0x1 PUSH1 0x1 PUSH1 0xA0 SHL SUB SWAP2 SWAP1 SWAP2 AND PUSH1 0x4 DUP3 ADD MSTORE PUSH1 0x24 SWAP1 REVERT JUMPDEST PUSH2 0x3AB3 SWAP2 SWAP3 POP PUSH1 0x20 RETURNDATASIZE PUSH1 0x20 GT PUSH2 0x3ABA JUMPI JUMPDEST PUSH2 0x3AAB DUP2 DUP4 PUSH2 0x4C2 JUMP JUMPDEST DUP2 ADD SWAP1 PUSH2 0x3904 JUMP JUMPDEST SWAP1 CODESIZE PUSH2 0x3A14 JUMP JUMPDEST POP RETURNDATASIZE PUSH2 0x3AA1 JUMP JUMPDEST SWAP4 SWAP3 SWAP1 SWAP5 SWAP2 SWAP5 DUP6 EXTCODESIZE PUSH2 0x3AD6 JUMPI JUMPDEST POP POP POP POP POP POP JUMP JUMPDEST PUSH2 0x3AF9 PUSH1 0x20 SWAP4 PUSH1 0x40 MLOAD SWAP6 DUP7 SWAP5 DUP6 SWAP5 PUSH4 0xBC197C81 PUSH1 0xE0 SHL SWAP10 DUP11 DUP8 MSTORE PUSH1 0x4 DUP8 ADD PUSH2 0x3964 JUMP JUMPDEST SUB DUP2 PUSH1 0x0 PUSH1 0x1 PUSH1 0x1 PUSH1 0xA0 SHL SUB DUP9 AND GAS CALL PUSH1 0x0 SWAP2 DUP2 PUSH2 0x3B3B JUMPI JUMPDEST POP PUSH2 0x3B20 JUMPI DUP3 PUSH2 0x3A22 PUSH2 0x3996 JUMP JUMPDEST PUSH1 0x1 PUSH1 0x1 PUSH1 0xE0 SHL SUB NOT AND SUB PUSH2 0x3A6D JUMPI POP CODESIZE DUP1 DUP1 DUP1 DUP1 DUP1 PUSH2 0x3ACE JUMP JUMPDEST PUSH2 0x3B55 SWAP2 SWAP3 POP PUSH1 0x20 RETURNDATASIZE PUSH1 0x20 GT PUSH2 0x3ABA JUMPI PUSH2 0x3AAB DUP2 DUP4 PUSH2 0x4C2 JUMP JUMPDEST SWAP1 CODESIZE PUSH2 0x3B12 JUMP JUMPDEST SWAP1 SWAP3 PUSH1 0xA0 SWAP3 PUSH2 0x6B2 SWAP6 SWAP5 PUSH1 0x1 DUP1 DUP7 SHL SUB AND DUP4 MSTORE PUSH1 0x0 PUSH1 0x20 DUP5 ADD MSTORE PUSH1 0x40 DUP4 ADD MSTORE PUSH1 0x60 DUP3 ADD MSTORE DUP2 PUSH1 0x80 DUP3 ADD MSTORE ADD SWAP1 PUSH2 0x661 JUMP JUMPDEST SWAP2 SWAP3 PUSH2 0x6B2 SWAP6 SWAP5 SWAP2 PUSH1 0xA0 SWAP5 PUSH1 0x1 DUP1 DUP8 SHL SUB DUP1 SWAP3 AND DUP6 MSTORE AND PUSH1 0x20 DUP5 ADD MSTORE PUSH1 0x40 DUP4 ADD MSTORE PUSH1 0x60 DUP3 ADD MSTORE DUP2 PUSH1 0x80 DUP3 ADD MSTORE ADD SWAP1 PUSH2 0x661 JUMP JUMPDEST SWAP3 SWAP4 SWAP2 SWAP1 SWAP4 DUP5 EXTCODESIZE PUSH2 0x3BD2 JUMPI POP POP POP POP POP JUMP JUMPDEST PUSH1 0x20 SWAP2 PUSH2 0x39FB PUSH1 0x40 MLOAD SWAP5 DUP6 SWAP4 DUP5 SWAP4 PUSH4 0xF23A6E61 PUSH1 0xE0 SHL SWAP9 DUP10 DUP7 MSTORE PUSH1 0x4 DUP7 ADD PUSH2 0x3B5C JUMP JUMPDEST SWAP4 SWAP3 SWAP1 SWAP5 SWAP2 SWAP5 DUP6 EXTCODESIZE PUSH2 0x3C09 JUMPI POP POP POP POP POP POP JUMP JUMPDEST PUSH2 0x3AF9 PUSH1 0x20 SWAP4 PUSH1 0x40 MLOAD SWAP6 DUP7 SWAP5 DUP6 SWAP5 PUSH4 0xF23A6E61 PUSH1 0xE0 SHL SWAP10 DUP11 DUP8 MSTORE PUSH1 0x4 DUP8 ADD PUSH2 0x3B8D JUMP JUMPDEST PUSH1 0x0 DUP1 PUSH2 0x6B2 SWAP4 PUSH1 0x20 DUP2 MLOAD SWAP2 ADD DUP5 GAS DELEGATECALL PUSH2 0x3C44 PUSH2 0x3996 JUMP JUMPDEST SWAP2 PUSH2 0x3DE7 JUMP JUMPDEST SWAP3 SWAP2 SWAP3 PUSH2 0x3C58 DUP5 DUP4 DUP4 PUSH2 0x3F7F JUMP JUMPDEST PUSH1 0x1 PUSH1 0x1 PUSH1 0xA0 SHL SUB AND ISZERO PUSH2 0x3CCC JUMPI JUMPDEST PUSH1 0x0 DUP1 JUMPDEST DUP3 MLOAD DUP3 LT ISZERO PUSH2 0x3CA0 JUMPI PUSH1 0x1 SWAP1 DUP3 PUSH1 0x5 SHL SWAP1 PUSH2 0x3C91 PUSH1 0x20 DUP1 DUP5 DUP11 ADD ADD MLOAD SWAP4 DUP8 ADD ADD MLOAD PUSH2 0x17FE JUMP JUMPDEST DUP3 DUP2 SLOAD SUB SWAP1 SSTORE ADD SWAP2 ADD SWAP1 PUSH2 0x3C6B JUMP JUMPDEST SWAP2 POP POP PUSH2 0x4F0 SWAP2 SWAP3 POP PUSH1 0x0 DUP1 MLOAD PUSH1 0x20 PUSH2 0x4336 DUP4 CODECOPY DUP2 MLOAD SWAP2 MSTORE SLOAD SUB PUSH1 0x0 DUP1 MLOAD PUSH1 0x20 PUSH2 0x4336 DUP4 CODECOPY DUP2 MLOAD SWAP2 MSTORE SSTORE JUMP JUMPDEST PUSH1 0x0 DUP1 JUMPDEST DUP3 MLOAD DUP3 LT ISZERO PUSH2 0x3D01 JUMPI PUSH2 0x3CF9 PUSH1 0x1 SWAP2 DUP4 PUSH1 0x5 SHL SWAP1 PUSH2 0x362F PUSH1 0x20 DUP1 DUP5 DUP12 ADD ADD MLOAD SWAP4 DUP9 ADD ADD MLOAD PUSH2 0x17FE JUMP JUMPDEST SWAP2 ADD SWAP1 PUSH2 0x3CD0 JUMP JUMPDEST PUSH2 0x3D1F SWAP2 POP PUSH2 0x366C SWAP1 PUSH1 0x0 DUP1 MLOAD PUSH1 0x20 PUSH2 0x4336 DUP4 CODECOPY DUP2 MLOAD SWAP2 MSTORE SLOAD PUSH2 0x27A0 JUMP JUMPDEST PUSH2 0x3C67 JUMP JUMPDEST SWAP1 SWAP4 SWAP3 SWAP4 PUSH2 0x3D34 DUP6 DUP5 DUP4 DUP6 PUSH2 0x40CF JUMP JUMPDEST PUSH1 0x1 PUSH1 0x1 PUSH1 0xA0 SHL SUB SWAP2 DUP3 AND ISZERO PUSH2 0x3D89 JUMPI JUMPDEST AND ISZERO PUSH2 0x3D50 JUMPI POP SWAP1 POP JUMP JUMPDEST PUSH1 0x0 DUP1 JUMPDEST DUP3 MLOAD DUP3 LT ISZERO PUSH2 0x3CA0 JUMPI PUSH1 0x1 SWAP1 DUP3 PUSH1 0x5 SHL SWAP1 PUSH2 0x3D7A PUSH1 0x20 DUP1 DUP5 DUP11 ADD ADD MLOAD SWAP4 DUP8 ADD ADD MLOAD PUSH2 0x17FE JUMP JUMPDEST DUP3 DUP2 SLOAD SUB SWAP1 SSTORE ADD SWAP2 ADD SWAP1 PUSH2 0x3D54 JUMP JUMPDEST SWAP3 PUSH1 0x0 SWAP2 DUP3 JUMPDEST DUP5 MLOAD DUP5 LT ISZERO PUSH2 0x3DC0 JUMPI PUSH2 0x3DB8 PUSH1 0x1 SWAP2 DUP6 PUSH1 0x5 SHL SWAP1 PUSH2 0x362F PUSH1 0x20 DUP1 DUP5 DUP14 ADD ADD MLOAD SWAP4 DUP11 ADD ADD MLOAD PUSH2 0x17FE JUMP JUMPDEST SWAP4 ADD SWAP3 PUSH2 0x3D8F JUMP JUMPDEST PUSH2 0x3DE2 SWAP2 SWAP4 POP PUSH2 0x366C SWAP1 SWAP6 SWAP3 SWAP6 PUSH1 0x0 DUP1 MLOAD PUSH1 0x20 PUSH2 0x4336 DUP4 CODECOPY DUP2 MLOAD SWAP2 MSTORE SLOAD PUSH2 0x27A0 JUMP JUMPDEST PUSH2 0x3D45 JUMP JUMPDEST SWAP1 PUSH2 0x3E0E JUMPI POP DUP1 MLOAD ISZERO PUSH2 0x3DFC JUMPI PUSH1 0x20 DUP2 MLOAD SWAP2 ADD REVERT JUMPDEST PUSH1 0x40 MLOAD PUSH4 0xD6BDA275 PUSH1 0xE0 SHL DUP2 MSTORE PUSH1 0x4 SWAP1 REVERT JUMPDEST DUP2 MLOAD ISZERO DUP1 PUSH2 0x3E41 JUMPI JUMPDEST PUSH2 0x3E1F JUMPI POP SWAP1 JUMP JUMPDEST PUSH1 0x40 MLOAD PUSH4 0x9996B315 PUSH1 0xE0 SHL DUP2 MSTORE PUSH1 0x1 PUSH1 0x1 PUSH1 0xA0 SHL SUB SWAP1 SWAP2 AND PUSH1 0x4 DUP3 ADD MSTORE PUSH1 0x24 SWAP1 REVERT JUMPDEST POP DUP1 EXTCODESIZE ISZERO PUSH2 0x3E17 JUMP JUMPDEST SWAP1 SWAP2 PUSH2 0x3E61 PUSH2 0x6B2 SWAP4 PUSH1 0x40 DUP5 MSTORE PUSH1 0x40 DUP5 ADD SWAP1 PUSH2 0xFE3 JUMP JUMPDEST SWAP2 PUSH1 0x20 DUP2 DUP5 SUB SWAP2 ADD MSTORE PUSH2 0xFE3 JUMP JUMPDEST SWAP2 SWAP1 SWAP2 DUP3 MLOAD DUP3 MLOAD SWAP1 DUP2 DUP2 SUB PUSH2 0x2988 JUMPI POP POP PUSH1 0x0 JUMPDEST DUP4 MLOAD DUP2 LT ISZERO PUSH2 0x3EDF JUMPI PUSH1 0x5 DUP2 SWAP1 SHL DUP5 DUP2 ADD PUSH1 0x20 SWAP1 DUP2 ADD MLOAD SWAP2 DUP6 ADD ADD MLOAD PUSH1 0x1 SWAP3 SWAP2 DUP5 SWAP1 PUSH1 0x1 PUSH1 0x1 PUSH1 0xA0 SHL SUB DUP3 AND PUSH2 0x3EBD JUMPI JUMPDEST POP POP POP ADD PUSH2 0x3E83 JUMP JUMPDEST PUSH2 0x3ED5 SWAP2 PUSH2 0x94F PUSH2 0x3ECD SWAP3 PUSH2 0x181B JUMP JUMPDEST SWAP2 DUP3 SLOAD PUSH2 0x27A0 JUMP JUMPDEST SWAP1 SSTORE CODESIZE DUP4 DUP2 PUSH2 0x3EB4 JUMP JUMPDEST POP SWAP2 PUSH1 0x1 DUP2 MLOAD EQ PUSH1 0x0 EQ PUSH2 0x3F40 JUMPI PUSH1 0x20 SWAP1 DUP2 ADD MLOAD SWAP2 DUP2 ADD MLOAD PUSH1 0x40 DUP1 MLOAD SWAP4 DUP5 MSTORE SWAP2 DUP4 ADD MSTORE PUSH1 0x1 PUSH1 0x1 PUSH1 0xA0 SHL SUB SWAP1 SWAP3 AND SWAP2 PUSH1 0x0 SWAP2 CALLER SWAP2 PUSH32 0xC3D58168C5AE7397731D063D5BBF3D657854427343F4C083240F7AACAA2D0F62 SWAP2 SWAP1 DUP2 SWAP1 DUP2 ADD JUMPDEST SUB SWAP1 LOG4 JUMP JUMPDEST PUSH32 0x4A39DC06D4C0DBC64B70AF90FD698A233A518AA5D07E595D983B8C0526C8F7FB PUSH2 0x3F3B PUSH1 0x0 SWAP4 SWAP5 PUSH1 0x40 MLOAD SWAP2 DUP3 SWAP2 PUSH1 0x1 DUP1 PUSH1 0xA0 SHL SUB AND SWAP7 CALLER SWAP6 DUP4 PUSH2 0x3E4A JUMP JUMPDEST SWAP3 SWAP2 SWAP1 DUP1 MLOAD DUP3 MLOAD SWAP1 DUP2 DUP2 SUB PUSH2 0x2988 JUMPI POP POP PUSH1 0x0 JUMPDEST DUP2 MLOAD DUP2 LT ISZERO PUSH2 0x4030 JUMPI PUSH1 0x5 DUP2 SWAP1 SHL DUP3 DUP2 ADD PUSH1 0x20 SWAP1 DUP2 ADD MLOAD SWAP2 DUP6 ADD ADD MLOAD PUSH1 0x1 PUSH1 0x1 PUSH1 0xA0 SHL SUB DUP8 AND PUSH2 0x3FC8 JUMPI JUMPDEST POP POP PUSH1 0x1 ADD PUSH2 0x3F93 JUMP JUMPDEST PUSH2 0x3FD5 DUP8 PUSH2 0x94F DUP5 PUSH2 0x181B JUMP JUMPDEST SLOAD DUP2 DUP2 LT PUSH2 0x3FF9 JUMPI DUP8 PUSH2 0x94F PUSH1 0x1 SWAP6 SWAP5 SWAP4 PUSH2 0x3FF1 SWAP4 SUB SWAP4 PUSH2 0x181B JUMP JUMPDEST SSTORE SWAP1 CODESIZE PUSH2 0x3FBE JUMP JUMPDEST PUSH1 0x40 MLOAD PUSH4 0x3DEE4C5 PUSH1 0xE0 SHL DUP2 MSTORE PUSH1 0x1 PUSH1 0x1 PUSH1 0xA0 SHL SUB DUP10 AND PUSH1 0x4 DUP3 ADD MSTORE PUSH1 0x24 DUP2 ADD SWAP2 SWAP1 SWAP2 MSTORE PUSH1 0x44 DUP2 ADD DUP3 SWAP1 MSTORE PUSH1 0x64 DUP2 ADD DUP4 SWAP1 MSTORE PUSH1 0x84 SWAP1 REVERT JUMPDEST POP SWAP1 PUSH1 0x0 SWAP3 SWAP4 SWAP2 PUSH1 0x1 DUP2 MLOAD EQ DUP5 EQ PUSH2 0x4090 JUMPI PUSH1 0x20 SWAP1 DUP2 ADD MLOAD SWAP2 DUP2 ADD MLOAD PUSH1 0x40 DUP1 MLOAD SWAP4 DUP5 MSTORE SWAP2 DUP4 ADD MSTORE PUSH1 0x1 PUSH1 0x1 PUSH1 0xA0 SHL SUB SWAP1 SWAP3 AND SWAP2 CALLER SWAP2 PUSH32 0xC3D58168C5AE7397731D063D5BBF3D657854427343F4C083240F7AACAA2D0F62 SWAP2 DUP2 SWAP1 DUP2 ADD PUSH2 0x3F3B JUMP JUMPDEST PUSH1 0x40 MLOAD PUSH1 0x1 PUSH1 0x1 PUSH1 0xA0 SHL SUB SWAP1 SWAP4 AND SWAP3 CALLER SWAP3 PUSH32 0x4A39DC06D4C0DBC64B70AF90FD698A233A518AA5D07E595D983B8C0526C8F7FB SWAP3 DUP3 SWAP2 PUSH2 0x3F3B SWAP2 DUP4 PUSH2 0x3E4A JUMP JUMPDEST SWAP4 SWAP3 SWAP2 DUP1 MLOAD DUP4 MLOAD SWAP1 DUP2 DUP2 SUB PUSH2 0x2988 JUMPI POP POP PUSH1 0x0 JUMPDEST DUP2 MLOAD DUP2 LT ISZERO PUSH2 0x41B0 JUMPI PUSH1 0x5 DUP2 SWAP1 SHL DUP3 DUP2 ADD PUSH1 0x20 SWAP1 DUP2 ADD MLOAD SWAP2 DUP7 ADD ADD MLOAD PUSH1 0x1 PUSH1 0x1 PUSH1 0xA0 SHL SUB SWAP3 SWAP2 DUP6 SWAP1 DUP10 DUP6 AND PUSH2 0x4140 JUMPI JUMPDEST PUSH1 0x1 SWAP5 DUP3 AND PUSH2 0x4126 JUMPI JUMPDEST POP POP POP ADD PUSH2 0x40E3 JUMP JUMPDEST PUSH2 0x4136 SWAP2 PUSH2 0x94F PUSH2 0x3ECD SWAP3 PUSH2 0x181B JUMP JUMPDEST SWAP1 SSTORE CODESIZE DUP5 DUP2 PUSH2 0x411D JUMP JUMPDEST SWAP2 SWAP3 SWAP4 SWAP1 POP PUSH2 0x4152 DUP10 PUSH2 0x94F DUP5 PUSH2 0x181B JUMP JUMPDEST SLOAD DUP4 DUP2 LT PUSH2 0x4179 JUMPI SWAP2 DUP7 SWAP2 DUP5 PUSH1 0x1 SWAP7 SWAP6 SWAP5 SUB PUSH2 0x4171 DUP13 PUSH2 0x94F DUP6 PUSH2 0x181B JUMP JUMPDEST SSTORE SWAP5 POP PUSH2 0x4113 JUMP JUMPDEST PUSH1 0x40 MLOAD PUSH4 0x3DEE4C5 PUSH1 0xE0 SHL DUP2 MSTORE PUSH1 0x1 PUSH1 0x1 PUSH1 0xA0 SHL SUB DUP12 AND PUSH1 0x4 DUP3 ADD MSTORE PUSH1 0x24 DUP2 ADD SWAP2 SWAP1 SWAP2 MSTORE PUSH1 0x44 DUP2 ADD DUP5 SWAP1 MSTORE PUSH1 0x64 DUP2 ADD DUP4 SWAP1 MSTORE PUSH1 0x84 SWAP1 REVERT JUMPDEST POP DUP1 MLOAD SWAP4 SWAP5 SWAP4 SWAP2 SWAP3 SWAP2 PUSH1 0x1 SUB PUSH2 0x4212 JUMPI PUSH1 0x20 SWAP1 DUP2 ADD MLOAD SWAP2 DUP2 ADD MLOAD PUSH1 0x40 DUP1 MLOAD SWAP4 DUP5 MSTORE SWAP2 DUP4 ADD MSTORE PUSH1 0x1 PUSH1 0x1 PUSH1 0xA0 SHL SUB SWAP3 DUP4 AND SWAP4 SWAP1 SWAP3 AND SWAP2 CALLER SWAP2 PUSH32 0xC3D58168C5AE7397731D063D5BBF3D657854427343F4C083240F7AACAA2D0F62 SWAP2 DUP2 SWAP1 DUP2 ADD PUSH2 0x3F3B JUMP JUMPDEST PUSH1 0x40 MLOAD PUSH1 0x1 PUSH1 0x1 PUSH1 0xA0 SHL SUB SWAP4 DUP5 AND SWAP5 SWAP1 SWAP4 AND SWAP3 CALLER SWAP3 PUSH32 0x4A39DC06D4C0DBC64B70AF90FD698A233A518AA5D07E595D983B8C0526C8F7FB SWAP3 DUP3 SWAP2 PUSH2 0x3F3B SWAP2 DUP4 PUSH2 0x3E4A JUMP INVALID PUSH12 0xDFBF7843BC606F46A1CF98F0 DELEGATECALL MSTORE CALLDATACOPY 0xE SWAP7 DUP1 ADD DUP16 DUP7 DUP3 SLOAD OR CHAINID 0xE3 BLOCKHASH NUMBER RETURNDATACOPY CHAINID 0xC5 CALLDATASIZE ADDMOD SWAP5 LOG1 EXTCODESIZE LOG1 LOG3 0x21 MOD PUSH8 0xC828492DB98DCA3E KECCAK256 PUSH23 0xCC3735A920A3CA505D382BBC549FE2656C81D2947B3B91 EXTCODEHASH EXP MSTORE8 0xB9 0xEA DUP7 0xC7 0x1E DIV SWAP16 GASPRICE SHL DUP11 LOG2 EXTCODECOPY MULMOD 0xA8 LOG0 TLOAD 0xB8 0xD4 SWAP16 0x2D CREATE INVALID 0xD2 0xC7 PUSH23 0x48DE5860A4CC508CD0818C85B8B8A1AB4CEEEF8D981C89 JUMP 0xA6 MUL 0xDD PUSH28 0xC7DEC4DCEEDDA775E58DD541E08A116C6C53815C0BD028192F7B6268 STOP 0xCD MCOPY 0xD1 TLOAD PUSH15 0x187E77E9AEE88184C21F4F2182AB58 0x27 0xCB EXTCODESIZE PUSH31 0x7FBEDCD63F033004A593662EE04D27B6A00EBB31BE7FE0C102C2ADE82A7C5 0xD7 PUSH5 0xF2DF05DC4E 0x28 STOP BLOBBASEFEE MSIZE CALLDATASIZE PUSH3 0xEE04D2 PUSH28 0x6A00EBB31BE7FE0C102C2ADE82A7C5D764F2DF05DC4E2801F0C57E16 DUP5 0xD CREATE BLOCKHASH CALL POP DUP9 0xDC 0x2F DUP2 INVALID CODECOPY SHR CODECOPY 0x23 0xBE 0xC7 RETURNDATACOPY 0x23 0xA9 PUSH7 0x2EFC9C229C6A00 DUP9 0xBE MSTORE8 PUSH14 0x5240C274A3B1D3A1BE54482FD9CA LOG2 SWAP5 CREATE DUP13 PUSH3 0xA7CDE5 PUSH10 0xF49A3C4502A264697066 PUSH20 0x58221220B431D5733D69C4E1C0862B99B1FDCD96 LOG1 0xA9 DUP4 0xEA SWAP2 PUSH1 0x42 SMOD SLOAD SWAP9 CALLDATACOPY 0xE3 0xAF PUSH10 0x310A64736F6C63430008 XOR STOP CALLER "},"methodIdentifiers":{"DEFAULT_ADMIN_ROLE()":"a217fddf","MINTER_ROLE()":"d5391393","PAUSER_ROLE()":"e63ab1e9","UPGRADE_INTERFACE_VERSION()":"ad3cb1cc","URI_SETTER_ROLE()":"7f345710","authorizedOperators(address)":"181d989b","balanceOf(address,uint256)":"00fdd58e","balanceOfBatch(address[],uint256[])":"4e1273f4","burn(address,uint256,uint256)":"f5298aca","burnBatch(address,uint256[],uint256[])":"6b20c454","burnFrom(address,uint256,uint256)":"124d91e5","exists(uint256)":"4f558e79","getRoleAdmin(bytes32)":"248a9ca3","getTokenInfo(uint256)":"8c7a63ae","getUserTokens(address,uint256)":"cfdc3522","grantRole(bytes32,address)":"2f2ff15d","hasRole(bytes32,address)":"91d14854","initialize(string,address)":"7ab4339d","isApprovedForAll(address,address)":"e985e9c5","mint(address,uint256,uint256,bytes)":"731133e9","mintBatch(address,uint256[],uint256[],bytes32[],bytes)":"221193e3","mintCard(address,uint8,uint256,uint256,uint256)":"ace8eb87","mintWithOrderId(address,uint256,uint256,bytes32,bytes)":"95b0376e","owner()":"8da5cb5b","pause()":"8456cb59","paused()":"5c975abb","proxiableUUID()":"52d1902d","renounceRole(bytes32,address)":"36568abe","revokeRole(bytes32,address)":"d547741f","safeBatchTransferFrom(address,address,uint256[],uint256[],bytes)":"2eb2c2d6","safeTransferFrom(address,address,uint256,uint256,bytes)":"f242432a","setApprovalForAll(address,bool)":"a22cb465","setAuthorizedOperator(address,bool)":"788f737d","setTokenInfo(uint256,string,string,uint256,bool,bool)":"2962d238","setTokenURI(uint256,string)":"162094c4","setTreasury(address)":"f0f44260","setURI(string)":"02fe5305","supportsInterface(bytes4)":"01ffc9a7","tokenInfo(uint256)":"cc33c875","tokenOwners(uint256)":"f8a14f46","totalSupply()":"18160ddd","totalSupply(uint256)":"bd85b039","treasury()":"61d027b3","unpause()":"3f4ba83a","upgradeToAndCall(address,bytes)":"4f1ef286","uri(uint256)":"0e89341c","userTokens(address,uint256,uint256)":"8b934440"}},"storageLayout":{"storage":[{"astId":9094,"contract":"contracts/QACard.sol:QACard","label":"tokenInfo","offset":0,"slot":"0","type":"t_mapping(t_uint256,t_struct(TokenInfo)9089_storage)"},{"astId":9098,"contract":"contracts/QACard.sol:QACard","label":"_tokenURIs","offset":0,"slot":"1","type":"t_mapping(t_uint256,t_string_storage)"},{"astId":9102,"contract":"contracts/QACard.sol:QACard","label":"authorizedOperators","offset":0,"slot":"2","type":"t_mapping(t_address,t_bool)"},{"astId":9104,"contract":"contracts/QACard.sol:QACard","label":"_treasury","offset":0,"slot":"3","type":"t_address"},{"astId":9106,"contract":"contracts/QACard.sol:QACard","label":"_owner","offset":0,"slot":"4","type":"t_address"},{"astId":9113,"contract":"contracts/QACard.sol:QACard","label":"userTokens","offset":0,"slot":"5","type":"t_mapping(t_address,t_mapping(t_uint256,t_array(t_uint256)dyn_storage))"},{"astId":9117,"contract":"contracts/QACard.sol:QACard","label":"tokenOwners","offset":0,"slot":"6","type":"t_mapping(t_uint256,t_address)"},{"astId":9119,"contract":"contracts/QACard.sol:QACard","label":"_currentTokenIndex","offset":0,"slot":"7","type":"t_uint256"}],"types":{"t_address":{"encoding":"inplace","label":"address","numberOfBytes":"20"},"t_array(t_uint256)dyn_storage":{"base":"t_uint256","encoding":"dynamic_array","label":"uint256[]","numberOfBytes":"32"},"t_bool":{"encoding":"inplace","label":"bool","numberOfBytes":"1"},"t_mapping(t_address,t_bool)":{"encoding":"mapping","key":"t_address","label":"mapping(address => bool)","numberOfBytes":"32","value":"t_bool"},"t_mapping(t_address,t_mapping(t_uint256,t_array(t_uint256)dyn_storage))":{"encoding":"mapping","key":"t_address","label":"mapping(address => mapping(uint256 => uint256[]))","numberOfBytes":"32","value":"t_mapping(t_uint256,t_array(t_uint256)dyn_storage)"},"t_mapping(t_uint256,t_address)":{"encoding":"mapping","key":"t_uint256","label":"mapping(uint256 => address)","numberOfBytes":"32","value":"t_address"},"t_mapping(t_uint256,t_array(t_uint256)dyn_storage)":{"encoding":"mapping","key":"t_uint256","label":"mapping(uint256 => uint256[])","numberOfBytes":"32","value":"t_array(t_uint256)dyn_storage"},"t_mapping(t_uint256,t_string_storage)":{"encoding":"mapping","key":"t_uint256","label":"mapping(uint256 => string)","numberOfBytes":"32","value":"t_string_storage"},"t_mapping(t_uint256,t_struct(TokenInfo)9089_storage)":{"encoding":"mapping","key":"t_uint256","label":"mapping(uint256 => struct QACard.TokenInfo)","numberOfBytes":"32","value":"t_struct(TokenInfo)9089_storage"},"t_string_storage":{"encoding":"bytes","label":"string","numberOfBytes":"32"},"t_struct(TokenInfo)9089_storage":{"encoding":"inplace","label":"struct QACard.TokenInfo","members":[{"astId":9080,"contract":"contracts/QACard.sol:QACard","label":"name","offset":0,"slot":"0","type":"t_string_storage"},{"astId":9082,"contract":"contracts/QACard.sol:QACard","label":"symbol","offset":0,"slot":"1","type":"t_string_storage"},{"astId":9084,"contract":"contracts/QACard.sol:QACard","label":"maxSupply","offset":0,"slot":"2","type":"t_uint256"},{"astId":9086,"contract":"contracts/QACard.sol:QACard","label":"transferable","offset":0,"slot":"3","type":"t_bool"},{"astId":9088,"contract":"contracts/QACard.sol:QACard","label":"active","offset":1,"slot":"3","type":"t_bool"}],"numberOfBytes":"128"},"t_uint256":{"encoding":"inplace","label":"uint256","numberOfBytes":"32"}}}}}}