{
  "address": "0xe7f1725E7734CE288F8367e1Bb143E90bb3F0512",
  "abi": [
    {
      "inputs": [],
      "stateMutability": "nonpayable",
      "type": "constructor"
    },
    {
      "inputs": [
        {
          "internalType": "address",
          "name": "spender",
          "type": "address"
        },
        {
          "internalType": "uint256",
          "name": "allowance",
          "type": "uint256"
        },
        {
          "internalType": "uint256",
          "name": "needed",
          "type": "uint256"
        }
      ],
      "name": "ERC20InsufficientAllowance",
      "type": "error"
    },
    {
      "inputs": [
        {
          "internalType": "address",
          "name": "sender",
          "type": "address"
        },
        {
          "internalType": "uint256",
          "name": "balance",
          "type": "uint256"
        },
        {
          "internalType": "uint256",
          "name": "needed",
          "type": "uint256"
        }
      ],
      "name": "ERC20InsufficientBalance",
      "type": "error"
    },
    {
      "inputs": [
        {
          "internalType": "address",
          "name": "approver",
          "type": "address"
        }
      ],
      "name": "ERC20InvalidApprover",
      "type": "error"
    },
    {
      "inputs": [
        {
          "internalType": "address",
          "name": "receiver",
          "type": "address"
        }
      ],
      "name": "ERC20InvalidReceiver",
      "type": "error"
    },
    {
      "inputs": [
        {
          "internalType": "address",
          "name": "sender",
          "type": "address"
        }
      ],
      "name": "ERC20InvalidSender",
      "type": "error"
    },
    {
      "inputs": [
        {
          "internalType": "address",
          "name": "spender",
          "type": "address"
        }
      ],
      "name": "ERC20InvalidSpender",
      "type": "error"
    },
    {
      "inputs": [
        {
          "internalType": "address",
          "name": "owner",
          "type": "address"
        }
      ],
      "name": "OwnableInvalidOwner",
      "type": "error"
    },
    {
      "inputs": [
        {
          "internalType": "address",
          "name": "account",
          "type": "address"
        }
      ],
      "name": "OwnableUnauthorizedAccount",
      "type": "error"
    },
    {
      "anonymous": false,
      "inputs": [
        {
          "indexed": true,
          "internalType": "address",
          "name": "owner",
          "type": "address"
        },
        {
          "indexed": true,
          "internalType": "address",
          "name": "spender",
          "type": "address"
        },
        {
          "indexed": false,
          "internalType": "uint256",
          "name": "value",
          "type": "uint256"
        }
      ],
      "name": "Approval",
      "type": "event"
    },
    {
      "anonymous": false,
      "inputs": [
        {
          "indexed": true,
          "internalType": "address",
          "name": "previousOwner",
          "type": "address"
        },
        {
          "indexed": true,
          "internalType": "address",
          "name": "newOwner",
          "type": "address"
        }
      ],
      "name": "OwnershipTransferred",
      "type": "event"
    },
    {
      "anonymous": false,
      "inputs": [
        {
          "indexed": true,
          "internalType": "address",
          "name": "from",
          "type": "address"
        },
        {
          "indexed": true,
          "internalType": "address",
          "name": "to",
          "type": "address"
        },
        {
          "indexed": false,
          "internalType": "uint256",
          "name": "value",
          "type": "uint256"
        }
      ],
      "name": "Transfer",
      "type": "event"
    },
    {
      "inputs": [],
      "name": "FAUCET_AMOUNT",
      "outputs": [
        {
          "internalType": "uint256",
          "name": "",
          "type": "uint256"
        }
      ],
      "stateMutability": "view",
      "type": "function"
    },
    {
      "inputs": [],
      "name": "FAUCET_COOLDOWN",
      "outputs": [
        {
          "internalType": "uint256",
          "name": "",
          "type": "uint256"
        }
      ],
      "stateMutability": "view",
      "type": "function"
    },
    {
      "inputs": [
        {
          "internalType": "address",
          "name": "owner",
          "type": "address"
        },
        {
          "internalType": "address",
          "name": "spender",
          "type": "address"
        }
      ],
      "name": "allowance",
      "outputs": [
        {
          "internalType": "uint256",
          "name": "",
          "type": "uint256"
        }
      ],
      "stateMutability": "view",
      "type": "function"
    },
    {
      "inputs": [
        {
          "internalType": "address",
          "name": "spender",
          "type": "address"
        },
        {
          "internalType": "uint256",
          "name": "value",
          "type": "uint256"
        }
      ],
      "name": "approve",
      "outputs": [
        {
          "internalType": "bool",
          "name": "",
          "type": "bool"
        }
      ],
      "stateMutability": "nonpayable",
      "type": "function"
    },
    {
      "inputs": [
        {
          "internalType": "address",
          "name": "account",
          "type": "address"
        }
      ],
      "name": "balanceOf",
      "outputs": [
        {
          "internalType": "uint256",
          "name": "",
          "type": "uint256"
        }
      ],
      "stateMutability": "view",
      "type": "function"
    },
    {
      "inputs": [
        {
          "internalType": "address[]",
          "name": "recipients",
          "type": "address[]"
        },
        {
          "internalType": "uint256[]",
          "name": "amounts",
          "type": "uint256[]"
        }
      ],
      "name": "batchTransfer",
      "outputs": [],
      "stateMutability": "nonpayable",
      "type": "function"
    },
    {
      "inputs": [
        {
          "internalType": "address",
          "name": "from",
          "type": "address"
        },
        {
          "internalType": "uint256",
          "name": "amount",
          "type": "uint256"
        }
      ],
      "name": "burn",
      "outputs": [],
      "stateMutability": "nonpayable",
      "type": "function"
    },
    {
      "inputs": [
        {
          "internalType": "address",
          "name": "user",
          "type": "address"
        }
      ],
      "name": "canUseFaucet",
      "outputs": [
        {
          "internalType": "bool",
          "name": "",
          "type": "bool"
        }
      ],
      "stateMutability": "view",
      "type": "function"
    },
    {
      "inputs": [],
      "name": "decimals",
      "outputs": [
        {
          "internalType": "uint8",
          "name": "",
          "type": "uint8"
        }
      ],
      "stateMutability": "view",
      "type": "function"
    },
    {
      "inputs": [
        {
          "internalType": "address",
          "name": "spender",
          "type": "address"
        },
        {
          "internalType": "uint256",
          "name": "subtractedValue",
          "type": "uint256"
        }
      ],
      "name": "decreaseAllowance",
      "outputs": [
        {
          "internalType": "bool",
          "name": "",
          "type": "bool"
        }
      ],
      "stateMutability": "nonpayable",
      "type": "function"
    },
    {
      "inputs": [],
      "name": "faucet",
      "outputs": [],
      "stateMutability": "nonpayable",
      "type": "function"
    },
    {
      "inputs": [
        {
          "internalType": "address",
          "name": "spender",
          "type": "address"
        },
        {
          "internalType": "uint256",
          "name": "addedValue",
          "type": "uint256"
        }
      ],
      "name": "increaseAllowance",
      "outputs": [
        {
          "internalType": "bool",
          "name": "",
          "type": "bool"
        }
      ],
      "stateMutability": "nonpayable",
      "type": "function"
    },
    {
      "inputs": [
        {
          "internalType": "address",
          "name": "",
          "type": "address"
        }
      ],
      "name": "lastFaucetTime",
      "outputs": [
        {
          "internalType": "uint256",
          "name": "",
          "type": "uint256"
        }
      ],
      "stateMutability": "view",
      "type": "function"
    },
    {
      "inputs": [
        {
          "internalType": "address",
          "name": "to",
          "type": "address"
        },
        {
          "internalType": "uint256",
          "name": "amount",
          "type": "uint256"
        }
      ],
      "name": "mint",
      "outputs": [],
      "stateMutability": "nonpayable",
      "type": "function"
    },
    {
      "inputs": [],
      "name": "name",
      "outputs": [
        {
          "internalType": "string",
          "name": "",
          "type": "string"
        }
      ],
      "stateMutability": "view",
      "type": "function"
    },
    {
      "inputs": [
        {
          "internalType": "address",
          "name": "user",
          "type": "address"
        }
      ],
      "name": "nextFaucetTime",
      "outputs": [
        {
          "internalType": "uint256",
          "name": "",
          "type": "uint256"
        }
      ],
      "stateMutability": "view",
      "type": "function"
    },
    {
      "inputs": [],
      "name": "owner",
      "outputs": [
        {
          "internalType": "address",
          "name": "",
          "type": "address"
        }
      ],
      "stateMutability": "view",
      "type": "function"
    },
    {
      "inputs": [],
      "name": "renounceOwnership",
      "outputs": [],
      "stateMutability": "nonpayable",
      "type": "function"
    },
    {
      "inputs": [],
      "name": "symbol",
      "outputs": [
        {
          "internalType": "string",
          "name": "",
          "type": "string"
        }
      ],
      "stateMutability": "view",
      "type": "function"
    },
    {
      "inputs": [],
      "name": "totalSupply",
      "outputs": [
        {
          "internalType": "uint256",
          "name": "",
          "type": "uint256"
        }
      ],
      "stateMutability": "view",
      "type": "function"
    },
    {
      "inputs": [
        {
          "internalType": "address",
          "name": "to",
          "type": "address"
        },
        {
          "internalType": "uint256",
          "name": "value",
          "type": "uint256"
        }
      ],
      "name": "transfer",
      "outputs": [
        {
          "internalType": "bool",
          "name": "",
          "type": "bool"
        }
      ],
      "stateMutability": "nonpayable",
      "type": "function"
    },
    {
      "inputs": [
        {
          "internalType": "address",
          "name": "from",
          "type": "address"
        },
        {
          "internalType": "address",
          "name": "to",
          "type": "address"
        },
        {
          "internalType": "uint256",
          "name": "value",
          "type": "uint256"
        }
      ],
      "name": "transferFrom",
      "outputs": [
        {
          "internalType": "bool",
          "name": "",
          "type": "bool"
        }
      ],
      "stateMutability": "nonpayable",
      "type": "function"
    },
    {
      "inputs": [
        {
          "internalType": "address",
          "name": "newOwner",
          "type": "address"
        }
      ],
      "name": "transferOwnership",
      "outputs": [],
      "stateMutability": "nonpayable",
      "type": "function"
    }
  ],
  "transactionHash": "0xa303ed752be26170652f440599b65081004b24785f458b707cdb9a11de97c685",
  "args": [],
  "numDeployments": 1,
  "solcInputHash": "f01db9d8ae6e5e0738d4522dfad26953",
  "bytecode": "0x6080346200040d576040906001600160401b039080830182811182821017620003f75783526009815260209068135bd8dac81554d11560ba1b8282015283519284840184811082821117620003f7578552600493848152631554d11560e21b848201528251828111620003e2576003918254916001958684811c94168015620003d7575b88851014620003c2578190601f948581116200036c575b5088908583116001146200030557600092620002f9575b505060001982861b1c191690861b1783555b8051938411620002e45786548581811c91168015620002d9575b87821014620002c45782811162000279575b50859184116001146200020e5793839491849260009562000202575b50501b92600019911b1c19161782555b3315620001eb57600554336001600160a01b0382167f8be0079c531659141344cd1fd0a4f28419497f9722a3daafe3b4186f6b6457e0600080a36001600160a81b0319163360ff60a01b191617600360a11b1760055560025466038d7ea4c6800092838201918210620001d657506000917fddf252ad1be2c89b69c2b068fc378daa952ba7f163c4a11628f55a4df523b3ef9160025533835282815284832084815401905584519384523393a351610e8b9081620004138239f35b601190634e487b7160e01b6000525260246000fd5b5060006024925191631e4fbdf760e01b8352820152fd5b0151935038806200010b565b9190601f198416928760005284876000209460005b898983831062000261575050501062000246575b50505050811b0182556200011b565b01519060f884600019921b161c191690553880808062000237565b86860151895590970196948501948893500162000223565b87600052866000208380870160051c820192898810620002ba575b0160051c019086905b828110620002ad575050620000ef565b600081550186906200029d565b9250819262000294565b602288634e487b7160e01b6000525260246000fd5b90607f1690620000dd565b604187634e487b7160e01b6000525260246000fd5b015190503880620000b1565b90889350601f19831691876000528a6000209260005b8c8282106200035557505084116200033c575b505050811b018355620000c3565b015160001983881b60f8161c191690553880806200032e565b8385015186558c979095019493840193016200031b565b90915085600052886000208580850160051c8201928b8610620003b8575b918a91869594930160051c01915b828110620003a85750506200009a565b600081558594508a910162000398565b925081926200038a565b602289634e487b7160e01b6000525260246000fd5b93607f169362000083565b604186634e487b7160e01b6000525260246000fd5b634e487b7160e01b600052604160045260246000fd5b600080fdfe6080604081815260048036101561001557600080fd5b600092833560e01c90816306fdde0314610abf57508063095ea7b314610a9557806318160ddd14610a7657806323b872dd14610983578063313ce5671461095e578063395093511461090e57806340c10f1914610887578063413c51781461083f57806370a0823114610808578063715018a6146107ab578063766976401461078c578063780768fc1461072e5780637bc1f6cc146106f65780637d1d5d19146106d857806388d695b2146105f15780638da5cb5b146105c857806395d89b41146104a65780639dc29fac146103dc578063a457c2d714610335578063a9059cbb14610304578063dd62ed3e146102b7578063de5f72fd146101b25763f2fde38b1461012057600080fd5b346101ae5760203660031901126101ae57610139610bff565b90610142610d76565b6001600160a01b03918216928315610198575050600554826bffffffffffffffffffffffff60a01b821617600555167f8be0079c531659141344cd1fd0a4f28419497f9722a3daafe3b4186f6b6457e08380a380f35b51631e4fbdf760e01b8152908101849052602490fd5b8280fd5b5090346101ae57826003193601126101ae573383526006602052808320546201518081018091116102a45742106102615733835260066020524281842055331561024c57600254633b9aca00928382018092116102395750600255338352826020528083208281540190555190815281600080516020610e3683398151915260203393a380f35b634e487b7160e01b855260119052602484fd5b91602492519163ec442f0560e01b8352820152fd5b906020606492519162461bcd60e51b8352820152601a60248201527f46617563657420636f6f6c646f776e206e6f74207061737365640000000000006044820152fd5b634e487b7160e01b845260118352602484fd5b505034610300578060031936011261030057806020926102d5610bff565b6102dd610c1a565b6001600160a01b0391821683526001865283832091168252845220549051908152f35b5080fd5b50503461030057806003193601126103005760209061032e610324610bff565b6024359033610caa565b5160018152f35b5082346103d957826003193601126103d95761034f610bff565b918360243592338152600160205281812060018060a01b03861682526020522054908282106103885760208561032e8585038733610da2565b608490602086519162461bcd60e51b8352820152602560248201527f45524332303a2064656372656173656420616c6c6f77616e63652062656c6f77604482015264207a65726f60d81b6064820152fd5b80fd5b508290346103005782600319360112610300576103f7610bff565b9060243590610404610d76565b6001600160a01b03831692831561048f5783855284602052858520549183831061045b575050818495600080516020610e36833981519152936020938688528785520381872055816002540360025551908152a380f35b865163391434e360e21b81526001600160a01b03909216908201908152602081018390526040810184905281906060010390fd5b8551634b637e8f60e11b8152808301869052602490fd5b5091903461030057816003193601126103005780519082845460018160011c90600183169283156105be575b60209384841081146105ab5783885290811561058f575060011461053a575b505050829003601f01601f191682019267ffffffffffffffff8411838510176105275750829182610523925282610bb6565b0390f35b634e487b7160e01b815260418552602490fd5b8787529192508591837f8a35acfbc15ff81a39ae7d344fd709f28e8600b4aa8c65c6b64bfe7fe36bd19b5b83851061057b57505050508301013880806104f1565b805488860183015293019284908201610565565b60ff1916878501525050151560051b84010190503880806104f1565b634e487b7160e01b895260228a52602489fd5b91607f16916104d2565b50503461030057816003193601126103005760055490516001600160a01b039091168152602090f35b50346101ae57816003193601126101ae5767ffffffffffffffff9181358381116106d4576106229036908401610c30565b90936024359081116106d05761063b9036908501610c30565b939092848303610694575050845b818110610654578580f35b61065f818387610c84565b35906001600160a01b03821682036106905761068a600192610682838888610c84565b359033610caa565b01610649565b8680fd5b906020606492519162461bcd60e51b83528201526016602482015275082e4e4c2f2e640d8cadccee8d040dad2e6dac2e8c6d60531b6044820152fd5b8580fd5b8480fd5b50503461030057816003193601126103005760209051620151808152f35b5050346103005760203660031901126103005760209181906001600160a01b0361071e610bff565b1681526006845220549051908152f35b50919034610300576020366003190112610300576001600160a01b03610752610bff565b16825260066020528082205491620151808301809311610779576020838351904210158152f35b634e487b7160e01b815260118452602490fd5b50503461030057816003193601126103005760209051633b9aca008152f35b83346103d957806003193601126103d9576107c4610d76565b600580546001600160a01b0319811690915581906001600160a01b03167f8be0079c531659141344cd1fd0a4f28419497f9722a3daafe3b4186f6b6457e08280a380f35b5050346103005760203660031901126103005760209181906001600160a01b03610830610bff565b16815280845220549051908152f35b50919034610300576020366003190112610300576001600160a01b03610863610bff565b16825260066020528082205491620151808301809311610779576020838351908152f35b5090346101ae57806003193601126101ae576108a1610bff565b90602435916108ae610d76565b6001600160a01b03169283156108f95750602082600080516020610e36833981519152926108df8795600254610c61565b60025585855284835280852082815401905551908152a380f35b84602492519163ec442f0560e01b8352820152fd5b50503461030057806003193601126103005761032e602092610957610931610bff565b338352600186528483206001600160a01b03821684528652918490205460243590610c61565b9033610da2565b50503461030057816003193601126103005760209060ff60055460a01c169051908152f35b5082346103d95760603660031901126103d95761099e610bff565b6109a6610c1a565b916044359360018060a01b0383168083526001602052868320338452602052868320549160001983106109e2575b60208861032e898989610caa565b868310610a4a578115610a33573315610a1c5750825260016020908152868320338452815291869020908590039055829061032e876109d4565b8751634a1406b160e11b8152908101849052602490fd5b875163e602df0560e01b8152908101849052602490fd5b8751637dc7a0d960e11b8152339181019182526020820193909352604081018790528291506060010390fd5b5050346103005781600319360112610300576020906002549051908152f35b50503461030057806003193601126103005760209061032e610ab5610bff565b6024359033610da2565b84915083346101ae57826003193601126101ae578260035460018160011c9060018316928315610bac575b60209384841081146105ab57838852908115610b905750600114610b3a57505050829003601f01601f191682019267ffffffffffffffff8411838510176105275750829182610523925282610bb6565b600387529192508591837fc2575a0e9e593c00f959f8c92f12db2869c3395a3b0502d05e2516446f71f85b5b838510610b7c57505050508301018580806104f1565b805488860183015293019284908201610b66565b60ff1916878501525050151560051b84010190508580806104f1565b91607f1691610aea565b6020808252825181830181905290939260005b828110610beb57505060409293506000838284010152601f8019910116010190565b818101860151848201604001528501610bc9565b600435906001600160a01b0382168203610c1557565b600080fd5b602435906001600160a01b0382168203610c1557565b9181601f84011215610c155782359167ffffffffffffffff8311610c15576020808501948460051b010111610c1557565b91908201809211610c6e57565b634e487b7160e01b600052601160045260246000fd5b9190811015610c945760051b0190565b634e487b7160e01b600052603260045260246000fd5b916001600160a01b03808416928315610d5d5716928315610d445760009083825281602052604082205490838210610d1257509160408282600080516020610e36833981519152958760209652828652038282205586815220818154019055604051908152a3565b60405163391434e360e21b81526001600160a01b03919091166004820152602481019190915260448101839052606490fd5b60405163ec442f0560e01b815260006004820152602490fd5b604051634b637e8f60e11b815260006004820152602490fd5b6005546001600160a01b03163303610d8a57565b60405163118cdaa760e01b8152336004820152602490fd5b6001600160a01b03908116918215610e1c5716918215610e035760207f8c5be1e5ebec7d5bd14f71427d1e84f3dd0314c0f7b2291e5b200ac8c7c3b925918360005260018252604060002085600052825280604060002055604051908152a3565b604051634a1406b160e11b815260006004820152602490fd5b60405163e602df0560e01b815260006004820152602490fdfeddf252ad1be2c89b69c2b068fc378daa952ba7f163c4a11628f55a4df523b3efa2646970667358221220ce3c87f6dcb22464c4ffa0c3d938679ab7d078a451d34449a1a484af7051b88c64736f6c63430008180033",
  "devdoc": {
    "details": "USDT - ",
    "errors": {
      "ERC20InsufficientAllowance(address,uint256,uint256)": [
        {
          "details": "Indicates a failure with the `spender`s `allowance`. Used in transfers.",
          "params": {
            "allowance": "Amount of tokens a `spender` is allowed to operate with.",
            "needed": "Minimum amount required to perform a transfer.",
            "spender": "Address that may be allowed to operate on tokens without being their owner."
          }
        }
      ],
      "ERC20InsufficientBalance(address,uint256,uint256)": [
        {
          "details": "Indicates an error related to the current `balance` of a `sender`. Used in transfers.",
          "params": {
            "balance": "Current balance for the interacting account.",
            "needed": "Minimum amount required to perform a transfer.",
            "sender": "Address whose tokens are being transferred."
          }
        }
      ],
      "ERC20InvalidApprover(address)": [
        {
          "details": "Indicates a failure with the `approver` of a token to be approved. Used in approvals.",
          "params": {
            "approver": "Address initiating an approval operation."
          }
        }
      ],
      "ERC20InvalidReceiver(address)": [
        {
          "details": "Indicates a failure with the token `receiver`. Used in transfers.",
          "params": {
            "receiver": "Address to which tokens are being transferred."
          }
        }
      ],
      "ERC20InvalidSender(address)": [
        {
          "details": "Indicates a failure with the token `sender`. Used in transfers.",
          "params": {
            "sender": "Address whose tokens are being transferred."
          }
        }
      ],
      "ERC20InvalidSpender(address)": [
        {
          "details": "Indicates a failure with the `spender` to be approved. Used in approvals.",
          "params": {
            "spender": "Address that may be allowed to operate on tokens without being their owner."
          }
        }
      ],
      "OwnableInvalidOwner(address)": [
        {
          "details": "The owner is not a valid owner account. (eg. `address(0)`)"
        }
      ],
      "OwnableUnauthorizedAccount(address)": [
        {
          "details": "The caller account is not authorized to perform an operation."
        }
      ]
    },
    "events": {
      "Approval(address,address,uint256)": {
        "details": "Emitted when the allowance of a `spender` for an `owner` is set by a call to {approve}. `value` is the new allowance."
      },
      "Transfer(address,address,uint256)": {
        "details": "Emitted when `value` tokens are moved from one account (`from`) to another (`to`). Note that `value` may be zero."
      }
    },
    "kind": "dev",
    "methods": {
      "allowance(address,address)": {
        "details": "Returns the remaining number of tokens that `spender` will be allowed to spend on behalf of `owner` through {transferFrom}. This is zero by default. This value changes when {approve} or {transferFrom} are called."
      },
      "approve(address,uint256)": {
        "details": "See {IERC20-approve}. NOTE: If `value` is the maximum `uint256`, the allowance is not updated on `transferFrom`. This is semantically equivalent to an infinite approval. Requirements: - `spender` cannot be the zero address."
      },
      "balanceOf(address)": {
        "details": "Returns the value of tokens owned by `account`."
      },
      "batchTransfer(address[],uint256[])": {
        "details": " (Gas)"
      },
      "burn(address,uint256)": {
        "details": " ()"
      },
      "canUseFaucet(address)": {
        "details": ""
      },
      "decimals()": {
        "details": ""
      },
      "decreaseAllowance(address,uint256)": {
        "details": ""
      },
      "increaseAllowance(address,uint256)": {
        "details": ""
      },
      "mint(address,uint256)": {
        "details": " ()"
      },
      "name()": {
        "details": "Returns the name of the token."
      },
      "nextFaucetTime(address)": {
        "details": ""
      },
      "owner()": {
        "details": "Returns the address of the current owner."
      },
      "renounceOwnership()": {
        "details": "Leaves the contract without owner. It will not be possible to call `onlyOwner` functions. Can only be called by the current owner. NOTE: Renouncing ownership will leave the contract without an owner, thereby disabling any functionality that is only available to the owner."
      },
      "symbol()": {
        "details": "Returns the symbol of the token, usually a shorter version of the name."
      },
      "totalSupply()": {
        "details": "Returns the value of tokens in existence."
      },
      "transfer(address,uint256)": {
        "details": "See {IERC20-transfer}. Requirements: - `to` cannot be the zero address. - the caller must have a balance of at least `value`."
      },
      "transferFrom(address,address,uint256)": {
        "details": "See {IERC20-transferFrom}. Skips emitting an {Approval} event indicating an allowance update. This is not required by the ERC. See {xref-ERC20-_approve-address-address-uint256-bool-}[_approve]. NOTE: Does not update the allowance if the current allowance is the maximum `uint256`. Requirements: - `from` and `to` cannot be the zero address. - `from` must have a balance of at least `value`. - the caller must have allowance for ``from``'s tokens of at least `value`."
      },
      "transferOwnership(address)": {
        "details": "Transfers ownership of the contract to a new account (`newOwner`). Can only be called by the current owner."
      }
    },
    "stateVariables": {
      "lastFaucetTime": {
        "details": "USDT (1000 USDT)"
      }
    },
    "title": "MockUSDT",
    "version": 1
  },
  "userdoc": {
    "kind": "user",
    "methods": {},
    "version": 1
  },
  "storageLayout": {
    "storage": [
      {
        "astId": 3155,
        "contract": "contracts/MockUSDT.sol:MockUSDT",
        "label": "_balances",
        "offset": 0,
        "slot": "0",
        "type": "t_mapping(t_address,t_uint256)"
      },
      {
        "astId": 3161,
        "contract": "contracts/MockUSDT.sol:MockUSDT",
        "label": "_allowances",
        "offset": 0,
        "slot": "1",
        "type": "t_mapping(t_address,t_mapping(t_address,t_uint256))"
      },
      {
        "astId": 3163,
        "contract": "contracts/MockUSDT.sol:MockUSDT",
        "label": "_totalSupply",
        "offset": 0,
        "slot": "2",
        "type": "t_uint256"
      },
      {
        "astId": 3165,
        "contract": "contracts/MockUSDT.sol:MockUSDT",
        "label": "_name",
        "offset": 0,
        "slot": "3",
        "type": "t_string_storage"
      },
      {
        "astId": 3167,
        "contract": "contracts/MockUSDT.sol:MockUSDT",
        "label": "_symbol",
        "offset": 0,
        "slot": "4",
        "type": "t_string_storage"
      },
      {
        "astId": 2431,
        "contract": "contracts/MockUSDT.sol:MockUSDT",
        "label": "_owner",
        "offset": 0,
        "slot": "5",
        "type": "t_address"
      },
      {
        "astId": 8971,
        "contract": "contracts/MockUSDT.sol:MockUSDT",
        "label": "_decimals",
        "offset": 20,
        "slot": "5",
        "type": "t_uint8"
      },
      {
        "astId": 9082,
        "contract": "contracts/MockUSDT.sol:MockUSDT",
        "label": "lastFaucetTime",
        "offset": 0,
        "slot": "6",
        "type": "t_mapping(t_address,t_uint256)"
      }
    ],
    "types": {
      "t_address": {
        "encoding": "inplace",
        "label": "address",
        "numberOfBytes": "20"
      },
      "t_mapping(t_address,t_mapping(t_address,t_uint256))": {
        "encoding": "mapping",
        "key": "t_address",
        "label": "mapping(address => mapping(address => uint256))",
        "numberOfBytes": "32",
        "value": "t_mapping(t_address,t_uint256)"
      },
      "t_mapping(t_address,t_uint256)": {
        "encoding": "mapping",
        "key": "t_address",
        "label": "mapping(address => uint256)",
        "numberOfBytes": "32",
        "value": "t_uint256"
      },
      "t_string_storage": {
        "encoding": "bytes",
        "label": "string",
        "numberOfBytes": "32"
      },
      "t_uint256": {
        "encoding": "inplace",
        "label": "uint256",
        "numberOfBytes": "32"
      },
      "t_uint8": {
        "encoding": "inplace",
        "label": "uint8",
        "numberOfBytes": "1"
      }
    }
  }
}