{
  "address": "0x9fE46736679d2D9a65F0992F2272dE9f3c7fa6e0",
  "abi": [
    {
      "inputs": [],
      "stateMutability": "nonpayable",
      "type": "constructor"
    },
    {
      "inputs": [],
      "name": "AccessControlBadConfirmation",
      "type": "error"
    },
    {
      "inputs": [
        {
          "internalType": "address",
          "name": "account",
          "type": "address"
        },
        {
          "internalType": "bytes32",
          "name": "neededRole",
          "type": "bytes32"
        }
      ],
      "name": "AccessControlUnauthorizedAccount",
      "type": "error"
    },
    {
      "inputs": [
        {
          "internalType": "address",
          "name": "sender",
          "type": "address"
        },
        {
          "internalType": "uint256",
          "name": "balance",
          "type": "uint256"
        },
        {
          "internalType": "uint256",
          "name": "needed",
          "type": "uint256"
        },
        {
          "internalType": "uint256",
          "name": "tokenId",
          "type": "uint256"
        }
      ],
      "name": "ERC1155InsufficientBalance",
      "type": "error"
    },
    {
      "inputs": [
        {
          "internalType": "address",
          "name": "approver",
          "type": "address"
        }
      ],
      "name": "ERC1155InvalidApprover",
      "type": "error"
    },
    {
      "inputs": [
        {
          "internalType": "uint256",
          "name": "idsLength",
          "type": "uint256"
        },
        {
          "internalType": "uint256",
          "name": "valuesLength",
          "type": "uint256"
        }
      ],
      "name": "ERC1155InvalidArrayLength",
      "type": "error"
    },
    {
      "inputs": [
        {
          "internalType": "address",
          "name": "operator",
          "type": "address"
        }
      ],
      "name": "ERC1155InvalidOperator",
      "type": "error"
    },
    {
      "inputs": [
        {
          "internalType": "address",
          "name": "receiver",
          "type": "address"
        }
      ],
      "name": "ERC1155InvalidReceiver",
      "type": "error"
    },
    {
      "inputs": [
        {
          "internalType": "address",
          "name": "sender",
          "type": "address"
        }
      ],
      "name": "ERC1155InvalidSender",
      "type": "error"
    },
    {
      "inputs": [
        {
          "internalType": "address",
          "name": "operator",
          "type": "address"
        },
        {
          "internalType": "address",
          "name": "owner",
          "type": "address"
        }
      ],
      "name": "ERC1155MissingApprovalForAll",
      "type": "error"
    },
    {
      "inputs": [],
      "name": "EnforcedPause",
      "type": "error"
    },
    {
      "inputs": [],
      "name": "ExpectedPause",
      "type": "error"
    },
    {
      "inputs": [
        {
          "internalType": "uint256",
          "name": "requested",
          "type": "uint256"
        },
        {
          "internalType": "uint256",
          "name": "available",
          "type": "uint256"
        }
      ],
      "name": "InsufficientSupply",
      "type": "error"
    },
    {
      "inputs": [],
      "name": "InvalidInitialization",
      "type": "error"
    },
    {
      "inputs": [
        {
          "internalType": "uint256",
          "name": "tokenId",
          "type": "uint256"
        }
      ],
      "name": "InvalidTokenId",
      "type": "error"
    },
    {
      "inputs": [],
      "name": "NotInitializing",
      "type": "error"
    },
    {
      "inputs": [
        {
          "internalType": "uint256",
          "name": "tokenId",
          "type": "uint256"
        }
      ],
      "name": "TokenNotActive",
      "type": "error"
    },
    {
      "inputs": [
        {
          "internalType": "uint256",
          "name": "tokenId",
          "type": "uint256"
        }
      ],
      "name": "TransferNotAllowed",
      "type": "error"
    },
    {
      "inputs": [
        {
          "internalType": "address",
          "name": "operator",
          "type": "address"
        }
      ],
      "name": "UnauthorizedOperator",
      "type": "error"
    },
    {
      "anonymous": false,
      "inputs": [
        {
          "indexed": true,
          "internalType": "address",
          "name": "account",
          "type": "address"
        },
        {
          "indexed": true,
          "internalType": "address",
          "name": "operator",
          "type": "address"
        },
        {
          "indexed": false,
          "internalType": "bool",
          "name": "approved",
          "type": "bool"
        }
      ],
      "name": "ApprovalForAll",
      "type": "event"
    },
    {
      "anonymous": false,
      "inputs": [
        {
          "indexed": false,
          "internalType": "uint64",
          "name": "version",
          "type": "uint64"
        }
      ],
      "name": "Initialized",
      "type": "event"
    },
    {
      "anonymous": false,
      "inputs": [
        {
          "indexed": true,
          "internalType": "address",
          "name": "operator",
          "type": "address"
        },
        {
          "indexed": false,
          "internalType": "bool",
          "name": "authorized",
          "type": "bool"
        }
      ],
      "name": "OperatorAuthorized",
      "type": "event"
    },
    {
      "anonymous": false,
      "inputs": [
        {
          "indexed": false,
          "internalType": "address",
          "name": "account",
          "type": "address"
        }
      ],
      "name": "Paused",
      "type": "event"
    },
    {
      "anonymous": false,
      "inputs": [
        {
          "indexed": true,
          "internalType": "bytes32",
          "name": "role",
          "type": "bytes32"
        },
        {
          "indexed": true,
          "internalType": "bytes32",
          "name": "previousAdminRole",
          "type": "bytes32"
        },
        {
          "indexed": true,
          "internalType": "bytes32",
          "name": "newAdminRole",
          "type": "bytes32"
        }
      ],
      "name": "RoleAdminChanged",
      "type": "event"
    },
    {
      "anonymous": false,
      "inputs": [
        {
          "indexed": true,
          "internalType": "bytes32",
          "name": "role",
          "type": "bytes32"
        },
        {
          "indexed": true,
          "internalType": "address",
          "name": "account",
          "type": "address"
        },
        {
          "indexed": true,
          "internalType": "address",
          "name": "sender",
          "type": "address"
        }
      ],
      "name": "RoleGranted",
      "type": "event"
    },
    {
      "anonymous": false,
      "inputs": [
        {
          "indexed": true,
          "internalType": "bytes32",
          "name": "role",
          "type": "bytes32"
        },
        {
          "indexed": true,
          "internalType": "address",
          "name": "account",
          "type": "address"
        },
        {
          "indexed": true,
          "internalType": "address",
          "name": "sender",
          "type": "address"
        }
      ],
      "name": "RoleRevoked",
      "type": "event"
    },
    {
      "anonymous": false,
      "inputs": [
        {
          "indexed": true,
          "internalType": "address",
          "name": "from",
          "type": "address"
        },
        {
          "indexed": true,
          "internalType": "uint256",
          "name": "tokenId",
          "type": "uint256"
        },
        {
          "indexed": false,
          "internalType": "uint256",
          "name": "amount",
          "type": "uint256"
        },
        {
          "indexed": false,
          "internalType": "uint256",
          "name": "uniqueId",
          "type": "uint256"
        }
      ],
      "name": "TokenBurned",
      "type": "event"
    },
    {
      "anonymous": false,
      "inputs": [
        {
          "indexed": true,
          "internalType": "uint256",
          "name": "tokenId",
          "type": "uint256"
        },
        {
          "indexed": false,
          "internalType": "string",
          "name": "name",
          "type": "string"
        },
        {
          "indexed": false,
          "internalType": "string",
          "name": "symbol",
          "type": "string"
        },
        {
          "indexed": false,
          "internalType": "uint256",
          "name": "maxSupply",
          "type": "uint256"
        },
        {
          "indexed": false,
          "internalType": "bool",
          "name": "transferable",
          "type": "bool"
        }
      ],
      "name": "TokenInfoUpdated",
      "type": "event"
    },
    {
      "anonymous": false,
      "inputs": [
        {
          "indexed": true,
          "internalType": "address",
          "name": "to",
          "type": "address"
        },
        {
          "indexed": true,
          "internalType": "uint256",
          "name": "tokenId",
          "type": "uint256"
        },
        {
          "indexed": false,
          "internalType": "uint256",
          "name": "amount",
          "type": "uint256"
        },
        {
          "indexed": true,
          "internalType": "bytes32",
          "name": "orderId",
          "type": "bytes32"
        },
        {
          "indexed": false,
          "internalType": "uint256",
          "name": "uniqueId",
          "type": "uint256"
        }
      ],
      "name": "TokenMinted",
      "type": "event"
    },
    {
      "anonymous": false,
      "inputs": [
        {
          "indexed": true,
          "internalType": "address",
          "name": "operator",
          "type": "address"
        },
        {
          "indexed": true,
          "internalType": "address",
          "name": "from",
          "type": "address"
        },
        {
          "indexed": true,
          "internalType": "address",
          "name": "to",
          "type": "address"
        },
        {
          "indexed": false,
          "internalType": "uint256[]",
          "name": "ids",
          "type": "uint256[]"
        },
        {
          "indexed": false,
          "internalType": "uint256[]",
          "name": "values",
          "type": "uint256[]"
        }
      ],
      "name": "TransferBatch",
      "type": "event"
    },
    {
      "anonymous": false,
      "inputs": [
        {
          "indexed": true,
          "internalType": "address",
          "name": "operator",
          "type": "address"
        },
        {
          "indexed": true,
          "internalType": "address",
          "name": "from",
          "type": "address"
        },
        {
          "indexed": true,
          "internalType": "address",
          "name": "to",
          "type": "address"
        },
        {
          "indexed": false,
          "internalType": "uint256",
          "name": "id",
          "type": "uint256"
        },
        {
          "indexed": false,
          "internalType": "uint256",
          "name": "value",
          "type": "uint256"
        }
      ],
      "name": "TransferSingle",
      "type": "event"
    },
    {
      "anonymous": false,
      "inputs": [
        {
          "indexed": false,
          "internalType": "string",
          "name": "value",
          "type": "string"
        },
        {
          "indexed": true,
          "internalType": "uint256",
          "name": "id",
          "type": "uint256"
        }
      ],
      "name": "URI",
      "type": "event"
    },
    {
      "anonymous": false,
      "inputs": [
        {
          "indexed": true,
          "internalType": "uint256",
          "name": "tokenId",
          "type": "uint256"
        },
        {
          "indexed": false,
          "internalType": "string",
          "name": "uri",
          "type": "string"
        }
      ],
      "name": "URIUpdated",
      "type": "event"
    },
    {
      "anonymous": false,
      "inputs": [
        {
          "indexed": false,
          "internalType": "address",
          "name": "account",
          "type": "address"
        }
      ],
      "name": "Unpaused",
      "type": "event"
    },
    {
      "inputs": [],
      "name": "DEFAULT_ADMIN_ROLE",
      "outputs": [
        {
          "internalType": "bytes32",
          "name": "",
          "type": "bytes32"
        }
      ],
      "stateMutability": "view",
      "type": "function"
    },
    {
      "inputs": [],
      "name": "MINTER_ROLE",
      "outputs": [
        {
          "internalType": "bytes32",
          "name": "",
          "type": "bytes32"
        }
      ],
      "stateMutability": "view",
      "type": "function"
    },
    {
      "inputs": [],
      "name": "PAUSER_ROLE",
      "outputs": [
        {
          "internalType": "bytes32",
          "name": "",
          "type": "bytes32"
        }
      ],
      "stateMutability": "view",
      "type": "function"
    },
    {
      "inputs": [],
      "name": "URI_SETTER_ROLE",
      "outputs": [
        {
          "internalType": "bytes32",
          "name": "",
          "type": "bytes32"
        }
      ],
      "stateMutability": "view",
      "type": "function"
    },
    {
      "inputs": [
        {
          "internalType": "address",
          "name": "",
          "type": "address"
        }
      ],
      "name": "authorizedOperators",
      "outputs": [
        {
          "internalType": "bool",
          "name": "",
          "type": "bool"
        }
      ],
      "stateMutability": "view",
      "type": "function"
    },
    {
      "inputs": [
        {
          "internalType": "address",
          "name": "account",
          "type": "address"
        },
        {
          "internalType": "uint256",
          "name": "id",
          "type": "uint256"
        }
      ],
      "name": "balanceOf",
      "outputs": [
        {
          "internalType": "uint256",
          "name": "",
          "type": "uint256"
        }
      ],
      "stateMutability": "view",
      "type": "function"
    },
    {
      "inputs": [
        {
          "internalType": "address[]",
          "name": "accounts",
          "type": "address[]"
        },
        {
          "internalType": "uint256[]",
          "name": "ids",
          "type": "uint256[]"
        }
      ],
      "name": "balanceOfBatch",
      "outputs": [
        {
          "internalType": "uint256[]",
          "name": "",
          "type": "uint256[]"
        }
      ],
      "stateMutability": "view",
      "type": "function"
    },
    {
      "inputs": [
        {
          "internalType": "address",
          "name": "account",
          "type": "address"
        },
        {
          "internalType": "uint256",
          "name": "id",
          "type": "uint256"
        },
        {
          "internalType": "uint256",
          "name": "value",
          "type": "uint256"
        }
      ],
      "name": "burn",
      "outputs": [],
      "stateMutability": "nonpayable",
      "type": "function"
    },
    {
      "inputs": [
        {
          "internalType": "address",
          "name": "account",
          "type": "address"
        },
        {
          "internalType": "uint256[]",
          "name": "ids",
          "type": "uint256[]"
        },
        {
          "internalType": "uint256[]",
          "name": "values",
          "type": "uint256[]"
        }
      ],
      "name": "burnBatch",
      "outputs": [],
      "stateMutability": "nonpayable",
      "type": "function"
    },
    {
      "inputs": [
        {
          "internalType": "address",
          "name": "from",
          "type": "address"
        },
        {
          "internalType": "uint256",
          "name": "tokenId",
          "type": "uint256"
        },
        {
          "internalType": "uint256",
          "name": "amount",
          "type": "uint256"
        }
      ],
      "name": "burnFrom",
      "outputs": [],
      "stateMutability": "nonpayable",
      "type": "function"
    },
    {
      "inputs": [
        {
          "internalType": "uint256",
          "name": "id",
          "type": "uint256"
        }
      ],
      "name": "exists",
      "outputs": [
        {
          "internalType": "bool",
          "name": "",
          "type": "bool"
        }
      ],
      "stateMutability": "view",
      "type": "function"
    },
    {
      "inputs": [
        {
          "internalType": "bytes32",
          "name": "role",
          "type": "bytes32"
        }
      ],
      "name": "getRoleAdmin",
      "outputs": [
        {
          "internalType": "bytes32",
          "name": "",
          "type": "bytes32"
        }
      ],
      "stateMutability": "view",
      "type": "function"
    },
    {
      "inputs": [
        {
          "internalType": "uint256",
          "name": "tokenId",
          "type": "uint256"
        }
      ],
      "name": "getTokenInfo",
      "outputs": [
        {
          "internalType": "string",
          "name": "name",
          "type": "string"
        },
        {
          "internalType": "string",
          "name": "symbol",
          "type": "string"
        },
        {
          "internalType": "uint256",
          "name": "maxSupply",
          "type": "uint256"
        },
        {
          "internalType": "uint256",
          "name": "currentSupply",
          "type": "uint256"
        },
        {
          "internalType": "bool",
          "name": "transferable",
          "type": "bool"
        },
        {
          "internalType": "bool",
          "name": "active",
          "type": "bool"
        }
      ],
      "stateMutability": "view",
      "type": "function"
    },
    {
      "inputs": [
        {
          "internalType": "address",
          "name": "user",
          "type": "address"
        },
        {
          "internalType": "uint256",
          "name": "tokenId",
          "type": "uint256"
        }
      ],
      "name": "getUserTokens",
      "outputs": [
        {
          "internalType": "uint256[]",
          "name": "",
          "type": "uint256[]"
        }
      ],
      "stateMutability": "view",
      "type": "function"
    },
    {
      "inputs": [
        {
          "internalType": "bytes32",
          "name": "role",
          "type": "bytes32"
        },
        {
          "internalType": "address",
          "name": "account",
          "type": "address"
        }
      ],
      "name": "grantRole",
      "outputs": [],
      "stateMutability": "nonpayable",
      "type": "function"
    },
    {
      "inputs": [
        {
          "internalType": "bytes32",
          "name": "role",
          "type": "bytes32"
        },
        {
          "internalType": "address",
          "name": "account",
          "type": "address"
        }
      ],
      "name": "hasRole",
      "outputs": [
        {
          "internalType": "bool",
          "name": "",
          "type": "bool"
        }
      ],
      "stateMutability": "view",
      "type": "function"
    },
    {
      "inputs": [
        {
          "internalType": "string",
          "name": "_uri",
          "type": "string"
        },
        {
          "internalType": "address",
          "name": "admin",
          "type": "address"
        }
      ],
      "name": "initialize",
      "outputs": [],
      "stateMutability": "nonpayable",
      "type": "function"
    },
    {
      "inputs": [
        {
          "internalType": "address",
          "name": "account",
          "type": "address"
        },
        {
          "internalType": "address",
          "name": "operator",
          "type": "address"
        }
      ],
      "name": "isApprovedForAll",
      "outputs": [
        {
          "internalType": "bool",
          "name": "",
          "type": "bool"
        }
      ],
      "stateMutability": "view",
      "type": "function"
    },
    {
      "inputs": [
        {
          "internalType": "address",
          "name": "to",
          "type": "address"
        },
        {
          "internalType": "uint256",
          "name": "tokenId",
          "type": "uint256"
        },
        {
          "internalType": "uint256",
          "name": "amount",
          "type": "uint256"
        },
        {
          "internalType": "bytes",
          "name": "data",
          "type": "bytes"
        }
      ],
      "name": "mint",
      "outputs": [],
      "stateMutability": "nonpayable",
      "type": "function"
    },
    {
      "inputs": [
        {
          "internalType": "address",
          "name": "to",
          "type": "address"
        },
        {
          "internalType": "uint256[]",
          "name": "tokenIds",
          "type": "uint256[]"
        },
        {
          "internalType": "uint256[]",
          "name": "amounts",
          "type": "uint256[]"
        },
        {
          "internalType": "bytes32[]",
          "name": "orderIds",
          "type": "bytes32[]"
        },
        {
          "internalType": "bytes",
          "name": "data",
          "type": "bytes"
        }
      ],
      "name": "mintBatch",
      "outputs": [],
      "stateMutability": "nonpayable",
      "type": "function"
    },
    {
      "inputs": [
        {
          "internalType": "address",
          "name": "to",
          "type": "address"
        },
        {
          "internalType": "uint8",
          "name": "productType",
          "type": "uint8"
        },
        {
          "internalType": "uint256",
          "name": "",
          "type": "uint256"
        },
        {
          "internalType": "uint256",
          "name": "",
          "type": "uint256"
        },
        {
          "internalType": "uint256",
          "name": "",
          "type": "uint256"
        }
      ],
      "name": "mintCard",
      "outputs": [
        {
          "internalType": "uint256",
          "name": "",
          "type": "uint256"
        }
      ],
      "stateMutability": "nonpayable",
      "type": "function"
    },
    {
      "inputs": [
        {
          "internalType": "address",
          "name": "to",
          "type": "address"
        },
        {
          "internalType": "uint256",
          "name": "tokenId",
          "type": "uint256"
        },
        {
          "internalType": "uint256",
          "name": "amount",
          "type": "uint256"
        },
        {
          "internalType": "bytes32",
          "name": "orderId",
          "type": "bytes32"
        },
        {
          "internalType": "bytes",
          "name": "data",
          "type": "bytes"
        }
      ],
      "name": "mintWithOrderId",
      "outputs": [],
      "stateMutability": "nonpayable",
      "type": "function"
    },
    {
      "inputs": [],
      "name": "owner",
      "outputs": [
        {
          "internalType": "address",
          "name": "",
          "type": "address"
        }
      ],
      "stateMutability": "view",
      "type": "function"
    },
    {
      "inputs": [],
      "name": "pause",
      "outputs": [],
      "stateMutability": "nonpayable",
      "type": "function"
    },
    {
      "inputs": [],
      "name": "paused",
      "outputs": [
        {
          "internalType": "bool",
          "name": "",
          "type": "bool"
        }
      ],
      "stateMutability": "view",
      "type": "function"
    },
    {
      "inputs": [
        {
          "internalType": "bytes32",
          "name": "role",
          "type": "bytes32"
        },
        {
          "internalType": "address",
          "name": "callerConfirmation",
          "type": "address"
        }
      ],
      "name": "renounceRole",
      "outputs": [],
      "stateMutability": "nonpayable",
      "type": "function"
    },
    {
      "inputs": [
        {
          "internalType": "bytes32",
          "name": "role",
          "type": "bytes32"
        },
        {
          "internalType": "address",
          "name": "account",
          "type": "address"
        }
      ],
      "name": "revokeRole",
      "outputs": [],
      "stateMutability": "nonpayable",
      "type": "function"
    },
    {
      "inputs": [
        {
          "internalType": "address",
          "name": "from",
          "type": "address"
        },
        {
          "internalType": "address",
          "name": "to",
          "type": "address"
        },
        {
          "internalType": "uint256[]",
          "name": "ids",
          "type": "uint256[]"
        },
        {
          "internalType": "uint256[]",
          "name": "values",
          "type": "uint256[]"
        },
        {
          "internalType": "bytes",
          "name": "data",
          "type": "bytes"
        }
      ],
      "name": "safeBatchTransferFrom",
      "outputs": [],
      "stateMutability": "nonpayable",
      "type": "function"
    },
    {
      "inputs": [
        {
          "internalType": "address",
          "name": "from",
          "type": "address"
        },
        {
          "internalType": "address",
          "name": "to",
          "type": "address"
        },
        {
          "internalType": "uint256",
          "name": "id",
          "type": "uint256"
        },
        {
          "internalType": "uint256",
          "name": "value",
          "type": "uint256"
        },
        {
          "internalType": "bytes",
          "name": "data",
          "type": "bytes"
        }
      ],
      "name": "safeTransferFrom",
      "outputs": [],
      "stateMutability": "nonpayable",
      "type": "function"
    },
    {
      "inputs": [
        {
          "internalType": "address",
          "name": "operator",
          "type": "address"
        },
        {
          "internalType": "bool",
          "name": "approved",
          "type": "bool"
        }
      ],
      "name": "setApprovalForAll",
      "outputs": [],
      "stateMutability": "nonpayable",
      "type": "function"
    },
    {
      "inputs": [
        {
          "internalType": "address",
          "name": "operator",
          "type": "address"
        },
        {
          "internalType": "bool",
          "name": "authorized",
          "type": "bool"
        }
      ],
      "name": "setAuthorizedOperator",
      "outputs": [],
      "stateMutability": "nonpayable",
      "type": "function"
    },
    {
      "inputs": [
        {
          "internalType": "uint256",
          "name": "tokenId",
          "type": "uint256"
        },
        {
          "internalType": "string",
          "name": "name",
          "type": "string"
        },
        {
          "internalType": "string",
          "name": "symbol",
          "type": "string"
        },
        {
          "internalType": "uint256",
          "name": "maxSupply",
          "type": "uint256"
        },
        {
          "internalType": "bool",
          "name": "transferable",
          "type": "bool"
        },
        {
          "internalType": "bool",
          "name": "active",
          "type": "bool"
        }
      ],
      "name": "setTokenInfo",
      "outputs": [],
      "stateMutability": "nonpayable",
      "type": "function"
    },
    {
      "inputs": [
        {
          "internalType": "uint256",
          "name": "tokenId",
          "type": "uint256"
        },
        {
          "internalType": "string",
          "name": "tokenURI",
          "type": "string"
        }
      ],
      "name": "setTokenURI",
      "outputs": [],
      "stateMutability": "nonpayable",
      "type": "function"
    },
    {
      "inputs": [
        {
          "internalType": "address",
          "name": "treasuryAddress",
          "type": "address"
        }
      ],
      "name": "setTreasury",
      "outputs": [],
      "stateMutability": "nonpayable",
      "type": "function"
    },
    {
      "inputs": [
        {
          "internalType": "string",
          "name": "newuri",
          "type": "string"
        }
      ],
      "name": "setURI",
      "outputs": [],
      "stateMutability": "nonpayable",
      "type": "function"
    },
    {
      "inputs": [
        {
          "internalType": "bytes4",
          "name": "interfaceId",
          "type": "bytes4"
        }
      ],
      "name": "supportsInterface",
      "outputs": [
        {
          "internalType": "bool",
          "name": "",
          "type": "bool"
        }
      ],
      "stateMutability": "view",
      "type": "function"
    },
    {
      "inputs": [
        {
          "internalType": "uint256",
          "name": "",
          "type": "uint256"
        }
      ],
      "name": "tokenInfo",
      "outputs": [
        {
          "internalType": "string",
          "name": "name",
          "type": "string"
        },
        {
          "internalType": "string",
          "name": "symbol",
          "type": "string"
        },
        {
          "internalType": "uint256",
          "name": "maxSupply",
          "type": "uint256"
        },
        {
          "internalType": "bool",
          "name": "transferable",
          "type": "bool"
        },
        {
          "internalType": "bool",
          "name": "active",
          "type": "bool"
        }
      ],
      "stateMutability": "view",
      "type": "function"
    },
    {
      "inputs": [
        {
          "internalType": "uint256",
          "name": "",
          "type": "uint256"
        }
      ],
      "name": "tokenOwners",
      "outputs": [
        {
          "internalType": "address",
          "name": "",
          "type": "address"
        }
      ],
      "stateMutability": "view",
      "type": "function"
    },
    {
      "inputs": [],
      "name": "totalSupply",
      "outputs": [
        {
          "internalType": "uint256",
          "name": "",
          "type": "uint256"
        }
      ],
      "stateMutability": "view",
      "type": "function"
    },
    {
      "inputs": [
        {
          "internalType": "uint256",
          "name": "id",
          "type": "uint256"
        }
      ],
      "name": "totalSupply",
      "outputs": [
        {
          "internalType": "uint256",
          "name": "",
          "type": "uint256"
        }
      ],
      "stateMutability": "view",
      "type": "function"
    },
    {
      "inputs": [],
      "name": "treasury",
      "outputs": [
        {
          "internalType": "address",
          "name": "",
          "type": "address"
        }
      ],
      "stateMutability": "view",
      "type": "function"
    },
    {
      "inputs": [],
      "name": "unpause",
      "outputs": [],
      "stateMutability": "nonpayable",
      "type": "function"
    },
    {
      "inputs": [
        {
          "internalType": "uint256",
          "name": "tokenId",
          "type": "uint256"
        }
      ],
      "name": "uri",
      "outputs": [
        {
          "internalType": "string",
          "name": "",
          "type": "string"
        }
      ],
      "stateMutability": "view",
      "type": "function"
    },
    {
      "inputs": [
        {
          "internalType": "address",
          "name": "",
          "type": "address"
        },
        {
          "internalType": "uint256",
          "name": "",
          "type": "uint256"
        },
        {
          "internalType": "uint256",
          "name": "",
          "type": "uint256"
        }
      ],
      "name": "userTokens",
      "outputs": [
        {
          "internalType": "uint256",
          "name": "",
          "type": "uint256"
        }
      ],
      "stateMutability": "view",
      "type": "function"
    }
  ],
  "transactionHash": "0x1df0cfb8461ea94a5c1edfe36cea8f77f3cd996b0dda3cc3b30f8a44cfe79b7a",
  "args": [],
  "numDeployments": 1,
  "solcInputHash": "f01db9d8ae6e5e0738d4522dfad26953",
  "bytecode": "0x608080604052346100165761404b908161001c8239f35b600080fdfe6080604052600436101561001257600080fd5b60003560e01c8062fdd58e146102d657806301ffc9a7146102d157806302fe5305146102cc5780630e89341c146102c7578063124d91e5146102c2578063162094c4146102bd57806318160ddd146102b8578063181d989b146102b3578063221193e3146102ae578063248a9ca3146102a95780632962d238146102a45780632eb2c2d61461029f5780632f2ff15d1461029a57806336568abe146102955780633f4ba83a146102905780634e1273f41461028b5780634f558e79146102865780635c975abb1461028157806361d027b31461027c5780636b20c45414610277578063731133e914610272578063788f737d1461026d5780637ab4339d146102685780637f345710146102635780638456cb591461025e5780638b934440146102595780638c7a63ae146102545780638da5cb5b1461024f57806391d148541461024a57806395b0376e14610245578063a217fddf14610240578063a22cb4651461023b578063ace8eb8714610236578063bd85b03914610231578063cc33c8751461022c578063cfdc352214610227578063d539139314610222578063d547741f1461021d578063e63ab1e914610218578063e985e9c514610213578063f0f442601461020e578063f242432a14610209578063f5298aca146102045763f8a14f46146101ff57600080fd5b612036565b61201f565b611f26565b611ebf565b611e8e565b611e53565b611e07565b611dde565b611d5a565b611ccf565b611bb3565b611a3e565b6119a2565b611986565b611856565b6117f7565b6117ce565b611727565b6116d0565b6115b4565b611579565b611435565b6113b7565b611225565b611146565b61111d565b6110ed565b6110b2565b610ff8565b610f3c565b610ef5565b610ea9565b610d8b565b610d17565b610ccc565b610bed565b610b37565b610ad3565b61095b565b6107d0565b610685565b610524565b61039e565b610320565b600435906001600160a01b03821682036102f157565b600080fd5b602435906001600160a01b03821682036102f157565b35906001600160a01b03821682036102f157565b346102f15760403660031901126102f157602061038361033e6102db565b6024356000527f88be536d5240c274a3b1d3a1be54482fd9caa294f08c62a7cde569f49a3c4500835260406000209060018060a01b0316600052602052604060002090565b54604051908152f35b6001600160e01b03198116036102f157565b346102f15760203660031901126102f15760206004356103bd8161038c565b63ffffffff60e01b16637965db0b60e01b81149081156103e3575b506040519015158152f35b636cdb3d1360e11b811491508115610415575b8115610404575b50386103d8565b6301ffc9a760e01b149050386103fd565b6303a24d0760e21b811491506103f6565b634e487b7160e01b600052604160045260246000fd5b60a081019081106001600160401b0382111761045757604052565b610426565b602081019081106001600160401b0382111761045757604052565b604081019081106001600160401b0382111761045757604052565b90601f801991011681019081106001600160401b0382111761045757604052565b604051906104c08261043c565b565b6001600160401b03811161045757601f01601f191660200190565b81601f820112156102f1578035906104f4826104c2565b926105026040519485610492565b828452602083830101116102f157816000926020809301838601378301015290565b346102f1576020806003193601126102f1576001600160401b03906004358281116102f1576105579036906004016104dd565b91610560612970565b825190811161045757600080516020613ff68339815191529161058c826105878554611bf2565b612177565b602090601f83116001146105ce575081906105bf93946000926105c3575b50508160011b916000199060031b1c19161790565b9055005b0151905038806105aa565b90601f198316946105dd61167d565b926000905b878210610619575050836001959610610600575b505050811b019055005b015160001960f88460031b161c191690553880806105f6565b806001859682949686015181550195019301906105e2565b919082519283825260005b84811061065d575050826000602080949584010152601f8019910116010190565b60208183018101518483018201520161063c565b906020610682928181520190610631565b90565b346102f1576020806003193601126102f1576000906004358252600191600182526106b260408220611c2c565b8051909290156106d45750506106d091505b60405191829182610671565b0390f35b909150604051918093600080516020613ff6833981519152918254926106f984611bf2565b8087529360018116908115610782575060011461072a575b5050505050610725816106d0930382610492565b6106c4565b81529294507ff429cb5e2ec84cbb765e76b31964a56ccde03e7a6122d6cc4afb19edc55edeed5b82841061076f57505050816106d09361072592820101933880610711565b8054858501870152928501928101610751565b60ff19168787015250505050151560051b8201019150610725816106d03880610711565b60609060031901126102f1576004356001600160a01b03811681036102f157906024359060443590565b346102f1576108466107e1366107a6565b91816001600160a01b0382163381148015610944575b80156108e0575b610807906120b5565b6001600160a01b03831660009081526005602052604090206108359083905b90600052602052604060002090565b805480610848575b505050506128d9565b005b7fe06aa145e36ec4b8740f4896d15faf3815dd20984c287e8c36f9e34b32ab9e7e9161089561088f61088561087f6108d495612116565b846116b3565b90549060031b1c90565b91612137565b6108bc6108ac826000526006602052604060002090565b80546001600160a01b0319169055565b60408051898152602081019290925290918291820190565b0390a38138808061083d565b50600080516020613f36833981519152600052600080516020613f5683398151915260205261080761093d61093633600080516020613f168339815191525b9060018060a01b0316600052602052604060002090565b5460ff1690565b90506107fe565b5060ff6109543361091f86610afe565b54166107f7565b346102f15760403660031901126102f1576001600160401b036004356024358281116102f15761098f9036906004016104dd565b610997612970565b6000928284526001906020600160205260408620928451928311610457576109c9836109c38654611bf2565b866121f6565b602091601f8411600114610a3f57505091610a20827fbf032ae7dcb484f99f9f3977ba9cde222756e7073de74244ceb89de862569bdb9593610a2e958991610a34575b508160011b916000199060031b1c19161790565b905560405191829182610671565b0390a280f35b905084015138610a0c565b9190601f19841690610a5686600052602060002090565b9389915b838310610abc5750505092610a2e9492600192827fbf032ae7dcb484f99f9f3977ba9cde222756e7073de74244ceb89de862569bdb989610610aa3575b5050811b0190556106c4565b85015160001960f88460031b161c191690553880610a97565b888501518655948501949381019391810191610a5a565b346102f15760003660031901126102f1576020600080516020613fb683398151915254604051908152f35b6001600160a01b031660009081527f88be536d5240c274a3b1d3a1be54482fd9caa294f08c62a7cde569f49a3c45016020526040902090565b346102f15760203660031901126102f1576001600160a01b03610b586102db565b166000526002602052602060ff604060002054166040519015158152f35b6001600160401b0381116104575760051b60200190565b9080601f830112156102f1576020908235610ba781610b76565b93610bb56040519586610492565b81855260208086019260051b8201019283116102f157602001905b828210610bde575050505090565b81358152908301908301610bd0565b346102f15760a03660031901126102f157610c066102db565b6001600160401b03906024358281116102f157610c27903690600401610b8d565b6044358381116102f157610c3f903690600401610b8d565b606435918483116102f157366023840112156102f1578260040135610c6381610b76565b93610c716040519586610492565b8185526020916024602087019160051b830101913683116102f157602401905b828210610cbd57505050506084359485116102f157610cb76108469536906004016104dd565b93612315565b81358152908301908301610c91565b346102f15760203660031901126102f157600435600052600080516020613f568339815191526020526020600160406000200154604051908152f35b6024359081151582036102f157565b346102f15760c03660031901126102f1576001600160401b036024358181116102f157610d489036906004016104dd565b906044359081116102f157610d619036906004016104dd565b9060843580151581036102f15760a4359182151583036102f15761084693606435916004356125a6565b346102f15760a03660031901126102f157610da46102db565b610dac6102f6565b90604435916001600160401b03908184116102f157610dd060049436908601610b8d565b906064358381116102f157610de89036908701610b8d565b926084359081116102f157610e0090369087016104dd565b936001600160a01b03808216903382141580610e91575b610e6057831615610e485715610e31576108469550613501565b604051626a0d4560e21b8152600081880152602490fd5b604051632bfa23e760e11b8152600081890152602490fd5b6040805163711bec9160e11b815233818b019081526001600160a01b038616602082015290918291010390fd5b0390fd5b5060ff610ea13361091f86610afe565b541615610e17565b346102f15760403660031901126102f157610846600435610ec86102f6565b9080600052600080516020613f56833981519152602052610ef0600160406000200154612ad0565b612de6565b346102f15760403660031901126102f157610f0e6102f6565b336001600160a01b03821603610f2a5761084690600435612ecd565b60405163334bd91960e11b8152600490fd5b346102f15760003660031901126102f157610f556129ec565b600080516020613f76833981519152805460ff811615610fa15760ff191690557f5db9ee0a495bf2e6ff9c91a7834c1ba4fdd244a5e8aa4e537bd38aeae4b073aa6020604051338152a1005b604051638dfc202b60e01b8152600490fd5b90815180825260208080930193019160005b828110610fd3575050505090565b835185529381019392810192600101610fc5565b906020610682928181520190610fb3565b346102f15760403660031901126102f1576004356001600160401b038082116102f157366023830112156102f157816004013561103481610b76565b926110426040519485610492565b8184526020916024602086019160051b830101913683116102f157602401905b82821061109b57856024358681116102f1576106d09161108961108f923690600401610b8d565b906126c9565b60405191829182610fe7565b8380916110a78461030c565b815201910190611062565b346102f15760203660031901126102f157600435600052600080516020613f9683398151915260205260206040600020541515604051908152f35b346102f15760003660031901126102f157602060ff600080516020613f7683398151915254166040519015158152f35b346102f15760003660031901126102f1576003546040516001600160a01b039091168152602090f35b346102f15760603660031901126102f15761115f6102db565b6001600160401b036024358181116102f15761117f903690600401610b8d565b906044359081116102f157611198903690600401610b8d565b906001600160a01b038316338114158061120d575b6111e657156111ce576108469260006040516111c88161045c565b526132d6565b604051626a0d4560e21b815260006004820152602490fd5b60405163711bec9160e11b81523360048201526001600160a01b0385166024820152604490fd5b5060ff61121d3361091f87610afe565b5416156111ad565b346102f15760803660031901126102f15761123e6102db565b602435604435916064356001600160401b0381116102f1576112649036906004016104dd565b9061126d612a44565b611275612afe565b611289836000526000602052604060002090565b60038101546112a09060081c60ff161590565b1590565b61139e576112ad8461161b565b549060026112bb8784612564565b910154809111611374576112f08587600080516020613ef683398151915287876112e58186612b44565b958692858784612f46565b61131982611314876108268560018060a01b03166000526005602052604060002090565b612571565b61135081611331846000526006602052604060002090565b80546001600160a01b0319166001600160a01b03909216919091179055565b6040805194855260208501929092526001600160a01b03169290819081015b0390a4005b859161137f9161212a565b604051639e4c446160e01b815260048101929092526024820152604490fd5b60405163f3f6133960e01b815260048101859052602490fd5b346102f15760403660031901126102f1576113d06102db565b7fc176fcf7d48a6aca0d96d3b3201f7add47c4af04ce9a51f5f4eb15d528c46e2160206113fb610d08565b92611404612a78565b6001600160a01b031660008181526002835260409020805460ff191660ff86151516179055926040519015158152a2005b346102f15760403660031901126102f1576001600160401b036004358181116102f1576114669036906004016104dd565b61146e6102f6565b600080516020613fd6833981519152549260ff8460401c1615931680159081611571575b6001149081611567575b15908161155e575b5061154c57600080516020613fd6833981519152805467ffffffffffffffff191660011790556114d891836115275761276e565b6114de57005b600080516020613fd6833981519152805460ff60401b19169055604051600181527fc7f505b2f371ae2175ee4913f4499e1f2633a7b5936321eed1cdaeb6115181d290602090a1005b600080516020613fd6833981519152805460ff60401b1916600160401b17905561276e565b60405163f92ee8a960e01b8152600490fd5b905015386114a4565b303b15915061149c565b849150611492565b346102f15760003660031901126102f15760206040517f7804d923f43a17d325d77e781528e0793b2edd9890ab45fc64efd7b4b427744c8152f35b346102f15760003660031901126102f1576115cd6129ec565b6115d5612afe565b600080516020613f76833981519152600160ff198254161790557f62e78cea01bee320cd4e420270b5ea74000d11b0c9f74754ebdbfc544b05a2586020604051338152a1005b600052600080516020613f96833981519152602052604060002090565b6000527f88be536d5240c274a3b1d3a1be54482fd9caa294f08c62a7cde569f49a3c4500602052604060002090565b634e487b7160e01b600052603260045260246000fd5b600080516020613ff68339815191526000527ff429cb5e2ec84cbb765e76b31964a56ccde03e7a6122d6cc4afb19edc55edeed90565b80548210156116cb5760005260206000200190600090565b611667565b346102f1576116de366107a6565b919060009160018060a01b031682526005602052604082209082526020526040812090815483101561172457602061171684846116b3565b90546040519160031b1c8152f35b80fd5b346102f15760203660031901126102f157600435600052600060205261179c60406000206002810154600080516020613f9683398151915260205260ff6040600020546003840154906117aa611788600161178188611c2c565b9701611c2c565b60405197889760c0895260c0890190610631565b908782036020890152610631565b93604086015260608501528181161515608085015260081c16151560a08301520390f35b346102f15760003660031901126102f1576004546040516001600160a01b039091168152602090f35b346102f15760403660031901126102f157602060ff61184a6118176102f6565b600435600052600080516020613f56833981519152845260406000209060018060a01b0316600052602052604060002090565b54166040519015158152f35b346102f15760a03660031901126102f15761186f6102db565b6024356044356084356001600160401b0381116102f1576118949036906004016104dd565b61189c612a44565b6118a4612afe565b6118b8836000526000602052604060002090565b60038101546118cb9060081c60ff161590565b61139e576118d88461161b565b549060026118e68584612564565b91015480911161197c57505061136f600080516020613ef68339815191529161191b6119128787612b44565b91858789612f46565b61193f81611314876108268a60018060a01b03166000526005602052604060002090565b61195786611331836000526006602052604060002090565b604080519485526020850191909152606435956001600160a01b031693918291820190565b61137f925061212a565b346102f15760003660031901126102f157602060405160008152f35b346102f15760403660031901126102f1576119bb6102db565b6119c3610d08565b6001600160a01b038216918215611a2657816119e56119f69261091f33610afe565b9060ff801983541691151516179055565b60405190151581527f17307eab39ab6107e8899845ad3d59bd9653f200f220920489ca2b5937696c3160203392a3005b60405162ced3e160e81b815260006004820152602490fd5b346102f15760a03660031901126102f157611a576102db565b60243560ff81168091036102f157611a7e90611a71612a44565b611a79612afe565b612556565b611a92816000526000602052604060002090565b6003810154611aa59060081c60ff161590565b611b9a57611ab28261161b565b54906002611abf83612556565b910154809111611b67576106d08385611ad88183612b44565b918291611aed611ae66128c6565b8383612f07565b611b1183611314846108268560018060a01b03166000526005602052604060002090565b611b2981611331856000526006602052604060002090565b6040805160018152602081018590526001600160a01b039290921691600080516020613ef68339815191529190a46040519081529081906020820190565b610e8d91611b749161212a565b604051639e4c446160e01b81526001600482015260248101919091529081906044820190565b60405163f3f6133960e01b815260048101839052602490fd5b346102f15760203660031901126102f1576020611bea600435600052600080516020613f9683398151915260205260406000205490565b604051908152f35b90600182811c92168015611c22575b6020831014611c0c57565b634e487b7160e01b600052602260045260246000fd5b91607f1691611c01565b90604051918260008254611c3f81611bf2565b90818452602094600191600181169081600014611cad5750600114611c6e575b5050506104c092500383610492565b600090815285812095935091905b818310611c955750506104c09350820101388080611c5f565b85548884018501529485019487945091830191611c7c565b925050506104c094925060ff191682840152151560051b820101388080611c5f565b346102f15760203660031901126102f1576004356000526000602052611d2d6040600020611cfc81611c2c565b9060ff611d0b60018301611c2c565b611d3b600360028501549401549160405196879660a0885260a0880190610631565b908682036020880152610631565b9260408501528181161515606085015260081c16151560808301520390f35b346102f15760403660031901126102f157611d736102db565b60009060018060a01b0316815260206005602052604082206024358352602052604082209160405180926020855492838152019483526020832092905b828210611dc7576106d08561108f81890382610492565b835486529485019460019384019390910190611db0565b346102f15760003660031901126102f1576020604051600080516020613f368339815191528152f35b346102f15760403660031901126102f157610846600435611e266102f6565b9080600052600080516020613f56833981519152602052611e4e600160406000200154612ad0565b612ecd565b346102f15760003660031901126102f15760206040517f65d7a28e3265b37a6474929f336521b332c1681b933f6cb9f3376673440d862a8152f35b346102f15760403660031901126102f157602060ff61184a611eae6102db565b61091f611eb96102f6565b91610afe565b346102f15760203660031901126102f157611ed86102db565b611ee0612a78565b600380546001600160a01b038381166001600160a01b0319831681179093551680611f16575b50611f0d57005b61084690612b99565b611f1f90612e20565b5038611f06565b346102f15760a03660031901126102f157611f3f6102db565b611f476102f6565b6084356001600160401b0381116102f157611f669036906004016104dd565b906001600160a01b03838116903382141580612007575b611fe057821615611fc757156111ce5761084692611fbf6064356044359160405192600184526020840152604083019160018352606084015260808301604052565b929091613501565b604051632bfa23e760e11b815260006004820152602490fd5b60405163711bec9160e11b81523360048201526001600160a01b0386166024820152604490fd5b5060ff6120173361091f88610afe565b541615611f7d565b346102f157610846612030366107a6565b916128d9565b346102f15760203660031901126102f1576004356000526006602052602060018060a01b0360406000205416604051908152f35b6120b1916000527f88be536d5240c274a3b1d3a1be54482fd9caa294f08c62a7cde569f49a3c450060205260406000209060018060a01b0316600052602052604060002090565b5490565b156120bc57565b606460405162461bcd60e51b815260206004820152602060248201527f43616c6c6572206973206e6f74206f776e6572206e6f7220617070726f7665646044820152fd5b634e487b7160e01b600052601160045260246000fd5b60001981019190821161212557565b612100565b9190820391821161212557565b8054908115612161576000199182019161215183836116b3565b909182549160031b1b1916905555565b634e487b7160e01b600052603160045260246000fd5b601f8111612183575050565b600090600080516020613ff68339815191526000527ff429cb5e2ec84cbb765e76b31964a56ccde03e7a6122d6cc4afb19edc55edeed906020601f850160051c830194106121ec575b601f0160051c01915b8281106121e157505050565b8181556001016121d5565b90925082906121cc565b90601f811161220457505050565b6000916000526020600020906020601f850160051c83019410612242575b601f0160051c01915b82811061223757505050565b81815560010161222b565b9092508290612222565b91909182516001600160401b038111610457576122738161226d8454611bf2565b846121f6565b602080601f83116001146122aa575081906122a69394956000926105c35750508160011b916000199060031b1c19161790565b9055565b90601f198316956122c085600052602060002090565b926000905b8882106122fd575050836001959697106122e4575b505050811b019055565b015160001960f88460031b161c191690553880806122da565b806001859682949686015181550195019301906122c5565b90949192612321612a44565b612329612afe565b61233686518251146124fe565b60005b865181101561240f5761236061234f8289612542565b516000526000602052604060002090565b60038101546123739060081c60ff161590565b6123e2576123a3612384838a612542565b51600052600080516020613f9683398151915260205260406000205490565b60026123b96123b2858a612542565b5183612564565b9201548092116123cd575050600101612339565b6123db61137f929388612542565b519261212a565b610e8d6123ef838a612542565b5160405163f3f6133960e01b815260048101919091529081906024820190565b509092919361242090838786612b29565b60005b85518110156124f657806124438561243d6001948a612542565b51612b44565b61247f816113146124668960018060a01b03166000526005602052604060002090565b612470868d612542565b51600052602052604060002090565b61249786611331836000526006602052604060002090565b6124a18289612542565b516124ac8387612542565b51600080516020613ef68339815191526124ed6124c98689612542565b5194604051918291898060a01b038d16958360209093929193604081019481520152565b0390a401612423565b505050509050565b1561250557565b60405162461bcd60e51b8152602060048201526015602482015274082e4e4c2f240d8cadccee8d040dad2e6dac2e8c6d605b1b6044820152606490fd5b80518210156116cb5760209160051b010190565b906001820180921161212557565b9190820180921161212557565b8054600160401b8110156104575761258e916001820181556116b3565b819291549060031b91821b91600019901b1916179055565b94929091936125b3612a78565b856000526000602052604060002093600080516020613f96833981519152602052604060002054831061268f577f05fd36ce0d7cc8a4d59ba28b9f2d721da5521ab8725daa22236a172f71e3e2219561265b61267d926003886126198961266f9b61224c565b612626856001830161224c565b8760028201550161264386829060ff801983541691151516179055565b9061ff00825491151560081b169061ff001916179055565b604051958695608087526080870190610631565b908582036020870152610631565b916040840152151560608301520390a2565b60405162461bcd60e51b81526020600482015260126024820152714d617820737570706c7920746f6f206c6f7760701b6044820152606490fd5b9190918051835180820361274c5750508051906126fe6126e883610b76565b926126f66040519485610492565b808452610b76565b60209190601f1901368484013760005b8151811015612744578061273360019260051b85808287010151918a0101519061206a565b61273d8287612542565b520161270e565b509193505050565b604051635b05999160e01b815260048101919091526024810191909152604490fd5b91906127786135f6565b6127806135f6565b82516001600160401b03811161045757600080516020613ff6833981519152906127ae816105878454611bf2565b602080601f8311600114612859575090806127e49261285196976000926105c35750508160011b916000199060031b1c19161790565b90555b6127ef6135f6565b6127f76135f6565b6127ff6135f6565b6128076135f6565b61281081612c4f565b5061281a81612d04565b5061282481612b99565b5061282e81612d75565b5060018060a01b03166bffffffffffffffffffffffff60a01b6004541617600455565b6104c061319e565b90601f1983169661286861167d565b926000905b8982106128ae57505090839291600194612851989910612895575b505050811b0190556127e7565b015160001960f88460031b161c19169055388080612888565b8060018596829496860151815501950193019061286d565b604051906128d38261045c565b60008252565b906001600160a01b0382163381141580612958575b61293157156111ce576104c09261292260405192600184526020840152604083019160018352606084015260808301604052565b9160006040516111c88161045c565b60405163711bec9160e11b81523360048201526001600160a01b0384166024820152604490fd5b5060ff6129683361091f86610afe565b5416156128ee565b3360009081527fe1c8d3544115cceba2e183c14b79d0b69552b189207c20f3bf1ce18a22cdecb5602052604090207f7804d923f43a17d325d77e781528e0793b2edd9890ab45fc64efd7b4b427744c9060ff905b5416156129ce5750565b6044906040519063e2517d3f60e01b82523360048301526024820152fd5b3360009081527f75442b0a96088b5456bc4ed01394c96a4feec0f883c9494257d76b96ab1c9b6b602052604090207f65d7a28e3265b37a6474929f336521b332c1681b933f6cb9f3376673440d862a9060ff906129c4565b336000908152600080516020613f1683398151915260205260409020600080516020613f368339815191529060ff906129c4565b3360009081527fb7db2dd08fcb62d0c9e08c51941cae53c267786a0b75803fb7960902fc8ef97d602052604090205460ff1615612ab157565b60405163e2517d3f60e01b815233600482015260006024820152604490fd5b6000818152600080516020613f5683398151915260209081526040808320338452909152902060ff906129c4565b60ff600080516020613f768339815191525416612b1757565b60405163d93c066560e01b8152600490fd5b9291906001600160a01b03841615611fc7576104c09361339b565b906007546000198114612125576001810160075560405191602083019384526bffffffffffffffffffffffff199060601b166040830152426054830152607482015260748152612b938161043c565b51902090565b6001600160a01b0381166000908152600080516020613f1683398151915260205260408120600080516020613f3683398151915290600080516020613f568339815191529060ff905b5416612c4857818352602090815260408084206001600160a01b038616600090815292529020805460ff1916600117905533926001600160a01b0316917f2f8788117e7eff1d82e926ec794901d17c78024a50270940304540a733656f0d9080a4600190565b5050905090565b6001600160a01b03811660009081527fb7db2dd08fcb62d0c9e08c51941cae53c267786a0b75803fb7960902fc8ef97d6020526040812054600080516020613f568339815191529060ff16612cfe57818052602090815260408083206001600160a01b038516600090815292529020805460ff1916600117905533916001600160a01b0316907f2f8788117e7eff1d82e926ec794901d17c78024a50270940304540a733656f0d8180a4600190565b50905090565b6001600160a01b03811660009081527f75442b0a96088b5456bc4ed01394c96a4feec0f883c9494257d76b96ab1c9b6b602052604081207f65d7a28e3265b37a6474929f336521b332c1681b933f6cb9f3376673440d862a90600080516020613f568339815191529060ff90612be2565b6001600160a01b03811660009081527fe1c8d3544115cceba2e183c14b79d0b69552b189207c20f3bf1ce18a22cdecb5602052604081207f7804d923f43a17d325d77e781528e0793b2edd9890ab45fc64efd7b4b427744c90600080516020613f568339815191529060ff90612be2565b6000818152600080516020613f56833981519152602081815260408084206001600160a01b0387168552909152822091929160ff90612be2565b6001600160a01b0381166000908152600080516020613f1683398151915260205260408120600080516020613f3683398151915290600080516020613f568339815191529060ff905b541615612c4857818352602090815260408084206001600160a01b038616600090815292529020805460ff1916905533926001600160a01b0316917ff6391f5c32d9c69d2a47ea670b442974b53935d1edc7fd64eb21e047a839171b9080a4600190565b6000818152600080516020613f56833981519152602081815260408084206001600160a01b0387168552909152822091929160ff90612e69565b9091906001600160a01b03811615611fc7576104c09260405190600182526020820152604081019160018352600160608301526080820160405261339b565b919291906001600160a01b03821615611fc7576104c093612f8460405192600184526020840152604083019160018352606084015260808301604052565b9161339b565b60405190612f9782610477565b600b82526a14da5b1d995c8810d85c9960aa1b6020830152565b60405190612fbe82610477565b600682526529a4a62b22a960d11b6020830152565b919080519283516001600160401b03811161045757612ff68161226d8454611bf2565b602080601f8311600114613093575061307d92613034836080946003946104c0999a6000926105c35750508160011b916000199060031b1c19161790565b81555b61304860208601516001830161224c565b6040850151600282015501926130766130646060830151151590565b859060ff801983541691151516179055565b0151151590565b815461ff00191690151560081b61ff0016179055565b90601f198316966130a985600052602060002090565b926000905b8982106130f65750508360039361307d96936001936080976104c09b9c106130de575b505050811b018155613037565b015160001983871b60f8161c191690553880806130d1565b806001859682949686015181550195019301906130ae565b6040519061311b82610477565b600982526811dbdb190810d85c9960ba1b6020830152565b6040519061314082610477565b600482526311d3d31160e21b6020830152565b6040519061316082610477565b600c82526b111a585b5bdb990810d85c9960a21b6020830152565b6040519061318882610477565b60078252661112505353d39160ca1b6020830152565b6132066131a96104b3565b6131b1612f8a565b81526131bb612fb1565b602082015261271060408201526000606082015260016080820152600160009081526020527fada5013122d395ba3c54772283fb069b10426056ef8ca54750cb9bb552a59e7d612fd3565b61326e6132116104b3565b61321961310e565b8152613223613133565b602082015261138860408201526000606082015260016080820152600260009081526020527fabbb5caa7dda850e60932de0934eb1f9d0f59695050f761dc64e443e5030a569612fd3565b6104c06132796104b3565b613281613153565b815261328b61317b565b60208201526103e860408201526000606082015260016080820152600360009081526020527f101e368776582e57ab3d116ffe2517c0a585cd5b23174b01e275c2d8329c3d83612fd3565b929091926132e2612afe565b60009160005b845181101561338d576001600160a01b038316151580613386575b613310575b6001016132e8565b61332d61129c600361332561234f858a612542565b015460ff1690565b80613364575b1561330857613345610e8d9186612542565b516040516212242560e91b815260048101919091529081906024820190565b503360009081526002602052604090206133819061129c90610936565b613333565b5083613303565b50939150916104c09261394d565b9392916133a6612afe565b60005b82518110156133ba576001016133a9565b509091926133c9828487613b0f565b600094855b8451871015613411576134096001918860051b906133f7602080848a010151938a01015161161b565b613402838254612564565b9055612564565b9601956133ce565b909493919550613446613434600080516020613fb6833981519152928354612564565b600080516020613fb683398151915255565b6001600160a01b03851615908161349b575b5015613465575b50505050565b805160010361348c57906020806134839593015191015191336138e1565b3880808061345f565b61349693336136e7565b613483565b94909591936000966000975b86518910156134dc576001908960051b906134cd602080848b010151938b01015161161b565b828154039055019801976134a7565b9092966134fb92969498505403600080516020613fb683398151915255565b38613458565b91939490929461350f612afe565b60005b8551811015613598576001600160a01b038481161515908161358c575b5061353d575b600101613512565b61355261129c600361332561234f858b612542565b8061356a575b1561353557613345610e8d9187612542565b503360009081526002602052604090206135879061129c90610936565b613558565b9050851615153861352f565b50929490946135a982868386613a27565b6001600160a01b0381166135bf575b5050505050565b84516001036135e5576020806135db9601519201519233613916565b38808080806135b8565b6135f1949192336137e2565b6135db565b60ff600080516020613fd68339815191525460401c161561361357565b604051631afcd79f60e31b8152600490fd5b908160209103126102f157516106828161038c565b9261366961068295936136779360018060a01b031686526000602087015260a0604087015260a0860190610fb3565b908482036060860152610fb3565b916080818403910152610631565b93906106829593613669916136779460018060a01b03809216885216602087015260a0604087015260a0860190610fb3565b3d156136e2573d906136c8826104c2565b916136d66040519384610492565b82523d6000602084013e565b606090565b9293919093843b6136f9575050505050565b60209161371c604051948593849363bc197c8160e01b988986526004860161363a565b038160006001600160a01b0388165af1600091816137b1575b5061377457826137436136b7565b805191908261376d57604051632bfa23e760e11b81526001600160a01b0383166004820152602490fd5b6020915001fd5b6001600160e01b0319160361378e575038808080806135b8565b604051632bfa23e760e11b81526001600160a01b03919091166004820152602490fd5b6137d491925060203d6020116137db575b6137cc8183610492565b810190613625565b9038613735565b503d6137c2565b939290949194853b6137f7575b505050505050565b61381a602093604051958694859463bc197c8160e01b998a875260048701613685565b038160006001600160a01b0388165af16000918161385c575b5061384157826137436136b7565b6001600160e01b0319160361378e57503880808080806137ef565b61387691925060203d6020116137db576137cc8183610492565b9038613833565b909260a0926106829594600180861b0316835260006020840152604083015260608201528160808201520190610631565b919261068295949160a094600180871b038092168552166020840152604083015260608201528160808201520190610631565b9293919093843b6138f3575050505050565b60209161371c604051948593849363f23a6e6160e01b988986526004860161387d565b939290949194853b61392a57505050505050565b61381a602093604051958694859463f23a6e6160e01b998a8752600487016138ae565b92919261395b848383613c1f565b6001600160a01b0316156139cf575b6000805b82518210156139a3576001908260051b90613994602080848a010151938701015161161b565b8281540390550191019061396e565b9150506104c0919250600080516020613fb68339815191525403600080516020613fb683398151915255565b6000805b8251821015613a04576139fc6001918360051b906133f7602080848b010151938801015161161b565b9101906139d3565b613a22915061343490600080516020613fb683398151915254612564565b61396a565b90939293613a3785848385613d6f565b6001600160a01b0391821615613a8c575b1615613a5357509050565b6000805b82518210156139a3576001908260051b90613a7d602080848a010151938701015161161b565b82815403905501910190613a57565b92600091825b8451841015613ac357613abb6001918560051b906133f7602080848d010151938a01015161161b565b930192613a92565b613ae591935061343490959295600080516020613fb683398151915254612564565b613a48565b9091613b0161068293604084526040840190610fb3565b916020818403910152610fb3565b919091825182519081810361274c57505060005b8351811015613b7f57600581901b84810160209081015191850101516001929184906001600160a01b038216613b5d575b50505001613b23565b613b759161091f613b6d92611638565b918254612564565b9055388381613b54565b50916001815114600014613be0576020908101519181015160408051938452918301526001600160a01b039092169160009133917fc3d58168c5ae7397731d063d5bbf3d657854427343f4c083240f7aacaa2d0f629190819081015b0390a4565b7f4a39dc06d4c0dbc64b70af90fd698a233a518aa5d07e595d983b8c0526c8f7fb613bdb6000939460405191829160018060a01b031696339583613aea565b929190805182519081810361274c57505060005b8151811015613cd057600581901b82810160209081015191850101516001600160a01b038716613c68575b5050600101613c33565b613c758761091f84611638565b54818110613c99578761091f6001959493613c91930393611638565b559038613c5e565b6040516303dee4c560e01b81526001600160a01b038916600482015260248101919091526044810182905260648101839052608490fd5b5090600092939160018151148414613d30576020908101519181015160408051938452918301526001600160a01b039092169133917fc3d58168c5ae7397731d063d5bbf3d657854427343f4c083240f7aacaa2d0f629181908101613bdb565b6040516001600160a01b039093169233927f4a39dc06d4c0dbc64b70af90fd698a233a518aa5d07e595d983b8c0526c8f7fb928291613bdb9183613aea565b939291805183519081810361274c57505060005b8151811015613e5057600581901b82810160209081015191860101516001600160a01b0392918590898516613de0575b6001948216613dc6575b50505001613d83565b613dd69161091f613b6d92611638565b9055388481613dbd565b9192939050613df28961091f84611638565b54838110613e195791869184600196959403613e118c61091f85611638565b559450613db3565b6040516303dee4c560e01b81526001600160a01b038b16600482015260248101919091526044810184905260648101839052608490fd5b508051939493919291600103613eb2576020908101519181015160408051938452918301526001600160a01b03928316939092169133917fc3d58168c5ae7397731d063d5bbf3d657854427343f4c083240f7aacaa2d0f629181908101613bdb565b6040516001600160a01b03938416949093169233927f4a39dc06d4c0dbc64b70af90fd698a233a518aa5d07e595d983b8c0526c8f7fb928291613bdb9183613aea56fe6bdfbf7843bc606f46a1cf98f0f452370e9680018f8682541746e340433e46c5549fe2656c81d2947b3b913f0a53b9ea86c71e049f3a1b8aa23c09a8a05cb8d49f2df0fed2c77648de5860a4cc508cd0818c85b8b8a1ab4ceeef8d981c8956a602dd7bc7dec4dceedda775e58dd541e08a116c6c53815c0bd028192f7b626800cd5ed15c6e187e77e9aee88184c21f4f2182ab5827cb3b7e07fbedcd63f033004a593662ee04d27b6a00ebb31be7fe0c102c2ade82a7c5d764f2df05dc4e28004a593662ee04d27b6a00ebb31be7fe0c102c2ade82a7c5d764f2df05dc4e2801f0c57e16840df040f15088dc2f81fe391c3923bec73e23a9662efc9c229c6a0088be536d5240c274a3b1d3a1be54482fd9caa294f08c62a7cde569f49a3c4502a2646970667358221220533826f098fbf13a627e17ed876c69ca4d3291b887712475f8dbe5faeec4419564736f6c63430008180033",
  "devdoc": {
    "details": "ERC1155 NFT -   Token ID : - 1:  (Silver Card) - 2:  (Gold Card)   - 3:  (Diamond Card)  : - ERC1155 - NFT -  -  - ",
    "errors": {
      "AccessControlBadConfirmation()": [
        {
          "details": "The caller of a function is not the expected one. NOTE: Don't confuse with {AccessControlUnauthorizedAccount}."
        }
      ],
      "AccessControlUnauthorizedAccount(address,bytes32)": [
        {
          "details": "The `account` is missing a role."
        }
      ],
      "ERC1155InsufficientBalance(address,uint256,uint256,uint256)": [
        {
          "details": "Indicates an error related to the current `balance` of a `sender`. Used in transfers.",
          "params": {
            "balance": "Current balance for the interacting account.",
            "needed": "Minimum amount required to perform a transfer.",
            "sender": "Address whose tokens are being transferred.",
            "tokenId": "Identifier number of a token."
          }
        }
      ],
      "ERC1155InvalidApprover(address)": [
        {
          "details": "Indicates a failure with the `approver` of a token to be approved. Used in approvals.",
          "params": {
            "approver": "Address initiating an approval operation."
          }
        }
      ],
      "ERC1155InvalidArrayLength(uint256,uint256)": [
        {
          "details": "Indicates an array length mismatch between ids and values in a safeBatchTransferFrom operation. Used in batch transfers.",
          "params": {
            "idsLength": "Length of the array of token identifiers",
            "valuesLength": "Length of the array of token amounts"
          }
        }
      ],
      "ERC1155InvalidOperator(address)": [
        {
          "details": "Indicates a failure with the `operator` to be approved. Used in approvals.",
          "params": {
            "operator": "Address that may be allowed to operate on tokens without being their owner."
          }
        }
      ],
      "ERC1155InvalidReceiver(address)": [
        {
          "details": "Indicates a failure with the token `receiver`. Used in transfers.",
          "params": {
            "receiver": "Address to which tokens are being transferred."
          }
        }
      ],
      "ERC1155InvalidSender(address)": [
        {
          "details": "Indicates a failure with the token `sender`. Used in transfers.",
          "params": {
            "sender": "Address whose tokens are being transferred."
          }
        }
      ],
      "ERC1155MissingApprovalForAll(address,address)": [
        {
          "details": "Indicates a failure with the `operator`s approval. Used in transfers.",
          "params": {
            "operator": "Address that may be allowed to operate on tokens without being their owner.",
            "owner": "Address of the current owner of a token."
          }
        }
      ],
      "EnforcedPause()": [
        {
          "details": "The operation failed because the contract is paused."
        }
      ],
      "ExpectedPause()": [
        {
          "details": "The operation failed because the contract is not paused."
        }
      ],
      "InvalidInitialization()": [
        {
          "details": "The contract is already initialized."
        }
      ],
      "NotInitializing()": [
        {
          "details": "The contract is not initializing."
        }
      ]
    },
    "events": {
      "ApprovalForAll(address,address,bool)": {
        "details": "Emitted when `account` grants or revokes permission to `operator` to transfer their tokens, according to `approved`."
      },
      "Initialized(uint64)": {
        "details": "Triggered when the contract has been initialized or reinitialized."
      },
      "Paused(address)": {
        "details": "Emitted when the pause is triggered by `account`."
      },
      "RoleAdminChanged(bytes32,bytes32,bytes32)": {
        "details": "Emitted when `newAdminRole` is set as ``role``'s admin role, replacing `previousAdminRole` `DEFAULT_ADMIN_ROLE` is the starting admin for all roles, despite {RoleAdminChanged} not being emitted to signal this."
      },
      "RoleGranted(bytes32,address,address)": {
        "details": "Emitted when `account` is granted `role`. `sender` is the account that originated the contract call. This account bears the admin role (for the granted role). Expected in cases where the role was granted using the internal {AccessControl-_grantRole}."
      },
      "RoleRevoked(bytes32,address,address)": {
        "details": "Emitted when `account` is revoked `role`. `sender` is the account that originated the contract call:   - if using `revokeRole`, it is the admin role bearer   - if using `renounceRole`, it is the role bearer (i.e. `account`)"
      },
      "TransferBatch(address,address,address,uint256[],uint256[])": {
        "details": "Equivalent to multiple {TransferSingle} events, where `operator`, `from` and `to` are the same for all transfers."
      },
      "TransferSingle(address,address,address,uint256,uint256)": {
        "details": "Emitted when `value` amount of tokens of type `id` are transferred from `from` to `to` by `operator`."
      },
      "URI(string,uint256)": {
        "details": "Emitted when the URI for token type `id` changes to `value`, if it is a non-programmatic URI. If an {URI} event was emitted for `id`, the standard https://eips.ethereum.org/EIPS/eip-1155#metadata-extensions[guarantees] that `value` will equal the value returned by {IERC1155MetadataURI-uri}."
      },
      "Unpaused(address)": {
        "details": "Emitted when the pause is lifted by `account`."
      }
    },
    "kind": "dev",
    "methods": {
      "balanceOf(address,uint256)": {
        "details": "Returns the value of tokens of token type `id` owned by `account`."
      },
      "balanceOfBatch(address[],uint256[])": {
        "details": "See {IERC1155-balanceOfBatch}. Requirements: - `accounts` and `ids` must have the same length."
      },
      "burnFrom(address,uint256,uint256)": {
        "details": "NFT ()",
        "params": {
          "amount": "",
          "from": "",
          "tokenId": "ID"
        }
      },
      "constructor": {
        "custom:oz-upgrades-unsafe-allow": "constructor"
      },
      "exists(uint256)": {
        "details": "Indicates whether any token exist with a given id, or not."
      },
      "getRoleAdmin(bytes32)": {
        "details": "Returns the admin role that controls `role`. See {grantRole} and {revokeRole}. To change a role's admin, use {_setRoleAdmin}."
      },
      "getTokenInfo(uint256)": {
        "details": "",
        "params": {
          "tokenId": "ID"
        }
      },
      "getUserTokens(address,uint256)": {
        "details": "",
        "params": {
          "tokenId": "ID",
          "user": ""
        }
      },
      "grantRole(bytes32,address)": {
        "details": "Grants `role` to `account`. If `account` had not been already granted `role`, emits a {RoleGranted} event. Requirements: - the caller must have ``role``'s admin role. May emit a {RoleGranted} event."
      },
      "hasRole(bytes32,address)": {
        "details": "Returns `true` if `account` has been granted `role`."
      },
      "initialize(string,address)": {
        "details": "",
        "params": {
          "_uri": "URI",
          "admin": ""
        }
      },
      "isApprovedForAll(address,address)": {
        "details": "Returns true if `operator` is approved to transfer ``account``'s tokens. See {setApprovalForAll}."
      },
      "mint(address,uint256,uint256,bytes)": {
        "details": "NFT ()",
        "params": {
          "amount": " (1)",
          "data": "",
          "to": "",
          "tokenId": "ID"
        }
      },
      "mintBatch(address,uint256[],uint256[],bytes32[],bytes)": {
        "details": "NFT",
        "params": {
          "amounts": "",
          "data": "",
          "orderIds": "ID",
          "to": "",
          "tokenIds": "ID"
        }
      },
      "mintCard(address,uint8,uint256,uint256,uint256)": {
        "details": "Treasury",
        "params": {
          "productType": " (Treasury.sol)",
          "to": ""
        }
      },
      "mintWithOrderId(address,uint256,uint256,bytes32,bytes)": {
        "details": "NFT (ID)",
        "params": {
          "amount": " (1)",
          "data": "",
          "orderId": "ID",
          "to": "",
          "tokenId": "ID"
        }
      },
      "owner()": {
        "details": " ()"
      },
      "pause()": {
        "details": ""
      },
      "paused()": {
        "details": "Returns true if the contract is paused, and false otherwise."
      },
      "renounceRole(bytes32,address)": {
        "details": "Revokes `role` from the calling account. Roles are often managed via {grantRole} and {revokeRole}: this function's purpose is to provide a mechanism for accounts to lose their privileges if they are compromised (such as when a trusted device is misplaced). If the calling account had been revoked `role`, emits a {RoleRevoked} event. Requirements: - the caller must be `callerConfirmation`. May emit a {RoleRevoked} event."
      },
      "revokeRole(bytes32,address)": {
        "details": "Revokes `role` from `account`. If `account` had been granted `role`, emits a {RoleRevoked} event. Requirements: - the caller must have ``role``'s admin role. May emit a {RoleRevoked} event."
      },
      "safeBatchTransferFrom(address,address,uint256[],uint256[],bytes)": {
        "details": "xref:ROOT:erc1155.adoc#batch-operations[Batched] version of {safeTransferFrom}. WARNING: This function can potentially allow a reentrancy attack when transferring tokens to an untrusted contract, when invoking {IERC1155Receiver-onERC1155BatchReceived} on the receiver. Ensure to follow the checks-effects-interactions pattern and consider employing reentrancy guards when interacting with untrusted contracts. Emits either a {TransferSingle} or a {TransferBatch} event, depending on the length of the array arguments. Requirements: - `ids` and `values` must have the same length. - If `to` refers to a smart contract, it must implement {IERC1155Receiver-onERC1155BatchReceived} and return the acceptance magic value."
      },
      "safeTransferFrom(address,address,uint256,uint256,bytes)": {
        "details": "Transfers a `value` amount of tokens of type `id` from `from` to `to`. WARNING: This function can potentially allow a reentrancy attack when transferring tokens to an untrusted contract, when invoking {IERC1155Receiver-onERC1155Received} on the receiver. Ensure to follow the checks-effects-interactions pattern and consider employing reentrancy guards when interacting with untrusted contracts. Emits a {TransferSingle} event. Requirements: - `to` cannot be the zero address. - If the caller is not `from`, it must have been approved to spend ``from``'s tokens via {setApprovalForAll}. - `from` must have a balance of tokens of type `id` of at least `value` amount. - If `to` refers to a smart contract, it must implement {IERC1155Receiver-onERC1155Received} and return the acceptance magic value."
      },
      "setApprovalForAll(address,bool)": {
        "details": "Grants or revokes permission to `operator` to transfer the caller's tokens, according to `approved`, Emits an {ApprovalForAll} event. Requirements: - `operator` cannot be the zero address."
      },
      "setAuthorizedOperator(address,bool)": {
        "details": "",
        "params": {
          "authorized": "",
          "operator": ""
        }
      },
      "setTokenInfo(uint256,string,string,uint256,bool,bool)": {
        "details": "",
        "params": {
          "active": "",
          "maxSupply": "",
          "name": "",
          "symbol": "",
          "tokenId": "ID",
          "transferable": ""
        }
      },
      "setTokenURI(uint256,string)": {
        "details": "URI",
        "params": {
          "tokenId": "ID",
          "tokenURI": "URI"
        }
      },
      "setTreasury(address)": {
        "details": "Treasury ()"
      },
      "setURI(string)": {
        "details": "URI ()"
      },
      "supportsInterface(bytes4)": {
        "details": ""
      },
      "totalSupply()": {
        "details": "Total value of tokens."
      },
      "totalSupply(uint256)": {
        "details": "Total value of tokens in with a given id."
      },
      "treasury()": {
        "details": "Treasury"
      },
      "unpause()": {
        "details": ""
      },
      "uri(uint256)": {
        "details": "URI"
      }
    },
    "title": "QACard",
    "version": 1
  },
  "userdoc": {
    "kind": "user",
    "methods": {},
    "version": 1
  },
  "storageLayout": {
    "storage": [
      {
        "astId": 9279,
        "contract": "contracts/QACard.sol:QACard",
        "label": "tokenInfo",
        "offset": 0,
        "slot": "0",
        "type": "t_mapping(t_uint256,t_struct(TokenInfo)9274_storage)"
      },
      {
        "astId": 9283,
        "contract": "contracts/QACard.sol:QACard",
        "label": "_tokenURIs",
        "offset": 0,
        "slot": "1",
        "type": "t_mapping(t_uint256,t_string_storage)"
      },
      {
        "astId": 9287,
        "contract": "contracts/QACard.sol:QACard",
        "label": "authorizedOperators",
        "offset": 0,
        "slot": "2",
        "type": "t_mapping(t_address,t_bool)"
      },
      {
        "astId": 9289,
        "contract": "contracts/QACard.sol:QACard",
        "label": "_treasury",
        "offset": 0,
        "slot": "3",
        "type": "t_address"
      },
      {
        "astId": 9291,
        "contract": "contracts/QACard.sol:QACard",
        "label": "_owner",
        "offset": 0,
        "slot": "4",
        "type": "t_address"
      },
      {
        "astId": 9298,
        "contract": "contracts/QACard.sol:QACard",
        "label": "userTokens",
        "offset": 0,
        "slot": "5",
        "type": "t_mapping(t_address,t_mapping(t_uint256,t_array(t_uint256)dyn_storage))"
      },
      {
        "astId": 9302,
        "contract": "contracts/QACard.sol:QACard",
        "label": "tokenOwners",
        "offset": 0,
        "slot": "6",
        "type": "t_mapping(t_uint256,t_address)"
      },
      {
        "astId": 9304,
        "contract": "contracts/QACard.sol:QACard",
        "label": "_currentTokenIndex",
        "offset": 0,
        "slot": "7",
        "type": "t_uint256"
      }
    ],
    "types": {
      "t_address": {
        "encoding": "inplace",
        "label": "address",
        "numberOfBytes": "20"
      },
      "t_array(t_uint256)dyn_storage": {
        "base": "t_uint256",
        "encoding": "dynamic_array",
        "label": "uint256[]",
        "numberOfBytes": "32"
      },
      "t_bool": {
        "encoding": "inplace",
        "label": "bool",
        "numberOfBytes": "1"
      },
      "t_mapping(t_address,t_bool)": {
        "encoding": "mapping",
        "key": "t_address",
        "label": "mapping(address => bool)",
        "numberOfBytes": "32",
        "value": "t_bool"
      },
      "t_mapping(t_address,t_mapping(t_uint256,t_array(t_uint256)dyn_storage))": {
        "encoding": "mapping",
        "key": "t_address",
        "label": "mapping(address => mapping(uint256 => uint256[]))",
        "numberOfBytes": "32",
        "value": "t_mapping(t_uint256,t_array(t_uint256)dyn_storage)"
      },
      "t_mapping(t_uint256,t_address)": {
        "encoding": "mapping",
        "key": "t_uint256",
        "label": "mapping(uint256 => address)",
        "numberOfBytes": "32",
        "value": "t_address"
      },
      "t_mapping(t_uint256,t_array(t_uint256)dyn_storage)": {
        "encoding": "mapping",
        "key": "t_uint256",
        "label": "mapping(uint256 => uint256[])",
        "numberOfBytes": "32",
        "value": "t_array(t_uint256)dyn_storage"
      },
      "t_mapping(t_uint256,t_string_storage)": {
        "encoding": "mapping",
        "key": "t_uint256",
        "label": "mapping(uint256 => string)",
        "numberOfBytes": "32",
        "value": "t_string_storage"
      },
      "t_mapping(t_uint256,t_struct(TokenInfo)9274_storage)": {
        "encoding": "mapping",
        "key": "t_uint256",
        "label": "mapping(uint256 => struct QACard.TokenInfo)",
        "numberOfBytes": "32",
        "value": "t_struct(TokenInfo)9274_storage"
      },
      "t_string_storage": {
        "encoding": "bytes",
        "label": "string",
        "numberOfBytes": "32"
      },
      "t_struct(TokenInfo)9274_storage": {
        "encoding": "inplace",
        "label": "struct QACard.TokenInfo",
        "members": [
          {
            "astId": 9265,
            "contract": "contracts/QACard.sol:QACard",
            "label": "name",
            "offset": 0,
            "slot": "0",
            "type": "t_string_storage"
          },
          {
            "astId": 9267,
            "contract": "contracts/QACard.sol:QACard",
            "label": "symbol",
            "offset": 0,
            "slot": "1",
            "type": "t_string_storage"
          },
          {
            "astId": 9269,
            "contract": "contracts/QACard.sol:QACard",
            "label": "maxSupply",
            "offset": 0,
            "slot": "2",
            "type": "t_uint256"
          },
          {
            "astId": 9271,
            "contract": "contracts/QACard.sol:QACard",
            "label": "transferable",
            "offset": 0,
            "slot": "3",
            "type": "t_bool"
          },
          {
            "astId": 9273,
            "contract": "contracts/QACard.sol:QACard",
            "label": "active",
            "offset": 1,
            "slot": "3",
            "type": "t_bool"
          }
        ],
        "numberOfBytes": "128"
      },
      "t_uint256": {
        "encoding": "inplace",
        "label": "uint256",
        "numberOfBytes": "32"
      }
    }
  }
}