{
  "address": "0xDc64a140Aa3E981100a9becA4E685f962f0cF6C9",
  "abi": [
    {
      "inputs": [],
      "stateMutability": "nonpayable",
      "type": "constructor"
    },
    {
      "inputs": [],
      "name": "AccessControlBadConfirmation",
      "type": "error"
    },
    {
      "inputs": [
        {
          "internalType": "address",
          "name": "account",
          "type": "address"
        },
        {
          "internalType": "bytes32",
          "name": "neededRole",
          "type": "bytes32"
        }
      ],
      "name": "AccessControlUnauthorizedAccount",
      "type": "error"
    },
    {
      "inputs": [],
      "name": "EnforcedPause",
      "type": "error"
    },
    {
      "inputs": [
        {
          "internalType": "uint256",
          "name": "amount",
          "type": "uint256"
        },
        {
          "internalType": "uint256",
          "name": "limit",
          "type": "uint256"
        }
      ],
      "name": "ExceedsWithdrawLimit",
      "type": "error"
    },
    {
      "inputs": [],
      "name": "ExpectedPause",
      "type": "error"
    },
    {
      "inputs": [
        {
          "internalType": "uint256",
          "name": "requested",
          "type": "uint256"
        },
        {
          "internalType": "uint256",
          "name": "available",
          "type": "uint256"
        }
      ],
      "name": "InsufficientBalance",
      "type": "error"
    },
    {
      "inputs": [],
      "name": "InvalidAmount",
      "type": "error"
    },
    {
      "inputs": [],
      "name": "InvalidInitialization",
      "type": "error"
    },
    {
      "inputs": [
        {
          "internalType": "uint256",
          "name": "amount",
          "type": "uint256"
        },
        {
          "internalType": "uint256",
          "name": "min",
          "type": "uint256"
        },
        {
          "internalType": "uint256",
          "name": "max",
          "type": "uint256"
        }
      ],
      "name": "InvalidInvestmentAmount",
      "type": "error"
    },
    {
      "inputs": [],
      "name": "InvalidPrice",
      "type": "error"
    },
    {
      "inputs": [],
      "name": "InvalidReferrer",
      "type": "error"
    },
    {
      "inputs": [],
      "name": "NotInitializing",
      "type": "error"
    },
    {
      "inputs": [],
      "name": "PriceExpired",
      "type": "error"
    },
    {
      "inputs": [],
      "name": "ProductNotActive",
      "type": "error"
    },
    {
      "inputs": [],
      "name": "ReentrancyGuardReentrantCall",
      "type": "error"
    },
    {
      "inputs": [],
      "name": "RewardAlreadyClaimed",
      "type": "error"
    },
    {
      "inputs": [],
      "name": "RewardPeriodNotStarted",
      "type": "error"
    },
    {
      "inputs": [
        {
          "internalType": "address",
          "name": "token",
          "type": "address"
        }
      ],
      "name": "SafeERC20FailedOperation",
      "type": "error"
    },
    {
      "inputs": [],
      "name": "TransferFailed",
      "type": "error"
    },
    {
      "inputs": [],
      "name": "UnauthorizedAccess",
      "type": "error"
    },
    {
      "anonymous": false,
      "inputs": [
        {
          "indexed": true,
          "internalType": "address",
          "name": "user",
          "type": "address"
        },
        {
          "indexed": false,
          "internalType": "uint256",
          "name": "totalAmount",
          "type": "uint256"
        },
        {
          "indexed": false,
          "internalType": "uint256",
          "name": "count",
          "type": "uint256"
        }
      ],
      "name": "BatchDeposit",
      "type": "event"
    },
    {
      "anonymous": false,
      "inputs": [
        {
          "indexed": true,
          "internalType": "address",
          "name": "user",
          "type": "address"
        },
        {
          "indexed": false,
          "internalType": "uint256",
          "name": "amount",
          "type": "uint256"
        },
        {
          "indexed": true,
          "internalType": "bytes32",
          "name": "orderId",
          "type": "bytes32"
        },
        {
          "indexed": false,
          "internalType": "uint256",
          "name": "timestamp",
          "type": "uint256"
        }
      ],
      "name": "Deposited",
      "type": "event"
    },
    {
      "anonymous": false,
      "inputs": [
        {
          "indexed": true,
          "internalType": "address",
          "name": "user",
          "type": "address"
        },
        {
          "indexed": false,
          "internalType": "uint256",
          "name": "amount",
          "type": "uint256"
        },
        {
          "indexed": true,
          "internalType": "bytes32",
          "name": "orderId",
          "type": "bytes32"
        },
        {
          "indexed": false,
          "internalType": "uint256",
          "name": "timestamp",
          "type": "uint256"
        }
      ],
      "name": "ETHDeposited",
      "type": "event"
    },
    {
      "anonymous": false,
      "inputs": [
        {
          "indexed": true,
          "internalType": "address",
          "name": "to",
          "type": "address"
        },
        {
          "indexed": false,
          "internalType": "uint256",
          "name": "amount",
          "type": "uint256"
        },
        {
          "indexed": true,
          "internalType": "address",
          "name": "operator",
          "type": "address"
        },
        {
          "indexed": false,
          "internalType": "uint256",
          "name": "timestamp",
          "type": "uint256"
        }
      ],
      "name": "EmergencyWithdraw",
      "type": "event"
    },
    {
      "anonymous": false,
      "inputs": [
        {
          "indexed": false,
          "internalType": "uint64",
          "name": "version",
          "type": "uint64"
        }
      ],
      "name": "Initialized",
      "type": "event"
    },
    {
      "anonymous": false,
      "inputs": [
        {
          "indexed": false,
          "internalType": "uint256",
          "name": "dailyLimit",
          "type": "uint256"
        },
        {
          "indexed": false,
          "internalType": "uint256",
          "name": "singleLimit",
          "type": "uint256"
        },
        {
          "indexed": true,
          "internalType": "address",
          "name": "operator",
          "type": "address"
        }
      ],
      "name": "LimitsUpdated",
      "type": "event"
    },
    {
      "anonymous": false,
      "inputs": [
        {
          "indexed": false,
          "internalType": "address",
          "name": "account",
          "type": "address"
        }
      ],
      "name": "Paused",
      "type": "event"
    },
    {
      "anonymous": false,
      "inputs": [
        {
          "indexed": false,
          "internalType": "uint256",
          "name": "newRate",
          "type": "uint256"
        },
        {
          "indexed": false,
          "internalType": "uint256",
          "name": "timestamp",
          "type": "uint256"
        },
        {
          "indexed": true,
          "internalType": "address",
          "name": "operator",
          "type": "address"
        }
      ],
      "name": "PriceUpdated",
      "type": "event"
    },
    {
      "anonymous": false,
      "inputs": [
        {
          "indexed": true,
          "internalType": "address",
          "name": "user",
          "type": "address"
        },
        {
          "indexed": false,
          "internalType": "enum Treasury.ProductType",
          "name": "productType",
          "type": "uint8"
        },
        {
          "indexed": false,
          "internalType": "uint256",
          "name": "amount",
          "type": "uint256"
        },
        {
          "indexed": false,
          "internalType": "uint256",
          "name": "tokenId",
          "type": "uint256"
        }
      ],
      "name": "ProductPurchased",
      "type": "event"
    },
    {
      "anonymous": false,
      "inputs": [
        {
          "indexed": true,
          "internalType": "address",
          "name": "user",
          "type": "address"
        },
        {
          "indexed": false,
          "internalType": "enum Treasury.ProductType",
          "name": "productType",
          "type": "uint8"
        },
        {
          "indexed": false,
          "internalType": "uint256",
          "name": "ethAmount",
          "type": "uint256"
        },
        {
          "indexed": false,
          "internalType": "uint256",
          "name": "tokenId",
          "type": "uint256"
        },
        {
          "indexed": false,
          "internalType": "uint256",
          "name": "timestamp",
          "type": "uint256"
        }
      ],
      "name": "ProductPurchasedWithETH",
      "type": "event"
    },
    {
      "anonymous": false,
      "inputs": [
        {
          "indexed": false,
          "internalType": "enum Treasury.ProductType",
          "name": "productType",
          "type": "uint8"
        },
        {
          "indexed": false,
          "internalType": "string",
          "name": "name",
          "type": "string"
        },
        {
          "indexed": false,
          "internalType": "uint256",
          "name": "minInvestment",
          "type": "uint256"
        },
        {
          "indexed": false,
          "internalType": "uint256",
          "name": "maxInvestment",
          "type": "uint256"
        },
        {
          "indexed": false,
          "internalType": "uint256",
          "name": "apr",
          "type": "uint256"
        },
        {
          "indexed": false,
          "internalType": "uint256",
          "name": "duration",
          "type": "uint256"
        },
        {
          "indexed": false,
          "internalType": "bool",
          "name": "isActive",
          "type": "bool"
        }
      ],
      "name": "ProductUpdated",
      "type": "event"
    },
    {
      "anonymous": false,
      "inputs": [
        {
          "indexed": true,
          "internalType": "address",
          "name": "referrer",
          "type": "address"
        },
        {
          "indexed": true,
          "internalType": "address",
          "name": "user",
          "type": "address"
        },
        {
          "indexed": false,
          "internalType": "uint256",
          "name": "amount",
          "type": "uint256"
        },
        {
          "indexed": false,
          "internalType": "uint256",
          "name": "timestamp",
          "type": "uint256"
        }
      ],
      "name": "ReferralCommissionPaid",
      "type": "event"
    },
    {
      "anonymous": false,
      "inputs": [
        {
          "indexed": true,
          "internalType": "address",
          "name": "user",
          "type": "address"
        },
        {
          "indexed": true,
          "internalType": "address",
          "name": "referrer",
          "type": "address"
        },
        {
          "indexed": false,
          "internalType": "uint256",
          "name": "timestamp",
          "type": "uint256"
        }
      ],
      "name": "ReferralSet",
      "type": "event"
    },
    {
      "anonymous": false,
      "inputs": [
        {
          "indexed": true,
          "internalType": "address",
          "name": "user",
          "type": "address"
        },
        {
          "indexed": true,
          "internalType": "uint256",
          "name": "period",
          "type": "uint256"
        },
        {
          "indexed": false,
          "internalType": "uint256",
          "name": "amount",
          "type": "uint256"
        },
        {
          "indexed": false,
          "internalType": "uint256",
          "name": "timestamp",
          "type": "uint256"
        }
      ],
      "name": "RewardClaimed",
      "type": "event"
    },
    {
      "anonymous": false,
      "inputs": [
        {
          "indexed": true,
          "internalType": "uint256",
          "name": "period",
          "type": "uint256"
        },
        {
          "indexed": false,
          "internalType": "uint256",
          "name": "totalReward",
          "type": "uint256"
        },
        {
          "indexed": false,
          "internalType": "uint256",
          "name": "timestamp",
          "type": "uint256"
        }
      ],
      "name": "RewardPeriodStarted",
      "type": "event"
    },
    {
      "anonymous": false,
      "inputs": [
        {
          "indexed": true,
          "internalType": "bytes32",
          "name": "role",
          "type": "bytes32"
        },
        {
          "indexed": true,
          "internalType": "bytes32",
          "name": "previousAdminRole",
          "type": "bytes32"
        },
        {
          "indexed": true,
          "internalType": "bytes32",
          "name": "newAdminRole",
          "type": "bytes32"
        }
      ],
      "name": "RoleAdminChanged",
      "type": "event"
    },
    {
      "anonymous": false,
      "inputs": [
        {
          "indexed": true,
          "internalType": "bytes32",
          "name": "role",
          "type": "bytes32"
        },
        {
          "indexed": true,
          "internalType": "address",
          "name": "account",
          "type": "address"
        },
        {
          "indexed": true,
          "internalType": "address",
          "name": "sender",
          "type": "address"
        }
      ],
      "name": "RoleGranted",
      "type": "event"
    },
    {
      "anonymous": false,
      "inputs": [
        {
          "indexed": true,
          "internalType": "bytes32",
          "name": "role",
          "type": "bytes32"
        },
        {
          "indexed": true,
          "internalType": "address",
          "name": "account",
          "type": "address"
        },
        {
          "indexed": true,
          "internalType": "address",
          "name": "sender",
          "type": "address"
        }
      ],
      "name": "RoleRevoked",
      "type": "event"
    },
    {
      "anonymous": false,
      "inputs": [
        {
          "indexed": false,
          "internalType": "address",
          "name": "account",
          "type": "address"
        }
      ],
      "name": "Unpaused",
      "type": "event"
    },
    {
      "anonymous": false,
      "inputs": [
        {
          "indexed": true,
          "internalType": "address",
          "name": "to",
          "type": "address"
        },
        {
          "indexed": false,
          "internalType": "uint256",
          "name": "amount",
          "type": "uint256"
        },
        {
          "indexed": true,
          "internalType": "address",
          "name": "operator",
          "type": "address"
        },
        {
          "indexed": true,
          "internalType": "bytes32",
          "name": "reason",
          "type": "bytes32"
        },
        {
          "indexed": false,
          "internalType": "uint256",
          "name": "timestamp",
          "type": "uint256"
        }
      ],
      "name": "Withdrawal",
      "type": "event"
    },
    {
      "anonymous": false,
      "inputs": [
        {
          "indexed": true,
          "internalType": "address",
          "name": "to",
          "type": "address"
        },
        {
          "indexed": false,
          "internalType": "uint256",
          "name": "amount",
          "type": "uint256"
        },
        {
          "indexed": true,
          "internalType": "address",
          "name": "operator",
          "type": "address"
        },
        {
          "indexed": true,
          "internalType": "bytes32",
          "name": "reason",
          "type": "bytes32"
        },
        {
          "indexed": false,
          "internalType": "uint256",
          "name": "timestamp",
          "type": "uint256"
        }
      ],
      "name": "Withdrawn",
      "type": "event"
    },
    {
      "inputs": [],
      "name": "DEFAULT_ADMIN_ROLE",
      "outputs": [
        {
          "internalType": "bytes32",
          "name": "",
          "type": "bytes32"
        }
      ],
      "stateMutability": "view",
      "type": "function"
    },
    {
      "inputs": [],
      "name": "OPERATOR_ROLE",
      "outputs": [
        {
          "internalType": "bytes32",
          "name": "",
          "type": "bytes32"
        }
      ],
      "stateMutability": "view",
      "type": "function"
    },
    {
      "inputs": [],
      "name": "PAUSER_ROLE",
      "outputs": [
        {
          "internalType": "bytes32",
          "name": "",
          "type": "bytes32"
        }
      ],
      "stateMutability": "view",
      "type": "function"
    },
    {
      "inputs": [],
      "name": "WITHDRAWER_ROLE",
      "outputs": [
        {
          "internalType": "bytes32",
          "name": "",
          "type": "bytes32"
        }
      ],
      "stateMutability": "view",
      "type": "function"
    },
    {
      "inputs": [
        {
          "internalType": "uint256[]",
          "name": "amounts",
          "type": "uint256[]"
        },
        {
          "internalType": "bytes32[]",
          "name": "orderIds",
          "type": "bytes32[]"
        }
      ],
      "name": "batchDeposit",
      "outputs": [],
      "stateMutability": "nonpayable",
      "type": "function"
    },
    {
      "inputs": [
        {
          "internalType": "uint256",
          "name": "period",
          "type": "uint256"
        }
      ],
      "name": "claimPeriodReward",
      "outputs": [],
      "stateMutability": "nonpayable",
      "type": "function"
    },
    {
      "inputs": [],
      "name": "claimReferralCommission",
      "outputs": [],
      "stateMutability": "nonpayable",
      "type": "function"
    },
    {
      "inputs": [],
      "name": "currentRewardPeriod",
      "outputs": [
        {
          "internalType": "uint256",
          "name": "",
          "type": "uint256"
        }
      ],
      "stateMutability": "view",
      "type": "function"
    },
    {
      "inputs": [],
      "name": "dailyWithdrawLimit",
      "outputs": [
        {
          "internalType": "uint256",
          "name": "",
          "type": "uint256"
        }
      ],
      "stateMutability": "view",
      "type": "function"
    },
    {
      "inputs": [
        {
          "internalType": "uint256",
          "name": "",
          "type": "uint256"
        }
      ],
      "name": "dailyWithdrawn",
      "outputs": [
        {
          "internalType": "uint256",
          "name": "",
          "type": "uint256"
        }
      ],
      "stateMutability": "view",
      "type": "function"
    },
    {
      "inputs": [
        {
          "internalType": "uint256",
          "name": "amount",
          "type": "uint256"
        },
        {
          "internalType": "bytes32",
          "name": "orderId",
          "type": "bytes32"
        }
      ],
      "name": "deposit",
      "outputs": [],
      "stateMutability": "nonpayable",
      "type": "function"
    },
    {
      "inputs": [
        {
          "internalType": "address",
          "name": "to",
          "type": "address"
        },
        {
          "internalType": "uint256",
          "name": "amount",
          "type": "uint256"
        }
      ],
      "name": "emergencyWithdraw",
      "outputs": [],
      "stateMutability": "nonpayable",
      "type": "function"
    },
    {
      "inputs": [],
      "name": "emergencyWithdraw",
      "outputs": [],
      "stateMutability": "nonpayable",
      "type": "function"
    },
    {
      "inputs": [],
      "name": "ethToUsdtRate",
      "outputs": [
        {
          "internalType": "uint256",
          "name": "",
          "type": "uint256"
        }
      ],
      "stateMutability": "view",
      "type": "function"
    },
    {
      "inputs": [],
      "name": "getBalance",
      "outputs": [
        {
          "internalType": "uint256",
          "name": "",
          "type": "uint256"
        }
      ],
      "stateMutability": "view",
      "type": "function"
    },
    {
      "inputs": [],
      "name": "getCurrentPriceInfo",
      "outputs": [
        {
          "internalType": "uint256",
          "name": "rate",
          "type": "uint256"
        },
        {
          "internalType": "uint256",
          "name": "lastUpdate",
          "type": "uint256"
        },
        {
          "internalType": "bool",
          "name": "isValid",
          "type": "bool"
        }
      ],
      "stateMutability": "view",
      "type": "function"
    },
    {
      "inputs": [],
      "name": "getETHBalance",
      "outputs": [
        {
          "internalType": "uint256",
          "name": "",
          "type": "uint256"
        }
      ],
      "stateMutability": "view",
      "type": "function"
    },
    {
      "inputs": [
        {
          "internalType": "uint256",
          "name": "period",
          "type": "uint256"
        }
      ],
      "name": "getPeriodRewardInfo",
      "outputs": [
        {
          "internalType": "uint256",
          "name": "totalReward",
          "type": "uint256"
        },
        {
          "internalType": "bool",
          "name": "claimed",
          "type": "bool"
        }
      ],
      "stateMutability": "view",
      "type": "function"
    },
    {
      "inputs": [
        {
          "internalType": "enum Treasury.ProductType",
          "name": "productType",
          "type": "uint8"
        }
      ],
      "name": "getProductInfo",
      "outputs": [
        {
          "components": [
            {
              "internalType": "string",
              "name": "name",
              "type": "string"
            },
            {
              "internalType": "uint256",
              "name": "minInvestment",
              "type": "uint256"
            },
            {
              "internalType": "uint256",
              "name": "maxInvestment",
              "type": "uint256"
            },
            {
              "internalType": "uint256",
              "name": "apr",
              "type": "uint256"
            },
            {
              "internalType": "uint256",
              "name": "duration",
              "type": "uint256"
            },
            {
              "internalType": "bool",
              "name": "isActive",
              "type": "bool"
            }
          ],
          "internalType": "struct Treasury.ProductInfo",
          "name": "",
          "type": "tuple"
        }
      ],
      "stateMutability": "view",
      "type": "function"
    },
    {
      "inputs": [
        {
          "internalType": "bytes32",
          "name": "role",
          "type": "bytes32"
        }
      ],
      "name": "getRoleAdmin",
      "outputs": [
        {
          "internalType": "bytes32",
          "name": "",
          "type": "bytes32"
        }
      ],
      "stateMutability": "view",
      "type": "function"
    },
    {
      "inputs": [],
      "name": "getTodayWithdrawn",
      "outputs": [
        {
          "internalType": "uint256",
          "name": "",
          "type": "uint256"
        }
      ],
      "stateMutability": "view",
      "type": "function"
    },
    {
      "inputs": [],
      "name": "getTotalETHDeposits",
      "outputs": [
        {
          "internalType": "uint256",
          "name": "",
          "type": "uint256"
        }
      ],
      "stateMutability": "view",
      "type": "function"
    },
    {
      "inputs": [
        {
          "internalType": "address",
          "name": "user",
          "type": "address"
        }
      ],
      "name": "getUserDeposits",
      "outputs": [
        {
          "internalType": "uint256",
          "name": "",
          "type": "uint256"
        }
      ],
      "stateMutability": "view",
      "type": "function"
    },
    {
      "inputs": [
        {
          "internalType": "address",
          "name": "user",
          "type": "address"
        }
      ],
      "name": "getUserETHDeposits",
      "outputs": [
        {
          "internalType": "uint256",
          "name": "",
          "type": "uint256"
        }
      ],
      "stateMutability": "view",
      "type": "function"
    },
    {
      "inputs": [
        {
          "internalType": "address",
          "name": "user",
          "type": "address"
        }
      ],
      "name": "getUserInvestments",
      "outputs": [
        {
          "internalType": "uint256",
          "name": "",
          "type": "uint256"
        }
      ],
      "stateMutability": "view",
      "type": "function"
    },
    {
      "inputs": [
        {
          "internalType": "address",
          "name": "user",
          "type": "address"
        }
      ],
      "name": "getUserReferralInfo",
      "outputs": [
        {
          "internalType": "address",
          "name": "referrer",
          "type": "address"
        },
        {
          "internalType": "uint256",
          "name": "commissionEarned",
          "type": "uint256"
        },
        {
          "internalType": "uint256",
          "name": "totalReferredUsers",
          "type": "uint256"
        }
      ],
      "stateMutability": "view",
      "type": "function"
    },
    {
      "inputs": [
        {
          "internalType": "bytes32",
          "name": "role",
          "type": "bytes32"
        },
        {
          "internalType": "address",
          "name": "account",
          "type": "address"
        }
      ],
      "name": "grantRole",
      "outputs": [],
      "stateMutability": "nonpayable",
      "type": "function"
    },
    {
      "inputs": [
        {
          "internalType": "bytes32",
          "name": "role",
          "type": "bytes32"
        },
        {
          "internalType": "address",
          "name": "account",
          "type": "address"
        }
      ],
      "name": "hasRole",
      "outputs": [
        {
          "internalType": "bool",
          "name": "",
          "type": "bool"
        }
      ],
      "stateMutability": "view",
      "type": "function"
    },
    {
      "inputs": [
        {
          "internalType": "address",
          "name": "_usdtToken",
          "type": "address"
        },
        {
          "internalType": "address",
          "name": "_admin",
          "type": "address"
        },
        {
          "internalType": "address[]",
          "name": "_operators",
          "type": "address[]"
        }
      ],
      "name": "initialize",
      "outputs": [],
      "stateMutability": "nonpayable",
      "type": "function"
    },
    {
      "inputs": [],
      "name": "lastPriceUpdate",
      "outputs": [
        {
          "internalType": "uint256",
          "name": "",
          "type": "uint256"
        }
      ],
      "stateMutability": "view",
      "type": "function"
    },
    {
      "inputs": [],
      "name": "lastRewardTime",
      "outputs": [
        {
          "internalType": "uint256",
          "name": "",
          "type": "uint256"
        }
      ],
      "stateMutability": "view",
      "type": "function"
    },
    {
      "inputs": [],
      "name": "pause",
      "outputs": [],
      "stateMutability": "nonpayable",
      "type": "function"
    },
    {
      "inputs": [],
      "name": "paused",
      "outputs": [
        {
          "internalType": "bool",
          "name": "",
          "type": "bool"
        }
      ],
      "stateMutability": "view",
      "type": "function"
    },
    {
      "inputs": [
        {
          "internalType": "uint256",
          "name": "",
          "type": "uint256"
        }
      ],
      "name": "periodRewards",
      "outputs": [
        {
          "internalType": "uint256",
          "name": "",
          "type": "uint256"
        }
      ],
      "stateMutability": "view",
      "type": "function"
    },
    {
      "inputs": [],
      "name": "priceValidityPeriod",
      "outputs": [
        {
          "internalType": "uint256",
          "name": "",
          "type": "uint256"
        }
      ],
      "stateMutability": "view",
      "type": "function"
    },
    {
      "inputs": [
        {
          "internalType": "enum Treasury.ProductType",
          "name": "",
          "type": "uint8"
        }
      ],
      "name": "products",
      "outputs": [
        {
          "internalType": "string",
          "name": "name",
          "type": "string"
        },
        {
          "internalType": "uint256",
          "name": "minInvestment",
          "type": "uint256"
        },
        {
          "internalType": "uint256",
          "name": "maxInvestment",
          "type": "uint256"
        },
        {
          "internalType": "uint256",
          "name": "apr",
          "type": "uint256"
        },
        {
          "internalType": "uint256",
          "name": "duration",
          "type": "uint256"
        },
        {
          "internalType": "bool",
          "name": "isActive",
          "type": "bool"
        }
      ],
      "stateMutability": "view",
      "type": "function"
    },
    {
      "inputs": [
        {
          "internalType": "enum Treasury.ProductType",
          "name": "productType",
          "type": "uint8"
        },
        {
          "internalType": "uint256",
          "name": "amount",
          "type": "uint256"
        }
      ],
      "name": "purchaseProduct",
      "outputs": [],
      "stateMutability": "nonpayable",
      "type": "function"
    },
    {
      "inputs": [
        {
          "internalType": "enum Treasury.ProductType",
          "name": "productType",
          "type": "uint8"
        }
      ],
      "name": "purchaseProductWithETH",
      "outputs": [],
      "stateMutability": "payable",
      "type": "function"
    },
    {
      "inputs": [
        {
          "internalType": "enum Treasury.ProductType",
          "name": "productType",
          "type": "uint8"
        },
        {
          "internalType": "uint256",
          "name": "amount",
          "type": "uint256"
        },
        {
          "internalType": "address",
          "name": "referrer",
          "type": "address"
        }
      ],
      "name": "purchaseProductWithReferral",
      "outputs": [],
      "stateMutability": "nonpayable",
      "type": "function"
    },
    {
      "inputs": [],
      "name": "qaCard",
      "outputs": [
        {
          "internalType": "contract QACard",
          "name": "",
          "type": "address"
        }
      ],
      "stateMutability": "view",
      "type": "function"
    },
    {
      "inputs": [],
      "name": "referralCommissionRate",
      "outputs": [
        {
          "internalType": "uint256",
          "name": "",
          "type": "uint256"
        }
      ],
      "stateMutability": "view",
      "type": "function"
    },
    {
      "inputs": [
        {
          "internalType": "address",
          "name": "",
          "type": "address"
        }
      ],
      "name": "referralCommissions",
      "outputs": [
        {
          "internalType": "uint256",
          "name": "",
          "type": "uint256"
        }
      ],
      "stateMutability": "view",
      "type": "function"
    },
    {
      "inputs": [
        {
          "internalType": "bytes32",
          "name": "role",
          "type": "bytes32"
        },
        {
          "internalType": "address",
          "name": "callerConfirmation",
          "type": "address"
        }
      ],
      "name": "renounceRole",
      "outputs": [],
      "stateMutability": "nonpayable",
      "type": "function"
    },
    {
      "inputs": [
        {
          "internalType": "bytes32",
          "name": "role",
          "type": "bytes32"
        },
        {
          "internalType": "address",
          "name": "account",
          "type": "address"
        }
      ],
      "name": "revokeRole",
      "outputs": [],
      "stateMutability": "nonpayable",
      "type": "function"
    },
    {
      "inputs": [],
      "name": "rewardPeriodDuration",
      "outputs": [
        {
          "internalType": "uint256",
          "name": "",
          "type": "uint256"
        }
      ],
      "stateMutability": "view",
      "type": "function"
    },
    {
      "inputs": [
        {
          "internalType": "address",
          "name": "_qaCard",
          "type": "address"
        }
      ],
      "name": "setQACard",
      "outputs": [],
      "stateMutability": "nonpayable",
      "type": "function"
    },
    {
      "inputs": [
        {
          "internalType": "uint256",
          "name": "rate",
          "type": "uint256"
        }
      ],
      "name": "setReferralCommissionRate",
      "outputs": [],
      "stateMutability": "nonpayable",
      "type": "function"
    },
    {
      "inputs": [
        {
          "internalType": "address",
          "name": "referrer",
          "type": "address"
        }
      ],
      "name": "setReferrer",
      "outputs": [],
      "stateMutability": "nonpayable",
      "type": "function"
    },
    {
      "inputs": [
        {
          "internalType": "uint256",
          "name": "_dailyLimit",
          "type": "uint256"
        },
        {
          "internalType": "uint256",
          "name": "_singleLimit",
          "type": "uint256"
        }
      ],
      "name": "setWithdrawLimits",
      "outputs": [],
      "stateMutability": "nonpayable",
      "type": "function"
    },
    {
      "inputs": [],
      "name": "singleWithdrawLimit",
      "outputs": [
        {
          "internalType": "uint256",
          "name": "",
          "type": "uint256"
        }
      ],
      "stateMutability": "view",
      "type": "function"
    },
    {
      "inputs": [
        {
          "internalType": "uint256",
          "name": "rewardAmount",
          "type": "uint256"
        }
      ],
      "name": "startRewardPeriod",
      "outputs": [],
      "stateMutability": "nonpayable",
      "type": "function"
    },
    {
      "inputs": [
        {
          "internalType": "bytes4",
          "name": "interfaceId",
          "type": "bytes4"
        }
      ],
      "name": "supportsInterface",
      "outputs": [
        {
          "internalType": "bool",
          "name": "",
          "type": "bool"
        }
      ],
      "stateMutability": "view",
      "type": "function"
    },
    {
      "inputs": [],
      "name": "totalDeposits",
      "outputs": [
        {
          "internalType": "uint256",
          "name": "",
          "type": "uint256"
        }
      ],
      "stateMutability": "view",
      "type": "function"
    },
    {
      "inputs": [],
      "name": "totalEthDeposits",
      "outputs": [
        {
          "internalType": "uint256",
          "name": "",
          "type": "uint256"
        }
      ],
      "stateMutability": "view",
      "type": "function"
    },
    {
      "inputs": [
        {
          "internalType": "address",
          "name": "",
          "type": "address"
        }
      ],
      "name": "totalReferrals",
      "outputs": [
        {
          "internalType": "uint256",
          "name": "",
          "type": "uint256"
        }
      ],
      "stateMutability": "view",
      "type": "function"
    },
    {
      "inputs": [],
      "name": "totalRewardPool",
      "outputs": [
        {
          "internalType": "uint256",
          "name": "",
          "type": "uint256"
        }
      ],
      "stateMutability": "view",
      "type": "function"
    },
    {
      "inputs": [],
      "name": "totalWithdrawals",
      "outputs": [
        {
          "internalType": "uint256",
          "name": "",
          "type": "uint256"
        }
      ],
      "stateMutability": "view",
      "type": "function"
    },
    {
      "inputs": [],
      "name": "unpause",
      "outputs": [],
      "stateMutability": "nonpayable",
      "type": "function"
    },
    {
      "inputs": [
        {
          "internalType": "uint256",
          "name": "_dailyLimit",
          "type": "uint256"
        }
      ],
      "name": "updateDailyWithdrawalLimit",
      "outputs": [],
      "stateMutability": "nonpayable",
      "type": "function"
    },
    {
      "inputs": [
        {
          "internalType": "uint256",
          "name": "newRate",
          "type": "uint256"
        }
      ],
      "name": "updateETHPrice",
      "outputs": [],
      "stateMutability": "nonpayable",
      "type": "function"
    },
    {
      "inputs": [
        {
          "internalType": "enum Treasury.ProductType",
          "name": "productType",
          "type": "uint8"
        },
        {
          "internalType": "string",
          "name": "name",
          "type": "string"
        },
        {
          "internalType": "uint256",
          "name": "minInvestment",
          "type": "uint256"
        },
        {
          "internalType": "uint256",
          "name": "maxInvestment",
          "type": "uint256"
        },
        {
          "internalType": "uint256",
          "name": "apr",
          "type": "uint256"
        },
        {
          "internalType": "uint256",
          "name": "duration",
          "type": "uint256"
        },
        {
          "internalType": "bool",
          "name": "isActive",
          "type": "bool"
        }
      ],
      "name": "updateProduct",
      "outputs": [],
      "stateMutability": "nonpayable",
      "type": "function"
    },
    {
      "inputs": [],
      "name": "usdtToken",
      "outputs": [
        {
          "internalType": "contract IERC20",
          "name": "",
          "type": "address"
        }
      ],
      "stateMutability": "view",
      "type": "function"
    },
    {
      "inputs": [
        {
          "internalType": "address",
          "name": "",
          "type": "address"
        }
      ],
      "name": "userDeposits",
      "outputs": [
        {
          "internalType": "uint256",
          "name": "",
          "type": "uint256"
        }
      ],
      "stateMutability": "view",
      "type": "function"
    },
    {
      "inputs": [
        {
          "internalType": "address",
          "name": "",
          "type": "address"
        }
      ],
      "name": "userEthDeposits",
      "outputs": [
        {
          "internalType": "uint256",
          "name": "",
          "type": "uint256"
        }
      ],
      "stateMutability": "view",
      "type": "function"
    },
    {
      "inputs": [
        {
          "internalType": "address",
          "name": "",
          "type": "address"
        }
      ],
      "name": "userReferrers",
      "outputs": [
        {
          "internalType": "address",
          "name": "",
          "type": "address"
        }
      ],
      "stateMutability": "view",
      "type": "function"
    },
    {
      "inputs": [
        {
          "internalType": "address",
          "name": "",
          "type": "address"
        },
        {
          "internalType": "uint256",
          "name": "",
          "type": "uint256"
        }
      ],
      "name": "userRewardsClaimed",
      "outputs": [
        {
          "internalType": "bool",
          "name": "",
          "type": "bool"
        }
      ],
      "stateMutability": "view",
      "type": "function"
    },
    {
      "inputs": [
        {
          "internalType": "address",
          "name": "to",
          "type": "address"
        },
        {
          "internalType": "uint256",
          "name": "amount",
          "type": "uint256"
        },
        {
          "internalType": "bytes32",
          "name": "reason",
          "type": "bytes32"
        }
      ],
      "name": "withdraw",
      "outputs": [],
      "stateMutability": "nonpayable",
      "type": "function"
    },
    {
      "inputs": [
        {
          "internalType": "uint256",
          "name": "amount",
          "type": "uint256"
        }
      ],
      "name": "withdraw",
      "outputs": [],
      "stateMutability": "nonpayable",
      "type": "function"
    },
    {
      "inputs": [
        {
          "internalType": "address payable",
          "name": "to",
          "type": "address"
        },
        {
          "internalType": "uint256",
          "name": "amount",
          "type": "uint256"
        }
      ],
      "name": "withdrawETH",
      "outputs": [],
      "stateMutability": "nonpayable",
      "type": "function"
    },
    {
      "stateMutability": "payable",
      "type": "receive"
    }
  ],
  "transactionHash": "0xc5004d6795e7d2a2fff1b30b4282678c22872bcca23f086b8dd3e80155963904",
  "args": [],
  "numDeployments": 1,
  "solcInputHash": "f01db9d8ae6e5e0738d4522dfad26953",
  "bytecode": "0x60808060405234610016576139f2908161001c8239f35b600080fdfe608080604052600436101561001d575b50361561001b57600080fd5b005b60003560e01c90816301ffc9a714612deb5750806307bc3a30146106fb57806309c85e2414612dcd5780630ac44e0214612d185780630ba36dcd14612cde5780630c37e6bb14612b7d578063106e629014612a7b57806312065fe0146129f257806312d0b2391461282557806317673257146127d85780631e095c6a1461279d578063248a9ca3146127615780632a5bf6d214610c7d5780632b060a68146127075780632e1a7d4d146125f35780632f2ff15d146125a7578063355ca9a414612589578063355d27971461250357806336568abe146124bc5780633f4ba83a146124455780634782f7791461234e578063592cce561461228c5780635c975abb1461225c578063604646271461223e57806361bc8f9114611f7157806366bf4dcf14611f455780636949faeb14611f275780636cdd20e214611efe5780636e94729814611ee25780636f584da014611ec457806377a24f36146114685780637d8820971461144a57806383ceb2631461142c5780638456cb59146113c557806385f438c11461138a5780638f63489d1461134f578063903bbf4e1461130057806391d14854146112a65780639231cf7414611288578063924bb1d01461121957806395ccea67146110f85780639e35ae9714611072578063a18a7bfc1461102d578063a1fa026814610d1f578063a217fddf14610d03578063a98ad46c14610cda578063ace687eb14610cbc578063c08d52af14610c82578063c52c5c8814610c7d578063c9630cb014610bc4578063ce553dbb14610ac3578063d30ef61b14610ba6578063d355271214610b49578063d547741f14610afd578063d5b1951314610ac3578063d74d3d7814610a64578063db2e21bc1461096d578063dbeb888814610941578063e1159cd714610923578063e1179640146107c8578063e4c2b763146107aa578063e63ab1e91461076f578063e992c3dd14610719578063f1e6d761146106fb578063f2e0fe35146106cc578063f5b541a614610691578063f6ae9ce314610657578063fa79f85d1461041a5763fce1e2b014610321573861000f565b34610415576020366003190112610415576004356004811015610415576103786103f091600060a060405161035581612f03565b606081528260208201528260408201528260608201528260808201520152612e9a565b6040519061038582612f03565b61038e81612f5a565b8252600181015490602083019182526002810154906040840191825260038101546060850190815260ff6005600484015493608088019485520154169260a086019315158452604051968796602088525160c0602089015260e0880190612fff565b945160408701525160608601525160808501525160a084015251151560c08301520390f35b600080fd5b6020806003193601126104155760043560048110156104155761043b613139565b6104436130ba565b61044c81612e9a565b9160405161045981612f03565b61046284612f5a565b81526001840154938282019485526002810154604083019081526003820154926060810193845260ff600560048501549460808401958652015416159060a08215910152610645576104b660165442613072565b6017541061063357670de0b6b3a76400006104d3601554346130a7565b049551908187108015610629575b610602576001548451845160405163ace8eb8760e01b815233600482015260ff8a166024820152604481018b905260648101929092526084820152879187908190839060a49082906000906001600160a01b03165af19182156105f6576000926105c7575b503360005260038152604060002061055f348254613065565b905561056d34600654613065565b60065561057d604051809461309a565b349083015260408201524260608201527fb129936007b650e1c05e0829cd20f8b7f1b8f6710255bb621c45094c6a5adbc560803392a2600160008051602061397d83398151915255005b9080925081813d83116105ef575b6105df8183612f39565b8101031261041557519083610546565b503d6105d5565b6040513d6000823e3d90fd5b5160405163eafc9d5560e01b81526004810188905260248101929092526044820152606490fd5b50805187116104e1565b604051632d07c67360e01b8152600490fd5b604051632cdd618760e01b8152600490fd5b34610415576020366003190112610415576001600160a01b03610678612e3e565b16600052600c6020526020604060002054604051908152f35b346104155760003660031901126104155760206040517f97667070c54ef182b0f5858b034beac1b6f3089aa2d3188bb1e8929f4fa9b9298152f35b3461041557600036600319011261041557620151804204600052600a6020526020604060002054604051908152f35b34610415576000366003190112610415576020600654604051908152f35b34610415576020366003190112610415576004356107356131de565b8060085560095460405191825260208201527f86ca55648bc4e3974630a90eca019d2bfc64c8eaa84e093d677caffa363f9cdf60403392a2005b346104155760003660031901126104155760206040517f65d7a28e3265b37a6474929f336521b332c1681b933f6cb9f3376673440d862a8152f35b34610415576000366003190112610415576020601254604051908152f35b346104155760208060031936011261041557600435906107e66130ba565b3360005260118152604060002082600052815260ff60406000205416610911576012548210156108ff57336000526002815260406000205460055490801580156108f7575b6108cf576108469084600052601084526040600020546130a7565b81156108e157049081156108cf5733600081815260118352604080822086835284528120805460ff191660011790555461088a9184916001600160a01b03166130ea565b60405191825242908201527f812be816db82c66cd18ca8457005cd84689642d8ac4d38599cc6af444a2dc72a60403392a3600160008051602061397d83398151915255005b60405163162908e360e11b8152600490fd5b634e487b7160e01b600052601260045260246000fd5b50811561082b565b604051631747cc3d60e21b8152600490fd5b604051632cfe303760e21b8152600490fd5b34610415576000366003190112610415576020601354604051908152f35b346104155760203660031901126104155760043560005260106020526020604060002054604051908152f35b3461041557600036600319011261041557610986613296565b61098e6130ba565b6000546040516370a0823160e01b8152306004820152906001600160a01b0316602082602481845afa9182156105f657600092610a30575b5081156108cf57816109d99133906130ea565b6109e581600754613065565b60075560405190815242602082015233907fbbae553982d541d38dacb1ea468ac757f324d0e279b6e4a2958f9e894da575ff60403392a3600160008051602061397d83398151915255005b9091506020813d602011610a5c575b81610a4c60209383612f39565b81010312610415575190826109c6565b3d9150610a3f565b3461041557602036600319011261041557600435610a806131de565b6103e88111610a8e57600e55005b60405162461bcd60e51b815260206004820152600d60248201526c0a4c2e8ca40e8dede40d0d2ced609b1b6044820152606490fd5b34610415576020366003190112610415576001600160a01b03610ae4612e3e565b1660005260036020526020604060002054604051908152f35b346104155760403660031901126104155761001b600435610b1c612e54565b908060005260008051602061393d833981519152602052610b446001604060002001546132d0565b613786565b346104155760203660031901126104155760606001600160a01b0380610b6d612e3e565b16600052600b60205260406000205416600c602052604060002054600d6020526040600020549060405192835260208301526040820152f35b34610415576000366003190112610415576020600e54604051908152f35b3461041557604036600319011261041557600435610be0613139565b610be86130ba565b80156108cf57600054610c09908290309033906001600160a01b0316613427565b3360005260026020526040600020610c22828254613065565b9055610c3081600554613065565b600555604051908152426020820152602435907f4eef3d1efb11f00508d9b7bb632ddcfa6da9d7105bd39f404bdd7362e6c59dbc60403392a3600160008051602061397d83398151915255005b612cde565b34610415576020366003190112610415576001600160a01b03610ca3612e3e565b16600052600d6020526020604060002054604051908152f35b34610415576000366003190112610415576020600854604051908152f35b34610415576000366003190112610415576000546040516001600160a01b039091168152602090f35b3461041557600036600319011261041557602060405160008152f35b34610415576060366003190112610415576004356004811015610415576001600160a01b036024356044358281169081810361041557610d5d613139565b610d656130ba565b81159182159081611022575b50611013575b610d8085612e9a565b9360405191610d8e83612f03565b610d9786612f5a565b8352600186015493602094858501908152600288015490604086019182526003890154956060810196875260ff600560048c01549b608084019c8d52015416159060a082159101526106455751908188108015611009575b610fe2575050908291610e0a87846000541630903390613427565b610fca575b1680151580610fc0575b610f1f575b506001549151945160405163ace8eb8760e01b815233600482015260ff88166024820152604481018690526064810196909652608486015282918591168160008160a481015b03925af19283156105f657600093610ef0575b5033600052600281526040600020610e90838254613065565b9055610e9e82600554613065565b600555610eae604051809561309a565b83015260408201527f2185d7f2f2c5c679b71bf6e81f3eded9354d5c5a0cb15e714ad41ebb2d37d3eb60603392a2600160008051602061397d83398151915255005b9080935081813d8311610f18575b610f088183612f39565b8101031261041557519184610e77565b503d610efe565b949091612710610f31600e54876130a7565b049286600052600c85526040600020610f4b858254613065565b905586600052600d855260406000209384549760018901809911610faa57610e649887965560405191825242868301527f8eadd36a0aee67beaef95bd7b130cb68a3b1a16ac68f0b395333c0db184428a260403393a391955091610e1e565b634e487b7160e01b600052601160045260246000fd5b5033811415610e19565b505033600052600b8352808060406000205416610e0f565b5160405163eafc9d5560e01b81526004810189905260248101929092526044820152606490fd5b5080518811610def565b61101d8133613809565b610d77565b905033141586610d71565b3461041557602036600319011261041557611046612e3e565b6001600160a01b03811633146110605761001b9033613809565b604051630c22084560e31b8152600490fd5b346104155760203660031901126104155761108b612e3e565b611093613296565b6001600160a01b031680156110ba576001600160601b0360a01b6001541617600155600080f35b60405162461bcd60e51b8152602060048201526016602482015275496e76616c696420514143617264206164647265737360501b6044820152606490fd5b3461041557604036600319011261041557611111612e3e565b60243561111c613296565b6111246130ba565b6000546040516370a0823160e01b81523060048201526001600160a01b0391821690602081602481855afa9081156105f6576000916111e7575b508084116111c957507fbbae553982d541d38dacb1ea468ac757f324d0e279b6e4a2958f9e894da575ff9161119684866040946130ea565b6111a284600754613065565b600755815193845242602085015233941692a3600160008051602061397d83398151915255005b836044916040519163cf47918160e01b835260048301526024820152fd5b90506020813d602011611211575b8161120260209383612f39565b8101031261041557518561115e565b3d91506111f5565b34610415576020366003190112610415576004356112356131de565b80156112775780601555426016556040519081524260208201527f378b09391f49d01e482ba75312341912ad0652cb8aa8799b6b33b624bd65d9f260403392a2005b60405162bfc92160e01b8152600490fd5b34610415576000366003190112610415576020601454604051908152f35b34610415576040366003190112610415576112bf612e54565b60043560005260008051602061393d83398151915260205260406000209060018060a01b0316600052602052602060ff604060002054166040519015158152f35b34610415576020366003190112610415576040600435806000526010602052816000205490336000526011602052826000209060005260205260ff826000205416825191825215156020820152f35b346104155760203660031901126104155760206001600160a01b0380611373612e3e565b16600052600b825260406000205416604051908152f35b346104155760003660031901126104155760206040517f10dac8c06a04bec0b551627dad28bc00d6516b0caacd1c7b345fcdb5211334e48152f35b34610415576000366003190112610415576113de61323a565b6113e6613139565b60008051602061395d833981519152600160ff198254161790557f62e78cea01bee320cd4e420270b5ea74000d11b0c9f74754ebdbfc544b05a2586020604051338152a1005b34610415576000366003190112610415576020600954604051908152f35b34610415576000366003190112610415576020600554604051908152f35b3461041557606036600319011261041557611481612e3e565b611489612e54565b90604435916001600160401b0383116104155736602384011215610415578260040135926001600160401b038411611bb8578360051b90604051946114d16020840187612f39565b8552602460208601928201019036821161041557602401915b818310611ea45750505060008051602061399d83398151915254916001600160401b03831680159081611e94575b6001149081611e8a575b159081611e81575b50611e6f5760016001600160401b031984161760008051602061399d8339815191525560ff8360401c1615611e42575b6001600160a01b03168015611e06576001600160a01b03821615611dc9576115806138ed565b6115886138ed565b6115906138ed565b6115986138ed565b600160008051602061397d833981519152556001600160601b0360a01b60005416176000556402540be40060085564174876e8006009556101f4600e5562093a8060135562093a7f194201428111610faa576014556000601255637735940060155542601655610e1060175560405161161081612f03565b60405161161c81612f1e565b600e81526d14504814da5b1d995c8810d85c9960921b602082015281526305f5e10060208201526402540be40060408201526104b06060820152601e6080820152600160a082015260008052600460205260406000209080518051906001600160401b038211611bb8576116908454612ec9565b601f8111611d85575b50602090601f8311600114611d2c57928260059360a0936117119796600092611bce575b50508160011b916000199060031b1c19161784555b602081015160018501556040810151600285015560608101516003850155608081015160048501550151151591019060ff801983541691151516179055565b60405161171d81612f03565b60405161172981612f1e565b600c81526b14504811dbdb190810d85c9960a21b60208201528152633b9aca006020820152640ba43b740060408201526105dc6060820152603c6080820152600160a08201526001600052600460205260406000209080518051906001600160401b038211611bb85761179c8454612ec9565b601f8111611ce8575b50602090601f8311600114611c8f57928260059360a09361181b9796600092611bce5750508160011b916000199060031b1c1916178455602081015160018501556040810151600285015560608101516003850155608081015160048501550151151591019060ff801983541691151516179055565b60405161182781612f03565b60405161183381612f1e565b600f81526e145048111a585b5bdb990810d85c99608a1b6020820152815264012a05f2006020820152642e90edd00060408201526107086060820152605a6080820152600160a08201526002600052600460205260406000209080518051906001600160401b038211611bb8576118aa8454612ec9565b601f8111611c4b575b50602090601f8311600114611bd957928260059360a0936119299796600092611bce5750508160011b916000199060031b1c1916178455602081015160018501556040810151600285015560608101516003850155608081015160048501550151151591019060ff801983541691151516179055565b60405161193581612f03565b60405161194181612f1e565b601081526f145048141b185d1a5b9d5b4810d85c9960821b602082015281526402540be400602082015264746a52880060408201526107d0606082015261016d6080820152600160a08201526003600052600460205260406000209080518051906001600160401b038211611bb8576119ba8454612ec9565b601f8111611b74575b50602090601f8311600114611afd57611a3d9383611a5697969460059460a094600092611af25750508160011b916000199060031b1c1916178455602081015160018501556040810151600285015560608101516003850155608081015160048501550151151591019060ff801983541691151516179055565b611a468161347f565b50611a508161350d565b506135bd565b5060005b8251811015611a8b57600581901b83016020015160019190611a84906001600160a01b0316613667565b5001611a5a565b60ff8260401c1615611a9957005b68ff00000000000000001960008051602061399d833981519152541660008051602061399d833981519152557fc7f505b2f371ae2175ee4913f4499e1f2633a7b5936321eed1cdaeb6115181d2602060405160018152a1005b015190508b806116bd565b908460005260206000209160005b601f1985168110611b5c57509360018460059460a094611a3d98611a569b9a98601f19811610611b43575b505050811b0184556116d2565b015160001960f88460031b161c191690558b8080611b36565b91926020600181928685015181550194019201611b0b565b846000526020600020601f840160051c810160208510611bb1575b601f830160051c82018110611ba55750506119c3565b60008155600101611b8f565b5080611b8f565b634e487b7160e01b600052604160045260246000fd5b015190508a806116bd565b908460005260206000209160005b601f1985168110611c3357508360a093611929979693600193600597601f19811610611c1a57505050811b0184556116d2565b015160001960f88460031b161c191690558a8080611b36565b91926020600181928685015181550194019201611be7565b846000526020600020601f840160051c810160208510611c88575b601f830160051c82018110611c7c5750506118b3565b60008155600101611c66565b5080611c66565b908460005260206000209160005b601f1985168110611cd057508360a09361181b979693600193600597601f19811610611c1a57505050811b0184556116d2565b91926020600181928685015181550194019201611c9d565b846000526020600020601f840160051c810160208510611d25575b601f830160051c82018110611d195750506117a5565b60008155600101611d03565b5080611d03565b908460005260206000209160005b601f1985168110611d6d57508360a093611711979693600193600597601f19811610611c1a57505050811b0184556116d2565b91926020600181928685015181550194019201611d3a565b846000526020600020601f840160051c810160208510611dc2575b601f830160051c82018110611db6575050611699565b60008155600101611da0565b5080611da0565b60405162461bcd60e51b8152602060048201526015602482015274496e76616c69642061646d696e206164647265737360581b6044820152606490fd5b60405162461bcd60e51b8152602060048201526014602482015273496e76616c69642055534454206164647265737360601b6044820152606490fd5b68ffffffffffffffffff198316680100000000000000011760008051602061399d8339815191525561155a565b60405163f92ee8a960e01b8152600490fd5b9050158561152a565b303b159150611522565b604085901c60ff16159150611518565b82356001600160a01b0381168103610415578152602092830192016114ea565b34610415576000366003190112610415576020601554604051908152f35b3461041557600036600319011261041557602047604051908152f35b34610415576000366003190112610415576001546040516001600160a01b039091168152602090f35b34610415576000366003190112610415576020601654604051908152f35b3461041557602036600319011261041557600435600052600a6020526020604060002054604051908152f35b346104155760e036600319011261041557600480351015610415576001600160401b0360243581811161041557366023820112156104155781816004013511610415573660248260040135830101116104155760c435801515810361041557611fd86131de565b604051611fe481612f03565b611ff1836004013561307f565b611ffe6040519182612f39565b600484013580825260248501602083013760006020856004013583010152815260443560208201526064356040820152608435606082015260a435608082015281151560a0820152612051600435612e9a565b9381518051918211611bb8576120678654612ec9565b601f81116121fa575b50602090601f83116001146121805761210793837fea088b2acd48cf08e6469ba8d937cb867a6f70de9862b7e373fda32c4d7b8fd0989460059460a094600092611bce5750508160011b916000199060031b1c1916178455602081015160018501556040810151600285015560608101516003850155608081015160048501550151151591019060ff801983541691151516179055565b60405180926121188260043561309a565b60e06020830152806004013560e0830152610100928160040135602483018585013760008483600401358501015260443560408401526064356060840152608435608084015260a43560a0840152151560c0830152601f8019916004013501168101030190a1005b908660005260206000209160005b601f19851681106121e257509360018460059460a094612107987fea088b2acd48cf08e6469ba8d937cb867a6f70de9862b7e373fda32c4d7b8fd09c98601f19811610611c1a57505050811b0184556116d2565b9192602060018192868501518155019401920161218e565b866000526020600020601f840160051c810160208510612237575b601f830160051c8201811061222b575050612070565b60008155600101612215565b5080612215565b34610415576000366003190112610415576020600754604051908152f35b3461041557600036600319011261041557602060ff60008051602061395d83398151915254166040519015158152f35b34610415576020366003190112610415576004356122a86131de565b6122b760145460135490613065565b42106108ff578060409161232e575b60125460005260106020528082600020556122e381600f54613065565b600f557f4d1225938325dca72e314a20911c9ebde0d6b3f08fb075aba351e8796f8680656012549283928151908152426020820152a26000198114610faa5760010160125542601455005b600054612349908290309033906001600160a01b0316613427565b6122c6565b34610415576040366003190112610415576004356001600160a01b0381169081900361041557602435906123806131de565b81471061240057600080809381935af13d156123fb573d6123a08161307f565b906123ae6040519283612f39565b8152600060203d92013e5b156123c057005b60405162461bcd60e51b8152602060048201526013602482015272115512081d1c985b9cd9995c8819985a5b1959606a1b6044820152606490fd5b6123b9565b60405162461bcd60e51b815260206004820152601860248201527f496e73756666696369656e74204554482062616c616e636500000000000000006044820152606490fd5b346104155760003660031901126104155761245e61323a565b60008051602061395d833981519152805460ff8116156124aa5760ff191690557f5db9ee0a495bf2e6ff9c91a7834c1ba4fdd244a5e8aa4e537bd38aeae4b073aa6020604051338152a1005b604051638dfc202b60e01b8152600490fd5b34610415576040366003190112610415576124d5612e54565b336001600160a01b038216036124f15761001b90600435613786565b60405163334bd91960e11b8152600490fd5b346104155760203660031901126104155760043560048110156104155761252c61256991612e9a565b61253581612f5a565b90600181015490600281015490600381015460ff60056004840154930154169260405196879660c0885260c0880190612fff565b946020870152604086015260608501526080840152151560a08301520390f35b34610415576000366003190112610415576020601754604051908152f35b346104155760403660031901126104155761001b6004356125c6612e54565b908060005260008051602061393d8339815191526020526125ee6001604060002001546132d0565b613711565b346104155760203660031901126104155760043561260f613164565b612617613139565b61261f6130ba565b61262881613303565b60005461264190829033906001600160a01b03166130ea565b61264d81600754613065565b600755620151804204600052600a602052604060002061266e828254613065565b905560405190808252426020830152736f7065726174696f6e616c5f776974686472617760601b809233907fd5fb189e61d5d29d4c1ae35dddf9a74b32b17616667eb42f9a36105c73bee4d360403392a460405190815242602082015233907fb3e34ddca7bfc93b361617ff32f2023b3650ce958bf594a4e5fa84f7c1a34d1460403392a4600160008051602061397d83398151915255005b34610415576040366003190112610415576004356024356127266131de565b816008558060095560405191825260208201527f86ca55648bc4e3974630a90eca019d2bfc64c8eaa84e093d677caffa363f9cdf60403392a2005b346104155760203660031901126104155760043560005260008051602061393d8339815191526020526020600160406000200154604051908152f35b346104155760003660031901126104155760606016546127bd8142613072565b60175410156015549160405192835260208301526040820152f35b34610415576040366003190112610415576001600160a01b036127f9612e3e565b1660005260116020526040600020602435600052602052602060ff604060002054166040519015158152f35b34610415576040366003190112610415576001600160401b0360043581811161041557612856903690600401612e6a565b909160243590811161041557612870903690600401612e6a565b61287b939193613139565b6128836130ba565b8083036129b55760009360005b84811061298457506000546128b3908690309033906001600160a01b0316613427565b33600052602091600260205260406000206128cf878254613065565b90556128dd86600554613065565b60055560005b85811061293157868660405191825260208201527f36ba660c6b65ee17a225b58a6a8b4835a77c2bf10fc733783ef47039e222b24560403392a2600160008051602061397d83398151915255005b8061293f600192888861303f565b3561294b82858761303f565b359060405190815242878201527f4eef3d1efb11f00508d9b7bb632ddcfa6da9d7105bd39f404bdd7362e6c59dbc60403392a3016128e3565b9461299086868661303f565b35156108cf576129ae6001916129a788888861303f565b3590613065565b9501612890565b60405162461bcd60e51b8152602060048201526015602482015274082e4e4c2f240d8cadccee8d040dad2e6dac2e8c6d605b1b6044820152606490fd5b34610415576000366003190112610415576000546040516370a0823160e01b815230600482015290602090829060249082906001600160a01b03165afa80156105f657600090612a48575b602090604051908152f35b506020813d602011612a73575b81612a6260209383612f39565b810103126104155760209051612a3d565b3d9150612a55565b3461041557606036600319011261041557612a94612e3e565b60243560443591612aa3613164565b612aab613139565b612ab36130ba565b612abc82613303565b60018060a01b0390612ad3838284600054166130ea565b612adf83600754613065565b600755620151804204600052600a6020526040600020612b00848254613065565b90551682604051838152426020820152827fd5fb189e61d5d29d4c1ae35dddf9a74b32b17616667eb42f9a36105c73bee4d360403393a46040519182524260208301527fb3e34ddca7bfc93b361617ff32f2023b3650ce958bf594a4e5fa84f7c1a34d1460403393a4600160008051602061397d83398151915255005b3461041557604036600319011261041557600435600481101561041557602435612ba5613139565b612bad6130ba565b612bb682612e9a565b90604051612bc381612f03565b612bcc83612f5a565b8152600183015490602091828201908152600285015490604083019182526003860154926060810193845260ff600560048901549860808401998a52015416159060a082159101526106455751908185108015612cd4575b612cad5750506000546001600160a01b0390612c47908590309033908516613427565b33600052600b8352806040600020541680151580610fc057610f1f57506001549151945160405163ace8eb8760e01b815233600482015260ff88166024820152604481018690526064810196909652608486015282918591168160008160a48101610e64565b5160405163eafc9d5560e01b81526004810186905260248101929092526044820152606490fd5b5080518511612c24565b34610415576020366003190112610415576001600160a01b03612cff612e3e565b1660005260026020526020604060002054604051908152f35b3461041557600036600319011261041557612d316130ba565b33600052600c60205260406000205480156108cf57336000818152600c6020526040812081905554612d6d9183916001600160a01b03166130ea565b604051908152426020820152723932b332b93930b62fb1b7b6b6b4b9b9b4b7b760691b9033907fd5fb189e61d5d29d4c1ae35dddf9a74b32b17616667eb42f9a36105c73bee4d360403392a4600160008051602061397d83398151915255005b34610415576000366003190112610415576020600f54604051908152f35b34610415576020366003190112610415576004359063ffffffff60e01b821680920361041557602091637965db0b60e01b8114908115612e2d575b5015158152f35b6301ffc9a760e01b14905083612e26565b600435906001600160a01b038216820361041557565b602435906001600160a01b038216820361041557565b9181601f84011215610415578235916001600160401b038311610415576020808501948460051b01011161041557565b6004811015612eb3576000526004602052604060002090565b634e487b7160e01b600052602160045260246000fd5b90600182811c92168015612ef9575b6020831014612ee357565b634e487b7160e01b600052602260045260246000fd5b91607f1691612ed8565b60c081019081106001600160401b03821117611bb857604052565b604081019081106001600160401b03821117611bb857604052565b90601f801991011681019081106001600160401b03821117611bb857604052565b90604051918260008254612f6d81612ec9565b90818452602094600191600181169081600014612fdd5750600114612f9e575b505050612f9c92500383612f39565b565b600090815285812095935091905b818310612fc5575050612f9c9350820101388080612f8d565b85548884018501529485019487945091830191612fac565b92505050612f9c94925060ff191682840152151560051b820101388080612f8d565b919082519283825260005b84811061302b575050826000602080949584010152601f8019910116010190565b60208183018101518483018201520161300a565b919081101561304f5760051b0190565b634e487b7160e01b600052603260045260246000fd5b91908201809211610faa57565b91908203918211610faa57565b6001600160401b038111611bb857601f01601f191660200190565b906004821015612eb35752565b81810292918115918404141715610faa57565b60008051602061397d83398151915260028154146130d85760029055565b604051633ee5aeb560e01b8152600490fd5b60405163a9059cbb60e01b60208201526001600160a01b03909216602483015260448083019390935291815260808101916001600160401b03831182841017611bb857612f9c92604052613891565b60ff60008051602061395d833981519152541661315257565b60405163d93c066560e01b8152600490fd5b3360009081527f395f4e35a18c2b5e556b3b2ff855307e76c0b3cc1ca71e19a70e83037e08e7b360205260409020547f10dac8c06a04bec0b551627dad28bc00d6516b0caacd1c7b345fcdb5211334e49060ff16156131c05750565b6044906040519063e2517d3f60e01b82523360048301526024820152fd5b3360009081527f448256db8f8fb95ee3eaaf89c1051414494e85cebb6057fcf996cc3d0ccfb45660205260409020547f97667070c54ef182b0f5858b034beac1b6f3089aa2d3188bb1e8929f4fa9b9299060ff16156131c05750565b3360009081527f75442b0a96088b5456bc4ed01394c96a4feec0f883c9494257d76b96ab1c9b6b60205260409020547f65d7a28e3265b37a6474929f336521b332c1681b933f6cb9f3376673440d862a9060ff16156131c05750565b3360009081527fb7db2dd08fcb62d0c9e08c51941cae53c267786a0b75803fb7960902fc8ef97d602052604081205460ff16156131c05750565b8060005260008051602061393d83398151915260205260406000203360005260205260ff60406000205416156131c05750565b600954808211613409575060006201518042048152600a602052604081205461332c8382613065565b906008548092116133e157505080546040516370a0823160e01b815230600482015290602090829060249082906001600160a01b03165afa9182156133d557809261339d575b505080821161337f575050565b604492506040519163cf47918160e01b835260048301526024820152fd5b9091506020823d6020116133cd575b816133b960209383612f39565b810103126133ca5750513880613372565b80fd5b3d91506133ac565b604051903d90823e3d90fd5b906133ee84604493613065565b9060405191639c8983d960e01b835260048301526024820152fd5b6044925060405191639c8983d960e01b835260048301526024820152fd5b6040516323b872dd60e01b60208201526001600160a01b03928316602482015292909116604483015260648083019390935291815260a08101918183106001600160401b03841117611bb857612f9c92604052613891565b6001600160a01b031660008181527fb7db2dd08fcb62d0c9e08c51941cae53c267786a0b75803fb7960902fc8ef97d602052604081205490919060008051602061393d8339815191529060ff16613508578280526020526040822081835260205260408220600160ff19825416179055339160008051602061391d8339815191528180a4600190565b505090565b6001600160a01b031660008181527f75442b0a96088b5456bc4ed01394c96a4feec0f883c9494257d76b96ab1c9b6b60205260408120549091907f65d7a28e3265b37a6474929f336521b332c1681b933f6cb9f3376673440d862a9060008051602061393d8339815191529060ff166135b7578184526020526040832082845260205260408320600160ff1982541617905560008051602061391d833981519152339380a4600190565b50505090565b6001600160a01b031660008181527f395f4e35a18c2b5e556b3b2ff855307e76c0b3cc1ca71e19a70e83037e08e7b360205260408120549091907f10dac8c06a04bec0b551627dad28bc00d6516b0caacd1c7b345fcdb5211334e49060008051602061393d8339815191529060ff166135b7578184526020526040832082845260205260408320600160ff1982541617905560008051602061391d833981519152339380a4600190565b6001600160a01b031660008181527f448256db8f8fb95ee3eaaf89c1051414494e85cebb6057fcf996cc3d0ccfb45660205260408120549091907f97667070c54ef182b0f5858b034beac1b6f3089aa2d3188bb1e8929f4fa9b9299060008051602061393d8339815191529060ff166135b7578184526020526040832082845260205260408320600160ff1982541617905560008051602061391d833981519152339380a4600190565b9060009180835260008051602061393d83398151915280602052604084209260018060a01b03169283855260205260ff604085205416156000146135b7578184526020526040832082845260205260408320600160ff1982541617905560008051602061391d833981519152339380a4600190565b9060009180835260008051602061393d83398151915280602052604084209260018060a01b03169283855260205260ff6040852054166000146135b757818452602052604083208284526020526040832060ff1981541690557ff6391f5c32d9c69d2a47ea670b442974b53935d1edc7fd64eb21e047a839171b339380a4600190565b6001600160a01b039081166000818152600b60205260409020805493919290918482161580613885575b61383f575b5050505050565b1680936001600160601b0360a01b161790557fd777a1c61bd7162692fd6e6733af90c5c8828bf2e57caaba876193c1f65f125c6020604051428152a33880808080613838565b50838282161415613833565b906000602091828151910182855af1156105f6576000513d6138e457506001600160a01b0381163b155b6138c25750565b604051635274afe760e01b81526001600160a01b039091166004820152602490fd5b600114156138bb565b60ff60008051602061399d8339815191525460401c161561390a57565b604051631afcd79f60e31b8152600490fdfe2f8788117e7eff1d82e926ec794901d17c78024a50270940304540a733656f0d02dd7bc7dec4dceedda775e58dd541e08a116c6c53815c0bd028192f7b626800cd5ed15c6e187e77e9aee88184c21f4f2182ab5827cb3b7e07fbedcd63f033009b779b17422d0df92223018b32b4d1fa46e071723d6817e2486d003becc55f00f0c57e16840df040f15088dc2f81fe391c3923bec73e23a9662efc9c229c6a00a264697066735822122011e946a6e86208834bbfe8737d5fe49eaadeb5f277d48e84a958ebc1b49daa7264736f6c63430008180033",
  "devdoc": {
    "details": " - USDTETH  : - USDT/ETH - ETHNFT -  -  -  - ",
    "errors": {
      "AccessControlBadConfirmation()": [
        {
          "details": "The caller of a function is not the expected one. NOTE: Don't confuse with {AccessControlUnauthorizedAccount}."
        }
      ],
      "AccessControlUnauthorizedAccount(address,bytes32)": [
        {
          "details": "The `account` is missing a role."
        }
      ],
      "EnforcedPause()": [
        {
          "details": "The operation failed because the contract is paused."
        }
      ],
      "ExpectedPause()": [
        {
          "details": "The operation failed because the contract is not paused."
        }
      ],
      "InvalidInitialization()": [
        {
          "details": "The contract is already initialized."
        }
      ],
      "NotInitializing()": [
        {
          "details": "The contract is not initializing."
        }
      ],
      "ReentrancyGuardReentrantCall()": [
        {
          "details": "Unauthorized reentrant call."
        }
      ],
      "SafeERC20FailedOperation(address)": [
        {
          "details": "An operation with an ERC-20 token failed."
        }
      ]
    },
    "events": {
      "Initialized(uint64)": {
        "details": "Triggered when the contract has been initialized or reinitialized."
      },
      "Paused(address)": {
        "details": "Emitted when the pause is triggered by `account`."
      },
      "RoleAdminChanged(bytes32,bytes32,bytes32)": {
        "details": "Emitted when `newAdminRole` is set as ``role``'s admin role, replacing `previousAdminRole` `DEFAULT_ADMIN_ROLE` is the starting admin for all roles, despite {RoleAdminChanged} not being emitted to signal this."
      },
      "RoleGranted(bytes32,address,address)": {
        "details": "Emitted when `account` is granted `role`. `sender` is the account that originated the contract call. This account bears the admin role (for the granted role). Expected in cases where the role was granted using the internal {AccessControl-_grantRole}."
      },
      "RoleRevoked(bytes32,address,address)": {
        "details": "Emitted when `account` is revoked `role`. `sender` is the account that originated the contract call:   - if using `revokeRole`, it is the admin role bearer   - if using `renounceRole`, it is the role bearer (i.e. `account`)"
      },
      "Unpaused(address)": {
        "details": "Emitted when the pause is lifted by `account`."
      }
    },
    "kind": "dev",
    "methods": {
      "batchDeposit(uint256[],bytes32[])": {
        "details": "USDT (Gas)",
        "params": {
          "amounts": "",
          "orderIds": "ID"
        }
      },
      "claimPeriodReward(uint256)": {
        "details": ""
      },
      "claimReferralCommission()": {
        "details": ""
      },
      "constructor": {
        "custom:oz-upgrades-unsafe-allow": "constructor"
      },
      "deposit(uint256,bytes32)": {
        "details": "USDT",
        "params": {
          "amount": "",
          "orderId": "ID ()"
        }
      },
      "emergencyWithdraw()": {
        "details": " ()"
      },
      "emergencyWithdraw(address,uint256)": {
        "details": " ()",
        "params": {
          "amount": "",
          "to": ""
        }
      },
      "getBalance()": {
        "details": "USDT"
      },
      "getCurrentPriceInfo()": {
        "details": "ETH"
      },
      "getETHBalance()": {
        "details": "ETH"
      },
      "getPeriodRewardInfo(uint256)": {
        "details": ""
      },
      "getProductInfo(uint8)": {
        "details": ""
      },
      "getRoleAdmin(bytes32)": {
        "details": "Returns the admin role that controls `role`. See {grantRole} and {revokeRole}. To change a role's admin, use {_setRoleAdmin}."
      },
      "getTodayWithdrawn()": {
        "details": ""
      },
      "getTotalETHDeposits()": {
        "details": "ETH"
      },
      "getUserDeposits(address)": {
        "details": ""
      },
      "getUserETHDeposits(address)": {
        "details": "ETH"
      },
      "getUserInvestments(address)": {
        "details": " ()"
      },
      "getUserReferralInfo(address)": {
        "details": ""
      },
      "grantRole(bytes32,address)": {
        "details": "Grants `role` to `account`. If `account` had not been already granted `role`, emits a {RoleGranted} event. Requirements: - the caller must have ``role``'s admin role. May emit a {RoleGranted} event."
      },
      "hasRole(bytes32,address)": {
        "details": "Returns `true` if `account` has been granted `role`."
      },
      "initialize(address,address,address[])": {
        "details": "",
        "params": {
          "_admin": "",
          "_operators": "",
          "_usdtToken": "USDT"
        }
      },
      "pause()": {
        "details": ""
      },
      "paused()": {
        "details": "Returns true if the contract is paused, and false otherwise."
      },
      "purchaseProduct(uint8,uint256)": {
        "details": "",
        "params": {
          "amount": "",
          "productType": ""
        }
      },
      "purchaseProductWithETH(uint8)": {
        "details": "ETH",
        "params": {
          "productType": ""
        }
      },
      "purchaseProductWithReferral(uint8,uint256,address)": {
        "details": "",
        "params": {
          "amount": "",
          "productType": "",
          "referrer": ""
        }
      },
      "renounceRole(bytes32,address)": {
        "details": "Revokes `role` from the calling account. Roles are often managed via {grantRole} and {revokeRole}: this function's purpose is to provide a mechanism for accounts to lose their privileges if they are compromised (such as when a trusted device is misplaced). If the calling account had been revoked `role`, emits a {RoleRevoked} event. Requirements: - the caller must be `callerConfirmation`. May emit a {RoleRevoked} event."
      },
      "revokeRole(bytes32,address)": {
        "details": "Revokes `role` from `account`. If `account` had been granted `role`, emits a {RoleRevoked} event. Requirements: - the caller must have ``role``'s admin role. May emit a {RoleRevoked} event."
      },
      "setQACard(address)": {
        "details": "QACard"
      },
      "setReferralCommissionRate(uint256)": {
        "details": ""
      },
      "setReferrer(address)": {
        "details": ""
      },
      "setWithdrawLimits(uint256,uint256)": {
        "details": "",
        "params": {
          "_dailyLimit": "",
          "_singleLimit": ""
        }
      },
      "startRewardPeriod(uint256)": {
        "details": ""
      },
      "supportsInterface(bytes4)": {
        "details": "Returns true if this contract implements the interface defined by `interfaceId`. See the corresponding https://eips.ethereum.org/EIPS/eip-165#how-interfaces-are-identified[ERC section] to learn more about how these ids are created. This function call must use less than 30 000 gas."
      },
      "unpause()": {
        "details": ""
      },
      "updateDailyWithdrawalLimit(uint256)": {
        "details": " ()",
        "params": {
          "_dailyLimit": ""
        }
      },
      "updateETHPrice(uint256)": {
        "details": "ETH"
      },
      "updateProduct(uint8,string,uint256,uint256,uint256,uint256,bool)": {
        "details": ""
      },
      "withdraw(address,uint256,bytes32)": {
        "details": "USDT",
        "params": {
          "amount": "",
          "reason": "",
          "to": ""
        }
      },
      "withdraw(uint256)": {
        "details": "USDT ()",
        "params": {
          "amount": ""
        }
      },
      "withdrawETH(address,uint256)": {
        "details": "ETH"
      }
    },
    "title": "Treasury",
    "version": 1
  },
  "userdoc": {
    "kind": "user",
    "methods": {},
    "version": 1
  },
  "storageLayout": {
    "storage": [
      {
        "astId": 10494,
        "contract": "contracts/Treasury.sol:Treasury",
        "label": "usdtToken",
        "offset": 0,
        "slot": "0",
        "type": "t_contract(IERC20)3725"
      },
      {
        "astId": 10497,
        "contract": "contracts/Treasury.sol:Treasury",
        "label": "qaCard",
        "offset": 0,
        "slot": "1",
        "type": "t_contract(QACard)10436"
      },
      {
        "astId": 10501,
        "contract": "contracts/Treasury.sol:Treasury",
        "label": "userDeposits",
        "offset": 0,
        "slot": "2",
        "type": "t_mapping(t_address,t_uint256)"
      },
      {
        "astId": 10505,
        "contract": "contracts/Treasury.sol:Treasury",
        "label": "userEthDeposits",
        "offset": 0,
        "slot": "3",
        "type": "t_mapping(t_address,t_uint256)"
      },
      {
        "astId": 10511,
        "contract": "contracts/Treasury.sol:Treasury",
        "label": "products",
        "offset": 0,
        "slot": "4",
        "type": "t_mapping(t_enum(ProductType)10478,t_struct(ProductInfo)10491_storage)"
      },
      {
        "astId": 10513,
        "contract": "contracts/Treasury.sol:Treasury",
        "label": "totalDeposits",
        "offset": 0,
        "slot": "5",
        "type": "t_uint256"
      },
      {
        "astId": 10515,
        "contract": "contracts/Treasury.sol:Treasury",
        "label": "totalEthDeposits",
        "offset": 0,
        "slot": "6",
        "type": "t_uint256"
      },
      {
        "astId": 10517,
        "contract": "contracts/Treasury.sol:Treasury",
        "label": "totalWithdrawals",
        "offset": 0,
        "slot": "7",
        "type": "t_uint256"
      },
      {
        "astId": 10519,
        "contract": "contracts/Treasury.sol:Treasury",
        "label": "dailyWithdrawLimit",
        "offset": 0,
        "slot": "8",
        "type": "t_uint256"
      },
      {
        "astId": 10521,
        "contract": "contracts/Treasury.sol:Treasury",
        "label": "singleWithdrawLimit",
        "offset": 0,
        "slot": "9",
        "type": "t_uint256"
      },
      {
        "astId": 10525,
        "contract": "contracts/Treasury.sol:Treasury",
        "label": "dailyWithdrawn",
        "offset": 0,
        "slot": "10",
        "type": "t_mapping(t_uint256,t_uint256)"
      },
      {
        "astId": 10529,
        "contract": "contracts/Treasury.sol:Treasury",
        "label": "userReferrers",
        "offset": 0,
        "slot": "11",
        "type": "t_mapping(t_address,t_address)"
      },
      {
        "astId": 10533,
        "contract": "contracts/Treasury.sol:Treasury",
        "label": "referralCommissions",
        "offset": 0,
        "slot": "12",
        "type": "t_mapping(t_address,t_uint256)"
      },
      {
        "astId": 10537,
        "contract": "contracts/Treasury.sol:Treasury",
        "label": "totalReferrals",
        "offset": 0,
        "slot": "13",
        "type": "t_mapping(t_address,t_uint256)"
      },
      {
        "astId": 10539,
        "contract": "contracts/Treasury.sol:Treasury",
        "label": "referralCommissionRate",
        "offset": 0,
        "slot": "14",
        "type": "t_uint256"
      },
      {
        "astId": 10541,
        "contract": "contracts/Treasury.sol:Treasury",
        "label": "totalRewardPool",
        "offset": 0,
        "slot": "15",
        "type": "t_uint256"
      },
      {
        "astId": 10545,
        "contract": "contracts/Treasury.sol:Treasury",
        "label": "periodRewards",
        "offset": 0,
        "slot": "16",
        "type": "t_mapping(t_uint256,t_uint256)"
      },
      {
        "astId": 10551,
        "contract": "contracts/Treasury.sol:Treasury",
        "label": "userRewardsClaimed",
        "offset": 0,
        "slot": "17",
        "type": "t_mapping(t_address,t_mapping(t_uint256,t_bool))"
      },
      {
        "astId": 10553,
        "contract": "contracts/Treasury.sol:Treasury",
        "label": "currentRewardPeriod",
        "offset": 0,
        "slot": "18",
        "type": "t_uint256"
      },
      {
        "astId": 10555,
        "contract": "contracts/Treasury.sol:Treasury",
        "label": "rewardPeriodDuration",
        "offset": 0,
        "slot": "19",
        "type": "t_uint256"
      },
      {
        "astId": 10557,
        "contract": "contracts/Treasury.sol:Treasury",
        "label": "lastRewardTime",
        "offset": 0,
        "slot": "20",
        "type": "t_uint256"
      },
      {
        "astId": 10559,
        "contract": "contracts/Treasury.sol:Treasury",
        "label": "ethToUsdtRate",
        "offset": 0,
        "slot": "21",
        "type": "t_uint256"
      },
      {
        "astId": 10561,
        "contract": "contracts/Treasury.sol:Treasury",
        "label": "lastPriceUpdate",
        "offset": 0,
        "slot": "22",
        "type": "t_uint256"
      },
      {
        "astId": 10563,
        "contract": "contracts/Treasury.sol:Treasury",
        "label": "priceValidityPeriod",
        "offset": 0,
        "slot": "23",
        "type": "t_uint256"
      }
    ],
    "types": {
      "t_address": {
        "encoding": "inplace",
        "label": "address",
        "numberOfBytes": "20"
      },
      "t_bool": {
        "encoding": "inplace",
        "label": "bool",
        "numberOfBytes": "1"
      },
      "t_contract(IERC20)3725": {
        "encoding": "inplace",
        "label": "contract IERC20",
        "numberOfBytes": "20"
      },
      "t_contract(QACard)10436": {
        "encoding": "inplace",
        "label": "contract QACard",
        "numberOfBytes": "20"
      },
      "t_enum(ProductType)10478": {
        "encoding": "inplace",
        "label": "enum Treasury.ProductType",
        "numberOfBytes": "1"
      },
      "t_mapping(t_address,t_address)": {
        "encoding": "mapping",
        "key": "t_address",
        "label": "mapping(address => address)",
        "numberOfBytes": "32",
        "value": "t_address"
      },
      "t_mapping(t_address,t_mapping(t_uint256,t_bool))": {
        "encoding": "mapping",
        "key": "t_address",
        "label": "mapping(address => mapping(uint256 => bool))",
        "numberOfBytes": "32",
        "value": "t_mapping(t_uint256,t_bool)"
      },
      "t_mapping(t_address,t_uint256)": {
        "encoding": "mapping",
        "key": "t_address",
        "label": "mapping(address => uint256)",
        "numberOfBytes": "32",
        "value": "t_uint256"
      },
      "t_mapping(t_enum(ProductType)10478,t_struct(ProductInfo)10491_storage)": {
        "encoding": "mapping",
        "key": "t_enum(ProductType)10478",
        "label": "mapping(enum Treasury.ProductType => struct Treasury.ProductInfo)",
        "numberOfBytes": "32",
        "value": "t_struct(ProductInfo)10491_storage"
      },
      "t_mapping(t_uint256,t_bool)": {
        "encoding": "mapping",
        "key": "t_uint256",
        "label": "mapping(uint256 => bool)",
        "numberOfBytes": "32",
        "value": "t_bool"
      },
      "t_mapping(t_uint256,t_uint256)": {
        "encoding": "mapping",
        "key": "t_uint256",
        "label": "mapping(uint256 => uint256)",
        "numberOfBytes": "32",
        "value": "t_uint256"
      },
      "t_string_storage": {
        "encoding": "bytes",
        "label": "string",
        "numberOfBytes": "32"
      },
      "t_struct(ProductInfo)10491_storage": {
        "encoding": "inplace",
        "label": "struct Treasury.ProductInfo",
        "members": [
          {
            "astId": 10480,
            "contract": "contracts/Treasury.sol:Treasury",
            "label": "name",
            "offset": 0,
            "slot": "0",
            "type": "t_string_storage"
          },
          {
            "astId": 10482,
            "contract": "contracts/Treasury.sol:Treasury",
            "label": "minInvestment",
            "offset": 0,
            "slot": "1",
            "type": "t_uint256"
          },
          {
            "astId": 10484,
            "contract": "contracts/Treasury.sol:Treasury",
            "label": "maxInvestment",
            "offset": 0,
            "slot": "2",
            "type": "t_uint256"
          },
          {
            "astId": 10486,
            "contract": "contracts/Treasury.sol:Treasury",
            "label": "apr",
            "offset": 0,
            "slot": "3",
            "type": "t_uint256"
          },
          {
            "astId": 10488,
            "contract": "contracts/Treasury.sol:Treasury",
            "label": "duration",
            "offset": 0,
            "slot": "4",
            "type": "t_uint256"
          },
          {
            "astId": 10490,
            "contract": "contracts/Treasury.sol:Treasury",
            "label": "isActive",
            "offset": 0,
            "slot": "5",
            "type": "t_bool"
          }
        ],
        "numberOfBytes": "192"
      },
      "t_uint256": {
        "encoding": "inplace",
        "label": "uint256",
        "numberOfBytes": "32"
      }
    }
  }
}