{
  "_format": "hh-sol-artifact-1",
  "contractName": "YieldDistributor",
  "sourceName": "contracts/YieldDistributor.sol",
  "abi": [
    {
      "inputs": [],
      "stateMutability": "nonpayable",
      "type": "constructor"
    },
    {
      "inputs": [],
      "name": "AccessControlBadConfirmation",
      "type": "error"
    },
    {
      "inputs": [
        {
          "internalType": "address",
          "name": "account",
          "type": "address"
        },
        {
          "internalType": "bytes32",
          "name": "neededRole",
          "type": "bytes32"
        }
      ],
      "name": "AccessControlUnauthorizedAccount",
      "type": "error"
    },
    {
      "inputs": [
        {
          "internalType": "address",
          "name": "user",
          "type": "address"
        },
        {
          "internalType": "uint256",
          "name": "day",
          "type": "uint256"
        }
      ],
      "name": "AlreadyDistributed",
      "type": "error"
    },
    {
      "inputs": [
        {
          "internalType": "bytes32",
          "name": "batchId",
          "type": "bytes32"
        }
      ],
      "name": "BatchNotCompleted",
      "type": "error"
    },
    {
      "inputs": [
        {
          "internalType": "uint256",
          "name": "provided",
          "type": "uint256"
        },
        {
          "internalType": "uint256",
          "name": "maximum",
          "type": "uint256"
        }
      ],
      "name": "BatchSizeExceeded",
      "type": "error"
    },
    {
      "inputs": [],
      "name": "EnforcedPause",
      "type": "error"
    },
    {
      "inputs": [],
      "name": "ExpectedPause",
      "type": "error"
    },
    {
      "inputs": [
        {
          "internalType": "uint256",
          "name": "requested",
          "type": "uint256"
        },
        {
          "internalType": "uint256",
          "name": "available",
          "type": "uint256"
        }
      ],
      "name": "InsufficientFunds",
      "type": "error"
    },
    {
      "inputs": [],
      "name": "InvalidAmount",
      "type": "error"
    },
    {
      "inputs": [
        {
          "internalType": "bytes32",
          "name": "batchId",
          "type": "bytes32"
        }
      ],
      "name": "InvalidBatchId",
      "type": "error"
    },
    {
      "inputs": [],
      "name": "InvalidInitialization",
      "type": "error"
    },
    {
      "inputs": [],
      "name": "NotInitializing",
      "type": "error"
    },
    {
      "inputs": [
        {
          "internalType": "address",
          "name": "user",
          "type": "address"
        }
      ],
      "name": "NothingToClaim",
      "type": "error"
    },
    {
      "inputs": [
        {
          "internalType": "uint256",
          "name": "recordId",
          "type": "uint256"
        }
      ],
      "name": "RecordNotFound",
      "type": "error"
    },
    {
      "inputs": [],
      "name": "ReentrancyGuardReentrantCall",
      "type": "error"
    },
    {
      "inputs": [
        {
          "internalType": "address",
          "name": "token",
          "type": "address"
        }
      ],
      "name": "SafeERC20FailedOperation",
      "type": "error"
    },
    {
      "inputs": [],
      "name": "UnauthorizedAccess",
      "type": "error"
    },
    {
      "anonymous": false,
      "inputs": [
        {
          "indexed": true,
          "internalType": "bytes32",
          "name": "batchId",
          "type": "bytes32"
        },
        {
          "indexed": false,
          "internalType": "uint256",
          "name": "completedAt",
          "type": "uint256"
        },
        {
          "indexed": false,
          "internalType": "bool",
          "name": "success",
          "type": "bool"
        }
      ],
      "name": "BatchDistributionCompleted",
      "type": "event"
    },
    {
      "anonymous": false,
      "inputs": [
        {
          "indexed": true,
          "internalType": "bytes32",
          "name": "batchId",
          "type": "bytes32"
        },
        {
          "indexed": false,
          "internalType": "uint256",
          "name": "totalAmount",
          "type": "uint256"
        },
        {
          "indexed": false,
          "internalType": "uint256",
          "name": "recordCount",
          "type": "uint256"
        },
        {
          "indexed": true,
          "internalType": "address",
          "name": "operator",
          "type": "address"
        }
      ],
      "name": "BatchDistributionStarted",
      "type": "event"
    },
    {
      "anonymous": false,
      "inputs": [
        {
          "indexed": false,
          "internalType": "uint256",
          "name": "maxBatchSize",
          "type": "uint256"
        },
        {
          "indexed": false,
          "internalType": "uint256",
          "name": "minDistributionAmount",
          "type": "uint256"
        },
        {
          "indexed": false,
          "internalType": "uint256",
          "name": "distributionFee",
          "type": "uint256"
        }
      ],
      "name": "DistributionConfigUpdated",
      "type": "event"
    },
    {
      "anonymous": false,
      "inputs": [
        {
          "indexed": true,
          "internalType": "address",
          "name": "token",
          "type": "address"
        },
        {
          "indexed": true,
          "internalType": "address",
          "name": "to",
          "type": "address"
        },
        {
          "indexed": false,
          "internalType": "uint256",
          "name": "amount",
          "type": "uint256"
        },
        {
          "indexed": true,
          "internalType": "address",
          "name": "operator",
          "type": "address"
        }
      ],
      "name": "EmergencyWithdraw",
      "type": "event"
    },
    {
      "anonymous": false,
      "inputs": [
        {
          "indexed": false,
          "internalType": "uint64",
          "name": "version",
          "type": "uint64"
        }
      ],
      "name": "Initialized",
      "type": "event"
    },
    {
      "anonymous": false,
      "inputs": [
        {
          "indexed": false,
          "internalType": "address",
          "name": "account",
          "type": "address"
        }
      ],
      "name": "Paused",
      "type": "event"
    },
    {
      "anonymous": false,
      "inputs": [
        {
          "indexed": true,
          "internalType": "bytes32",
          "name": "role",
          "type": "bytes32"
        },
        {
          "indexed": true,
          "internalType": "bytes32",
          "name": "previousAdminRole",
          "type": "bytes32"
        },
        {
          "indexed": true,
          "internalType": "bytes32",
          "name": "newAdminRole",
          "type": "bytes32"
        }
      ],
      "name": "RoleAdminChanged",
      "type": "event"
    },
    {
      "anonymous": false,
      "inputs": [
        {
          "indexed": true,
          "internalType": "bytes32",
          "name": "role",
          "type": "bytes32"
        },
        {
          "indexed": true,
          "internalType": "address",
          "name": "account",
          "type": "address"
        },
        {
          "indexed": true,
          "internalType": "address",
          "name": "sender",
          "type": "address"
        }
      ],
      "name": "RoleGranted",
      "type": "event"
    },
    {
      "anonymous": false,
      "inputs": [
        {
          "indexed": true,
          "internalType": "bytes32",
          "name": "role",
          "type": "bytes32"
        },
        {
          "indexed": true,
          "internalType": "address",
          "name": "account",
          "type": "address"
        },
        {
          "indexed": true,
          "internalType": "address",
          "name": "sender",
          "type": "address"
        }
      ],
      "name": "RoleRevoked",
      "type": "event"
    },
    {
      "anonymous": false,
      "inputs": [
        {
          "indexed": false,
          "internalType": "address",
          "name": "account",
          "type": "address"
        }
      ],
      "name": "Unpaused",
      "type": "event"
    },
    {
      "anonymous": false,
      "inputs": [
        {
          "indexed": true,
          "internalType": "address",
          "name": "user",
          "type": "address"
        },
        {
          "indexed": false,
          "internalType": "uint256[]",
          "name": "recordIds",
          "type": "uint256[]"
        },
        {
          "indexed": false,
          "internalType": "uint256",
          "name": "totalAmount",
          "type": "uint256"
        },
        {
          "indexed": false,
          "internalType": "uint256",
          "name": "timestamp",
          "type": "uint256"
        }
      ],
      "name": "YieldClaimed",
      "type": "event"
    },
    {
      "anonymous": false,
      "inputs": [
        {
          "indexed": true,
          "internalType": "address",
          "name": "user",
          "type": "address"
        },
        {
          "indexed": true,
          "internalType": "uint256",
          "name": "recordId",
          "type": "uint256"
        },
        {
          "indexed": false,
          "internalType": "uint256",
          "name": "amount",
          "type": "uint256"
        },
        {
          "indexed": false,
          "internalType": "uint256",
          "name": "positionId",
          "type": "uint256"
        },
        {
          "indexed": true,
          "internalType": "bytes32",
          "name": "batchId",
          "type": "bytes32"
        },
        {
          "indexed": false,
          "internalType": "uint256",
          "name": "timestamp",
          "type": "uint256"
        }
      ],
      "name": "YieldDistributed",
      "type": "event"
    },
    {
      "inputs": [],
      "name": "DEFAULT_ADMIN_ROLE",
      "outputs": [
        {
          "internalType": "bytes32",
          "name": "",
          "type": "bytes32"
        }
      ],
      "stateMutability": "view",
      "type": "function"
    },
    {
      "inputs": [],
      "name": "DISTRIBUTOR_ROLE",
      "outputs": [
        {
          "internalType": "bytes32",
          "name": "",
          "type": "bytes32"
        }
      ],
      "stateMutability": "view",
      "type": "function"
    },
    {
      "inputs": [],
      "name": "OPERATOR_ROLE",
      "outputs": [
        {
          "internalType": "bytes32",
          "name": "",
          "type": "bytes32"
        }
      ],
      "stateMutability": "view",
      "type": "function"
    },
    {
      "inputs": [],
      "name": "PAUSER_ROLE",
      "outputs": [
        {
          "internalType": "bytes32",
          "name": "",
          "type": "bytes32"
        }
      ],
      "stateMutability": "view",
      "type": "function"
    },
    {
      "inputs": [
        {
          "internalType": "address[]",
          "name": "users",
          "type": "address[]"
        },
        {
          "internalType": "uint256[]",
          "name": "amounts",
          "type": "uint256[]"
        },
        {
          "internalType": "uint256[]",
          "name": "positionIds",
          "type": "uint256[]"
        },
        {
          "internalType": "bytes32",
          "name": "batchId",
          "type": "bytes32"
        }
      ],
      "name": "batchDistributeYield",
      "outputs": [],
      "stateMutability": "nonpayable",
      "type": "function"
    },
    {
      "inputs": [],
      "name": "claimAllAvailable",
      "outputs": [],
      "stateMutability": "nonpayable",
      "type": "function"
    },
    {
      "inputs": [
        {
          "internalType": "uint256[]",
          "name": "recordIds",
          "type": "uint256[]"
        }
      ],
      "name": "claimYield",
      "outputs": [],
      "stateMutability": "nonpayable",
      "type": "function"
    },
    {
      "inputs": [
        {
          "internalType": "bytes32",
          "name": "batchId",
          "type": "bytes32"
        }
      ],
      "name": "completeBatchDistribution",
      "outputs": [],
      "stateMutability": "nonpayable",
      "type": "function"
    },
    {
      "inputs": [
        {
          "internalType": "address",
          "name": "",
          "type": "address"
        },
        {
          "internalType": "uint256",
          "name": "",
          "type": "uint256"
        }
      ],
      "name": "dailyDistributed",
      "outputs": [
        {
          "internalType": "bool",
          "name": "",
          "type": "bool"
        }
      ],
      "stateMutability": "view",
      "type": "function"
    },
    {
      "inputs": [
        {
          "internalType": "bytes32",
          "name": "",
          "type": "bytes32"
        }
      ],
      "name": "distributionBatches",
      "outputs": [
        {
          "internalType": "bytes32",
          "name": "batchId",
          "type": "bytes32"
        },
        {
          "internalType": "uint256",
          "name": "totalAmount",
          "type": "uint256"
        },
        {
          "internalType": "uint256",
          "name": "totalRecords",
          "type": "uint256"
        },
        {
          "internalType": "uint256",
          "name": "completedAt",
          "type": "uint256"
        },
        {
          "internalType": "address",
          "name": "operator",
          "type": "address"
        },
        {
          "internalType": "bool",
          "name": "isCompleted",
          "type": "bool"
        }
      ],
      "stateMutability": "view",
      "type": "function"
    },
    {
      "inputs": [],
      "name": "distributionFee",
      "outputs": [
        {
          "internalType": "uint256",
          "name": "",
          "type": "uint256"
        }
      ],
      "stateMutability": "view",
      "type": "function"
    },
    {
      "inputs": [
        {
          "internalType": "address",
          "name": "token",
          "type": "address"
        },
        {
          "internalType": "address",
          "name": "to",
          "type": "address"
        },
        {
          "internalType": "uint256",
          "name": "amount",
          "type": "uint256"
        }
      ],
      "name": "emergencyWithdraw",
      "outputs": [],
      "stateMutability": "nonpayable",
      "type": "function"
    },
    {
      "inputs": [
        {
          "internalType": "bytes32",
          "name": "batchId",
          "type": "bytes32"
        }
      ],
      "name": "getBatchInfo",
      "outputs": [
        {
          "internalType": "uint256",
          "name": "totalAmount",
          "type": "uint256"
        },
        {
          "internalType": "uint256",
          "name": "totalRecords",
          "type": "uint256"
        },
        {
          "internalType": "uint256",
          "name": "completedAt",
          "type": "uint256"
        },
        {
          "internalType": "address",
          "name": "operator",
          "type": "address"
        },
        {
          "internalType": "bool",
          "name": "isCompleted",
          "type": "bool"
        }
      ],
      "stateMutability": "view",
      "type": "function"
    },
    {
      "inputs": [],
      "name": "getContractStats",
      "outputs": [
        {
          "internalType": "uint256",
          "name": "_totalRecordCount",
          "type": "uint256"
        },
        {
          "internalType": "uint256",
          "name": "_totalDistributed",
          "type": "uint256"
        },
        {
          "internalType": "uint256",
          "name": "_totalClaimed",
          "type": "uint256"
        },
        {
          "internalType": "uint256",
          "name": "_contractBalance",
          "type": "uint256"
        },
        {
          "internalType": "uint256",
          "name": "_activeRecords",
          "type": "uint256"
        }
      ],
      "stateMutability": "view",
      "type": "function"
    },
    {
      "inputs": [
        {
          "internalType": "bytes32",
          "name": "role",
          "type": "bytes32"
        }
      ],
      "name": "getRoleAdmin",
      "outputs": [
        {
          "internalType": "bytes32",
          "name": "",
          "type": "bytes32"
        }
      ],
      "stateMutability": "view",
      "type": "function"
    },
    {
      "inputs": [
        {
          "internalType": "address",
          "name": "user",
          "type": "address"
        },
        {
          "internalType": "uint256",
          "name": "limit",
          "type": "uint256"
        }
      ],
      "name": "getUserUnclaimedRecords",
      "outputs": [
        {
          "internalType": "uint256[]",
          "name": "recordIds",
          "type": "uint256[]"
        },
        {
          "internalType": "uint256[]",
          "name": "amounts",
          "type": "uint256[]"
        }
      ],
      "stateMutability": "view",
      "type": "function"
    },
    {
      "inputs": [
        {
          "internalType": "address",
          "name": "user",
          "type": "address"
        }
      ],
      "name": "getUserYieldInfo",
      "outputs": [
        {
          "internalType": "uint256",
          "name": "totalEarned",
          "type": "uint256"
        },
        {
          "internalType": "uint256",
          "name": "totalClaimed",
          "type": "uint256"
        },
        {
          "internalType": "uint256",
          "name": "availableToClean",
          "type": "uint256"
        },
        {
          "internalType": "uint256",
          "name": "lastClaimAt",
          "type": "uint256"
        },
        {
          "internalType": "uint256",
          "name": "recordCount",
          "type": "uint256"
        }
      ],
      "stateMutability": "view",
      "type": "function"
    },
    {
      "inputs": [
        {
          "internalType": "uint256",
          "name": "recordId",
          "type": "uint256"
        }
      ],
      "name": "getYieldRecord",
      "outputs": [
        {
          "internalType": "address",
          "name": "user",
          "type": "address"
        },
        {
          "internalType": "uint256",
          "name": "amount",
          "type": "uint256"
        },
        {
          "internalType": "uint256",
          "name": "positionId",
          "type": "uint256"
        },
        {
          "internalType": "uint256",
          "name": "distributionDate",
          "type": "uint256"
        },
        {
          "internalType": "uint256",
          "name": "blockNumber",
          "type": "uint256"
        },
        {
          "internalType": "bytes32",
          "name": "batchId",
          "type": "bytes32"
        },
        {
          "internalType": "bool",
          "name": "claimed",
          "type": "bool"
        },
        {
          "internalType": "uint256",
          "name": "claimedAt",
          "type": "uint256"
        }
      ],
      "stateMutability": "view",
      "type": "function"
    },
    {
      "inputs": [
        {
          "internalType": "bytes32",
          "name": "role",
          "type": "bytes32"
        },
        {
          "internalType": "address",
          "name": "account",
          "type": "address"
        }
      ],
      "name": "grantRole",
      "outputs": [],
      "stateMutability": "nonpayable",
      "type": "function"
    },
    {
      "inputs": [
        {
          "internalType": "bytes32",
          "name": "role",
          "type": "bytes32"
        },
        {
          "internalType": "address",
          "name": "account",
          "type": "address"
        }
      ],
      "name": "hasRole",
      "outputs": [
        {
          "internalType": "bool",
          "name": "",
          "type": "bool"
        }
      ],
      "stateMutability": "view",
      "type": "function"
    },
    {
      "inputs": [
        {
          "internalType": "address",
          "name": "_usdtToken",
          "type": "address"
        },
        {
          "internalType": "address",
          "name": "_qaCard",
          "type": "address"
        },
        {
          "internalType": "address",
          "name": "_admin",
          "type": "address"
        },
        {
          "internalType": "address[]",
          "name": "_distributors",
          "type": "address[]"
        }
      ],
      "name": "initialize",
      "outputs": [],
      "stateMutability": "nonpayable",
      "type": "function"
    },
    {
      "inputs": [
        {
          "internalType": "address",
          "name": "user",
          "type": "address"
        },
        {
          "internalType": "uint256",
          "name": "day",
          "type": "uint256"
        }
      ],
      "name": "isDailyDistributed",
      "outputs": [
        {
          "internalType": "bool",
          "name": "",
          "type": "bool"
        }
      ],
      "stateMutability": "view",
      "type": "function"
    },
    {
      "inputs": [],
      "name": "maxBatchSize",
      "outputs": [
        {
          "internalType": "uint256",
          "name": "",
          "type": "uint256"
        }
      ],
      "stateMutability": "view",
      "type": "function"
    },
    {
      "inputs": [],
      "name": "minDistributionAmount",
      "outputs": [
        {
          "internalType": "uint256",
          "name": "",
          "type": "uint256"
        }
      ],
      "stateMutability": "view",
      "type": "function"
    },
    {
      "inputs": [],
      "name": "pause",
      "outputs": [],
      "stateMutability": "nonpayable",
      "type": "function"
    },
    {
      "inputs": [],
      "name": "paused",
      "outputs": [
        {
          "internalType": "bool",
          "name": "",
          "type": "bool"
        }
      ],
      "stateMutability": "view",
      "type": "function"
    },
    {
      "inputs": [],
      "name": "qaCard",
      "outputs": [
        {
          "internalType": "contract QACard",
          "name": "",
          "type": "address"
        }
      ],
      "stateMutability": "view",
      "type": "function"
    },
    {
      "inputs": [
        {
          "internalType": "bytes32",
          "name": "role",
          "type": "bytes32"
        },
        {
          "internalType": "address",
          "name": "callerConfirmation",
          "type": "address"
        }
      ],
      "name": "renounceRole",
      "outputs": [],
      "stateMutability": "nonpayable",
      "type": "function"
    },
    {
      "inputs": [
        {
          "internalType": "bytes32",
          "name": "role",
          "type": "bytes32"
        },
        {
          "internalType": "address",
          "name": "account",
          "type": "address"
        }
      ],
      "name": "revokeRole",
      "outputs": [],
      "stateMutability": "nonpayable",
      "type": "function"
    },
    {
      "inputs": [
        {
          "internalType": "bytes4",
          "name": "interfaceId",
          "type": "bytes4"
        }
      ],
      "name": "supportsInterface",
      "outputs": [
        {
          "internalType": "bool",
          "name": "",
          "type": "bool"
        }
      ],
      "stateMutability": "view",
      "type": "function"
    },
    {
      "inputs": [],
      "name": "totalClaimed",
      "outputs": [
        {
          "internalType": "uint256",
          "name": "",
          "type": "uint256"
        }
      ],
      "stateMutability": "view",
      "type": "function"
    },
    {
      "inputs": [],
      "name": "totalDistributed",
      "outputs": [
        {
          "internalType": "uint256",
          "name": "",
          "type": "uint256"
        }
      ],
      "stateMutability": "view",
      "type": "function"
    },
    {
      "inputs": [],
      "name": "totalRecordCount",
      "outputs": [
        {
          "internalType": "uint256",
          "name": "",
          "type": "uint256"
        }
      ],
      "stateMutability": "view",
      "type": "function"
    },
    {
      "inputs": [],
      "name": "unpause",
      "outputs": [],
      "stateMutability": "nonpayable",
      "type": "function"
    },
    {
      "inputs": [
        {
          "internalType": "uint256",
          "name": "_maxBatchSize",
          "type": "uint256"
        },
        {
          "internalType": "uint256",
          "name": "_minDistributionAmount",
          "type": "uint256"
        },
        {
          "internalType": "uint256",
          "name": "_distributionFee",
          "type": "uint256"
        }
      ],
      "name": "updateDistributionConfig",
      "outputs": [],
      "stateMutability": "nonpayable",
      "type": "function"
    },
    {
      "inputs": [],
      "name": "usdtToken",
      "outputs": [
        {
          "internalType": "contract IERC20",
          "name": "",
          "type": "address"
        }
      ],
      "stateMutability": "view",
      "type": "function"
    },
    {
      "inputs": [
        {
          "internalType": "address",
          "name": "",
          "type": "address"
        }
      ],
      "name": "userYieldInfo",
      "outputs": [
        {
          "internalType": "uint256",
          "name": "totalEarned",
          "type": "uint256"
        },
        {
          "internalType": "uint256",
          "name": "totalClaimed",
          "type": "uint256"
        },
        {
          "internalType": "uint256",
          "name": "availableToClean",
          "type": "uint256"
        },
        {
          "internalType": "uint256",
          "name": "lastClaimAt",
          "type": "uint256"
        }
      ],
      "stateMutability": "view",
      "type": "function"
    },
    {
      "inputs": [
        {
          "internalType": "uint256",
          "name": "",
          "type": "uint256"
        }
      ],
      "name": "yieldRecords",
      "outputs": [
        {
          "internalType": "address",
          "name": "user",
          "type": "address"
        },
        {
          "internalType": "uint256",
          "name": "amount",
          "type": "uint256"
        },
        {
          "internalType": "uint256",
          "name": "positionId",
          "type": "uint256"
        },
        {
          "internalType": "uint256",
          "name": "distributionDate",
          "type": "uint256"
        },
        {
          "internalType": "uint256",
          "name": "blockNumber",
          "type": "uint256"
        },
        {
          "internalType": "bytes32",
          "name": "batchId",
          "type": "bytes32"
        },
        {
          "internalType": "bool",
          "name": "claimed",
          "type": "bool"
        },
        {
          "internalType": "uint256",
          "name": "claimedAt",
          "type": "uint256"
        }
      ],
      "stateMutability": "view",
      "type": "function"
    },
    {
      "stateMutability": "payable",
      "type": "receive"
    }
  ],
  "bytecode": "0x608080604052346100265760c8600955612710600a556000600b5561277a908161002c8239f35b600080fdfe608080604052600436101561001d575b50361561001b57600080fd5b005b600090813560e01c90816301ffc9a714611d5a575080630a09d79814611d3c5780630a65fb2114611d1e5780630ce993d714611bb15780631e995e9714611a28578063248a9ca3146119ee57806325141d68146116c15780632913daa0146116a35780632f2ff15d1461165857806336568abe146116105780633f4ba83a146115985780634888a63c1461152b57806352738f3a14610ef25780635c975abb14610ec25780636102571614610ac85780636cdd20e214610e995780636e32e2c414610e3d578063753207c714610dd95780638456cb5914610d7157806390761b3a14610cc557806391d1485414610c6c5780639ee8e19814610c4e578063a217fddf14610c32578063a98ad46c14610c0b578063c801faa114610bae578063cdf568d614610b5d578063d3b9b87614610ac8578063d547741f14610a79578063d54ad2a114610a5b578063d970bf7f146109e6578063dfe6b5d614610900578063e63ab1e9146108c5578063e63ea408146105df578063e67b5b9f14610596578063e6bfbfd81461025e578063efca2eed14610240578063f0bd87cc146102055763f5b541a60361000f573461020257806003193601126102025760206040517f97667070c54ef182b0f5858b034beac1b6f3089aa2d3188bb1e8929f4fa9b9298152f35b80fd5b503461020257806003193601126102025760206040517ffbd454f36a7e1a388bd6fc3ab10d434aa4578f811acbbcf33afb1c697486313c8152f35b50346102025780600319360112610202576020600754604051908152f35b503461020257608036600319011261020257610278611df5565b610280611ddf565b906001600160a01b036044358181169291838203610589576064356001600160401b03928382116105925736602383011215610592578160040135956102c587611e7b565b926102d36040519485611e5a565b87845260209760248986019160051b8301019136831161058e57602401905b828210610571575050507ff0c57e16840df040f15088dc2f81fe391c3923bec73e23a9662efc9c229c6a0097885460ff8160401c16159681169788158061056a575b6001809a149081610560575b159081610557575b506105455767ffffffffffffffff19821689178b55869188610526575b50169081156104ea5785169182156104ac571561046f57916103ed918795949361038d612683565b610395612683565b61039d612683565b6103a5612683565b86600080516020612725833981519152556bffffffffffffffffffffffff60a01b90818d5416178c558654161785556103dd816122f9565b506103e781612387565b50612437565b5087835b610442575b50505050610402578380f35b7fc7f505b2f371ae2175ee4913f4499e1f2633a7b5936321eed1cdaeb6115181d29268ff0000000000000000198154169055604051908152a13880808380f35b815181101561046a57806104628461045b879486611ef2565b51166124e1565b5001836103f1565b6103f6565b60405162461bcd60e51b8152600481018990526015602482015274496e76616c69642061646d696e206164647265737360581b6044820152606490fd5b60405162461bcd60e51b8152600481018a90526016602482015275496e76616c696420514143617264206164647265737360501b6044820152606490fd5b60405162461bcd60e51b8152600481018a90526014602482015273496e76616c69642055534454206164647265737360601b6044820152606490fd5b68ffffffffffffffffff191668010000000000000001178b5538610365565b60405163f92ee8a960e01b8152600490fd5b90501538610348565b303b159150610340565b5087610334565b813587811681036105895781529089019089016102f2565b600080fd5b8b80fd5b8780fd5b50346102025760403660031901126102025760209060ff906040906001600160a01b036105c1611df5565b16815260058452818120602435825284522054166040519015158152f35b5034610202576060366003190112610202576105f9611df5565b610601611ddf565b3360009081527fb7db2dd08fcb62d0c9e08c51941cae53c267786a0b75803fb7960902fc8ef97d6020908152604090912054604480359493929160ff16156108a9576001600160a01b0383811694851561087157861561083c57169283610764575084471061072e578580808088885af13d15610729573d6001600160401b038111610715576040519061069e601f8201601f1916860183611e5a565b815287843d92013e5b156106dc57507f1fcefb8a55f55890575d7a3972108526a056231e1fb145f645053b4b2f7d973e905b6040519485523394a480f35b9072115512081d1c985b9cd9995c8819985a5b1959606a1b6064926040519262461bcd60e51b8452600484015260136024840152820152fd5b634e487b7160e01b88526041600452602488fd5b6106a7565b906f092dce6eaccccd2c6d2cadce8408aa8960831b6064926040519262461bcd60e51b8452600484015260106024840152820152fd5b906040516370a0823160e01b81523060048201528381602481885afa80156108315787918991610800575b50106107c85750906107c3857f1fcefb8a55f55890575d7a3972108526a056231e1fb145f645053b4b2f7d973e938561225a565b6106d0565b827124b739bab33334b1b4b2b73a103a37b5b2b760711b6064926040519262461bcd60e51b8452600484015260126024840152820152fd5b809250858092503d831161082a575b6108198183611e5a565b81010312610589578690513861078f565b503d61080f565b6040513d8a823e3d90fd5b60405162461bcd60e51b815260048101859052600e60248201526d125b9d985b1a5908185b5bdd5b9d60921b81850152606490fd5b60405162461bcd60e51b8152600481018590526011602482015270125b9d985b1a59081c9958da5c1a595b9d607a1b81850152606490fd5b60405163e2517d3f60e01b815233600482015260006024820152fd5b503461020257806003193601126102025760206040517f65d7a28e3265b37a6474929f336521b332c1681b933f6cb9f3376673440d862a8152f35b503461020257806003193601126102025760065460075460085483546040516370a0823160e01b8152306004820152929490602090849060249082906001600160a01b03165afa9081156109da5780916109a4575b61099a93508286111561099e575061096d8286611f48565b915b604051958695869192608093969594919660a084019784526020840152604083015260608201520152565b0390f35b9161096f565b90506020833d6020116109d2575b816109bf60209383611e5a565b810103126105895761099a925190610955565b3d91506109b2565b604051903d90823e3d90fd5b5034610202576020366003190112610202576040906001600160a01b03610a0b611df5565b168152600460205220805461099a6001830154926002810154906004600382015491015491604051958695869192608093969594919660a084019784526020840152604083015260608201520152565b50346102025780600319360112610202576020600854604051908152f35b503461020257604036600319011261020257610ac4600435610a99611ddf565b908084526000805160206126e5833981519152602052610abf60016040862001546121cc565b612600565b5080f35b5034610202576020366003190112610202576004803582526002602081815260409384902080546001820154938201546003830154958301546005840154600685015460079095015489516001600160a01b03909516855295840196909652968201526060810194909452608084019490945260a083019190915260ff909216151560c082015260e081019190915261010090f35b503461020257604036600319011261020257610ba061099a610b89610b80611df5565b60243590611fb5565b604092919251938493604085526040850190611e0b565b908382036020850152611e0b565b50346102025760403660031901126102025760ff6040602092610bcf611df5565b602435908115610bfe575b6001600160a01b031682526005855282822090825284522054604051911615158152f35b6201518042049150610bda565b5034610202578060031936011261020257546040516001600160a01b039091168152602090f35b5034610202578060031936011261020257602090604051908152f35b50346102025780600319360112610202576020600b54604051908152f35b5034610202576040366003190112610202576040610c88611ddf565b9160043581526000805160206126e5833981519152602052209060018060a01b0316600052602052602060ff604060002054166040519015158152f35b503461020257602036600319011261020257600435610ce2612170565b808252600360205260408220805415610d5857600481018054610d0b60ff8260a01c1615611f55565b60ff60a01b1916600160a01b1790554260039190910181905560408051918252600160208301527fc6d44030559a4c821bf1b66b2b9f3869b08e53a304b7a3eb0a263d35846c1e1491a280f35b604051630b615aef60e31b815260048101839052602490fd5b5034610202578060031936011261020257610d8a612114565b610d926121ff565b600080516020612705833981519152600160ff198254161790557f62e78cea01bee320cd4e420270b5ea74000d11b0c9f74754ebdbfc544b05a2586020604051338152a180f35b503461020257602036600319011261020257604060a091600435815260036020522060ff600182015491600281015490600460038201549101549160405194855260208501526040840152600180851b0381166060840152831c1615156080820152f35b5034610202576020366003190112610202576080906040906001600160a01b03610e65611df5565b1681526004602052208054906001810154906003600282015491015491604051938452602084015260408301526060820152f35b50346102025780600319360112610202576001546040516001600160a01b039091168152602090f35b5034610202578060031936011261020257602060ff60008051602061270583398151915254166040519015158152f35b5034610202576080366003190112610202576004356001600160401b03811161152757610f23903690600401611daf565b6024356001600160401b03811161152357610f42903690600401611daf565b91906044356001600160401b03811161151f57610f63903690600401611daf565b610f6b612170565b610f736121ff565b610f7b61222a565b84841480611516575b156114d9576009548085116114bb575083156114a95760643587526003602052610fbb60ff600460408a20015460a01c1615611f55565b869487600a545b8682106113f557505087546040516370a0823160e01b815230600482015290602090829060249082906001600160a01b03165afa9081156113ea5789916113b8575b5086811061139b5750606435885260036020526040882054156112bb575b875b858110611080578861106888886064358452600360205261105e60026040862060018101611053868254611f2b565b905501918254611f2b565b9055600754611f2b565b60075560016000805160206127258339815191525580f35b61109361108e82888b611f38565b611fa1565b61109e828488611f38565b356110aa838688611f38565b35600654916110b883611f06565b600655604051806101008101106001600160401b03610100830111176112a557600760e08f6040906101008501825260018060a01b0389168552856020860152868286015242606086015243608086015260643560a08601528060c086015280838601528781526002602052209260018060a01b038151166bffffffffffffffffffffffff60a01b8554161784556020810151600185015560408101516002850155606081015160038501556080810151600485015560a081015160058501556006840160c0820151151560ff80198354169116179055015191015560018060a01b0384168d52600460205260408d206111b3828254611f2b565b8155600281016111c4838254611f2b565b90556004810154906801000000000000000082101561129157600196959493928f604090611220856004611288968d7fcd32d3db646ea61cfc3dbf9afc369bd2b4b5b1db74437d14c1f2214fc72179b599018282015501611ec4565b81549060031b9089821b91600019901b1916179055898060a01b038816815260056020528181206201518042048252602052208860ff19825416179055604051918291606435978a8060a01b0316954291846040919493926060820195825260208201520152565b0390a401611024565b634e487b7160e01b8f52604160045260248ffd5b634e487b7160e01b600052604160045260246000fd5b6040518060c08101106001600160401b0360c0830111176112a55760c08101604052606435815288600460208301928284526040810183815260608201908482526080830195338752604060a0850196808852606435815260036020522093518455516001840155516002830155516003820155019160018060a01b0390511682549160ff60a01b9051151560a01b16916affffffffffffffffffffff60a81b161717905560405186815285602082015233907fab93290b62dabfb17f4bbcb5c557274f056afe37aa8bbd150127518e6242493d604060643592a3611022565b866044916040519162fae2d560e21b835260048301526024820152fd5b90506020813d6020116113e2575b816113d360209383611e5a565b81010312610589575138611004565b3d91506113c6565b6040513d8b823e3d90fd5b909681611403898589611f38565b35106114a9576001600160a01b0361141f61108e8a8a8d611f38565b168a52600560205260408a206201518042048b5260205260ff60408b2054166114625761145a6001916114538a868a611f38565b3590611f2b565b970190610fc2565b6114a561147361108e8a8a8d611f38565b6040516304264d7960e11b81526001600160a01b03909116600482015262015180420460248201529081906044820190565b0390fd5b60405163162908e360e11b8152600490fd5b846044916040519163f80a484560e01b835260048301526024820152fd5b60405162461bcd60e51b8152602060048201526015602482015274082e4e4c2f240d8cadccee8d040dad2e6dac2e8c6d605b1b6044820152606490fd5b50808514610f84565b8580fd5b8380fd5b5080fd5b503461020257602036600319011261020257604060c091600435815260036020522060ff8154916001810154906002810154600460038301549201549260405195865260208601526040850152606084015260018060a01b038116608084015260a01c16151560a0820152f35b50346102025780600319360112610202576115b1612114565b600080516020612705833981519152805460ff8116156115fe5760ff191690557f5db9ee0a495bf2e6ff9c91a7834c1ba4fdd244a5e8aa4e537bd38aeae4b073aa6020604051338152a180f35b604051638dfc202b60e01b8152600490fd5b50346102025760403660031901126102025761162a611ddf565b336001600160a01b0382160361164657610ac490600435612600565b60405163334bd91960e11b8152600490fd5b503461020257604036600319011261020257610ac4600435611678611ddf565b908084526000805160206126e583398151915260205261169e60016040862001546121cc565b61258b565b50346102025780600319360112610202576020600954604051908152f35b503461020257602080600319360112611527576004356001600160401b0381116119ea576116f3903690600401611daf565b90916116fd6121ff565b61170561222a565b81156119b05783845b8381106118cd575080156118b55784546040516370a0823160e01b81523060048201526001600160a01b039184908290602490829086165afa9081156118aa57879161187d575b50828110611860575081865b85811061182a57506117aa91338852600485526040882060018101611787848254611f2b565b905560028101611798848254611f48565b9055600342910155339088541661225a565b6117b681600854611f2b565b60085560405160608082528101849052916001600160fb1b03841161151f577f697d3da7da7ec4ed03ac7fec85a803d912fe42596a5fed3a732574060565ce919360051b8095608085013782015242604082015260808133948101030190a260016000805160206127258339815191525580f35b60019150611839818789611f38565b3588526002855260408820600681018360ff19825416179055600742910155018290611761565b826044916040519162fae2d560e21b835260048301526024820152fd5b90508381813d83116118a3575b6118948183611e5a565b81010312610589575138611755565b503d61188a565b6040513d89823e3d90fd5b6040516332559a3360e11b8152336004820152602490fd5b906118d9828587611f38565b358652600283526040862080546001600160a01b0316801561198d5733036119555760ff60068201541661191e576001918261191792015490611f2b565b910161170e565b60405162461bcd60e51b815260048101859052600f60248201526e105b1c9958591e4818db185a5b5959608a1b6044820152606490fd5b60405162461bcd60e51b815260048101859052601060248201526f2737ba103932b1b7b9321037bbb732b960811b6044820152606490fd5b602461199a85888a611f38565b604051635dab5c9b60e01b815290356004820152fd5b6064906040519062461bcd60e51b8252600482015260136024820152724e6f207265636f72647320746f20636c61696d60681b6044820152fd5b8280fd5b5034610202576020366003190112610202576001604060209260043581526000805160206126e58339815191528452200154604051908152f35b5034610202578060031936011261020257611a416121ff565b611a4961222a565b3381526020906004602052604081206002906002810154156118b557600401805490611a7482611e92565b9484938592865b858110611b4b5788888880156118b557611a9481611e92565b90825b818110611b2c57505081303b15610202576040516304a283ad60e31b8152602060048201529182908190611acf906024830190611e0b565b038183305af18015611b2157611af6575b5060016000805160206127258339815191525580f35b6001600160401b038111611b0d5760405281611ae0565b634e487b7160e01b82526041600452602482fd5b6040513d84823e3d90fd5b80611b3960019287611ef2565b51611b448286611ef2565b5201611a97565b611b558183611ec4565b90549060031b1c80895283855260408920908a60ff60068401541615611b81575b505050600101611a7b565b611b9f8a6001959993611b99611ba8969d8895611ef2565b52611f06565b99015490611f2b565b9490388a611b76565b503461020257606036600319011261020257600435602435604435917f97667070c54ef182b0f5858b034beac1b6f3089aa2d3188bb1e8929f4fa9b9298085526000805160206126e58339815191526020526040852033865260205260ff60408620541615611d00575080151580611cf4575b15611cba576101f48311611c8657611c807f1d163f48d073c4134cd7aae0987c704ed03803df2a44843466bbc4357d0290bc938260095583600a5580600b55604051938493846040919493926060820195825260208201520152565b0390a180f35b60405162461bcd60e51b815260206004820152600c60248201526b08ccaca40e8dede40d0d2ced60a31b6044820152606490fd5b60405162461bcd60e51b8152602060048201526012602482015271496e76616c69642062617463682073697a6560701b6044820152606490fd5b506103e8811115611c24565b6044906040519063e2517d3f60e01b82523360048301526024820152fd5b50346102025780600319360112610202576020600a54604051908152f35b50346102025780600319360112610202576020600654604051908152f35b9050346115275760203660031901126115275760043563ffffffff60e01b81168091036119ea5760209250637965db0b60e01b8114908115611d9e575b5015158152f35b6301ffc9a760e01b14905038611d97565b9181601f84011215610589578235916001600160401b038311610589576020808501948460051b01011161058957565b602435906001600160a01b038216820361058957565b600435906001600160a01b038216820361058957565b90815180825260208080930193019160005b828110611e2b575050505090565b835185529381019392810192600101611e1d565b602081019081106001600160401b038211176112a557604052565b90601f801991011681019081106001600160401b038211176112a557604052565b6001600160401b0381116112a55760051b60200190565b90611e9c82611e7b565b611ea96040519182611e5a565b8281528092611eba601f1991611e7b565b0190602036910137565b8054821015611edc5760005260206000200190600090565b634e487b7160e01b600052603260045260246000fd5b8051821015611edc5760209160051b010190565b6000198114611f155760010190565b634e487b7160e01b600052601160045260246000fd5b91908201809211611f1557565b9190811015611edc5760051b0190565b91908203918211611f1557565b15611f5c57565b60405162461bcd60e51b815260206004820152601760248201527f426174636820616c726561647920636f6d706c657465640000000000000000006044820152606490fd5b356001600160a01b03811681036105895790565b6001600160a01b0316600090815260046020818152604080842090920180549095909490919084805b8781106120d1575080156120a3578181111561209b5750925b61200084611e92565b9461200a85611e92565b938195825b89811080612092575b1561208557612027818c611ec4565b90549060031b1c80855260028752858520908a60ff60068401541615612059575b50505061205490611f06565b61200f565b61207c928b9261206f612054969d600194611ef2565b520154611b99828b611ef2565b9790388a612048565b5050959750505050925050565b50818810612018565b905092611ff7565b50505092505091506040516120b781611e3f565b828152604051926120c784611e3f565b8084523681379190565b6120db818a611ec4565b90549060031b1c87526002845260ff600687892001541615612100575b600101611fde565b9061210c600191611f06565b9190506120f8565b3360009081527f75442b0a96088b5456bc4ed01394c96a4feec0f883c9494257d76b96ab1c9b6b60205260409020547f65d7a28e3265b37a6474929f336521b332c1681b933f6cb9f3376673440d862a9060ff1615611d005750565b3360009081527fb2ce6f3a0968c56a08b54f4f0d1d0af4871f2c3340441c6ce862aaa53c9d37c760205260409020547ffbd454f36a7e1a388bd6fc3ab10d434aa4578f811acbbcf33afb1c697486313c9060ff1615611d005750565b806000526000805160206126e583398151915260205260406000203360005260205260ff6040600020541615611d005750565b60ff600080516020612705833981519152541661221857565b60405163d93c066560e01b8152600490fd5b60008051602061272583398151915260028154146122485760029055565b604051633ee5aeb560e01b8152600490fd5b60405163a9059cbb60e01b60208083019182526001600160a01b03949094166024830152604480830195909552938152909260009161229a606482611e5a565b519082855af1156122ed576000513d6122e457506001600160a01b0381163b155b6122c25750565b604051635274afe760e01b81526001600160a01b039091166004820152602490fd5b600114156122bb565b6040513d6000823e3d90fd5b6001600160a01b031660008181527fb7db2dd08fcb62d0c9e08c51941cae53c267786a0b75803fb7960902fc8ef97d60205260408120549091906000805160206126e58339815191529060ff16612382578280526020526040822081835260205260408220600160ff1982541617905533916000805160206126c58339815191528180a4600190565b505090565b6001600160a01b031660008181527f75442b0a96088b5456bc4ed01394c96a4feec0f883c9494257d76b96ab1c9b6b60205260408120549091907f65d7a28e3265b37a6474929f336521b332c1681b933f6cb9f3376673440d862a906000805160206126e58339815191529060ff16612431578184526020526040832082845260205260408320600160ff198254161790556000805160206126c5833981519152339380a4600190565b50505090565b6001600160a01b031660008181527f448256db8f8fb95ee3eaaf89c1051414494e85cebb6057fcf996cc3d0ccfb45660205260408120549091907f97667070c54ef182b0f5858b034beac1b6f3089aa2d3188bb1e8929f4fa9b929906000805160206126e58339815191529060ff16612431578184526020526040832082845260205260408320600160ff198254161790556000805160206126c5833981519152339380a4600190565b6001600160a01b031660008181527fb2ce6f3a0968c56a08b54f4f0d1d0af4871f2c3340441c6ce862aaa53c9d37c760205260408120549091907ffbd454f36a7e1a388bd6fc3ab10d434aa4578f811acbbcf33afb1c697486313c906000805160206126e58339815191529060ff16612431578184526020526040832082845260205260408320600160ff198254161790556000805160206126c5833981519152339380a4600190565b906000918083526000805160206126e583398151915280602052604084209260018060a01b03169283855260205260ff60408520541615600014612431578184526020526040832082845260205260408320600160ff198254161790556000805160206126c5833981519152339380a4600190565b906000918083526000805160206126e583398151915280602052604084209260018060a01b03169283855260205260ff60408520541660001461243157818452602052604083208284526020526040832060ff1981541690557ff6391f5c32d9c69d2a47ea670b442974b53935d1edc7fd64eb21e047a839171b339380a4600190565b60ff7ff0c57e16840df040f15088dc2f81fe391c3923bec73e23a9662efc9c229c6a005460401c16156126b257565b604051631afcd79f60e31b8152600490fdfe2f8788117e7eff1d82e926ec794901d17c78024a50270940304540a733656f0d02dd7bc7dec4dceedda775e58dd541e08a116c6c53815c0bd028192f7b626800cd5ed15c6e187e77e9aee88184c21f4f2182ab5827cb3b7e07fbedcd63f033009b779b17422d0df92223018b32b4d1fa46e071723d6817e2486d003becc55f00a264697066735822122064708aa33ab6304da58bd5880bc73030aca4652d075a3cb8b91c9ed0997c53b064736f6c63430008180033",
  "linkReferences": {},
  "deployedLinkReferences": {}
}